{
  "contractName": "CErc20",
  "abi": [
    {
      "anonymous": false,
      "inputs": [
        {
          "indexed": false,
          "internalType": "uint256",
          "name": "cashPrior",
          "type": "uint256"
        },
        {
          "indexed": false,
          "internalType": "uint256",
          "name": "interestAccumulated",
          "type": "uint256"
        },
        {
          "indexed": false,
          "internalType": "uint256",
          "name": "borrowIndex",
          "type": "uint256"
        },
        {
          "indexed": false,
          "internalType": "uint256",
          "name": "totalBorrows",
          "type": "uint256"
        }
      ],
      "name": "AccrueInterest",
      "type": "event"
    },
    {
      "anonymous": false,
      "inputs": [
        {
          "indexed": true,
          "internalType": "address",
          "name": "owner",
          "type": "address"
        },
        {
          "indexed": true,
          "internalType": "address",
          "name": "spender",
          "type": "address"
        },
        {
          "indexed": false,
          "internalType": "uint256",
          "name": "amount",
          "type": "uint256"
        }
      ],
      "name": "Approval",
      "type": "event"
    },
    {
      "anonymous": false,
      "inputs": [
        {
          "indexed": false,
          "internalType": "address",
          "name": "borrower",
          "type": "address"
        },
        {
          "indexed": false,
          "internalType": "uint256",
          "name": "borrowAmount",
          "type": "uint256"
        },
        {
          "indexed": false,
          "internalType": "uint256",
          "name": "accountBorrows",
          "type": "uint256"
        },
        {
          "indexed": false,
          "internalType": "uint256",
          "name": "totalBorrows",
          "type": "uint256"
        },
        {
          "indexed": false,
          "internalType": "uint256",
          "name": "borrowIndex",
          "type": "uint256"
        }
      ],
      "name": "Borrow",
      "type": "event"
    },
    {
      "anonymous": false,
      "inputs": [
        {
          "indexed": false,
          "internalType": "uint256",
          "name": "error",
          "type": "uint256"
        },
        {
          "indexed": false,
          "internalType": "uint256",
          "name": "info",
          "type": "uint256"
        },
        {
          "indexed": false,
          "internalType": "uint256",
          "name": "detail",
          "type": "uint256"
        }
      ],
      "name": "Failure",
      "type": "event"
    },
    {
      "anonymous": false,
      "inputs": [
        {
          "indexed": false,
          "internalType": "address",
          "name": "liquidator",
          "type": "address"
        },
        {
          "indexed": false,
          "internalType": "address",
          "name": "borrower",
          "type": "address"
        },
        {
          "indexed": false,
          "internalType": "uint256",
          "name": "repayAmount",
          "type": "uint256"
        },
        {
          "indexed": false,
          "internalType": "address",
          "name": "cTokenCollateral",
          "type": "address"
        },
        {
          "indexed": false,
          "internalType": "uint256",
          "name": "seizeTokens",
          "type": "uint256"
        }
      ],
      "name": "LiquidateBorrow",
      "type": "event"
    },
    {
      "anonymous": false,
      "inputs": [
        {
          "indexed": false,
          "internalType": "address",
          "name": "minter",
          "type": "address"
        },
        {
          "indexed": false,
          "internalType": "uint256",
          "name": "mintAmount",
          "type": "uint256"
        },
        {
          "indexed": false,
          "internalType": "uint256",
          "name": "mintTokens",
          "type": "uint256"
        }
      ],
      "name": "Mint",
      "type": "event"
    },
    {
      "anonymous": false,
      "inputs": [
        {
          "indexed": false,
          "internalType": "address",
          "name": "oldAdmin",
          "type": "address"
        },
        {
          "indexed": false,
          "internalType": "address",
          "name": "newAdmin",
          "type": "address"
        }
      ],
      "name": "NewAdmin",
      "type": "event"
    },
    {
      "anonymous": false,
      "inputs": [
        {
          "indexed": false,
          "internalType": "contract ComptrollerInterface",
          "name": "oldComptroller",
          "type": "address"
        },
        {
          "indexed": false,
          "internalType": "contract ComptrollerInterface",
          "name": "newComptroller",
          "type": "address"
        }
      ],
      "name": "NewComptroller",
      "type": "event"
    },
    {
      "anonymous": false,
      "inputs": [
        {
          "indexed": false,
          "internalType": "contract InterestRateModel",
          "name": "oldInterestRateModel",
          "type": "address"
        },
        {
          "indexed": false,
          "internalType": "contract InterestRateModel",
          "name": "newInterestRateModel",
          "type": "address"
        }
      ],
      "name": "NewMarketInterestRateModel",
      "type": "event"
    },
    {
      "anonymous": false,
      "inputs": [
        {
          "indexed": false,
          "internalType": "address",
          "name": "oldPendingAdmin",
          "type": "address"
        },
        {
          "indexed": false,
          "internalType": "address",
          "name": "newPendingAdmin",
          "type": "address"
        }
      ],
      "name": "NewPendingAdmin",
      "type": "event"
    },
    {
      "anonymous": false,
      "inputs": [
        {
          "indexed": false,
          "internalType": "address",
          "name": "oldAdmin",
          "type": "address"
        },
        {
          "indexed": false,
          "internalType": "address",
          "name": "newAdmin",
          "type": "address"
        }
      ],
      "name": "NewReserveAdmin",
      "type": "event"
    },
    {
      "anonymous": false,
      "inputs": [
        {
          "indexed": false,
          "internalType": "uint256",
          "name": "oldReserveFactorMantissa",
          "type": "uint256"
        },
        {
          "indexed": false,
          "internalType": "uint256",
          "name": "newReserveFactorMantissa",
          "type": "uint256"
        }
      ],
      "name": "NewReserveFactor",
      "type": "event"
    },
    {
      "anonymous": false,
      "inputs": [
        {
          "indexed": false,
          "internalType": "address",
          "name": "redeemer",
          "type": "address"
        },
        {
          "indexed": false,
          "internalType": "uint256",
          "name": "redeemAmount",
          "type": "uint256"
        },
        {
          "indexed": false,
          "internalType": "uint256",
          "name": "redeemTokens",
          "type": "uint256"
        }
      ],
      "name": "Redeem",
      "type": "event"
    },
    {
      "anonymous": false,
      "inputs": [
        {
          "indexed": false,
          "internalType": "address",
          "name": "payer",
          "type": "address"
        },
        {
          "indexed": false,
          "internalType": "address",
          "name": "borrower",
          "type": "address"
        },
        {
          "indexed": false,
          "internalType": "uint256",
          "name": "repayAmount",
          "type": "uint256"
        },
        {
          "indexed": false,
          "internalType": "uint256",
          "name": "accountBorrows",
          "type": "uint256"
        },
        {
          "indexed": false,
          "internalType": "uint256",
          "name": "totalBorrows",
          "type": "uint256"
        },
        {
          "indexed": false,
          "internalType": "uint256",
          "name": "borrowIndex",
          "type": "uint256"
        }
      ],
      "name": "RepayBorrow",
      "type": "event"
    },
    {
      "anonymous": false,
      "inputs": [
        {
          "indexed": false,
          "internalType": "address",
          "name": "benefactor",
          "type": "address"
        },
        {
          "indexed": false,
          "internalType": "uint256",
          "name": "addAmount",
          "type": "uint256"
        },
        {
          "indexed": false,
          "internalType": "uint256",
          "name": "newTotalReserves",
          "type": "uint256"
        }
      ],
      "name": "ReservesAdded",
      "type": "event"
    },
    {
      "anonymous": false,
      "inputs": [
        {
          "indexed": false,
          "internalType": "address",
          "name": "admin",
          "type": "address"
        },
        {
          "indexed": false,
          "internalType": "uint256",
          "name": "reduceAmount",
          "type": "uint256"
        },
        {
          "indexed": false,
          "internalType": "uint256",
          "name": "newTotalReserves",
          "type": "uint256"
        }
      ],
      "name": "ReservesReduced",
      "type": "event"
    },
    {
      "anonymous": false,
      "inputs": [
        {
          "indexed": true,
          "internalType": "address",
          "name": "from",
          "type": "address"
        },
        {
          "indexed": true,
          "internalType": "address",
          "name": "to",
          "type": "address"
        },
        {
          "indexed": false,
          "internalType": "uint256",
          "name": "amount",
          "type": "uint256"
        }
      ],
      "name": "Transfer",
      "type": "event"
    },
    {
      "anonymous": false,
      "inputs": [
        {
          "indexed": false,
          "internalType": "address",
          "name": "user",
          "type": "address"
        },
        {
          "indexed": false,
          "internalType": "uint256",
          "name": "utoken_balance",
          "type": "uint256"
        }
      ],
      "name": "UTokenBalance",
      "type": "event"
    },
    {
      "anonymous": false,
      "inputs": [
        {
          "indexed": false,
          "internalType": "uint256",
          "name": "totalCash",
          "type": "uint256"
        },
        {
          "indexed": false,
          "internalType": "uint256",
          "name": "totalBorrow",
          "type": "uint256"
        },
        {
          "indexed": false,
          "internalType": "uint256",
          "name": "totalReserve",
          "type": "uint256"
        },
        {
          "indexed": false,
          "internalType": "uint256",
          "name": "totalSupply",
          "type": "uint256"
        },
        {
          "indexed": false,
          "internalType": "uint256",
          "name": "borrowRatePerBlock",
          "type": "uint256"
        },
        {
          "indexed": false,
          "internalType": "uint256",
          "name": "borrowIndex",
          "type": "uint256"
        },
        {
          "indexed": false,
          "internalType": "uint256",
          "name": "reserveFactorMantissa",
          "type": "uint256"
        }
      ],
      "name": "UTokenStatus",
      "type": "event"
    },
    {
      "constant": false,
      "inputs": [],
      "name": "_acceptAdmin",
      "outputs": [
        {
          "internalType": "uint256",
          "name": "",
          "type": "uint256"
        }
      ],
      "payable": false,
      "stateMutability": "nonpayable",
      "type": "function"
    },
    {
      "constant": false,
      "inputs": [
        {
          "internalType": "uint256",
          "name": "reduceAmount",
          "type": "uint256"
        }
      ],
      "name": "_reduceReserves",
      "outputs": [
        {
          "internalType": "uint256",
          "name": "",
          "type": "uint256"
        }
      ],
      "payable": false,
      "stateMutability": "nonpayable",
      "type": "function"
    },
    {
      "constant": false,
      "inputs": [
        {
          "internalType": "contract ComptrollerInterface",
          "name": "newComptroller",
          "type": "address"
        }
      ],
      "name": "_setComptroller",
      "outputs": [
        {
          "internalType": "uint256",
          "name": "",
          "type": "uint256"
        }
      ],
      "payable": false,
      "stateMutability": "nonpayable",
      "type": "function"
    },
    {
      "constant": false,
      "inputs": [
        {
          "internalType": "contract InterestRateModel",
          "name": "newInterestRateModel",
          "type": "address"
        }
      ],
      "name": "_setInterestRateModel",
      "outputs": [
        {
          "internalType": "uint256",
          "name": "",
          "type": "uint256"
        }
      ],
      "payable": false,
      "stateMutability": "nonpayable",
      "type": "function"
    },
    {
      "constant": false,
      "inputs": [
        {
          "internalType": "address payable",
          "name": "newPendingAdmin",
          "type": "address"
        }
      ],
      "name": "_setPendingAdmin",
      "outputs": [
        {
          "internalType": "uint256",
          "name": "",
          "type": "uint256"
        }
      ],
      "payable": false,
      "stateMutability": "nonpayable",
      "type": "function"
    },
    {
      "constant": false,
      "inputs": [
        {
          "internalType": "address payable",
          "name": "newReserveAdmin",
          "type": "address"
        }
      ],
      "name": "_setReserveAdmin",
      "outputs": [
        {
          "internalType": "uint256",
          "name": "",
          "type": "uint256"
        }
      ],
      "payable": false,
      "stateMutability": "nonpayable",
      "type": "function"
    },
    {
      "constant": false,
      "inputs": [
        {
          "internalType": "uint256",
          "name": "newReserveFactorMantissa",
          "type": "uint256"
        }
      ],
      "name": "_setReserveFactor",
      "outputs": [
        {
          "internalType": "uint256",
          "name": "",
          "type": "uint256"
        }
      ],
      "payable": false,
      "stateMutability": "nonpayable",
      "type": "function"
    },
    {
      "constant": true,
      "inputs": [],
      "name": "accrualBlockNumber",
      "outputs": [
        {
          "internalType": "uint256",
          "name": "",
          "type": "uint256"
        }
      ],
      "payable": false,
      "stateMutability": "view",
      "type": "function"
    },
    {
      "constant": false,
      "inputs": [],
      "name": "accrueInterest",
      "outputs": [
        {
          "internalType": "uint256",
          "name": "",
          "type": "uint256"
        }
      ],
      "payable": false,
      "stateMutability": "nonpayable",
      "type": "function"
    },
    {
      "constant": true,
      "inputs": [],
      "name": "admin",
      "outputs": [
        {
          "internalType": "address payable",
          "name": "",
          "type": "address"
        }
      ],
      "payable": false,
      "stateMutability": "view",
      "type": "function"
    },
    {
      "constant": true,
      "inputs": [
        {
          "internalType": "address",
          "name": "owner",
          "type": "address"
        },
        {
          "internalType": "address",
          "name": "spender",
          "type": "address"
        }
      ],
      "name": "allowance",
      "outputs": [
        {
          "internalType": "uint256",
          "name": "",
          "type": "uint256"
        }
      ],
      "payable": false,
      "stateMutability": "view",
      "type": "function"
    },
    {
      "constant": false,
      "inputs": [
        {
          "internalType": "address",
          "name": "spender",
          "type": "address"
        },
        {
          "internalType": "uint256",
          "name": "amount",
          "type": "uint256"
        }
      ],
      "name": "approve",
      "outputs": [
        {
          "internalType": "bool",
          "name": "",
          "type": "bool"
        }
      ],
      "payable": false,
      "stateMutability": "nonpayable",
      "type": "function"
    },
    {
      "constant": true,
      "inputs": [
        {
          "internalType": "address",
          "name": "owner",
          "type": "address"
        }
      ],
      "name": "balanceOf",
      "outputs": [
        {
          "internalType": "uint256",
          "name": "",
          "type": "uint256"
        }
      ],
      "payable": false,
      "stateMutability": "view",
      "type": "function"
    },
    {
      "constant": false,
      "inputs": [
        {
          "internalType": "address",
          "name": "owner",
          "type": "address"
        }
      ],
      "name": "balanceOfUnderlying",
      "outputs": [
        {
          "internalType": "uint256",
          "name": "",
          "type": "uint256"
        }
      ],
      "payable": false,
      "stateMutability": "nonpayable",
      "type": "function"
    },
    {
      "constant": false,
      "inputs": [
        {
          "internalType": "address",
          "name": "account",
          "type": "address"
        }
      ],
      "name": "borrowBalanceCurrent",
      "outputs": [
        {
          "internalType": "uint256",
          "name": "",
          "type": "uint256"
        }
      ],
      "payable": false,
      "stateMutability": "nonpayable",
      "type": "function"
    },
    {
      "constant": true,
      "inputs": [
        {
          "internalType": "address",
          "name": "account",
          "type": "address"
        }
      ],
      "name": "borrowBalanceStored",
      "outputs": [
        {
          "internalType": "uint256",
          "name": "",
          "type": "uint256"
        }
      ],
      "payable": false,
      "stateMutability": "view",
      "type": "function"
    },
    {
      "constant": true,
      "inputs": [],
      "name": "borrowIndex",
      "outputs": [
        {
          "internalType": "uint256",
          "name": "",
          "type": "uint256"
        }
      ],
      "payable": false,
      "stateMutability": "view",
      "type": "function"
    },
    {
      "constant": true,
      "inputs": [],
      "name": "borrowRatePerBlock",
      "outputs": [
        {
          "internalType": "uint256",
          "name": "",
          "type": "uint256"
        }
      ],
      "payable": false,
      "stateMutability": "view",
      "type": "function"
    },
    {
      "constant": true,
      "inputs": [],
      "name": "comptroller",
      "outputs": [
        {
          "internalType": "contract ComptrollerInterface",
          "name": "",
          "type": "address"
        }
      ],
      "payable": false,
      "stateMutability": "view",
      "type": "function"
    },
    {
      "constant": true,
      "inputs": [],
      "name": "decimals",
      "outputs": [
        {
          "internalType": "uint8",
          "name": "",
          "type": "uint8"
        }
      ],
      "payable": false,
      "stateMutability": "view",
      "type": "function"
    },
    {
      "constant": false,
      "inputs": [],
      "name": "exchangeRateCurrent",
      "outputs": [
        {
          "internalType": "uint256",
          "name": "",
          "type": "uint256"
        }
      ],
      "payable": false,
      "stateMutability": "nonpayable",
      "type": "function"
    },
    {
      "constant": true,
      "inputs": [],
      "name": "exchangeRateStored",
      "outputs": [
        {
          "internalType": "uint256",
          "name": "",
          "type": "uint256"
        }
      ],
      "payable": false,
      "stateMutability": "view",
      "type": "function"
    },
    {
      "constant": true,
      "inputs": [
        {
          "internalType": "address",
          "name": "account",
          "type": "address"
        }
      ],
      "name": "getAccountSnapshot",
      "outputs": [
        {
          "internalType": "uint256",
          "name": "",
          "type": "uint256"
        },
        {
          "internalType": "uint256",
          "name": "",
          "type": "uint256"
        },
        {
          "internalType": "uint256",
          "name": "",
          "type": "uint256"
        },
        {
          "internalType": "uint256",
          "name": "",
          "type": "uint256"
        }
      ],
      "payable": false,
      "stateMutability": "view",
      "type": "function"
    },
    {
      "constant": true,
      "inputs": [],
      "name": "getCash",
      "outputs": [
        {
          "internalType": "uint256",
          "name": "",
          "type": "uint256"
        }
      ],
      "payable": false,
      "stateMutability": "view",
      "type": "function"
    },
    {
      "constant": true,
      "inputs": [],
      "name": "interestRateModel",
      "outputs": [
        {
          "internalType": "contract InterestRateModel",
          "name": "",
          "type": "address"
        }
      ],
      "payable": false,
      "stateMutability": "view",
      "type": "function"
    },
    {
      "constant": true,
      "inputs": [],
      "name": "isCToken",
      "outputs": [
        {
          "internalType": "bool",
          "name": "",
          "type": "bool"
        }
      ],
      "payable": false,
      "stateMutability": "view",
      "type": "function"
    },
    {
      "constant": true,
      "inputs": [],
      "name": "name",
      "outputs": [
        {
          "internalType": "string",
          "name": "",
          "type": "string"
        }
      ],
      "payable": false,
      "stateMutability": "view",
      "type": "function"
    },
    {
      "constant": true,
      "inputs": [],
      "name": "pendingAdmin",
      "outputs": [
        {
          "internalType": "address payable",
          "name": "",
          "type": "address"
        }
      ],
      "payable": false,
      "stateMutability": "view",
      "type": "function"
    },
    {
      "constant": true,
      "inputs": [],
      "name": "reserveAdmin",
      "outputs": [
        {
          "internalType": "address payable",
          "name": "",
          "type": "address"
        }
      ],
      "payable": false,
      "stateMutability": "view",
      "type": "function"
    },
    {
      "constant": true,
      "inputs": [],
      "name": "reserveFactorMantissa",
      "outputs": [
        {
          "internalType": "uint256",
          "name": "",
          "type": "uint256"
        }
      ],
      "payable": false,
      "stateMutability": "view",
      "type": "function"
    },
    {
      "constant": false,
      "inputs": [
        {
          "internalType": "address",
          "name": "liquidator",
          "type": "address"
        },
        {
          "internalType": "address",
          "name": "borrower",
          "type": "address"
        },
        {
          "internalType": "uint256",
          "name": "seizeTokens",
          "type": "uint256"
        }
      ],
      "name": "seize",
      "outputs": [
        {
          "internalType": "uint256",
          "name": "",
          "type": "uint256"
        }
      ],
      "payable": false,
      "stateMutability": "nonpayable",
      "type": "function"
    },
    {
      "constant": true,
      "inputs": [],
      "name": "supplyRatePerBlock",
      "outputs": [
        {
          "internalType": "uint256",
          "name": "",
          "type": "uint256"
        }
      ],
      "payable": false,
      "stateMutability": "view",
      "type": "function"
    },
    {
      "constant": true,
      "inputs": [],
      "name": "symbol",
      "outputs": [
        {
          "internalType": "string",
          "name": "",
          "type": "string"
        }
      ],
      "payable": false,
      "stateMutability": "view",
      "type": "function"
    },
    {
      "constant": true,
      "inputs": [],
      "name": "totalBorrows",
      "outputs": [
        {
          "internalType": "uint256",
          "name": "",
          "type": "uint256"
        }
      ],
      "payable": false,
      "stateMutability": "view",
      "type": "function"
    },
    {
      "constant": false,
      "inputs": [],
      "name": "totalBorrowsCurrent",
      "outputs": [
        {
          "internalType": "uint256",
          "name": "",
          "type": "uint256"
        }
      ],
      "payable": false,
      "stateMutability": "nonpayable",
      "type": "function"
    },
    {
      "constant": true,
      "inputs": [],
      "name": "totalReserves",
      "outputs": [
        {
          "internalType": "uint256",
          "name": "",
          "type": "uint256"
        }
      ],
      "payable": false,
      "stateMutability": "view",
      "type": "function"
    },
    {
      "constant": true,
      "inputs": [],
      "name": "totalSupply",
      "outputs": [
        {
          "internalType": "uint256",
          "name": "",
          "type": "uint256"
        }
      ],
      "payable": false,
      "stateMutability": "view",
      "type": "function"
    },
    {
      "constant": false,
      "inputs": [
        {
          "internalType": "address",
          "name": "dst",
          "type": "address"
        },
        {
          "internalType": "uint256",
          "name": "amount",
          "type": "uint256"
        }
      ],
      "name": "transfer",
      "outputs": [
        {
          "internalType": "bool",
          "name": "",
          "type": "bool"
        }
      ],
      "payable": false,
      "stateMutability": "nonpayable",
      "type": "function"
    },
    {
      "constant": false,
      "inputs": [
        {
          "internalType": "address",
          "name": "src",
          "type": "address"
        },
        {
          "internalType": "address",
          "name": "dst",
          "type": "address"
        },
        {
          "internalType": "uint256",
          "name": "amount",
          "type": "uint256"
        }
      ],
      "name": "transferFrom",
      "outputs": [
        {
          "internalType": "bool",
          "name": "",
          "type": "bool"
        }
      ],
      "payable": false,
      "stateMutability": "nonpayable",
      "type": "function"
    },
    {
      "constant": true,
      "inputs": [],
      "name": "underlying",
      "outputs": [
        {
          "internalType": "address",
          "name": "",
          "type": "address"
        }
      ],
      "payable": false,
      "stateMutability": "view",
      "type": "function"
    },
    {
      "constant": false,
      "inputs": [
        {
          "internalType": "contract ComptrollerInterface",
          "name": "comptroller_",
          "type": "address"
        },
        {
          "internalType": "contract InterestRateModel",
          "name": "interestRateModel_",
          "type": "address"
        },
        {
          "internalType": "uint256",
          "name": "initialExchangeRateMantissa_",
          "type": "uint256"
        },
        {
          "internalType": "string",
          "name": "name_",
          "type": "string"
        },
        {
          "internalType": "string",
          "name": "symbol_",
          "type": "string"
        },
        {
          "internalType": "uint8",
          "name": "decimals_",
          "type": "uint8"
        },
        {
          "internalType": "uint256",
          "name": "newReserveFactorMantissa_",
          "type": "uint256"
        }
      ],
      "name": "initialize",
      "outputs": [],
      "payable": false,
      "stateMutability": "nonpayable",
      "type": "function"
    },
    {
      "constant": false,
      "inputs": [
        {
          "internalType": "address",
          "name": "underlying_",
          "type": "address"
        },
        {
          "internalType": "contract ComptrollerInterface",
          "name": "comptroller_",
          "type": "address"
        },
        {
          "internalType": "contract InterestRateModel",
          "name": "interestRateModel_",
          "type": "address"
        },
        {
          "internalType": "uint256",
          "name": "initialExchangeRateMantissa_",
          "type": "uint256"
        },
        {
          "internalType": "string",
          "name": "name_",
          "type": "string"
        },
        {
          "internalType": "string",
          "name": "symbol_",
          "type": "string"
        },
        {
          "internalType": "uint8",
          "name": "decimals_",
          "type": "uint8"
        },
        {
          "internalType": "uint256",
          "name": "newReserveFactorMantissa_",
          "type": "uint256"
        }
      ],
      "name": "initialize",
      "outputs": [],
      "payable": false,
      "stateMutability": "nonpayable",
      "type": "function"
    },
    {
      "constant": false,
      "inputs": [
        {
          "internalType": "uint256",
          "name": "mintAmount",
          "type": "uint256"
        }
      ],
      "name": "mint",
      "outputs": [
        {
          "internalType": "uint256",
          "name": "",
          "type": "uint256"
        }
      ],
      "payable": false,
      "stateMutability": "nonpayable",
      "type": "function"
    },
    {
      "constant": false,
      "inputs": [
        {
          "internalType": "uint256",
          "name": "redeemTokens",
          "type": "uint256"
        }
      ],
      "name": "redeem",
      "outputs": [
        {
          "internalType": "uint256",
          "name": "",
          "type": "uint256"
        }
      ],
      "payable": false,
      "stateMutability": "nonpayable",
      "type": "function"
    },
    {
      "constant": false,
      "inputs": [
        {
          "internalType": "uint256",
          "name": "redeemAmount",
          "type": "uint256"
        }
      ],
      "name": "redeemUnderlying",
      "outputs": [
        {
          "internalType": "uint256",
          "name": "",
          "type": "uint256"
        }
      ],
      "payable": false,
      "stateMutability": "nonpayable",
      "type": "function"
    },
    {
      "constant": false,
      "inputs": [
        {
          "internalType": "uint256",
          "name": "borrowAmount",
          "type": "uint256"
        }
      ],
      "name": "borrow",
      "outputs": [
        {
          "internalType": "uint256",
          "name": "",
          "type": "uint256"
        }
      ],
      "payable": false,
      "stateMutability": "nonpayable",
      "type": "function"
    },
    {
      "constant": false,
      "inputs": [
        {
          "internalType": "uint256",
          "name": "repayAmount",
          "type": "uint256"
        }
      ],
      "name": "repayBorrow",
      "outputs": [
        {
          "internalType": "uint256",
          "name": "",
          "type": "uint256"
        }
      ],
      "payable": false,
      "stateMutability": "nonpayable",
      "type": "function"
    },
    {
      "constant": false,
      "inputs": [
        {
          "internalType": "address",
          "name": "borrower",
          "type": "address"
        },
        {
          "internalType": "uint256",
          "name": "repayAmount",
          "type": "uint256"
        }
      ],
      "name": "repayBorrowBehalf",
      "outputs": [
        {
          "internalType": "uint256",
          "name": "",
          "type": "uint256"
        }
      ],
      "payable": false,
      "stateMutability": "nonpayable",
      "type": "function"
    },
    {
      "constant": false,
      "inputs": [
        {
          "internalType": "address",
          "name": "borrower",
          "type": "address"
        },
        {
          "internalType": "uint256",
          "name": "repayAmount",
          "type": "uint256"
        },
        {
          "internalType": "contract CTokenInterface",
          "name": "cTokenCollateral",
          "type": "address"
        }
      ],
      "name": "liquidateBorrow",
      "outputs": [
        {
          "internalType": "uint256",
          "name": "",
          "type": "uint256"
        }
      ],
      "payable": false,
      "stateMutability": "nonpayable",
      "type": "function"
    },
    {
      "constant": false,
      "inputs": [
        {
          "internalType": "uint256",
          "name": "addAmount",
          "type": "uint256"
        }
      ],
      "name": "_addReserves",
      "outputs": [
        {
          "internalType": "uint256",
          "name": "",
          "type": "uint256"
        }
      ],
      "payable": false,
      "stateMutability": "nonpayable",
      "type": "function"
    }
  ],
  "bytecode": "0x608060405234801561001057600080fd5b5061575080620000216000396000f3fe608060405234801561001057600080fd5b50600436106103365760003560e01c80638f840ddd116101b2578063c37f68e2116100f9578063f3fdb15a116100a2578063f851a4401161007c578063f851a44014610b00578063f8f9da2814610b08578063fca7820b14610b10578063fe9c44ae14610b2d57610336565b8063f3fdb15a14610aba578063f52b84a514610ac2578063f5e3c46214610aca57610336565b8063dd62ed3e116100d3578063dd62ed3e14610a5e578063e9c714f214610a8c578063f2b3abbd14610a9457610336565b8063c37f68e2146109d8578063c5ebeaec14610a24578063db006a7514610a4157610336565b8063a9059cbb1161015b578063b2a02ff111610135578063b2a02ff114610974578063b71d1a0c146109aa578063bd6d894d146109d057610336565b8063a9059cbb14610938578063aa5af0fd14610964578063ae9d70b01461096c57610336565b80639af6702e1161018c5780639af6702e146107b5578063a0712d6814610913578063a6afed951461093057610336565b80638f840ddd1461077f57806395d89b411461078757806395dd91931461078f57610336565b80633af9e669116102815780635fe3b5671161022a5780636f307dc3116102045780636f307dc31461072c57806370a082311461073457806373acee981461075a578063852a12e31461076257610336565b80635fe3b567146106ff578063601a0bf1146107075780636c540baf1461072457610336565b80633e9410101161025b5780633e941010146106b45780634576b5db146106d157806347bd3718146106f757610336565b80633af9e6691461052f5780633b1d21a2146105555780633d5d1d991461055d57610336565b806318160ddd116102e35780632608f818116102bd5780632608f818146104c157806326782247146104ed578063313ce5671461051157610336565b806318160ddd1461047b578063182df0f51461048357806323b872dd1461048b57610336565b80630e752702116103145780630e75270214610430578063173b99041461044d57806317bfdfbc1461045557610336565b806306fdde031461033b5780630764074a146103b8578063095ea7b3146103f0575b600080fd5b610343610b35565b6040805160208082528351818301528351919283929083019185019080838360005b8381101561037d578181015183820152602001610365565b50505050905090810190601f1680156103aa5780820380516001836020036101000a031916815260200191505b509250505060405180910390f35b6103de600480360360208110156103ce57600080fd5b50356001600160a01b0316610bc2565b60408051918252519081900360200190f35b61041c6004803603604081101561040657600080fd5b506001600160a01b038135169060200135610c72565b604080519115158252519081900360200190f35b6103de6004803603602081101561044657600080fd5b5035610cdf565b6103de610cf3565b6103de6004803603602081101561046b57600080fd5b50356001600160a01b0316610cf9565b6103de610dc0565b6103de610dc6565b61041c600480360360608110156104a157600080fd5b506001600160a01b03813581169160208101359091169060400135610e29565b6103de600480360360408110156104d757600080fd5b506001600160a01b038135169060200135610e9b565b6104f5610eb1565b604080516001600160a01b039092168252519081900360200190f35b610519610ec0565b6040805160ff9092168252519081900360200190f35b6103de6004803603602081101561054557600080fd5b50356001600160a01b0316610ec9565b6103de610f7f565b6106b2600480360360e081101561057357600080fd5b6001600160a01b038235811692602081013590911691604082013591908101906080810160608201356401000000008111156105ae57600080fd5b8201836020820111156105c057600080fd5b803590602001918460018302840111640100000000831117156105e257600080fd5b91908080601f016020809104026020016040519081016040528093929190818152602001838380828437600092019190915250929594936020810193503591505064010000000081111561063557600080fd5b82018360208201111561064757600080fd5b8035906020019184600183028401116401000000008311171561066957600080fd5b91908080601f0160208091040260200160405190810160405280939291908181526020018383808284376000920191909152509295505060ff8335169350505060200135610f8e565b005b6103de600480360360208110156106ca57600080fd5b503561117b565b6103de600480360360208110156106e757600080fd5b50356001600160a01b0316611186565b6103de611302565b6104f5611308565b6103de6004803603602081101561071d57600080fd5b5035611317565b6103de6113b2565b6104f56113b8565b6103de6004803603602081101561074a57600080fd5b50356001600160a01b03166113c7565b6103de6113e2565b6103de6004803603602081101561077857600080fd5b503561149f565b6103de6114aa565b6103436114b0565b6103de600480360360208110156107a557600080fd5b50356001600160a01b0316611508565b6106b260048036036101008110156107cc57600080fd5b6001600160a01b03823581169260208101358216926040820135909216916060820135919081019060a08101608082013564010000000081111561080f57600080fd5b82018360208201111561082157600080fd5b8035906020019184600183028401116401000000008311171561084357600080fd5b91908080601f016020809104026020016040519081016040528093929190818152602001838380828437600092019190915250929594936020810193503591505064010000000081111561089657600080fd5b8201836020820111156108a857600080fd5b803590602001918460018302840111640100000000831117156108ca57600080fd5b91908080601f0160208091040260200160405190810160405280939291908181526020018383808284376000920191909152509295505060ff8335169350505060200135611565565b6103de6004803603602081101561092957600080fd5b5035611637565b6103de611643565b61041c6004803603604081101561094e57600080fd5b506001600160a01b0381351690602001356119b4565b6103de611a25565b6103de611a2b565b6103de6004803603606081101561098a57600080fd5b506001600160a01b03813581169160208101359091169060400135611aca565b6103de600480360360208110156109c057600080fd5b50356001600160a01b0316611b3b565b6103de611bdf565b6109fe600480360360208110156109ee57600080fd5b50356001600160a01b0316611ca2565b604080519485526020850193909352838301919091526060830152519081900360800190f35b6103de60048036036020811015610a3a57600080fd5b5035611d37565b6103de60048036036020811015610a5757600080fd5b5035611d42565b6103de60048036036040811015610a7457600080fd5b506001600160a01b0381358116916020013516611d4d565b6103de611d78565b6103de60048036036020811015610aaa57600080fd5b50356001600160a01b0316611eaa565b6104f5611ee4565b6104f5611ef3565b6103de60048036036060811015610ae057600080fd5b506001600160a01b03813581169160208101359160409091013516611f02565b6104f5611f1c565b6103de611f30565b6103de60048036036020811015610b2657600080fd5b5035611f94565b61041c612012565b60018054604080516020600284861615610100026000190190941693909304601f81018490048402820184019092528181529291830182828015610bba5780601f10610b8f57610100808354040283529160200191610bba565b820191906000526020600020905b815481529060010190602001808311610b9d57829003601f168201915b505050505081565b60035460009061010090046001600160a01b03163314610bef57610be860016045612017565b9050610c6d565b600480546001600160a01b038481167fffffffffffffffffffffffff0000000000000000000000000000000000000000831681179093556040805191909216808252602082019390935281517f6b05e4710a05e41140c8589bc8113d9a357a2202e233f6c599bc07971cc1b9c4929181900390910190a160005b9150505b919050565b3360008181526010602090815260408083206001600160a01b03871680855290835281842086905581518681529151939493909284927f8c5be1e5ebec7d5bd14f71427d1e84f3dd0314c0f7b2291e5b200ac8c7c3b925929081900390910190a360019150505b92915050565b600080610ceb8361207d565b509392505050565b60095481565b6000805460ff16610d3e576040805162461bcd60e51b815260206004820152600a6024820152691c994b595b9d195c995960b21b604482015290519081900360640190fd5b6000805460ff19168155610d50611643565b14610da2576040805162461bcd60e51b815260206004820152601660248201527f61636372756520696e746572657374206661696c656400000000000000000000604482015290519081900360640190fd5b610dab82611508565b90505b6000805460ff19166001179055919050565b600e5481565b6000806000610dd3612126565b90925090506000826003811115610de657fe5b14610e225760405162461bcd60e51b81526004018080602001828103825260358152602001806156676035913960400191505060405180910390fd5b9150505b90565b6000805460ff16610e6e576040805162461bcd60e51b815260206004820152600a6024820152691c994b595b9d195c995960b21b604482015290519081900360640190fd5b6000805460ff19168155610e84338686866121d5565b1490506000805460ff191660011790559392505050565b600080610ea884846125a8565b50949350505050565b6005546001600160a01b031681565b60035460ff1681565b6000610ed3615375565b6040518060200160405280610ee6611bdf565b90526001600160a01b0384166000908152600f6020526040812054919250908190610f12908490612653565b90925090506000826003811115610f2557fe5b14610f77576040805162461bcd60e51b815260206004820152601f60248201527f62616c616e636520636f756c64206e6f742062652063616c63756c6174656400604482015290519081900360640190fd5b949350505050565b6000610f896126a7565b905090565b60035461010090046001600160a01b03163314610fdc5760405162461bcd60e51b81526004018080602001828103825260248152602001806154ce6024913960400191505060405180910390fd5b600a54158015610fec5750600b54155b6110275760405162461bcd60e51b81526004018080602001828103825260238152602001806154f26023913960400191505060405180910390fd5b6008859055846110685760405162461bcd60e51b81526004018080602001828103825260308152602001806155156030913960400191505060405180910390fd5b6009819055600061107888611186565b905080156110cd576040805162461bcd60e51b815260206004820152601a60248201527f73657474696e6720636f6d7074726f6c6c6572206661696c6564000000000000604482015290519081900360640190fd5b6110d5612740565b600a55670de0b6b3a7640000600b556110ed87612744565b9050801561112c5760405162461bcd60e51b81526004018080602001828103825260228152602001806155456022913960400191505060405180910390fd5b845161113f906001906020880190615388565b508351611153906002906020870190615388565b50506003805460ff90931660ff19938416179055506000805490911660011790555050505050565b6000610cd9826128d1565b60035460009061010090046001600160a01b031633146111ac57610be86001603f612017565b600654604080517e7e3dd200000000000000000000000000000000000000000000000000000000815290516001600160a01b0392831692851691627e3dd2916004808301926020929190829003018186803b15801561120a57600080fd5b505afa15801561121e573d6000803e3d6000fd5b505050506040513d602081101561123457600080fd5b5051611287576040805162461bcd60e51b815260206004820152601c60248201527f6d61726b6572206d6574686f642072657475726e65642066616c736500000000604482015290519081900360640190fd5b600680547fffffffffffffffffffffffff0000000000000000000000000000000000000000166001600160a01b03858116918217909255604080519284168352602083019190915280517f7ac369dbd14fa5ea3f473ed67cc9d598964a77501540ba6751eb0b3decf5870d9281900390910190a16000610c69565b600c5481565b6006546001600160a01b031681565b6000805460ff1661135c576040805162461bcd60e51b815260206004820152600a6024820152691c994b595b9d195c995960b21b604482015290519081900360640190fd5b6000805460ff1916815561136e611643565b905080156113945761138c81601081111561138557fe5b6030612017565b915050610dae565b61139d83612965565b9150506000805460ff19166001179055919050565b600a5481565b6012546001600160a01b031681565b6001600160a01b03166000908152600f602052604090205490565b6000805460ff16611427576040805162461bcd60e51b815260206004820152600a6024820152691c994b595b9d195c995960b21b604482015290519081900360640190fd5b6000805460ff19168155611439611643565b1461148b576040805162461bcd60e51b815260206004820152601660248201527f61636372756520696e746572657374206661696c656400000000000000000000604482015290519081900360640190fd5b50600c546000805460ff1916600117905590565b6000610cd982612a89565b600d5481565b6002805460408051602060018416156101000260001901909316849004601f81018490048402820184019092528181529291830182828015610bba5780601f10610b8f57610100808354040283529160200191610bba565b600080600061151684612b0a565b9092509050600082600381111561152957fe5b14610c695760405162461bcd60e51b81526004018080602001828103825260378152602001806155926037913960400191505060405180910390fd5b61157487878787878787610f8e565b601280547fffffffffffffffffffffffff0000000000000000000000000000000000000000166001600160a01b038a81169190911791829055604080517f18160ddd000000000000000000000000000000000000000000000000000000008152905192909116916318160ddd91600480820192602092909190829003018186803b15801561160157600080fd5b505afa158015611615573d6000803e3d6000fd5b505050506040513d602081101561162b57600080fd5b50505050505050505050565b600080610ceb83612bbe565b60008061164e612740565b600a549091508082141561166757600092505050610e26565b60006116716126a7565b600c54600d54600b54600754604080517f15f2405300000000000000000000000000000000000000000000000000000000815260048101879052602481018690526044810185905290519596509394929391926000926001600160a01b03909216916315f24053916064808301926020929190829003018186803b1580156116f857600080fd5b505afa15801561170c573d6000803e3d6000fd5b505050506040513d602081101561172257600080fd5b5051905065048c27395000811115611781576040805162461bcd60e51b815260206004820152601c60248201527f626f72726f772072617465206973206162737572646c79206869676800000000604482015290519081900360640190fd5b60008061178e8989612c3f565b909250905060008260038111156117a157fe5b146117f3576040805162461bcd60e51b815260206004820152601f60248201527f636f756c64206e6f742063616c63756c61746520626c6f636b2064656c746100604482015290519081900360640190fd5b6117fb615375565b60008060008061181960405180602001604052808a81525087612c62565b9097509450600087600381111561182c57fe5b1461185e576118496009600689600381111561184457fe5b612cca565b9e505050505050505050505050505050610e26565b611868858c612653565b9097509350600087600381111561187b57fe5b14611893576118496009600189600381111561184457fe5b61189d848c612d30565b909750925060008760038111156118b057fe5b146118c8576118496009600489600381111561184457fe5b6118e36040518060200160405280600954815250858c612d56565b909750915060008760038111156118f657fe5b1461190e576118496009600589600381111561184457fe5b611919858a8b612d56565b9097509050600087600381111561192c57fe5b14611944576118496009600389600381111561184457fe5b600a8e9055600b819055600c839055600d829055604080518d8152602081018690528082018390526060810185905290517f4dec04e750ca11537cabcd8a9eab06494de08da3735bc8871cd41250e190bc049181900360800190a160009e50505050505050505050505050505090565b6000805460ff166119f9576040805162461bcd60e51b815260206004820152600a6024820152691c994b595b9d195c995960b21b604482015290519081900360640190fd5b6000805460ff19168155611a0f333386866121d5565b1490506000805460ff1916600117905592915050565b600b5481565b6007546000906001600160a01b031663b8168816611a476126a7565b600c54600d546009546040518563ffffffff1660e01b81526004018085815260200184815260200183815260200182815260200194505050505060206040518083038186803b158015611a9957600080fd5b505afa158015611aad573d6000803e3d6000fd5b505050506040513d6020811015611ac357600080fd5b5051905090565b6000805460ff16611b0f576040805162461bcd60e51b815260206004820152600a6024820152691c994b595b9d195c995960b21b604482015290519081900360640190fd5b6000805460ff19169055611b2533858585612db2565b90506000805460ff191660011790559392505050565b60035460009061010090046001600160a01b03163314611b6157610be860016045612017565b600580546001600160a01b038481167fffffffffffffffffffffffff0000000000000000000000000000000000000000831681179093556040805191909216808252602082019390935281517fca4f2f25d0898edd99413412fb94012f9e54ec8142f9b093e7720646a95b16a9929181900390910190a16000610c69565b6000805460ff16611c24576040805162461bcd60e51b815260206004820152600a6024820152691c994b595b9d195c995960b21b604482015290519081900360640190fd5b6000805460ff19168155611c36611643565b14611c88576040805162461bcd60e51b815260206004820152601660248201527f61636372756520696e746572657374206661696c656400000000000000000000604482015290519081900360640190fd5b611c90610dc6565b90506000805460ff1916600117905590565b6001600160a01b0381166000908152600f6020526040812054819081908190818080611ccd89612b0a565b935090506000816003811115611cdf57fe5b14611cfd5760095b975060009650869550859450611d309350505050565b611d05612126565b925090506000816003811115611d1757fe5b14611d23576009611ce7565b5060009650919450925090505b9193509193565b6000610cd9826130e4565b6000610cd982613163565b6001600160a01b03918216600090815260106020908152604080832093909416825291909152205490565b6005546000906001600160a01b031633141580611d93575033155b15611dab57611da460016000612017565b9050610e26565b60038054600580546001600160a01b038181166101008181027fffffffffffffffffffffff0000000000000000000000000000000000000000ff871617968790557fffffffffffffffffffffffff000000000000000000000000000000000000000090931690935560408051948390048216808652929095041660208401528351909391927ff9ffabca9c8276e99321725bcb43fb076a6c66a54b7f21c4e8146d8519b417dc92908290030190a1600554604080516001600160a01b038085168252909216602083015280517fca4f2f25d0898edd99413412fb94012f9e54ec8142f9b093e7720646a95b16a99281900390910190a160009250505090565b600080611eb5611643565b90508015611edb57611ed3816010811115611ecc57fe5b6040612017565b915050610c6d565b610c6983612744565b6007546001600160a01b031681565b6004546001600160a01b031681565b600080611f108585856131dd565b509150505b9392505050565b60035461010090046001600160a01b031681565b6007546000906001600160a01b03166315f24053611f4c6126a7565b600c54600d546040518463ffffffff1660e01b815260040180848152602001838152602001828152602001935050505060206040518083038186803b158015611a9957600080fd5b6000805460ff16611fd9576040805162461bcd60e51b815260206004820152600a6024820152691c994b595b9d195c995960b21b604482015290519081900360640190fd5b6000805460ff19168155611feb611643565b905080156120095761138c81601081111561200257fe5b6046612017565b61139d8361330f565b600181565b60007f45b96fe442630264581b197e84bbada861235052c5a1aadfff9ea4e40a969aa083601081111561204657fe5b83605081111561205257fe5b604080519283526020830191909152600082820152519081900360600190a1826010811115611f1557fe5b60008054819060ff166120c4576040805162461bcd60e51b815260206004820152600a6024820152691c994b595b9d195c995960b21b604482015290519081900360640190fd5b6000805460ff191681556120d6611643565b90508015612101576120f48160108111156120ed57fe5b6036612017565b9250600091506121129050565b61210c3333866133b7565b92509250505b6000805460ff191660011790559092909150565b600e54600090819080612141575050600854600091506121d1565b600061214b6126a7565b90506000612157615375565b600061216884600c54600d54613832565b93509050600081600381111561217a57fe5b1461218f579550600094506121d19350505050565b6121998386613870565b9250905060008160038111156121ab57fe5b146121c0579550600094506121d19350505050565b50516000955093506121d192505050565b9091565b600654604080517fbdcdc2580000000000000000000000000000000000000000000000000000000081523060048201526001600160a01b03868116602483015285811660448301526064820185905291516000938493169163bdcdc25891608480830192602092919082900301818787803b15801561225357600080fd5b505af1158015612267573d6000803e3d6000fd5b505050506040513d602081101561227d57600080fd5b50519050801561229c576122946003604a83612cca565b915050610f77565b836001600160a01b0316856001600160a01b031614156122c2576122946002604b612017565b60006001600160a01b0387811690871614156122e15750600019612309565b506001600160a01b038086166000908152601060209081526040808320938a16835292905220545b6000806000806123198589612c3f565b9094509250600084600381111561232c57fe5b1461234a5761233d6009604b612017565b9650505050505050610f77565b6001600160a01b038a166000908152600f602052604090205461236d9089612c3f565b9094509150600084600381111561238057fe5b146123915761233d6009604c612017565b6001600160a01b0389166000908152600f60205260409020546123b49089612d30565b909450905060008460038111156123c757fe5b146123d85761233d6009604d612017565b6001600160a01b03808b166000908152600f6020526040808220859055918b168152208190556000198514612430576001600160a01b03808b166000908152601060209081526040808320938f168352929052208390555b886001600160a01b03168a6001600160a01b03167fddf252ad1be2c89b69c2b068fc378daa952ba7f163c4a11628f55a4df523b3ef8a6040518082815260200191505060405180910390a3600654604080517f6a56947e0000000000000000000000000000000000000000000000000000000081523060048201526001600160a01b038d811660248301528c81166044830152606482018c905291519190921691636a56947e91608480830192600092919082900301818387803b1580156124f757600080fd5b505af115801561250b573d6000803e3d6000fd5b5050604080516001600160a01b038e1681526020810186905281517f88254844946c31d824a5d167e83afa5982e88288bdeb6bc71961a585e2505d1b9450908190039091019150a1604080516001600160a01b038b1681526020810183905281517f88254844946c31d824a5d167e83afa5982e88288bdeb6bc71961a585e2505d1b929181900390910190a15060009a9950505050505050505050565b60008054819060ff166125ef576040805162461bcd60e51b815260206004820152600a6024820152691c994b595b9d195c995960b21b604482015290519081900360640190fd5b6000805460ff19168155612601611643565b9050801561262c5761261f81601081111561261857fe5b6035612017565b92506000915061263d9050565b6126373386866133b7565b92509250505b6000805460ff1916600117905590939092509050565b6000806000612660615375565b61266a8686612c62565b9092509050600082600381111561267d57fe5b1461268e57509150600090506126a0565b600061269982613920565b9350935050505b9250929050565b601254604080517f70a0823100000000000000000000000000000000000000000000000000000000815230600482015290516000926001600160a01b03169182916370a0823191602480820192602092909190829003018186803b15801561270e57600080fd5b505afa158015612722573d6000803e3d6000fd5b505050506040513d602081101561273857600080fd5b505191505090565b4390565b600354600090819061010090046001600160a01b0316331461276c57611ed360016042612017565b612774612740565b600a541461278857611ed3600a6041612017565b600760009054906101000a90046001600160a01b03169050826001600160a01b0316632191f92a6040518163ffffffff1660e01b815260040160206040518083038186803b1580156127d957600080fd5b505afa1580156127ed573d6000803e3d6000fd5b505050506040513d602081101561280357600080fd5b5051612856576040805162461bcd60e51b815260206004820152601c60248201527f6d61726b6572206d6574686f642072657475726e65642066616c736500000000604482015290519081900360640190fd5b600780547fffffffffffffffffffffffff0000000000000000000000000000000000000000166001600160a01b03858116918217909255604080519284168352602083019190915280517fedffc32e068c7c95dfd4bdfd5c4d939a084d6b11c4199eac8436ed234d72f9269281900390910190a16000610c69565b6000805460ff16612916576040805162461bcd60e51b815260206004820152600a6024820152691c994b595b9d195c995960b21b604482015290519081900360640190fd5b6000805460ff19168155612928611643565b905080156129465761138c81601081111561293f57fe5b604e612017565b61294f8361392f565b509150506000805460ff19166001179055919050565b60045460009081906001600160a01b0316331461298857611ed360016031612017565b612990612740565b600a54146129a457611ed3600a6033612017565b826129ad6126a7565b10156129bf57611ed3600e6032612017565b600d548311156129d557611ed360026034612017565b50600d5482810390811115612a1b5760405162461bcd60e51b81526004018080602001828103825260248152602001806156f86024913960400191505060405180910390fd5b600d819055600454612a36906001600160a01b031684613a17565b600454604080516001600160a01b03909216825260208201859052818101839052517f3bad0c59cf2f06e7314077049f48a93578cd16f5ef92329f1dab1420a99c177e9181900360600190a16000610c69565b6000805460ff16612ace576040805162461bcd60e51b815260206004820152600a6024820152691c994b595b9d195c995960b21b604482015290519081900360640190fd5b6000805460ff19168155612ae0611643565b90508015612afe5761138c816010811115612af757fe5b6027612017565b61139d33600085613b53565b6001600160a01b038116600090815260116020526040812080548291829182918291612b41575060009450849350612bb992505050565b612b518160000154600b546140a8565b90945092506000846003811115612b6457fe5b14612b79575091935060009250612bb9915050565b612b878382600101546140e7565b90945091506000846003811115612b9a57fe5b14612baf575091935060009250612bb9915050565b5060009450925050505b915091565b60008054819060ff16612c05576040805162461bcd60e51b815260206004820152600a6024820152691c994b595b9d195c995960b21b604482015290519081900360640190fd5b6000805460ff19168155612c17611643565b90508015612c35576120f4816010811115612c2e57fe5b601e612017565b61210c3385614112565b600080838311612c565750600090508183036126a0565b506003905060006126a0565b6000612c6c615375565b600080612c7d8660000151866140a8565b90925090506000826003811115612c9057fe5b14612caf575060408051602081019091526000815290925090506126a0565b60408051602081019091529081526000969095509350505050565b60007f45b96fe442630264581b197e84bbada861235052c5a1aadfff9ea4e40a969aa0846010811115612cf957fe5b846050811115612d0557fe5b604080519283526020830191909152818101859052519081900360600190a1836010811115610f7757fe5b600080838301848110612d48576000925090506126a0565b5060029150600090506126a0565b6000806000612d63615375565b612d6d8787612c62565b90925090506000826003811115612d8057fe5b14612d915750915060009050612daa565b612da3612d9d82613920565b86612d30565b9350935050505b935093915050565b600654604080517fd02f73510000000000000000000000000000000000000000000000000000000081523060048201526001600160a01b038781166024830152868116604483015285811660648301526084820185905291516000938493169163d02f73519160a480830192602092919082900301818787803b158015612e3857600080fd5b505af1158015612e4c573d6000803e3d6000fd5b505050506040513d6020811015612e6257600080fd5b505190508015612e79576122946003601b83612cca565b846001600160a01b0316846001600160a01b03161415612e9f576122946006601c612017565b6001600160a01b0384166000908152600f602052604081205481908190612ec69087612c3f565b90935091506000836003811115612ed957fe5b14612efc57612ef16009601a85600381111561184457fe5b945050505050610f77565b6001600160a01b0388166000908152600f6020526040902054612f1f9087612d30565b90935090506000836003811115612f3257fe5b14612f4a57612ef16009601985600381111561184457fe5b6001600160a01b038088166000818152600f60209081526040808320879055938c168083529184902085905583518a8152935191937fddf252ad1be2c89b69c2b068fc378daa952ba7f163c4a11628f55a4df523b3ef929081900390910190a3604080516001600160a01b03891681526020810184905281517f88254844946c31d824a5d167e83afa5982e88288bdeb6bc71961a585e2505d1b929181900390910190a1604080516001600160a01b038a1681526020810183905281517f88254844946c31d824a5d167e83afa5982e88288bdeb6bc71961a585e2505d1b929181900390910190a1600654604080517f6d35bf910000000000000000000000000000000000000000000000000000000081523060048201526001600160a01b038c811660248301528b811660448301528a81166064830152608482018a905291519190921691636d35bf919160a480830192600092919082900301818387803b1580156130b657600080fd5b505af11580156130ca573d6000803e3d6000fd5b50600092506130d7915050565b9998505050505050505050565b6000805460ff16613129576040805162461bcd60e51b815260206004820152600a6024820152691c994b595b9d195c995960b21b604482015290519081900360640190fd5b6000805460ff1916815561313b611643565b905080156131595761138c81601081111561315257fe5b6008612017565b61139d33846145fc565b6000805460ff166131a8576040805162461bcd60e51b815260206004820152600a6024820152691c994b595b9d195c995960b21b604482015290519081900360640190fd5b6000805460ff191681556131ba611643565b905080156131d15761138c816010811115612af757fe5b61139d33846000613b53565b60008054819060ff16613224576040805162461bcd60e51b815260206004820152600a6024820152691c994b595b9d195c995960b21b604482015290519081900360640190fd5b6000805460ff19168155613236611643565b905080156132615761325481601081111561324d57fe5b600f612017565b9250600091506132f89050565b836001600160a01b031663a6afed956040518163ffffffff1660e01b8152600401602060405180830381600087803b15801561329c57600080fd5b505af11580156132b0573d6000803e3d6000fd5b505050506040513d60208110156132c657600080fd5b5051905080156132e6576132548160108111156132df57fe5b6010612017565b6132f233878787614947565b92509250505b6000805460ff191660011790559094909350915050565b60035460009061010090046001600160a01b0316331461333557610be860016047612017565b61333d612740565b600a541461335157610be8600a6048612017565b670de0b6b3a764000082111561336d57610be860026049612017565b6009805490839055604080518281526020810185905281517faaa68312e2ea9d50e16af5068410ab56e1a1fd06037b1a35664812c30f821460929181900390910190a16000610c69565b600654604080517f24008a620000000000000000000000000000000000000000000000000000000081523060048201526001600160a01b0386811660248301528581166044830152606482018590529151600093849384939116916324008a629160848082019260209290919082900301818787803b15801561343957600080fd5b505af115801561344d573d6000803e3d6000fd5b505050506040513d602081101561346357600080fd5b5051905080156134875761347a6003603883612cca565b925060009150612daa9050565b61348f612740565b600a54146134a35761347a600a6039612017565b6134ab615406565b6001600160a01b03861660009081526011602052604090206001015460608201526134d586612b0a565b60808301819052602083018260038111156134ec57fe5b60038111156134f757fe5b905250600090508160200151600381111561350e57fe5b146135385761352a600960378360200151600381111561184457fe5b935060009250612daa915050565b6000198514156135515760808101516040820152613559565b604081018590525b613567878260400151614f38565b60e08201819052608082015161357c91612c3f565b60a083018190526020830182600381111561359357fe5b600381111561359e57fe5b90525060009050816020015160038111156135b557fe5b146135f15760405162461bcd60e51b815260040180806020018281038252603a8152602001806155c9603a913960400191505060405180910390fd5b613601600c548260e00151612c3f565b60c083018190526020830182600381111561361857fe5b600381111561362357fe5b905250600090508160200151600381111561363a57fe5b146136765760405162461bcd60e51b81526004018080602001828103825260318152602001806156036031913960400191505060405180910390fd5b8060a0015160116000886001600160a01b03166001600160a01b0316815260200190815260200160002060000181905550600b5460116000886001600160a01b03166001600160a01b03168152602001908152602001600020600101819055508060c00151600c819055507f6fadbf7329d21f278e724fa0d4511001a158f2a97ee35c5bc4cf8b64417399ef87878360e001518460a001518560c00151600b5460405180876001600160a01b03166001600160a01b03168152602001866001600160a01b03166001600160a01b03168152602001858152602001848152602001838152602001828152602001965050505050505060405180910390a160065460e08201516060830151604080517f1ededc910000000000000000000000000000000000000000000000000000000081523060048201526001600160a01b038c811660248301528b8116604483015260648201949094526084810192909252519190921691631ededc919160a480830192600092919082900301818387803b15801561380057600080fd5b505af1158015613814573d6000803e3d6000fd5b505050506138206151cd565b60e00151600097909650945050505050565b6000806000806138428787612d30565b9092509050600082600381111561385557fe5b146138665750915060009050612daa565b612da38186612c3f565b600061387a615375565b60008061388f86670de0b6b3a76400006140a8565b909250905060008260038111156138a257fe5b146138c1575060408051602081019091526000815290925090506126a0565b6000806138ce83886140e7565b909250905060008260038111156138e157fe5b14613903575060408051602081019091526000815290945092506126a0915050565b604080516020810190915290815260009890975095505050505050565b51670de0b6b3a7640000900490565b60008060008061393d612740565b600a541461395c57613951600a604f612017565b93509150612bb99050565b6139663386614f38565b905080600d54019150600d548210156139c6576040805162461bcd60e51b815260206004820181905260248201527f61646420726573657276657320756e6578706563746564206f766572666c6f77604482015290519081900360640190fd5b600d829055604080513381526020810183905280820184905290517fa91e67c5ea634cd43a12c5a482724b03de01e85ca68702a53d0c2f45cb7c1dc59181900360600190a160009350915050915091565b601254604080517fa9059cbb0000000000000000000000000000000000000000000000000000000081526001600160a01b0385811660048301526024820185905291519190921691829163a9059cbb9160448082019260009290919082900301818387803b158015613a8857600080fd5b505af1158015613a9c573d6000803e3d6000fd5b506000925050506001600160a01b03821673a614f803b6fd780986a42c78ec9c7f77e6ded13c1415613acf575050613b4f565b3d8015613ae35760208114613aed57600080fd5b6000199150613af9565b60206000803e60005191505b5080613b4c576040805162461bcd60e51b815260206004820152601960248201527f544f4b454e5f5452414e534645525f4f55545f4641494c454400000000000000604482015290519081900360640190fd5b50505b5050565b6000821580613b60575081155b613b9b5760405162461bcd60e51b81526004018080602001828103825260348152602001806156c46034913960400191505060405180910390fd5b613ba361544c565b613bab612126565b6040830181905260208301826003811115613bc257fe5b6003811115613bcd57fe5b9052506000905081602001516003811115613be457fe5b14613c0857613c006009602b8360200151600381111561184457fe5b915050611f15565b8315613c89576060810184905260408051602081018252908201518152613c2f9085612653565b6080830181905260208301826003811115613c4657fe5b6003811115613c5157fe5b9052506000905081602001516003811115613c6857fe5b14613c8457613c00600960298360200151600381111561184457fe5b613d02565b613ca58360405180602001604052808460400151815250615304565b6060830181905260208301826003811115613cbc57fe5b6003811115613cc757fe5b9052506000905081602001516003811115613cde57fe5b14613cfa57613c006009602a8360200151600381111561184457fe5b608081018390525b6006546060820151604080517feabe7d910000000000000000000000000000000000000000000000000000000081523060048201526001600160a01b03898116602483015260448201939093529051600093929092169163eabe7d919160648082019260209290919082900301818787803b158015613d8057600080fd5b505af1158015613d94573d6000803e3d6000fd5b505050506040513d6020811015613daa57600080fd5b505190508015613dca57613dc16003602883612cca565b92505050611f15565b613dd2612740565b600a5414613de657613dc1600a602c612017565b613df6600e548360600151612c3f565b60a0840181905260208401826003811115613e0d57fe5b6003811115613e1857fe5b9052506000905082602001516003811115613e2f57fe5b14613e4b57613dc16009602e8460200151600381111561184457fe5b6001600160a01b0386166000908152600f60205260409020546060830151613e739190612c3f565b60c0840181905260208401826003811115613e8a57fe5b6003811115613e9557fe5b9052506000905082602001516003811115613eac57fe5b14613ec857613dc16009602d8460200151600381111561184457fe5b8160800151613ed56126a7565b1015613ee757613dc1600e602f612017565b613ef5868360800151613a17565b60a0820151600e5560c08201516001600160a01b0387166000818152600f60209081526040918290209390935560608501518151908152905130937fddf252ad1be2c89b69c2b068fc378daa952ba7f163c4a11628f55a4df523b3ef928290030190a36080820151606080840151604080516001600160a01b038b168152602081019490945283810191909152517fe5b754fb1abb7f01b499791d0b820ae3b6af3424ac1c59768edb53f4ec31a9299281900390910190a160c0820151604080516001600160a01b0389168152602081019290925280517f88254844946c31d824a5d167e83afa5982e88288bdeb6bc71961a585e2505d1b9281900390910190a160065460808301516060840151604080517f51dff9890000000000000000000000000000000000000000000000000000000081523060048201526001600160a01b038b81166024830152604482019490945260648101929092525191909216916351dff98991608480830192600092919082900301818387803b15801561407c57600080fd5b505af1158015614090573d6000803e3d6000fd5b5050505061409c6151cd565b60009695505050505050565b600080836140bb575060009050806126a0565b838302838582816140c857fe5b04146140dc575060029150600090506126a0565b6000925090506126a0565b600080826140fb57506001905060006126a0565b600083858161410657fe5b04915091509250929050565b600654604080517f4ef4c3e10000000000000000000000000000000000000000000000000000000081523060048201526001600160a01b03858116602483015260448201859052915160009384938493911691634ef4c3e19160648082019260209290919082900301818787803b15801561418c57600080fd5b505af11580156141a0573d6000803e3d6000fd5b505050506040513d60208110156141b657600080fd5b5051905080156141da576141cd6003601f83612cca565b9250600091506126a09050565b6141e2612740565b600a54146141f6576141cd600a6022612017565b6141fe61544c565b614206612126565b604083018190526020830182600381111561421d57fe5b600381111561422857fe5b905250600090508160200151600381111561423f57fe5b146142695761425b600960218360200151600381111561184457fe5b9350600092506126a0915050565b6142738686614f38565b60c08201819052604080516020810182529083015181526142949190615304565b60608301819052602083018260038111156142ab57fe5b60038111156142b657fe5b90525060009050816020015160038111156142cd57fe5b1461431f576040805162461bcd60e51b815260206004820181905260248201527f4d494e545f45584348414e47455f43414c43554c4154494f4e5f4641494c4544604482015290519081900360640190fd5b61432f600e548260600151612d30565b608083018190526020830182600381111561434657fe5b600381111561435157fe5b905250600090508160200151600381111561436857fe5b146143a45760405162461bcd60e51b815260040180806020018281038252602881526020018061569c6028913960400191505060405180910390fd5b6001600160a01b0386166000908152600f602052604090205460608201516143cc9190612d30565b60a08301819052602083018260038111156143e357fe5b60038111156143ee57fe5b905250600090508160200151600381111561440557fe5b146144415760405162461bcd60e51b815260040180806020018281038252602b815260200180615567602b913960400191505060405180910390fd5b6080810151600e5560a08101516001600160a01b0387166000818152600f60209081526040918290209390935560c084015160608086015183519485529484019190915282820193909352517f4c209b5fc8ad50758f13e2e1088ba56a560dff690a1c6fef26394f4c03821c4f929181900390910190a1606081015160408051918252516001600160a01b0388169130917fddf252ad1be2c89b69c2b068fc378daa952ba7f163c4a11628f55a4df523b3ef9181900360200190a360a0810151604080516001600160a01b0389168152602081019290925280517f88254844946c31d824a5d167e83afa5982e88288bdeb6bc71961a585e2505d1b9281900390910190a160065460c08201516060830151604080517f41c728b90000000000000000000000000000000000000000000000000000000081523060048201526001600160a01b038b81166024830152604482019490945260648101929092525191909216916341c728b991608480830192600092919082900301818387803b1580156145cb57600080fd5b505af11580156145df573d6000803e3d6000fd5b505050506145eb6151cd565b60c001516000969095509350505050565b600654604080517fda3d454c0000000000000000000000000000000000000000000000000000000081523060048201526001600160a01b0385811660248301526044820185905291516000938493169163da3d454c91606480830192602092919082900301818787803b15801561467257600080fd5b505af1158015614686573d6000803e3d6000fd5b505050506040513d602081101561469c57600080fd5b5051905080156146bb576146b36003600e83612cca565b915050610cd9565b6146c3612740565b600a54146146d6576146b3600a80612017565b826146df6126a7565b10156146f1576146b3600e6009612017565b6146f961548a565b61470285612b0a565b602083018190528282600381111561471657fe5b600381111561472157fe5b905250600090508151600381111561473557fe5b1461475a57614751600960078360000151600381111561184457fe5b92505050610cd9565b614768816020015185612d30565b604083018190528282600381111561477c57fe5b600381111561478757fe5b905250600090508151600381111561479b57fe5b146147b7576147516009600c8360000151600381111561184457fe5b6147c3600c5485612d30565b60608301819052828260038111156147d757fe5b60038111156147e257fe5b90525060009050815160038111156147f657fe5b14614812576147516009600b8360000151600381111561184457fe5b61481c8585613a17565b604080820180516001600160a01b03881660008181526011602090815290859020928355600b546001909301839055606080870151600c819055945186519384529183018a905282860191909152810192909252608082015290517f2dd79f4fccfd18c360ce7f9132f3621bf05eee18f995224badb32d17f172df739181900360a00190a16148a96151cd565b600654604080517f5c7786050000000000000000000000000000000000000000000000000000000081523060048201526001600160a01b0388811660248301526044820188905291519190921691635c77860591606480830192600092919082900301818387803b15801561491d57600080fd5b505af1158015614931573d6000803e3d6000fd5b506000925061493e915050565b95945050505050565b600654604080517f5fc7e71e0000000000000000000000000000000000000000000000000000000081523060048201526001600160a01b0384811660248301528781166044830152868116606483015260848201869052915160009384938493911691635fc7e71e9160a48082019260209290919082900301818787803b1580156149d157600080fd5b505af11580156149e5573d6000803e3d6000fd5b505050506040513d60208110156149fb57600080fd5b505190508015614a1f57614a126003601283612cca565b925060009150614f2f9050565b614a27612740565b600a5414614a3b57614a12600a6016612017565b614a43612740565b846001600160a01b0316636c540baf6040518163ffffffff1660e01b815260040160206040518083038186803b158015614a7c57600080fd5b505afa158015614a90573d6000803e3d6000fd5b505050506040513d6020811015614aa657600080fd5b505114614ab957614a12600a6011612017565b866001600160a01b0316866001600160a01b03161415614adf57614a1260066017612017565b84614af057614a1260076015612017565b600019851415614b0657614a1260076014612017565b600080614b148989896133b7565b90925090508115614b4457614b35826010811115614b2e57fe5b6018612017565b945060009350614f2f92505050565b600654604080517fc488847b0000000000000000000000000000000000000000000000000000000081523060048201526001600160a01b038981166024830152604482018590528251600094859492169263c488847b926064808301939192829003018186803b158015614bb757600080fd5b505afa158015614bcb573d6000803e3d6000fd5b505050506040513d6040811015614be157600080fd5b50805160209091015190925090508115614c2c5760405162461bcd60e51b81526004018080602001828103825260338152602001806156346033913960400191505060405180910390fd5b80886001600160a01b03166370a082318c6040518263ffffffff1660e01b815260040180826001600160a01b03166001600160a01b0316815260200191505060206040518083038186803b158015614c8357600080fd5b505afa158015614c97573d6000803e3d6000fd5b505050506040513d6020811015614cad57600080fd5b50511015614d02576040805162461bcd60e51b815260206004820152601860248201527f4c49515549444154455f5345495a455f544f4f5f4d5543480000000000000000604482015290519081900360640190fd5b60006001600160a01b038916301415614d2857614d21308d8d85612db2565b9050614dcb565b604080517fb2a02ff10000000000000000000000000000000000000000000000000000000081526001600160a01b038e811660048301528d81166024830152604482018590529151918b169163b2a02ff1916064808201926020929091908290030181600087803b158015614d9c57600080fd5b505af1158015614db0573d6000803e3d6000fd5b505050506040513d6020811015614dc657600080fd5b505190505b8015614e1e576040805162461bcd60e51b815260206004820152601460248201527f746f6b656e207365697a757265206661696c6564000000000000000000000000604482015290519081900360640190fd5b604080516001600160a01b03808f168252808e1660208301528183018790528b1660608201526080810184905290517f298637f684da70674f26509b10f07ec2fbc77a335ab1e7d6215a4b2484d8bb529181900360a00190a1600654604080517f47ef3b3b0000000000000000000000000000000000000000000000000000000081523060048201526001600160a01b038c811660248301528f811660448301528e811660648301526084820188905260a48201869052915191909216916347ef3b3b9160c480830192600092919082900301818387803b158015614f0257600080fd5b505af1158015614f16573d6000803e3d6000fd5b50505050614f226151cd565b6000975092955050505050505b94509492505050565b601254604080517f70a0823100000000000000000000000000000000000000000000000000000000815230600482015290516000926001600160a01b031691839183916370a08231916024808301926020929190829003018186803b158015614fa057600080fd5b505afa158015614fb4573d6000803e3d6000fd5b505050506040513d6020811015614fca57600080fd5b5051604080517f23b872dd0000000000000000000000000000000000000000000000000000000081526001600160a01b038881166004830152306024830152604482018890529151929350908416916323b872dd9160648082019260009290919082900301818387803b15801561504057600080fd5b505af1158015615054573d6000803e3d6000fd5b5050505060003d60008114615070576020811461507a57600080fd5b6000199150615086565b60206000803e60005191505b50806150d9576040805162461bcd60e51b815260206004820152601860248201527f544f4b454e5f5452414e534645525f494e5f4641494c45440000000000000000604482015290519081900360640190fd5b601254604080517f70a0823100000000000000000000000000000000000000000000000000000000815230600482015290516000926001600160a01b0316916370a08231916024808301926020929190829003018186803b15801561513d57600080fd5b505afa158015615151573d6000803e3d6000fd5b505050506040513d602081101561516757600080fd5b50519050828110156151c0576040805162461bcd60e51b815260206004820152601a60248201527f544f4b454e5f5452414e534645525f494e5f4f564552464c4f57000000000000604482015290519081900360640190fd5b9190910395945050505050565b60006151d7610f7f565b90506000600e5460001461529057600754600c54600d54604080517f15f240530000000000000000000000000000000000000000000000000000000081526004810187905260248101939093526044830191909152516001600160a01b03909216916315f2405391606480820192602092909190829003018186803b15801561525f57600080fd5b505afa158015615273573d6000803e3d6000fd5b505050506040513d602081101561528957600080fd5b5051615293565b60005b600c54600d54600e54600b546009546040805189815260208101969096528581019490945260608501929092526080840185905260a084015260c0830152519192507f834b66d4671f0b5428a4cc4c73af4c1a637d7f329457542766b847a8335b83f6919081900360e00190a15050565b6000806000615311615375565b61266a86866000615320615375565b600080615335670de0b6b3a7640000876140a8565b9092509050600082600381111561534857fe5b14615367575060408051602081019091526000815290925090506126a0565b612699818660000151613870565b6040518060200160405280600081525090565b828054600181600116156101000203166002900490600052602060002090601f016020900481019282601f106153c957805160ff19168380011785556153f6565b828001600101855582156153f6579182015b828111156153f65782518255916020019190600101906153db565b506154029291506154b3565b5090565b6040805161010081019091528060008152602001600081526020016000815260200160008152602001600081526020016000815260200160008152602001600081525090565b6040805160e0810190915280600081526020016000815260200160008152602001600081526020016000815260200160008152602001600081525090565b604080516080810190915280600081526020016000815260200160008152602001600081525090565b610e2691905b8082111561540257600081556001016154b956fe6f6e6c792061646d696e206d617920696e697469616c697a6520746865206d61726b65746d61726b6574206d6179206f6e6c7920626520696e697469616c697a6564206f6e6365696e697469616c2065786368616e67652072617465206d7573742062652067726561746572207468616e207a65726f2e73657474696e6720696e7465726573742072617465206d6f64656c206661696c65644d494e545f4e45575f4143434f554e545f42414c414e43455f43414c43554c4154494f4e5f4641494c4544626f72726f7742616c616e636553746f7265643a20626f72726f7742616c616e636553746f726564496e7465726e616c206661696c656452455041595f424f52524f575f4e45575f4143434f554e545f424f52524f575f42414c414e43455f43414c43554c4154494f4e5f4641494c454452455041595f424f52524f575f4e45575f544f54414c5f42414c414e43455f43414c43554c4154494f4e5f4641494c45444c49515549444154455f434f4d5054524f4c4c45525f43414c43554c4154455f414d4f554e545f5345495a455f4641494c454465786368616e67655261746553746f7265643a2065786368616e67655261746553746f726564496e7465726e616c206661696c65644d494e545f4e45575f544f54414c5f535550504c595f43414c43554c4154494f4e5f4641494c45446f6e65206f662072656465656d546f6b656e73496e206f722072656465656d416d6f756e74496e206d757374206265207a65726f72656475636520726573657276657320756e657870656374656420756e646572666c6f77a265627a7a7231582002312e9f7c0c9a587d485b03337325c98641eeb09d9c8c63d412f70f9dfeb34464736f6c634300050c0032",
  "source": "pragma solidity ^0.5.12;\n\nimport \"./CToken.sol\";\n\n/**\n * @title Compound's CErc20 Contract\n * @notice CTokens which wrap an EIP-20 underlying\n * @author Compound\n */\ncontract CErc20 is CToken, CErc20Interface {\n\n    address constant USDTAddr = 0xa614f803B6FD780986A42c78Ec9c7f77e6DeD13C;// nile:0xECa9bC828A3005B9a3b909f2cc5c2a54794DE05F  mainnet:0xa614f803B6FD780986A42c78Ec9c7f77e6DeD13C\n\n    /**\n     * @notice Initialize the new money market\n     * @param underlying_ The address of the underlying asset\n     * @param comptroller_ The address of the Comptroller\n     * @param interestRateModel_ The address of the interest rate model\n     * @param initialExchangeRateMantissa_ The initial exchange rate, scaled by 1e18\n     * @param name_ ERC-20 name of this token\n     * @param symbol_ ERC-20 symbol of this token\n     * @param decimals_ ERC-20 decimal precision of this token\n     */\n    function initialize(address underlying_,\n                        ComptrollerInterface comptroller_,\n                        InterestRateModel interestRateModel_,\n                        uint initialExchangeRateMantissa_,\n                        string memory name_,\n                        string memory symbol_,\n                        uint8 decimals_,\n                        uint256 newReserveFactorMantissa_) public {\n        // CToken initialize does the bulk of the work\n        super.initialize(comptroller_, interestRateModel_, initialExchangeRateMantissa_, name_, symbol_, decimals_, newReserveFactorMantissa_);\n\n        // Set underlying and sanity check it\n        underlying = underlying_;\n        EIP20Interface(underlying).totalSupply();\n    }\n\n    /*** User Interface ***/\n\n    /**\n     * @notice Sender supplies assets into the market and receives cTokens in exchange\n     * @dev Accrues interest whether or not the operation succeeds, unless reverted\n     * @param mintAmount The amount of the underlying asset to supply\n     * @return uint 0=success, otherwise a failure (see ErrorReporter.sol for details)\n     */\n    function mint(uint mintAmount) external returns (uint) {\n        (uint err,) = mintInternal(mintAmount);\n        return err;\n    }\n\n    /**\n     * @notice Sender redeems cTokens in exchange for the underlying asset\n     * @dev Accrues interest whether or not the operation succeeds, unless reverted\n     * @param redeemTokens The number of cTokens to redeem into underlying\n     * @return uint 0=success, otherwise a failure (see ErrorReporter.sol for details)\n     */\n    function redeem(uint redeemTokens) external returns (uint) {\n        return redeemInternal(redeemTokens);\n    }\n\n    /**\n     * @notice Sender redeems cTokens in exchange for a specified amount of underlying asset\n     * @dev Accrues interest whether or not the operation succeeds, unless reverted\n     * @param redeemAmount The amount of underlying to redeem\n     * @return uint 0=success, otherwise a failure (see ErrorReporter.sol for details)\n     */\n    function redeemUnderlying(uint redeemAmount) external returns (uint) {\n        return redeemUnderlyingInternal(redeemAmount);\n    }\n\n    /**\n      * @notice Sender borrows assets from the protocol to their own address\n      * @param borrowAmount The amount of the underlying asset to borrow\n      * @return uint 0=success, otherwise a failure (see ErrorReporter.sol for details)\n      */\n    function borrow(uint borrowAmount) external returns (uint) {\n        return borrowInternal(borrowAmount);\n    }\n\n    /**\n     * @notice Sender repays their own borrow\n     * @param repayAmount The amount to repay\n     * @return uint 0=success, otherwise a failure (see ErrorReporter.sol for details)\n     */\n    function repayBorrow(uint repayAmount) external returns (uint) {\n        (uint err,) = repayBorrowInternal(repayAmount);\n        return err;\n    }\n\n    /**\n     * @notice Sender repays a borrow belonging to borrower\n     * @param borrower the account with the debt being payed off\n     * @param repayAmount The amount to repay\n     * @return uint 0=success, otherwise a failure (see ErrorReporter.sol for details)\n     */\n    function repayBorrowBehalf(address borrower, uint repayAmount) external returns (uint) {\n        (uint err,) = repayBorrowBehalfInternal(borrower, repayAmount);\n        return err;\n    }\n\n    /**\n     * @notice The sender liquidates the borrowers collateral.\n     *  The collateral seized is transferred to the liquidator.\n     * @param borrower The borrower of this cToken to be liquidated\n     * @param repayAmount The amount of the underlying borrowed asset to repay\n     * @param cTokenCollateral The market in which to seize collateral from the borrower\n     * @return uint 0=success, otherwise a failure (see ErrorReporter.sol for details)\n     */\n    function liquidateBorrow(address borrower, uint repayAmount, CTokenInterface cTokenCollateral) external returns (uint) {\n        (uint err,) = liquidateBorrowInternal(borrower, repayAmount, cTokenCollateral);\n        return err;\n    }\n\n    /**\n     * @notice The sender adds to reserves.\n     * @param addAmount The amount fo underlying token to add as reserves\n     * @return uint 0=success, otherwise a failure (see ErrorReporter.sol for details)\n     */\n    function _addReserves(uint addAmount) external returns (uint) {\n        return _addReservesInternal(addAmount);\n    }\n\n    /*** Safe Token ***/\n\n    /**\n     * @notice Gets balance of this contract in terms of the underlying\n     * @dev This excludes the value of the current message, if any\n     * @return The quantity of underlying tokens owned by this contract\n     */\n    function getCashPrior() internal view returns (uint) {\n        EIP20Interface token = EIP20Interface(underlying);\n        return token.balanceOf(address(this));\n    }\n\n    /**\n     * @dev Similar to EIP20 transfer, except it handles a False result from `transferFrom` and reverts in that case.\n     *      This will revert due to insufficient balance or insufficient allowance.\n     *      This function returns the actual amount received,\n     *      which may be less than `amount` if there is a fee attached to the transfer.\n     *\n     *      Note: This wrapper safely handles non-standard ERC-20 tokens that do not return a value.\n     *            See here: https://medium.com/coinmonks/missing-return-value-bug-at-least-130-tokens-affected-d67bf08521ca\n     */\n    function doTransferIn(address from, uint amount) internal returns (uint) {\n        EIP20NonStandardInterface token = EIP20NonStandardInterface(underlying);\n        uint balanceBefore = EIP20Interface(underlying).balanceOf(address(this));\n        token.transferFrom(from, address(this), amount);\n\n        bool success;\n        assembly {\n            switch returndatasize()\n                case 0 {                       // This is a non-standard ERC-20\n                    success := not(0)          // set success to true\n                }\n                case 32 {                      // This is a compliant ERC-20\n                    returndatacopy(0, 0, 32)\n                    success := mload(0)        // Set `success = returndata` of external call\n                }\n                default {                      // This is an excessively non-compliant ERC-20, revert.\n                    revert(0, 0)\n                }\n        }\n        require(success, \"TOKEN_TRANSFER_IN_FAILED\");\n\n        // Calculate the amount that was *actually* transferred\n        uint balanceAfter = EIP20Interface(underlying).balanceOf(address(this));\n        require(balanceAfter >= balanceBefore, \"TOKEN_TRANSFER_IN_OVERFLOW\");\n        return balanceAfter - balanceBefore;   // underflow already checked above, just subtract\n    }\n\n    /**\n     * @dev Similar to EIP20 transfer, except it handles a False success from `transfer` and returns an explanatory\n     *      error code rather than reverting. If caller has not called checked protocol's balance, this may revert due to\n     *      insufficient cash held in this contract. If caller has checked protocol's balance prior to this call, and verified\n     *      it is >= amount, this should not revert in normal conditions.\n     *\n     *      Note: This wrapper safely handles non-standard ERC-20 tokens that do not return a value.\n     *            See here: https://medium.com/coinmonks/missing-return-value-bug-at-least-130-tokens-affected-d67bf08521ca\n     */\n    function doTransferOut(address payable to, uint amount) internal {\n        EIP20NonStandardInterface token = EIP20NonStandardInterface(underlying);\n        token.transfer(to, amount);\n\n        bool success;\n        if(address(token) == USDTAddr){\n            return;\n        }\n        assembly {\n            switch returndatasize()\n                case 0 {                      // This is a non-standard ERC-20\n                    success := not(0)          // set success to true\n                }\n                case 32 {                     // This is a complaint ERC-20\n                    returndatacopy(0, 0, 32)\n                    success := mload(0)        // Set `success = returndata` of external call\n                }\n                default {                     // This is an excessively non-compliant ERC-20, revert.\n                    revert(0, 0)\n                }\n            }\n        require(success, \"TOKEN_TRANSFER_OUT_FAILED\");\n    }\n}\n",
  "sourcePath": "/Users/simtzujye/Desktop/hackathons/near-metabuild-hackathon-3/uruz-finance-near-protocol/contracts/CErc20.sol",
  "compiler": {
    "name": "solc",
    "version": "0.5.12+commit.7709ece9.Emscripten.clang"
  },
  "schemaVersion": "3.4.10",
  "updatedAt": "2022-11-17T06:44:43.434Z",
  "devdoc": {
    "author": "Compound",
    "methods": {
      "_acceptAdmin()": {
        "details": "Admin function for pending admin to accept role and update admin",
        "return": "uint 0=success, otherwise a failure (see ErrorReporter.sol for details)"
      },
      "_addReserves(uint256)": {
        "params": {
          "addAmount": "The amount fo underlying token to add as reserves"
        },
        "return": "uint 0=success, otherwise a failure (see ErrorReporter.sol for details)"
      },
      "_reduceReserves(uint256)": {
        "params": {
          "reduceAmount": "Amount of reduction to reserves"
        },
        "return": "uint 0=success, otherwise a failure (see ErrorReporter.sol for details)"
      },
      "_setComptroller(address)": {
        "details": "Admin function to set a new comptroller",
        "return": "uint 0=success, otherwise a failure (see ErrorReporter.sol for details)"
      },
      "_setInterestRateModel(address)": {
        "details": "Admin function to accrue interest and update the interest rate model",
        "params": {
          "newInterestRateModel": "the new interest rate model to use"
        },
        "return": "uint 0=success, otherwise a failure (see ErrorReporter.sol for details)"
      },
      "_setPendingAdmin(address)": {
        "details": "Admin function to begin change of admin. The newPendingAdmin must call `_acceptAdmin` to finalize the transfer.",
        "params": {
          "newPendingAdmin": "New pending admin."
        },
        "return": "uint 0=success, otherwise a failure (see ErrorReporter.sol for details)"
      },
      "_setReserveFactor(uint256)": {
        "details": "Admin function to accrue interest and set a new reserve factor",
        "return": "uint 0=success, otherwise a failure (see ErrorReporter.sol for details)"
      },
      "accrueInterest()": {
        "details": "This calculates interest accrued from the last checkpointed block  up to the current block and writes new checkpoint to storage."
      },
      "allowance(address,address)": {
        "params": {
          "owner": "The address of the account which owns the tokens to be spent",
          "spender": "The address of the account which may transfer tokens"
        },
        "return": "The number of tokens allowed to be spent (-1 means infinite)"
      },
      "approve(address,uint256)": {
        "details": "This will overwrite the approval amount for `spender` and is subject to issues noted [here](https://eips.ethereum.org/EIPS/eip-20#approve)",
        "params": {
          "amount": "The number of tokens that are approved (-1 means infinite)",
          "spender": "The address of the account which may transfer tokens"
        },
        "return": "Whether or not the approval succeeded"
      },
      "balanceOf(address)": {
        "params": {
          "owner": "The address of the account to query"
        },
        "return": "The number of tokens owned by `owner`"
      },
      "balanceOfUnderlying(address)": {
        "details": "This also accrues interest in a transaction",
        "params": {
          "owner": "The address of the account to query"
        },
        "return": "The amount of underlying owned by `owner`"
      },
      "borrow(uint256)": {
        "params": {
          "borrowAmount": "The amount of the underlying asset to borrow"
        },
        "return": "uint 0=success, otherwise a failure (see ErrorReporter.sol for details)"
      },
      "borrowBalanceCurrent(address)": {
        "params": {
          "account": "The address whose balance should be calculated after updating borrowIndex"
        },
        "return": "The calculated balance"
      },
      "borrowBalanceStored(address)": {
        "params": {
          "account": "The address whose balance should be calculated"
        },
        "return": "The calculated balance"
      },
      "borrowRatePerBlock()": {
        "return": "The borrow interest rate per block, scaled by 1e18"
      },
      "exchangeRateCurrent()": {
        "return": "Calculated exchange rate scaled by 1e18"
      },
      "exchangeRateStored()": {
        "details": "This function does not accrue interest before calculating the exchange rate",
        "return": "Calculated exchange rate scaled by 1e18"
      },
      "getAccountSnapshot(address)": {
        "details": "This is used by comptroller to more efficiently perform liquidity checks.",
        "params": {
          "account": "Address of the account to snapshot"
        },
        "return": "(possible error, token balance, borrow balance, exchange rate mantissa)"
      },
      "getCash()": {
        "return": "The quantity of underlying asset owned by this contract"
      },
      "initialize(address,address,address,uint256,string,string,uint8,uint256)": {
        "params": {
          "comptroller_": "The address of the Comptroller",
          "decimals_": "ERC-20 decimal precision of this token",
          "initialExchangeRateMantissa_": "The initial exchange rate, scaled by 1e18",
          "interestRateModel_": "The address of the interest rate model",
          "name_": "ERC-20 name of this token",
          "symbol_": "ERC-20 symbol of this token",
          "underlying_": "The address of the underlying asset"
        }
      },
      "initialize(address,address,uint256,string,string,uint8,uint256)": {
        "params": {
          "comptroller_": "The address of the Comptroller",
          "decimals_": "EIP-20 decimal precision of this token",
          "initialExchangeRateMantissa_": "The initial exchange rate, scaled by 1e18",
          "interestRateModel_": "The address of the interest rate model",
          "name_": "EIP-20 name of this token",
          "symbol_": "EIP-20 symbol of this token"
        }
      },
      "liquidateBorrow(address,uint256,address)": {
        "params": {
          "borrower": "The borrower of this cToken to be liquidated",
          "cTokenCollateral": "The market in which to seize collateral from the borrower",
          "repayAmount": "The amount of the underlying borrowed asset to repay"
        },
        "return": "uint 0=success, otherwise a failure (see ErrorReporter.sol for details)"
      },
      "mint(uint256)": {
        "details": "Accrues interest whether or not the operation succeeds, unless reverted",
        "params": {
          "mintAmount": "The amount of the underlying asset to supply"
        },
        "return": "uint 0=success, otherwise a failure (see ErrorReporter.sol for details)"
      },
      "redeem(uint256)": {
        "details": "Accrues interest whether or not the operation succeeds, unless reverted",
        "params": {
          "redeemTokens": "The number of cTokens to redeem into underlying"
        },
        "return": "uint 0=success, otherwise a failure (see ErrorReporter.sol for details)"
      },
      "redeemUnderlying(uint256)": {
        "details": "Accrues interest whether or not the operation succeeds, unless reverted",
        "params": {
          "redeemAmount": "The amount of underlying to redeem"
        },
        "return": "uint 0=success, otherwise a failure (see ErrorReporter.sol for details)"
      },
      "repayBorrow(uint256)": {
        "params": {
          "repayAmount": "The amount to repay"
        },
        "return": "uint 0=success, otherwise a failure (see ErrorReporter.sol for details)"
      },
      "repayBorrowBehalf(address,uint256)": {
        "params": {
          "borrower": "the account with the debt being payed off",
          "repayAmount": "The amount to repay"
        },
        "return": "uint 0=success, otherwise a failure (see ErrorReporter.sol for details)"
      },
      "seize(address,address,uint256)": {
        "details": "Will fail unless called by another cToken during the process of liquidation. Its absolutely critical to use msg.sender as the borrowed cToken and not a parameter.",
        "params": {
          "borrower": "The account having collateral seized",
          "liquidator": "The account receiving seized collateral",
          "seizeTokens": "The number of cTokens to seize"
        },
        "return": "uint 0=success, otherwise a failure (see ErrorReporter.sol for details)"
      },
      "supplyRatePerBlock()": {
        "return": "The supply interest rate per block, scaled by 1e18"
      },
      "totalBorrowsCurrent()": {
        "return": "The total borrows with interest"
      },
      "transfer(address,uint256)": {
        "params": {
          "amount": "The number of tokens to transfer",
          "dst": "The address of the destination account"
        },
        "return": "Whether or not the transfer succeeded"
      },
      "transferFrom(address,address,uint256)": {
        "params": {
          "amount": "The number of tokens to transfer",
          "dst": "The address of the destination account",
          "src": "The address of the source account"
        },
        "return": "Whether or not the transfer succeeded"
      }
    },
    "title": "Compound's CErc20 Contract"
  },
  "userdoc": {
    "methods": {
      "_acceptAdmin()": {
        "notice": "Accepts transfer of admin rights. msg.sender must be pendingAdmin"
      },
      "_addReserves(uint256)": {
        "notice": "The sender adds to reserves."
      },
      "_reduceReserves(uint256)": {
        "notice": "Accrues interest and reduces reserves by transferring to admin"
      },
      "_setComptroller(address)": {
        "notice": "Sets a new comptroller for the market"
      },
      "_setInterestRateModel(address)": {
        "notice": "accrues interest and updates the interest rate model using _setInterestRateModelFresh"
      },
      "_setPendingAdmin(address)": {
        "notice": "Begins transfer of admin rights. The newPendingAdmin must call `_acceptAdmin` to finalize the transfer."
      },
      "_setReserveFactor(uint256)": {
        "notice": "accrues interest and sets a new reserve factor for the protocol using _setReserveFactorFresh"
      },
      "accrueInterest()": {
        "notice": "Applies accrued interest to total borrows and reserves"
      },
      "allowance(address,address)": {
        "notice": "Get the current allowance from `owner` for `spender`"
      },
      "approve(address,uint256)": {
        "notice": "Approve `spender` to transfer up to `amount` from `src`"
      },
      "balanceOf(address)": {
        "notice": "Get the token balance of the `owner`"
      },
      "balanceOfUnderlying(address)": {
        "notice": "Get the underlying balance of the `owner`"
      },
      "borrow(uint256)": {
        "notice": "Sender borrows assets from the protocol to their own address"
      },
      "borrowBalanceCurrent(address)": {
        "notice": "Accrue interest to updated borrowIndex and then calculate account's borrow balance using the updated borrowIndex"
      },
      "borrowBalanceStored(address)": {
        "notice": "Return the borrow balance of account based on stored data"
      },
      "borrowRatePerBlock()": {
        "notice": "Returns the current per-block borrow interest rate for this cToken"
      },
      "exchangeRateCurrent()": {
        "notice": "Accrue interest then return the up-to-date exchange rate"
      },
      "exchangeRateStored()": {
        "notice": "Calculates the exchange rate from the underlying to the CToken"
      },
      "getAccountSnapshot(address)": {
        "notice": "Get a snapshot of the account's balances, and the cached exchange rate"
      },
      "getCash()": {
        "notice": "Get cash balance of this cToken in the underlying asset"
      },
      "initialize(address,address,address,uint256,string,string,uint8,uint256)": {
        "notice": "Initialize the new money market"
      },
      "initialize(address,address,uint256,string,string,uint8,uint256)": {
        "notice": "Initialize the money market"
      },
      "liquidateBorrow(address,uint256,address)": {
        "notice": "The sender liquidates the borrowers collateral. The collateral seized is transferred to the liquidator."
      },
      "mint(uint256)": {
        "notice": "Sender supplies assets into the market and receives cTokens in exchange"
      },
      "redeem(uint256)": {
        "notice": "Sender redeems cTokens in exchange for the underlying asset"
      },
      "redeemUnderlying(uint256)": {
        "notice": "Sender redeems cTokens in exchange for a specified amount of underlying asset"
      },
      "repayBorrow(uint256)": {
        "notice": "Sender repays their own borrow"
      },
      "repayBorrowBehalf(address,uint256)": {
        "notice": "Sender repays a borrow belonging to borrower"
      },
      "seize(address,address,uint256)": {
        "notice": "Transfers collateral tokens (this market) to the liquidator."
      },
      "supplyRatePerBlock()": {
        "notice": "Returns the current per-block supply interest rate for this cToken"
      },
      "totalBorrowsCurrent()": {
        "notice": "Returns the current total borrows plus accrued interest"
      },
      "transfer(address,uint256)": {
        "notice": "Transfer `amount` tokens from `msg.sender` to `dst`"
      },
      "transferFrom(address,address,uint256)": {
        "notice": "Transfer `amount` tokens from `src` to `dst`"
      }
    },
    "notice": "CTokens which wrap an EIP-20 underlying"
  }
}