{
  "contractName": "CErc20Delegate",
  "abi": [
    {
      "inputs": [],
      "payable": false,
      "stateMutability": "nonpayable",
      "type": "constructor"
    },
    {
      "anonymous": false,
      "inputs": [
        {
          "indexed": false,
          "internalType": "uint256",
          "name": "cashPrior",
          "type": "uint256"
        },
        {
          "indexed": false,
          "internalType": "uint256",
          "name": "interestAccumulated",
          "type": "uint256"
        },
        {
          "indexed": false,
          "internalType": "uint256",
          "name": "borrowIndex",
          "type": "uint256"
        },
        {
          "indexed": false,
          "internalType": "uint256",
          "name": "totalBorrows",
          "type": "uint256"
        }
      ],
      "name": "AccrueInterest",
      "type": "event"
    },
    {
      "anonymous": false,
      "inputs": [
        {
          "indexed": true,
          "internalType": "address",
          "name": "owner",
          "type": "address"
        },
        {
          "indexed": true,
          "internalType": "address",
          "name": "spender",
          "type": "address"
        },
        {
          "indexed": false,
          "internalType": "uint256",
          "name": "amount",
          "type": "uint256"
        }
      ],
      "name": "Approval",
      "type": "event"
    },
    {
      "anonymous": false,
      "inputs": [
        {
          "indexed": false,
          "internalType": "address",
          "name": "borrower",
          "type": "address"
        },
        {
          "indexed": false,
          "internalType": "uint256",
          "name": "borrowAmount",
          "type": "uint256"
        },
        {
          "indexed": false,
          "internalType": "uint256",
          "name": "accountBorrows",
          "type": "uint256"
        },
        {
          "indexed": false,
          "internalType": "uint256",
          "name": "totalBorrows",
          "type": "uint256"
        },
        {
          "indexed": false,
          "internalType": "uint256",
          "name": "borrowIndex",
          "type": "uint256"
        }
      ],
      "name": "Borrow",
      "type": "event"
    },
    {
      "anonymous": false,
      "inputs": [
        {
          "indexed": false,
          "internalType": "uint256",
          "name": "error",
          "type": "uint256"
        },
        {
          "indexed": false,
          "internalType": "uint256",
          "name": "info",
          "type": "uint256"
        },
        {
          "indexed": false,
          "internalType": "uint256",
          "name": "detail",
          "type": "uint256"
        }
      ],
      "name": "Failure",
      "type": "event"
    },
    {
      "anonymous": false,
      "inputs": [
        {
          "indexed": false,
          "internalType": "address",
          "name": "liquidator",
          "type": "address"
        },
        {
          "indexed": false,
          "internalType": "address",
          "name": "borrower",
          "type": "address"
        },
        {
          "indexed": false,
          "internalType": "uint256",
          "name": "repayAmount",
          "type": "uint256"
        },
        {
          "indexed": false,
          "internalType": "address",
          "name": "cTokenCollateral",
          "type": "address"
        },
        {
          "indexed": false,
          "internalType": "uint256",
          "name": "seizeTokens",
          "type": "uint256"
        }
      ],
      "name": "LiquidateBorrow",
      "type": "event"
    },
    {
      "anonymous": false,
      "inputs": [
        {
          "indexed": false,
          "internalType": "address",
          "name": "minter",
          "type": "address"
        },
        {
          "indexed": false,
          "internalType": "uint256",
          "name": "mintAmount",
          "type": "uint256"
        },
        {
          "indexed": false,
          "internalType": "uint256",
          "name": "mintTokens",
          "type": "uint256"
        }
      ],
      "name": "Mint",
      "type": "event"
    },
    {
      "anonymous": false,
      "inputs": [
        {
          "indexed": false,
          "internalType": "address",
          "name": "oldAdmin",
          "type": "address"
        },
        {
          "indexed": false,
          "internalType": "address",
          "name": "newAdmin",
          "type": "address"
        }
      ],
      "name": "NewAdmin",
      "type": "event"
    },
    {
      "anonymous": false,
      "inputs": [
        {
          "indexed": false,
          "internalType": "contract ComptrollerInterface",
          "name": "oldComptroller",
          "type": "address"
        },
        {
          "indexed": false,
          "internalType": "contract ComptrollerInterface",
          "name": "newComptroller",
          "type": "address"
        }
      ],
      "name": "NewComptroller",
      "type": "event"
    },
    {
      "anonymous": false,
      "inputs": [
        {
          "indexed": false,
          "internalType": "contract InterestRateModel",
          "name": "oldInterestRateModel",
          "type": "address"
        },
        {
          "indexed": false,
          "internalType": "contract InterestRateModel",
          "name": "newInterestRateModel",
          "type": "address"
        }
      ],
      "name": "NewMarketInterestRateModel",
      "type": "event"
    },
    {
      "anonymous": false,
      "inputs": [
        {
          "indexed": false,
          "internalType": "address",
          "name": "oldPendingAdmin",
          "type": "address"
        },
        {
          "indexed": false,
          "internalType": "address",
          "name": "newPendingAdmin",
          "type": "address"
        }
      ],
      "name": "NewPendingAdmin",
      "type": "event"
    },
    {
      "anonymous": false,
      "inputs": [
        {
          "indexed": false,
          "internalType": "address",
          "name": "oldAdmin",
          "type": "address"
        },
        {
          "indexed": false,
          "internalType": "address",
          "name": "newAdmin",
          "type": "address"
        }
      ],
      "name": "NewReserveAdmin",
      "type": "event"
    },
    {
      "anonymous": false,
      "inputs": [
        {
          "indexed": false,
          "internalType": "uint256",
          "name": "oldReserveFactorMantissa",
          "type": "uint256"
        },
        {
          "indexed": false,
          "internalType": "uint256",
          "name": "newReserveFactorMantissa",
          "type": "uint256"
        }
      ],
      "name": "NewReserveFactor",
      "type": "event"
    },
    {
      "anonymous": false,
      "inputs": [
        {
          "indexed": false,
          "internalType": "address",
          "name": "redeemer",
          "type": "address"
        },
        {
          "indexed": false,
          "internalType": "uint256",
          "name": "redeemAmount",
          "type": "uint256"
        },
        {
          "indexed": false,
          "internalType": "uint256",
          "name": "redeemTokens",
          "type": "uint256"
        }
      ],
      "name": "Redeem",
      "type": "event"
    },
    {
      "anonymous": false,
      "inputs": [
        {
          "indexed": false,
          "internalType": "address",
          "name": "payer",
          "type": "address"
        },
        {
          "indexed": false,
          "internalType": "address",
          "name": "borrower",
          "type": "address"
        },
        {
          "indexed": false,
          "internalType": "uint256",
          "name": "repayAmount",
          "type": "uint256"
        },
        {
          "indexed": false,
          "internalType": "uint256",
          "name": "accountBorrows",
          "type": "uint256"
        },
        {
          "indexed": false,
          "internalType": "uint256",
          "name": "totalBorrows",
          "type": "uint256"
        },
        {
          "indexed": false,
          "internalType": "uint256",
          "name": "borrowIndex",
          "type": "uint256"
        }
      ],
      "name": "RepayBorrow",
      "type": "event"
    },
    {
      "anonymous": false,
      "inputs": [
        {
          "indexed": false,
          "internalType": "address",
          "name": "benefactor",
          "type": "address"
        },
        {
          "indexed": false,
          "internalType": "uint256",
          "name": "addAmount",
          "type": "uint256"
        },
        {
          "indexed": false,
          "internalType": "uint256",
          "name": "newTotalReserves",
          "type": "uint256"
        }
      ],
      "name": "ReservesAdded",
      "type": "event"
    },
    {
      "anonymous": false,
      "inputs": [
        {
          "indexed": false,
          "internalType": "address",
          "name": "admin",
          "type": "address"
        },
        {
          "indexed": false,
          "internalType": "uint256",
          "name": "reduceAmount",
          "type": "uint256"
        },
        {
          "indexed": false,
          "internalType": "uint256",
          "name": "newTotalReserves",
          "type": "uint256"
        }
      ],
      "name": "ReservesReduced",
      "type": "event"
    },
    {
      "anonymous": false,
      "inputs": [
        {
          "indexed": true,
          "internalType": "address",
          "name": "from",
          "type": "address"
        },
        {
          "indexed": true,
          "internalType": "address",
          "name": "to",
          "type": "address"
        },
        {
          "indexed": false,
          "internalType": "uint256",
          "name": "amount",
          "type": "uint256"
        }
      ],
      "name": "Transfer",
      "type": "event"
    },
    {
      "anonymous": false,
      "inputs": [
        {
          "indexed": false,
          "internalType": "address",
          "name": "user",
          "type": "address"
        },
        {
          "indexed": false,
          "internalType": "uint256",
          "name": "utoken_balance",
          "type": "uint256"
        }
      ],
      "name": "UTokenBalance",
      "type": "event"
    },
    {
      "anonymous": false,
      "inputs": [
        {
          "indexed": false,
          "internalType": "uint256",
          "name": "totalCash",
          "type": "uint256"
        },
        {
          "indexed": false,
          "internalType": "uint256",
          "name": "totalBorrow",
          "type": "uint256"
        },
        {
          "indexed": false,
          "internalType": "uint256",
          "name": "totalReserve",
          "type": "uint256"
        },
        {
          "indexed": false,
          "internalType": "uint256",
          "name": "totalSupply",
          "type": "uint256"
        },
        {
          "indexed": false,
          "internalType": "uint256",
          "name": "borrowRatePerBlock",
          "type": "uint256"
        },
        {
          "indexed": false,
          "internalType": "uint256",
          "name": "borrowIndex",
          "type": "uint256"
        },
        {
          "indexed": false,
          "internalType": "uint256",
          "name": "reserveFactorMantissa",
          "type": "uint256"
        }
      ],
      "name": "UTokenStatus",
      "type": "event"
    },
    {
      "constant": false,
      "inputs": [],
      "name": "_acceptAdmin",
      "outputs": [
        {
          "internalType": "uint256",
          "name": "",
          "type": "uint256"
        }
      ],
      "payable": false,
      "stateMutability": "nonpayable",
      "type": "function"
    },
    {
      "constant": false,
      "inputs": [
        {
          "internalType": "uint256",
          "name": "addAmount",
          "type": "uint256"
        }
      ],
      "name": "_addReserves",
      "outputs": [
        {
          "internalType": "uint256",
          "name": "",
          "type": "uint256"
        }
      ],
      "payable": false,
      "stateMutability": "nonpayable",
      "type": "function"
    },
    {
      "constant": false,
      "inputs": [
        {
          "internalType": "uint256",
          "name": "reduceAmount",
          "type": "uint256"
        }
      ],
      "name": "_reduceReserves",
      "outputs": [
        {
          "internalType": "uint256",
          "name": "",
          "type": "uint256"
        }
      ],
      "payable": false,
      "stateMutability": "nonpayable",
      "type": "function"
    },
    {
      "constant": false,
      "inputs": [
        {
          "internalType": "contract ComptrollerInterface",
          "name": "newComptroller",
          "type": "address"
        }
      ],
      "name": "_setComptroller",
      "outputs": [
        {
          "internalType": "uint256",
          "name": "",
          "type": "uint256"
        }
      ],
      "payable": false,
      "stateMutability": "nonpayable",
      "type": "function"
    },
    {
      "constant": false,
      "inputs": [
        {
          "internalType": "contract InterestRateModel",
          "name": "newInterestRateModel",
          "type": "address"
        }
      ],
      "name": "_setInterestRateModel",
      "outputs": [
        {
          "internalType": "uint256",
          "name": "",
          "type": "uint256"
        }
      ],
      "payable": false,
      "stateMutability": "nonpayable",
      "type": "function"
    },
    {
      "constant": false,
      "inputs": [
        {
          "internalType": "address payable",
          "name": "newPendingAdmin",
          "type": "address"
        }
      ],
      "name": "_setPendingAdmin",
      "outputs": [
        {
          "internalType": "uint256",
          "name": "",
          "type": "uint256"
        }
      ],
      "payable": false,
      "stateMutability": "nonpayable",
      "type": "function"
    },
    {
      "constant": false,
      "inputs": [
        {
          "internalType": "address payable",
          "name": "newReserveAdmin",
          "type": "address"
        }
      ],
      "name": "_setReserveAdmin",
      "outputs": [
        {
          "internalType": "uint256",
          "name": "",
          "type": "uint256"
        }
      ],
      "payable": false,
      "stateMutability": "nonpayable",
      "type": "function"
    },
    {
      "constant": false,
      "inputs": [
        {
          "internalType": "uint256",
          "name": "newReserveFactorMantissa",
          "type": "uint256"
        }
      ],
      "name": "_setReserveFactor",
      "outputs": [
        {
          "internalType": "uint256",
          "name": "",
          "type": "uint256"
        }
      ],
      "payable": false,
      "stateMutability": "nonpayable",
      "type": "function"
    },
    {
      "constant": true,
      "inputs": [],
      "name": "accrualBlockNumber",
      "outputs": [
        {
          "internalType": "uint256",
          "name": "",
          "type": "uint256"
        }
      ],
      "payable": false,
      "stateMutability": "view",
      "type": "function"
    },
    {
      "constant": false,
      "inputs": [],
      "name": "accrueInterest",
      "outputs": [
        {
          "internalType": "uint256",
          "name": "",
          "type": "uint256"
        }
      ],
      "payable": false,
      "stateMutability": "nonpayable",
      "type": "function"
    },
    {
      "constant": true,
      "inputs": [],
      "name": "admin",
      "outputs": [
        {
          "internalType": "address payable",
          "name": "",
          "type": "address"
        }
      ],
      "payable": false,
      "stateMutability": "view",
      "type": "function"
    },
    {
      "constant": true,
      "inputs": [
        {
          "internalType": "address",
          "name": "owner",
          "type": "address"
        },
        {
          "internalType": "address",
          "name": "spender",
          "type": "address"
        }
      ],
      "name": "allowance",
      "outputs": [
        {
          "internalType": "uint256",
          "name": "",
          "type": "uint256"
        }
      ],
      "payable": false,
      "stateMutability": "view",
      "type": "function"
    },
    {
      "constant": false,
      "inputs": [
        {
          "internalType": "address",
          "name": "spender",
          "type": "address"
        },
        {
          "internalType": "uint256",
          "name": "amount",
          "type": "uint256"
        }
      ],
      "name": "approve",
      "outputs": [
        {
          "internalType": "bool",
          "name": "",
          "type": "bool"
        }
      ],
      "payable": false,
      "stateMutability": "nonpayable",
      "type": "function"
    },
    {
      "constant": true,
      "inputs": [
        {
          "internalType": "address",
          "name": "owner",
          "type": "address"
        }
      ],
      "name": "balanceOf",
      "outputs": [
        {
          "internalType": "uint256",
          "name": "",
          "type": "uint256"
        }
      ],
      "payable": false,
      "stateMutability": "view",
      "type": "function"
    },
    {
      "constant": false,
      "inputs": [
        {
          "internalType": "address",
          "name": "owner",
          "type": "address"
        }
      ],
      "name": "balanceOfUnderlying",
      "outputs": [
        {
          "internalType": "uint256",
          "name": "",
          "type": "uint256"
        }
      ],
      "payable": false,
      "stateMutability": "nonpayable",
      "type": "function"
    },
    {
      "constant": false,
      "inputs": [
        {
          "internalType": "uint256",
          "name": "borrowAmount",
          "type": "uint256"
        }
      ],
      "name": "borrow",
      "outputs": [
        {
          "internalType": "uint256",
          "name": "",
          "type": "uint256"
        }
      ],
      "payable": false,
      "stateMutability": "nonpayable",
      "type": "function"
    },
    {
      "constant": false,
      "inputs": [
        {
          "internalType": "address",
          "name": "account",
          "type": "address"
        }
      ],
      "name": "borrowBalanceCurrent",
      "outputs": [
        {
          "internalType": "uint256",
          "name": "",
          "type": "uint256"
        }
      ],
      "payable": false,
      "stateMutability": "nonpayable",
      "type": "function"
    },
    {
      "constant": true,
      "inputs": [
        {
          "internalType": "address",
          "name": "account",
          "type": "address"
        }
      ],
      "name": "borrowBalanceStored",
      "outputs": [
        {
          "internalType": "uint256",
          "name": "",
          "type": "uint256"
        }
      ],
      "payable": false,
      "stateMutability": "view",
      "type": "function"
    },
    {
      "constant": true,
      "inputs": [],
      "name": "borrowIndex",
      "outputs": [
        {
          "internalType": "uint256",
          "name": "",
          "type": "uint256"
        }
      ],
      "payable": false,
      "stateMutability": "view",
      "type": "function"
    },
    {
      "constant": true,
      "inputs": [],
      "name": "borrowRatePerBlock",
      "outputs": [
        {
          "internalType": "uint256",
          "name": "",
          "type": "uint256"
        }
      ],
      "payable": false,
      "stateMutability": "view",
      "type": "function"
    },
    {
      "constant": true,
      "inputs": [],
      "name": "comptroller",
      "outputs": [
        {
          "internalType": "contract ComptrollerInterface",
          "name": "",
          "type": "address"
        }
      ],
      "payable": false,
      "stateMutability": "view",
      "type": "function"
    },
    {
      "constant": true,
      "inputs": [],
      "name": "decimals",
      "outputs": [
        {
          "internalType": "uint8",
          "name": "",
          "type": "uint8"
        }
      ],
      "payable": false,
      "stateMutability": "view",
      "type": "function"
    },
    {
      "constant": false,
      "inputs": [],
      "name": "exchangeRateCurrent",
      "outputs": [
        {
          "internalType": "uint256",
          "name": "",
          "type": "uint256"
        }
      ],
      "payable": false,
      "stateMutability": "nonpayable",
      "type": "function"
    },
    {
      "constant": true,
      "inputs": [],
      "name": "exchangeRateStored",
      "outputs": [
        {
          "internalType": "uint256",
          "name": "",
          "type": "uint256"
        }
      ],
      "payable": false,
      "stateMutability": "view",
      "type": "function"
    },
    {
      "constant": true,
      "inputs": [
        {
          "internalType": "address",
          "name": "account",
          "type": "address"
        }
      ],
      "name": "getAccountSnapshot",
      "outputs": [
        {
          "internalType": "uint256",
          "name": "",
          "type": "uint256"
        },
        {
          "internalType": "uint256",
          "name": "",
          "type": "uint256"
        },
        {
          "internalType": "uint256",
          "name": "",
          "type": "uint256"
        },
        {
          "internalType": "uint256",
          "name": "",
          "type": "uint256"
        }
      ],
      "payable": false,
      "stateMutability": "view",
      "type": "function"
    },
    {
      "constant": true,
      "inputs": [],
      "name": "getCash",
      "outputs": [
        {
          "internalType": "uint256",
          "name": "",
          "type": "uint256"
        }
      ],
      "payable": false,
      "stateMutability": "view",
      "type": "function"
    },
    {
      "constant": true,
      "inputs": [],
      "name": "implementation",
      "outputs": [
        {
          "internalType": "address",
          "name": "",
          "type": "address"
        }
      ],
      "payable": false,
      "stateMutability": "view",
      "type": "function"
    },
    {
      "constant": false,
      "inputs": [
        {
          "internalType": "contract ComptrollerInterface",
          "name": "comptroller_",
          "type": "address"
        },
        {
          "internalType": "contract InterestRateModel",
          "name": "interestRateModel_",
          "type": "address"
        },
        {
          "internalType": "uint256",
          "name": "initialExchangeRateMantissa_",
          "type": "uint256"
        },
        {
          "internalType": "string",
          "name": "name_",
          "type": "string"
        },
        {
          "internalType": "string",
          "name": "symbol_",
          "type": "string"
        },
        {
          "internalType": "uint8",
          "name": "decimals_",
          "type": "uint8"
        },
        {
          "internalType": "uint256",
          "name": "newReserveFactorMantissa_",
          "type": "uint256"
        }
      ],
      "name": "initialize",
      "outputs": [],
      "payable": false,
      "stateMutability": "nonpayable",
      "type": "function"
    },
    {
      "constant": false,
      "inputs": [
        {
          "internalType": "address",
          "name": "underlying_",
          "type": "address"
        },
        {
          "internalType": "contract ComptrollerInterface",
          "name": "comptroller_",
          "type": "address"
        },
        {
          "internalType": "contract InterestRateModel",
          "name": "interestRateModel_",
          "type": "address"
        },
        {
          "internalType": "uint256",
          "name": "initialExchangeRateMantissa_",
          "type": "uint256"
        },
        {
          "internalType": "string",
          "name": "name_",
          "type": "string"
        },
        {
          "internalType": "string",
          "name": "symbol_",
          "type": "string"
        },
        {
          "internalType": "uint8",
          "name": "decimals_",
          "type": "uint8"
        },
        {
          "internalType": "uint256",
          "name": "newReserveFactorMantissa_",
          "type": "uint256"
        }
      ],
      "name": "initialize",
      "outputs": [],
      "payable": false,
      "stateMutability": "nonpayable",
      "type": "function"
    },
    {
      "constant": true,
      "inputs": [],
      "name": "interestRateModel",
      "outputs": [
        {
          "internalType": "contract InterestRateModel",
          "name": "",
          "type": "address"
        }
      ],
      "payable": false,
      "stateMutability": "view",
      "type": "function"
    },
    {
      "constant": true,
      "inputs": [],
      "name": "isCToken",
      "outputs": [
        {
          "internalType": "bool",
          "name": "",
          "type": "bool"
        }
      ],
      "payable": false,
      "stateMutability": "view",
      "type": "function"
    },
    {
      "constant": false,
      "inputs": [
        {
          "internalType": "address",
          "name": "borrower",
          "type": "address"
        },
        {
          "internalType": "uint256",
          "name": "repayAmount",
          "type": "uint256"
        },
        {
          "internalType": "contract CTokenInterface",
          "name": "cTokenCollateral",
          "type": "address"
        }
      ],
      "name": "liquidateBorrow",
      "outputs": [
        {
          "internalType": "uint256",
          "name": "",
          "type": "uint256"
        }
      ],
      "payable": false,
      "stateMutability": "nonpayable",
      "type": "function"
    },
    {
      "constant": false,
      "inputs": [
        {
          "internalType": "uint256",
          "name": "mintAmount",
          "type": "uint256"
        }
      ],
      "name": "mint",
      "outputs": [
        {
          "internalType": "uint256",
          "name": "",
          "type": "uint256"
        }
      ],
      "payable": false,
      "stateMutability": "nonpayable",
      "type": "function"
    },
    {
      "constant": true,
      "inputs": [],
      "name": "name",
      "outputs": [
        {
          "internalType": "string",
          "name": "",
          "type": "string"
        }
      ],
      "payable": false,
      "stateMutability": "view",
      "type": "function"
    },
    {
      "constant": true,
      "inputs": [],
      "name": "pendingAdmin",
      "outputs": [
        {
          "internalType": "address payable",
          "name": "",
          "type": "address"
        }
      ],
      "payable": false,
      "stateMutability": "view",
      "type": "function"
    },
    {
      "constant": false,
      "inputs": [
        {
          "internalType": "uint256",
          "name": "redeemTokens",
          "type": "uint256"
        }
      ],
      "name": "redeem",
      "outputs": [
        {
          "internalType": "uint256",
          "name": "",
          "type": "uint256"
        }
      ],
      "payable": false,
      "stateMutability": "nonpayable",
      "type": "function"
    },
    {
      "constant": false,
      "inputs": [
        {
          "internalType": "uint256",
          "name": "redeemAmount",
          "type": "uint256"
        }
      ],
      "name": "redeemUnderlying",
      "outputs": [
        {
          "internalType": "uint256",
          "name": "",
          "type": "uint256"
        }
      ],
      "payable": false,
      "stateMutability": "nonpayable",
      "type": "function"
    },
    {
      "constant": false,
      "inputs": [
        {
          "internalType": "uint256",
          "name": "repayAmount",
          "type": "uint256"
        }
      ],
      "name": "repayBorrow",
      "outputs": [
        {
          "internalType": "uint256",
          "name": "",
          "type": "uint256"
        }
      ],
      "payable": false,
      "stateMutability": "nonpayable",
      "type": "function"
    },
    {
      "constant": false,
      "inputs": [
        {
          "internalType": "address",
          "name": "borrower",
          "type": "address"
        },
        {
          "internalType": "uint256",
          "name": "repayAmount",
          "type": "uint256"
        }
      ],
      "name": "repayBorrowBehalf",
      "outputs": [
        {
          "internalType": "uint256",
          "name": "",
          "type": "uint256"
        }
      ],
      "payable": false,
      "stateMutability": "nonpayable",
      "type": "function"
    },
    {
      "constant": true,
      "inputs": [],
      "name": "reserveAdmin",
      "outputs": [
        {
          "internalType": "address payable",
          "name": "",
          "type": "address"
        }
      ],
      "payable": false,
      "stateMutability": "view",
      "type": "function"
    },
    {
      "constant": true,
      "inputs": [],
      "name": "reserveFactorMantissa",
      "outputs": [
        {
          "internalType": "uint256",
          "name": "",
          "type": "uint256"
        }
      ],
      "payable": false,
      "stateMutability": "view",
      "type": "function"
    },
    {
      "constant": false,
      "inputs": [
        {
          "internalType": "address",
          "name": "liquidator",
          "type": "address"
        },
        {
          "internalType": "address",
          "name": "borrower",
          "type": "address"
        },
        {
          "internalType": "uint256",
          "name": "seizeTokens",
          "type": "uint256"
        }
      ],
      "name": "seize",
      "outputs": [
        {
          "internalType": "uint256",
          "name": "",
          "type": "uint256"
        }
      ],
      "payable": false,
      "stateMutability": "nonpayable",
      "type": "function"
    },
    {
      "constant": true,
      "inputs": [],
      "name": "supplyRatePerBlock",
      "outputs": [
        {
          "internalType": "uint256",
          "name": "",
          "type": "uint256"
        }
      ],
      "payable": false,
      "stateMutability": "view",
      "type": "function"
    },
    {
      "constant": true,
      "inputs": [],
      "name": "symbol",
      "outputs": [
        {
          "internalType": "string",
          "name": "",
          "type": "string"
        }
      ],
      "payable": false,
      "stateMutability": "view",
      "type": "function"
    },
    {
      "constant": true,
      "inputs": [],
      "name": "totalBorrows",
      "outputs": [
        {
          "internalType": "uint256",
          "name": "",
          "type": "uint256"
        }
      ],
      "payable": false,
      "stateMutability": "view",
      "type": "function"
    },
    {
      "constant": false,
      "inputs": [],
      "name": "totalBorrowsCurrent",
      "outputs": [
        {
          "internalType": "uint256",
          "name": "",
          "type": "uint256"
        }
      ],
      "payable": false,
      "stateMutability": "nonpayable",
      "type": "function"
    },
    {
      "constant": true,
      "inputs": [],
      "name": "totalReserves",
      "outputs": [
        {
          "internalType": "uint256",
          "name": "",
          "type": "uint256"
        }
      ],
      "payable": false,
      "stateMutability": "view",
      "type": "function"
    },
    {
      "constant": true,
      "inputs": [],
      "name": "totalSupply",
      "outputs": [
        {
          "internalType": "uint256",
          "name": "",
          "type": "uint256"
        }
      ],
      "payable": false,
      "stateMutability": "view",
      "type": "function"
    },
    {
      "constant": false,
      "inputs": [
        {
          "internalType": "address",
          "name": "dst",
          "type": "address"
        },
        {
          "internalType": "uint256",
          "name": "amount",
          "type": "uint256"
        }
      ],
      "name": "transfer",
      "outputs": [
        {
          "internalType": "bool",
          "name": "",
          "type": "bool"
        }
      ],
      "payable": false,
      "stateMutability": "nonpayable",
      "type": "function"
    },
    {
      "constant": false,
      "inputs": [
        {
          "internalType": "address",
          "name": "src",
          "type": "address"
        },
        {
          "internalType": "address",
          "name": "dst",
          "type": "address"
        },
        {
          "internalType": "uint256",
          "name": "amount",
          "type": "uint256"
        }
      ],
      "name": "transferFrom",
      "outputs": [
        {
          "internalType": "bool",
          "name": "",
          "type": "bool"
        }
      ],
      "payable": false,
      "stateMutability": "nonpayable",
      "type": "function"
    },
    {
      "constant": true,
      "inputs": [],
      "name": "underlying",
      "outputs": [
        {
          "internalType": "address",
          "name": "",
          "type": "address"
        }
      ],
      "payable": false,
      "stateMutability": "view",
      "type": "function"
    },
    {
      "constant": false,
      "inputs": [
        {
          "internalType": "bytes",
          "name": "data",
          "type": "bytes"
        }
      ],
      "name": "_becomeImplementation",
      "outputs": [],
      "payable": false,
      "stateMutability": "nonpayable",
      "type": "function"
    },
    {
      "constant": false,
      "inputs": [],
      "name": "_resignImplementation",
      "outputs": [],
      "payable": false,
      "stateMutability": "nonpayable",
      "type": "function"
    }
  ],
  "bytecode": "0x608060405234801561001057600080fd5b5061593180620000216000396000f3fe608060405234801561001057600080fd5b50600436106103575760003560e01c806373acee98116101c8578063bd6d894d11610104578063f3fdb15a116100a2578063f851a4401161007c578063f851a44014610bd7578063f8f9da2814610bdf578063fca7820b14610be7578063fe9c44ae14610c0457610357565b8063f3fdb15a14610b91578063f52b84a514610b99578063f5e3c46214610ba157610357565b8063db006a75116100de578063db006a7514610b18578063dd62ed3e14610b35578063e9c714f214610b63578063f2b3abbd14610b6b57610357565b8063bd6d894d14610aa7578063c37f68e214610aaf578063c5ebeaec14610afb57610357565b8063a0712d6811610171578063aa5af0fd1161014b578063aa5af0fd14610a3b578063ae9d70b014610a43578063b2a02ff114610a4b578063b71d1a0c14610a8157610357565b8063a0712d68146109ea578063a6afed9514610a07578063a9059cbb14610a0f57610357565b806395d89b41116101a257806395d89b411461085e57806395dd9193146108665780639af6702e1461088c57610357565b806373acee9814610831578063852a12e3146108395780638f840ddd1461085657610357565b80633af9e6691161029757806356e6772811610240578063601a0bf11161021a578063601a0bf1146107de5780636c540baf146107fb5780636f307dc31461080357806370a082311461080b57610357565b806356e67728146107285780635c60da1b146107ce5780635fe3b567146107d657610357565b80633e941010116102715780633e941010146106dd5780634576b5db146106fa57806347bd37181461072057610357565b80633af9e6691461055a5780633b1d21a2146105805780633d5d1d991461058857610357565b806317bfdfbc1161030457806323b872dd116102de57806323b872dd146104b65780632608f818146104ec5780632678224714610518578063313ce5671461053c57610357565b806317bfdfbc1461048057806318160ddd146104a6578063182df0f5146104ae57610357565b80630e752702116103355780630e75270214610451578063153ab5051461046e578063173b99041461047857610357565b806306fdde031461035c5780630764074a146103d9578063095ea7b314610411575b600080fd5b610364610c0c565b6040805160208082528351818301528351919283929083019185019080838360005b8381101561039e578181015183820152602001610386565b50505050905090810190601f1680156103cb5780820380516001836020036101000a031916815260200191505b509250505060405180910390f35b6103ff600480360360208110156103ef57600080fd5b50356001600160a01b0316610c99565b60408051918252519081900360200190f35b61043d6004803603604081101561042757600080fd5b506001600160a01b038135169060200135610d49565b604080519115158252519081900360200190f35b6103ff6004803603602081101561046757600080fd5b5035610db6565b610476610dca565b005b6103ff610e1a565b6103ff6004803603602081101561049657600080fd5b50356001600160a01b0316610e20565b6103ff610ee7565b6103ff610eed565b61043d600480360360608110156104cc57600080fd5b506001600160a01b03813581169160208101359091169060400135610f50565b6103ff6004803603604081101561050257600080fd5b506001600160a01b038135169060200135610fc2565b610520610fd8565b604080516001600160a01b039092168252519081900360200190f35b610544610fe7565b6040805160ff9092168252519081900360200190f35b6103ff6004803603602081101561057057600080fd5b50356001600160a01b0316610ff0565b6103ff6110a6565b610476600480360360e081101561059e57600080fd5b6001600160a01b038235811692602081013590911691604082013591908101906080810160608201356401000000008111156105d957600080fd5b8201836020820111156105eb57600080fd5b8035906020019184600183028401116401000000008311171561060d57600080fd5b91908080601f016020809104026020016040519081016040528093929190818152602001838380828437600092019190915250929594936020810193503591505064010000000081111561066057600080fd5b82018360208201111561067257600080fd5b8035906020019184600183028401116401000000008311171561069457600080fd5b91908080601f0160208091040260200160405190810160405280939291908181526020018383808284376000920191909152509295505060ff83351693505050602001356110b5565b6103ff600480360360208110156106f357600080fd5b50356112a2565b6103ff6004803603602081101561071057600080fd5b50356001600160a01b03166112ad565b6103ff611429565b6104766004803603602081101561073e57600080fd5b81019060208101813564010000000081111561075957600080fd5b82018360208201111561076b57600080fd5b8035906020019184600183028401116401000000008311171561078d57600080fd5b91908080601f01602080910402602001604051908101604052809392919081815260200183838082843760009201919091525092955061142f945050505050565b610520611480565b61052061148f565b6103ff600480360360208110156107f457600080fd5b503561149e565b6103ff611539565b61052061153f565b6103ff6004803603602081101561082157600080fd5b50356001600160a01b031661154e565b6103ff611569565b6103ff6004803603602081101561084f57600080fd5b5035611626565b6103ff611631565b610364611637565b6103ff6004803603602081101561087c57600080fd5b50356001600160a01b031661168f565b61047660048036036101008110156108a357600080fd5b6001600160a01b03823581169260208101358216926040820135909216916060820135919081019060a0810160808201356401000000008111156108e657600080fd5b8201836020820111156108f857600080fd5b8035906020019184600183028401116401000000008311171561091a57600080fd5b91908080601f016020809104026020016040519081016040528093929190818152602001838380828437600092019190915250929594936020810193503591505064010000000081111561096d57600080fd5b82018360208201111561097f57600080fd5b803590602001918460018302840111640100000000831117156109a157600080fd5b91908080601f0160208091040260200160405190810160405280939291908181526020018383808284376000920191909152509295505060ff83351693505050602001356116ec565b6103ff60048036036020811015610a0057600080fd5b50356117be565b6103ff6117ca565b61043d60048036036040811015610a2557600080fd5b506001600160a01b038135169060200135611b3b565b6103ff611bac565b6103ff611bb2565b6103ff60048036036060811015610a6157600080fd5b506001600160a01b03813581169160208101359091169060400135611c51565b6103ff60048036036020811015610a9757600080fd5b50356001600160a01b0316611cc2565b6103ff611d66565b610ad560048036036020811015610ac557600080fd5b50356001600160a01b0316611e29565b604080519485526020850193909352838301919091526060830152519081900360800190f35b6103ff60048036036020811015610b1157600080fd5b5035611ebe565b6103ff60048036036020811015610b2e57600080fd5b5035611ec9565b6103ff60048036036040811015610b4b57600080fd5b506001600160a01b0381358116916020013516611ed4565b6103ff611eff565b6103ff60048036036020811015610b8157600080fd5b50356001600160a01b0316612031565b61052061206b565b61052061207a565b6103ff60048036036060811015610bb757600080fd5b506001600160a01b03813581169160208101359160409091013516612089565b6105206120a3565b6103ff6120b7565b6103ff60048036036020811015610bfd57600080fd5b503561211b565b61043d612199565b60018054604080516020600284861615610100026000190190941693909304601f81018490048402820184019092528181529291830182828015610c915780601f10610c6657610100808354040283529160200191610c91565b820191906000526020600020905b815481529060010190602001808311610c7457829003601f168201915b505050505081565b60035460009061010090046001600160a01b03163314610cc657610cbf6001604561219e565b9050610d44565b600480546001600160a01b038481167fffffffffffffffffffffffff0000000000000000000000000000000000000000831681179093556040805191909216808252602082019390935281517f6b05e4710a05e41140c8589bc8113d9a357a2202e233f6c599bc07971cc1b9c4929181900390910190a160005b9150505b919050565b3360008181526010602090815260408083206001600160a01b03871680855290835281842086905581518681529151939493909284927f8c5be1e5ebec7d5bd14f71427d1e84f3dd0314c0f7b2291e5b200ac8c7c3b925929081900390910190a360019150505b92915050565b600080610dc283612204565b509392505050565b60035461010090046001600160a01b03163314610e185760405162461bcd60e51b815260040180806020018281038252602d8152602001806156ee602d913960400191505060405180910390fd5b565b60095481565b6000805460ff16610e65576040805162461bcd60e51b815260206004820152600a6024820152691c994b595b9d195c995960b21b604482015290519081900360640190fd5b6000805460ff19168155610e776117ca565b14610ec9576040805162461bcd60e51b815260206004820152601660248201527f61636372756520696e746572657374206661696c656400000000000000000000604482015290519081900360640190fd5b610ed28261168f565b90505b6000805460ff19166001179055919050565b600e5481565b6000806000610efa6122ad565b90925090506000826003811115610f0d57fe5b14610f495760405162461bcd60e51b815260040180806020018281038252603581526020018061581b6035913960400191505060405180910390fd5b9150505b90565b6000805460ff16610f95576040805162461bcd60e51b815260206004820152600a6024820152691c994b595b9d195c995960b21b604482015290519081900360640190fd5b6000805460ff19168155610fab3386868661235c565b1490506000805460ff191660011790559392505050565b600080610fcf848461272f565b50949350505050565b6005546001600160a01b031681565b60035460ff1681565b6000610ffa6154fc565b604051806020016040528061100d611d66565b90526001600160a01b0384166000908152600f60205260408120549192509081906110399084906127da565b9092509050600082600381111561104c57fe5b1461109e576040805162461bcd60e51b815260206004820152601f60248201527f62616c616e636520636f756c64206e6f742062652063616c63756c6174656400604482015290519081900360640190fd5b949350505050565b60006110b061282e565b905090565b60035461010090046001600160a01b031633146111035760405162461bcd60e51b81526004018080602001828103825260248152602001806156556024913960400191505060405180910390fd5b600a541580156111135750600b54155b61114e5760405162461bcd60e51b81526004018080602001828103825260238152602001806156796023913960400191505060405180910390fd5b60088590558461118f5760405162461bcd60e51b815260040180806020018281038252603081526020018061569c6030913960400191505060405180910390fd5b6009819055600061119f886112ad565b905080156111f4576040805162461bcd60e51b815260206004820152601a60248201527f73657474696e6720636f6d7074726f6c6c6572206661696c6564000000000000604482015290519081900360640190fd5b6111fc6128c7565b600a55670de0b6b3a7640000600b55611214876128cb565b905080156112535760405162461bcd60e51b81526004018080602001828103825260228152602001806156cc6022913960400191505060405180910390fd5b845161126690600190602088019061550f565b50835161127a90600290602087019061550f565b50506003805460ff90931660ff19938416179055506000805490911660011790555050505050565b6000610db082612a58565b60035460009061010090046001600160a01b031633146112d357610cbf6001603f61219e565b600654604080517e7e3dd200000000000000000000000000000000000000000000000000000000815290516001600160a01b0392831692851691627e3dd2916004808301926020929190829003018186803b15801561133157600080fd5b505afa158015611345573d6000803e3d6000fd5b505050506040513d602081101561135b57600080fd5b50516113ae576040805162461bcd60e51b815260206004820152601c60248201527f6d61726b6572206d6574686f642072657475726e65642066616c736500000000604482015290519081900360640190fd5b600680547fffffffffffffffffffffffff0000000000000000000000000000000000000000166001600160a01b03858116918217909255604080519284168352602083019190915280517f7ac369dbd14fa5ea3f473ed67cc9d598964a77501540ba6751eb0b3decf5870d9281900390910190a16000610d40565b600c5481565b60035461010090046001600160a01b0316331461147d5760405162461bcd60e51b815260040180806020018281038252602d8152602001806158d0602d913960400191505060405180910390fd5b50565b6013546001600160a01b031681565b6006546001600160a01b031681565b6000805460ff166114e3576040805162461bcd60e51b815260206004820152600a6024820152691c994b595b9d195c995960b21b604482015290519081900360640190fd5b6000805460ff191681556114f56117ca565b9050801561151b5761151381601081111561150c57fe5b603061219e565b915050610ed5565b61152483612aec565b9150506000805460ff19166001179055919050565b600a5481565b6012546001600160a01b031681565b6001600160a01b03166000908152600f602052604090205490565b6000805460ff166115ae576040805162461bcd60e51b815260206004820152600a6024820152691c994b595b9d195c995960b21b604482015290519081900360640190fd5b6000805460ff191681556115c06117ca565b14611612576040805162461bcd60e51b815260206004820152601660248201527f61636372756520696e746572657374206661696c656400000000000000000000604482015290519081900360640190fd5b50600c546000805460ff1916600117905590565b6000610db082612c10565b600d5481565b6002805460408051602060018416156101000260001901909316849004601f81018490048402820184019092528181529291830182828015610c915780601f10610c6657610100808354040283529160200191610c91565b600080600061169d84612c91565b909250905060008260038111156116b057fe5b14610d405760405162461bcd60e51b81526004018080602001828103825260378152602001806157466037913960400191505060405180910390fd5b6116fb878787878787876110b5565b601280547fffffffffffffffffffffffff0000000000000000000000000000000000000000166001600160a01b038a81169190911791829055604080517f18160ddd000000000000000000000000000000000000000000000000000000008152905192909116916318160ddd91600480820192602092909190829003018186803b15801561178857600080fd5b505afa15801561179c573d6000803e3d6000fd5b505050506040513d60208110156117b257600080fd5b50505050505050505050565b600080610dc283612d45565b6000806117d56128c7565b600a54909150808214156117ee57600092505050610f4d565b60006117f861282e565b600c54600d54600b54600754604080517f15f2405300000000000000000000000000000000000000000000000000000000815260048101879052602481018690526044810185905290519596509394929391926000926001600160a01b03909216916315f24053916064808301926020929190829003018186803b15801561187f57600080fd5b505afa158015611893573d6000803e3d6000fd5b505050506040513d60208110156118a957600080fd5b5051905065048c27395000811115611908576040805162461bcd60e51b815260206004820152601c60248201527f626f72726f772072617465206973206162737572646c79206869676800000000604482015290519081900360640190fd5b6000806119158989612dc6565b9092509050600082600381111561192857fe5b1461197a576040805162461bcd60e51b815260206004820152601f60248201527f636f756c64206e6f742063616c63756c61746520626c6f636b2064656c746100604482015290519081900360640190fd5b6119826154fc565b6000806000806119a060405180602001604052808a81525087612de9565b909750945060008760038111156119b357fe5b146119e5576119d0600960068960038111156119cb57fe5b612e51565b9e505050505050505050505050505050610f4d565b6119ef858c6127da565b90975093506000876003811115611a0257fe5b14611a1a576119d0600960018960038111156119cb57fe5b611a24848c612eb7565b90975092506000876003811115611a3757fe5b14611a4f576119d0600960048960038111156119cb57fe5b611a6a6040518060200160405280600954815250858c612edd565b90975091506000876003811115611a7d57fe5b14611a95576119d0600960058960038111156119cb57fe5b611aa0858a8b612edd565b90975090506000876003811115611ab357fe5b14611acb576119d0600960038960038111156119cb57fe5b600a8e9055600b819055600c839055600d829055604080518d8152602081018690528082018390526060810185905290517f4dec04e750ca11537cabcd8a9eab06494de08da3735bc8871cd41250e190bc049181900360800190a160009e50505050505050505050505050505090565b6000805460ff16611b80576040805162461bcd60e51b815260206004820152600a6024820152691c994b595b9d195c995960b21b604482015290519081900360640190fd5b6000805460ff19168155611b963333868661235c565b1490506000805460ff1916600117905592915050565b600b5481565b6007546000906001600160a01b031663b8168816611bce61282e565b600c54600d546009546040518563ffffffff1660e01b81526004018085815260200184815260200183815260200182815260200194505050505060206040518083038186803b158015611c2057600080fd5b505afa158015611c34573d6000803e3d6000fd5b505050506040513d6020811015611c4a57600080fd5b5051905090565b6000805460ff16611c96576040805162461bcd60e51b815260206004820152600a6024820152691c994b595b9d195c995960b21b604482015290519081900360640190fd5b6000805460ff19169055611cac33858585612f39565b90506000805460ff191660011790559392505050565b60035460009061010090046001600160a01b03163314611ce857610cbf6001604561219e565b600580546001600160a01b038481167fffffffffffffffffffffffff0000000000000000000000000000000000000000831681179093556040805191909216808252602082019390935281517fca4f2f25d0898edd99413412fb94012f9e54ec8142f9b093e7720646a95b16a9929181900390910190a16000610d40565b6000805460ff16611dab576040805162461bcd60e51b815260206004820152600a6024820152691c994b595b9d195c995960b21b604482015290519081900360640190fd5b6000805460ff19168155611dbd6117ca565b14611e0f576040805162461bcd60e51b815260206004820152601660248201527f61636372756520696e746572657374206661696c656400000000000000000000604482015290519081900360640190fd5b611e17610eed565b90506000805460ff1916600117905590565b6001600160a01b0381166000908152600f6020526040812054819081908190818080611e5489612c91565b935090506000816003811115611e6657fe5b14611e845760095b975060009650869550859450611eb79350505050565b611e8c6122ad565b925090506000816003811115611e9e57fe5b14611eaa576009611e6e565b5060009650919450925090505b9193509193565b6000610db08261326b565b6000610db0826132ea565b6001600160a01b03918216600090815260106020908152604080832093909416825291909152205490565b6005546000906001600160a01b031633141580611f1a575033155b15611f3257611f2b6001600061219e565b9050610f4d565b60038054600580546001600160a01b038181166101008181027fffffffffffffffffffffff0000000000000000000000000000000000000000ff871617968790557fffffffffffffffffffffffff000000000000000000000000000000000000000090931690935560408051948390048216808652929095041660208401528351909391927ff9ffabca9c8276e99321725bcb43fb076a6c66a54b7f21c4e8146d8519b417dc92908290030190a1600554604080516001600160a01b038085168252909216602083015280517fca4f2f25d0898edd99413412fb94012f9e54ec8142f9b093e7720646a95b16a99281900390910190a160009250505090565b60008061203c6117ca565b905080156120625761205a81601081111561205357fe5b604061219e565b915050610d44565b610d40836128cb565b6007546001600160a01b031681565b6004546001600160a01b031681565b600080612097858585613364565b509150505b9392505050565b60035461010090046001600160a01b031681565b6007546000906001600160a01b03166315f240536120d361282e565b600c54600d546040518463ffffffff1660e01b815260040180848152602001838152602001828152602001935050505060206040518083038186803b158015611c2057600080fd5b6000805460ff16612160576040805162461bcd60e51b815260206004820152600a6024820152691c994b595b9d195c995960b21b604482015290519081900360640190fd5b6000805460ff191681556121726117ca565b905080156121905761151381601081111561218957fe5b604661219e565b61152483613496565b600181565b60007f45b96fe442630264581b197e84bbada861235052c5a1aadfff9ea4e40a969aa08360108111156121cd57fe5b8360508111156121d957fe5b604080519283526020830191909152600082820152519081900360600190a182601081111561209c57fe5b60008054819060ff1661224b576040805162461bcd60e51b815260206004820152600a6024820152691c994b595b9d195c995960b21b604482015290519081900360640190fd5b6000805460ff1916815561225d6117ca565b905080156122885761227b81601081111561227457fe5b603661219e565b9250600091506122999050565b61229333338661353e565b92509250505b6000805460ff191660011790559092909150565b600e546000908190806122c857505060085460009150612358565b60006122d261282e565b905060006122de6154fc565b60006122ef84600c54600d546139b9565b93509050600081600381111561230157fe5b14612316579550600094506123589350505050565b61232083866139f7565b92509050600081600381111561233257fe5b14612347579550600094506123589350505050565b505160009550935061235892505050565b9091565b600654604080517fbdcdc2580000000000000000000000000000000000000000000000000000000081523060048201526001600160a01b03868116602483015285811660448301526064820185905291516000938493169163bdcdc25891608480830192602092919082900301818787803b1580156123da57600080fd5b505af11580156123ee573d6000803e3d6000fd5b505050506040513d602081101561240457600080fd5b5051905080156124235761241b6003604a83612e51565b91505061109e565b836001600160a01b0316856001600160a01b031614156124495761241b6002604b61219e565b60006001600160a01b0387811690871614156124685750600019612490565b506001600160a01b038086166000908152601060209081526040808320938a16835292905220545b6000806000806124a08589612dc6565b909450925060008460038111156124b357fe5b146124d1576124c46009604b61219e565b965050505050505061109e565b6001600160a01b038a166000908152600f60205260409020546124f49089612dc6565b9094509150600084600381111561250757fe5b14612518576124c46009604c61219e565b6001600160a01b0389166000908152600f602052604090205461253b9089612eb7565b9094509050600084600381111561254e57fe5b1461255f576124c46009604d61219e565b6001600160a01b03808b166000908152600f6020526040808220859055918b1681522081905560001985146125b7576001600160a01b03808b166000908152601060209081526040808320938f168352929052208390555b886001600160a01b03168a6001600160a01b03167fddf252ad1be2c89b69c2b068fc378daa952ba7f163c4a11628f55a4df523b3ef8a6040518082815260200191505060405180910390a3600654604080517f6a56947e0000000000000000000000000000000000000000000000000000000081523060048201526001600160a01b038d811660248301528c81166044830152606482018c905291519190921691636a56947e91608480830192600092919082900301818387803b15801561267e57600080fd5b505af1158015612692573d6000803e3d6000fd5b5050604080516001600160a01b038e1681526020810186905281517f88254844946c31d824a5d167e83afa5982e88288bdeb6bc71961a585e2505d1b9450908190039091019150a1604080516001600160a01b038b1681526020810183905281517f88254844946c31d824a5d167e83afa5982e88288bdeb6bc71961a585e2505d1b929181900390910190a15060009a9950505050505050505050565b60008054819060ff16612776576040805162461bcd60e51b815260206004820152600a6024820152691c994b595b9d195c995960b21b604482015290519081900360640190fd5b6000805460ff191681556127886117ca565b905080156127b3576127a681601081111561279f57fe5b603561219e565b9250600091506127c49050565b6127be33868661353e565b92509250505b6000805460ff1916600117905590939092509050565b60008060006127e76154fc565b6127f18686612de9565b9092509050600082600381111561280457fe5b146128155750915060009050612827565b600061282082613aa7565b9350935050505b9250929050565b601254604080517f70a0823100000000000000000000000000000000000000000000000000000000815230600482015290516000926001600160a01b03169182916370a0823191602480820192602092909190829003018186803b15801561289557600080fd5b505afa1580156128a9573d6000803e3d6000fd5b505050506040513d60208110156128bf57600080fd5b505191505090565b4390565b600354600090819061010090046001600160a01b031633146128f35761205a6001604261219e565b6128fb6128c7565b600a541461290f5761205a600a604161219e565b600760009054906101000a90046001600160a01b03169050826001600160a01b0316632191f92a6040518163ffffffff1660e01b815260040160206040518083038186803b15801561296057600080fd5b505afa158015612974573d6000803e3d6000fd5b505050506040513d602081101561298a57600080fd5b50516129dd576040805162461bcd60e51b815260206004820152601c60248201527f6d61726b6572206d6574686f642072657475726e65642066616c736500000000604482015290519081900360640190fd5b600780547fffffffffffffffffffffffff0000000000000000000000000000000000000000166001600160a01b03858116918217909255604080519284168352602083019190915280517fedffc32e068c7c95dfd4bdfd5c4d939a084d6b11c4199eac8436ed234d72f9269281900390910190a16000610d40565b6000805460ff16612a9d576040805162461bcd60e51b815260206004820152600a6024820152691c994b595b9d195c995960b21b604482015290519081900360640190fd5b6000805460ff19168155612aaf6117ca565b90508015612acd57611513816010811115612ac657fe5b604e61219e565b612ad683613ab6565b509150506000805460ff19166001179055919050565b60045460009081906001600160a01b03163314612b0f5761205a6001603161219e565b612b176128c7565b600a5414612b2b5761205a600a603361219e565b82612b3461282e565b1015612b465761205a600e603261219e565b600d54831115612b5c5761205a6002603461219e565b50600d5482810390811115612ba25760405162461bcd60e51b81526004018080602001828103825260248152602001806158ac6024913960400191505060405180910390fd5b600d819055600454612bbd906001600160a01b031684613b9e565b600454604080516001600160a01b03909216825260208201859052818101839052517f3bad0c59cf2f06e7314077049f48a93578cd16f5ef92329f1dab1420a99c177e9181900360600190a16000610d40565b6000805460ff16612c55576040805162461bcd60e51b815260206004820152600a6024820152691c994b595b9d195c995960b21b604482015290519081900360640190fd5b6000805460ff19168155612c676117ca565b90508015612c8557611513816010811115612c7e57fe5b602761219e565b61152433600085613cda565b6001600160a01b038116600090815260116020526040812080548291829182918291612cc8575060009450849350612d4092505050565b612cd88160000154600b5461422f565b90945092506000846003811115612ceb57fe5b14612d00575091935060009250612d40915050565b612d0e83826001015461426e565b90945091506000846003811115612d2157fe5b14612d36575091935060009250612d40915050565b5060009450925050505b915091565b60008054819060ff16612d8c576040805162461bcd60e51b815260206004820152600a6024820152691c994b595b9d195c995960b21b604482015290519081900360640190fd5b6000805460ff19168155612d9e6117ca565b90508015612dbc5761227b816010811115612db557fe5b601e61219e565b6122933385614299565b600080838311612ddd575060009050818303612827565b50600390506000612827565b6000612df36154fc565b600080612e0486600001518661422f565b90925090506000826003811115612e1757fe5b14612e3657506040805160208101909152600081529092509050612827565b60408051602081019091529081526000969095509350505050565b60007f45b96fe442630264581b197e84bbada861235052c5a1aadfff9ea4e40a969aa0846010811115612e8057fe5b846050811115612e8c57fe5b604080519283526020830191909152818101859052519081900360600190a183601081111561109e57fe5b600080838301848110612ecf57600092509050612827565b506002915060009050612827565b6000806000612eea6154fc565b612ef48787612de9565b90925090506000826003811115612f0757fe5b14612f185750915060009050612f31565b612f2a612f2482613aa7565b86612eb7565b9350935050505b935093915050565b600654604080517fd02f73510000000000000000000000000000000000000000000000000000000081523060048201526001600160a01b038781166024830152868116604483015285811660648301526084820185905291516000938493169163d02f73519160a480830192602092919082900301818787803b158015612fbf57600080fd5b505af1158015612fd3573d6000803e3d6000fd5b505050506040513d6020811015612fe957600080fd5b5051905080156130005761241b6003601b83612e51565b846001600160a01b0316846001600160a01b031614156130265761241b6006601c61219e565b6001600160a01b0384166000908152600f60205260408120548190819061304d9087612dc6565b9093509150600083600381111561306057fe5b14613083576130786009601a8560038111156119cb57fe5b94505050505061109e565b6001600160a01b0388166000908152600f60205260409020546130a69087612eb7565b909350905060008360038111156130b957fe5b146130d157613078600960198560038111156119cb57fe5b6001600160a01b038088166000818152600f60209081526040808320879055938c168083529184902085905583518a8152935191937fddf252ad1be2c89b69c2b068fc378daa952ba7f163c4a11628f55a4df523b3ef929081900390910190a3604080516001600160a01b03891681526020810184905281517f88254844946c31d824a5d167e83afa5982e88288bdeb6bc71961a585e2505d1b929181900390910190a1604080516001600160a01b038a1681526020810183905281517f88254844946c31d824a5d167e83afa5982e88288bdeb6bc71961a585e2505d1b929181900390910190a1600654604080517f6d35bf910000000000000000000000000000000000000000000000000000000081523060048201526001600160a01b038c811660248301528b811660448301528a81166064830152608482018a905291519190921691636d35bf919160a480830192600092919082900301818387803b15801561323d57600080fd5b505af1158015613251573d6000803e3d6000fd5b506000925061325e915050565b9998505050505050505050565b6000805460ff166132b0576040805162461bcd60e51b815260206004820152600a6024820152691c994b595b9d195c995960b21b604482015290519081900360640190fd5b6000805460ff191681556132c26117ca565b905080156132e0576115138160108111156132d957fe5b600861219e565b6115243384614783565b6000805460ff1661332f576040805162461bcd60e51b815260206004820152600a6024820152691c994b595b9d195c995960b21b604482015290519081900360640190fd5b6000805460ff191681556133416117ca565b9050801561335857611513816010811115612c7e57fe5b61152433846000613cda565b60008054819060ff166133ab576040805162461bcd60e51b815260206004820152600a6024820152691c994b595b9d195c995960b21b604482015290519081900360640190fd5b6000805460ff191681556133bd6117ca565b905080156133e8576133db8160108111156133d457fe5b600f61219e565b92506000915061347f9050565b836001600160a01b031663a6afed956040518163ffffffff1660e01b8152600401602060405180830381600087803b15801561342357600080fd5b505af1158015613437573d6000803e3d6000fd5b505050506040513d602081101561344d57600080fd5b50519050801561346d576133db81601081111561346657fe5b601061219e565b61347933878787614ace565b92509250505b6000805460ff191660011790559094909350915050565b60035460009061010090046001600160a01b031633146134bc57610cbf6001604761219e565b6134c46128c7565b600a54146134d857610cbf600a604861219e565b670de0b6b3a76400008211156134f457610cbf6002604961219e565b6009805490839055604080518281526020810185905281517faaa68312e2ea9d50e16af5068410ab56e1a1fd06037b1a35664812c30f821460929181900390910190a16000610d40565b600654604080517f24008a620000000000000000000000000000000000000000000000000000000081523060048201526001600160a01b0386811660248301528581166044830152606482018590529151600093849384939116916324008a629160848082019260209290919082900301818787803b1580156135c057600080fd5b505af11580156135d4573d6000803e3d6000fd5b505050506040513d60208110156135ea57600080fd5b50519050801561360e576136016003603883612e51565b925060009150612f319050565b6136166128c7565b600a541461362a57613601600a603961219e565b61363261558d565b6001600160a01b038616600090815260116020526040902060010154606082015261365c86612c91565b608083018190526020830182600381111561367357fe5b600381111561367e57fe5b905250600090508160200151600381111561369557fe5b146136bf576136b160096037836020015160038111156119cb57fe5b935060009250612f31915050565b6000198514156136d857608081015160408201526136e0565b604081018590525b6136ee8782604001516150bf565b60e08201819052608082015161370391612dc6565b60a083018190526020830182600381111561371a57fe5b600381111561372557fe5b905250600090508160200151600381111561373c57fe5b146137785760405162461bcd60e51b815260040180806020018281038252603a81526020018061577d603a913960400191505060405180910390fd5b613788600c548260e00151612dc6565b60c083018190526020830182600381111561379f57fe5b60038111156137aa57fe5b90525060009050816020015160038111156137c157fe5b146137fd5760405162461bcd60e51b81526004018080602001828103825260318152602001806157b76031913960400191505060405180910390fd5b8060a0015160116000886001600160a01b03166001600160a01b0316815260200190815260200160002060000181905550600b5460116000886001600160a01b03166001600160a01b03168152602001908152602001600020600101819055508060c00151600c819055507f6fadbf7329d21f278e724fa0d4511001a158f2a97ee35c5bc4cf8b64417399ef87878360e001518460a001518560c00151600b5460405180876001600160a01b03166001600160a01b03168152602001866001600160a01b03166001600160a01b03168152602001858152602001848152602001838152602001828152602001965050505050505060405180910390a160065460e08201516060830151604080517f1ededc910000000000000000000000000000000000000000000000000000000081523060048201526001600160a01b038c811660248301528b8116604483015260648201949094526084810192909252519190921691631ededc919160a480830192600092919082900301818387803b15801561398757600080fd5b505af115801561399b573d6000803e3d6000fd5b505050506139a7615354565b60e00151600097909650945050505050565b6000806000806139c98787612eb7565b909250905060008260038111156139dc57fe5b146139ed5750915060009050612f31565b612f2a8186612dc6565b6000613a016154fc565b600080613a1686670de0b6b3a764000061422f565b90925090506000826003811115613a2957fe5b14613a4857506040805160208101909152600081529092509050612827565b600080613a55838861426e565b90925090506000826003811115613a6857fe5b14613a8a57506040805160208101909152600081529094509250612827915050565b604080516020810190915290815260009890975095505050505050565b51670de0b6b3a7640000900490565b600080600080613ac46128c7565b600a5414613ae357613ad8600a604f61219e565b93509150612d409050565b613aed33866150bf565b905080600d54019150600d54821015613b4d576040805162461bcd60e51b815260206004820181905260248201527f61646420726573657276657320756e6578706563746564206f766572666c6f77604482015290519081900360640190fd5b600d829055604080513381526020810183905280820184905290517fa91e67c5ea634cd43a12c5a482724b03de01e85ca68702a53d0c2f45cb7c1dc59181900360600190a160009350915050915091565b601254604080517fa9059cbb0000000000000000000000000000000000000000000000000000000081526001600160a01b0385811660048301526024820185905291519190921691829163a9059cbb9160448082019260009290919082900301818387803b158015613c0f57600080fd5b505af1158015613c23573d6000803e3d6000fd5b506000925050506001600160a01b03821673a614f803b6fd780986a42c78ec9c7f77e6ded13c1415613c56575050613cd6565b3d8015613c6a5760208114613c7457600080fd5b6000199150613c80565b60206000803e60005191505b5080613cd3576040805162461bcd60e51b815260206004820152601960248201527f544f4b454e5f5452414e534645525f4f55545f4641494c454400000000000000604482015290519081900360640190fd5b50505b5050565b6000821580613ce7575081155b613d225760405162461bcd60e51b81526004018080602001828103825260348152602001806158786034913960400191505060405180910390fd5b613d2a6155d3565b613d326122ad565b6040830181905260208301826003811115613d4957fe5b6003811115613d5457fe5b9052506000905081602001516003811115613d6b57fe5b14613d8f57613d876009602b836020015160038111156119cb57fe5b91505061209c565b8315613e10576060810184905260408051602081018252908201518152613db690856127da565b6080830181905260208301826003811115613dcd57fe5b6003811115613dd857fe5b9052506000905081602001516003811115613def57fe5b14613e0b57613d8760096029836020015160038111156119cb57fe5b613e89565b613e2c836040518060200160405280846040015181525061548b565b6060830181905260208301826003811115613e4357fe5b6003811115613e4e57fe5b9052506000905081602001516003811115613e6557fe5b14613e8157613d876009602a836020015160038111156119cb57fe5b608081018390525b6006546060820151604080517feabe7d910000000000000000000000000000000000000000000000000000000081523060048201526001600160a01b03898116602483015260448201939093529051600093929092169163eabe7d919160648082019260209290919082900301818787803b158015613f0757600080fd5b505af1158015613f1b573d6000803e3d6000fd5b505050506040513d6020811015613f3157600080fd5b505190508015613f5157613f486003602883612e51565b9250505061209c565b613f596128c7565b600a5414613f6d57613f48600a602c61219e565b613f7d600e548360600151612dc6565b60a0840181905260208401826003811115613f9457fe5b6003811115613f9f57fe5b9052506000905082602001516003811115613fb657fe5b14613fd257613f486009602e846020015160038111156119cb57fe5b6001600160a01b0386166000908152600f60205260409020546060830151613ffa9190612dc6565b60c084018190526020840182600381111561401157fe5b600381111561401c57fe5b905250600090508260200151600381111561403357fe5b1461404f57613f486009602d846020015160038111156119cb57fe5b816080015161405c61282e565b101561406e57613f48600e602f61219e565b61407c868360800151613b9e565b60a0820151600e5560c08201516001600160a01b0387166000818152600f60209081526040918290209390935560608501518151908152905130937fddf252ad1be2c89b69c2b068fc378daa952ba7f163c4a11628f55a4df523b3ef928290030190a36080820151606080840151604080516001600160a01b038b168152602081019490945283810191909152517fe5b754fb1abb7f01b499791d0b820ae3b6af3424ac1c59768edb53f4ec31a9299281900390910190a160c0820151604080516001600160a01b0389168152602081019290925280517f88254844946c31d824a5d167e83afa5982e88288bdeb6bc71961a585e2505d1b9281900390910190a160065460808301516060840151604080517f51dff9890000000000000000000000000000000000000000000000000000000081523060048201526001600160a01b038b81166024830152604482019490945260648101929092525191909216916351dff98991608480830192600092919082900301818387803b15801561420357600080fd5b505af1158015614217573d6000803e3d6000fd5b50505050614223615354565b60009695505050505050565b6000808361424257506000905080612827565b8383028385828161424f57fe5b041461426357506002915060009050612827565b600092509050612827565b600080826142825750600190506000612827565b600083858161428d57fe5b04915091509250929050565b600654604080517f4ef4c3e10000000000000000000000000000000000000000000000000000000081523060048201526001600160a01b03858116602483015260448201859052915160009384938493911691634ef4c3e19160648082019260209290919082900301818787803b15801561431357600080fd5b505af1158015614327573d6000803e3d6000fd5b505050506040513d602081101561433d57600080fd5b505190508015614361576143546003601f83612e51565b9250600091506128279050565b6143696128c7565b600a541461437d57614354600a602261219e565b6143856155d3565b61438d6122ad565b60408301819052602083018260038111156143a457fe5b60038111156143af57fe5b90525060009050816020015160038111156143c657fe5b146143f0576143e260096021836020015160038111156119cb57fe5b935060009250612827915050565b6143fa86866150bf565b60c082018190526040805160208101825290830151815261441b919061548b565b606083018190526020830182600381111561443257fe5b600381111561443d57fe5b905250600090508160200151600381111561445457fe5b146144a6576040805162461bcd60e51b815260206004820181905260248201527f4d494e545f45584348414e47455f43414c43554c4154494f4e5f4641494c4544604482015290519081900360640190fd5b6144b6600e548260600151612eb7565b60808301819052602083018260038111156144cd57fe5b60038111156144d857fe5b90525060009050816020015160038111156144ef57fe5b1461452b5760405162461bcd60e51b81526004018080602001828103825260288152602001806158506028913960400191505060405180910390fd5b6001600160a01b0386166000908152600f602052604090205460608201516145539190612eb7565b60a083018190526020830182600381111561456a57fe5b600381111561457557fe5b905250600090508160200151600381111561458c57fe5b146145c85760405162461bcd60e51b815260040180806020018281038252602b81526020018061571b602b913960400191505060405180910390fd5b6080810151600e5560a08101516001600160a01b0387166000818152600f60209081526040918290209390935560c084015160608086015183519485529484019190915282820193909352517f4c209b5fc8ad50758f13e2e1088ba56a560dff690a1c6fef26394f4c03821c4f929181900390910190a1606081015160408051918252516001600160a01b0388169130917fddf252ad1be2c89b69c2b068fc378daa952ba7f163c4a11628f55a4df523b3ef9181900360200190a360a0810151604080516001600160a01b0389168152602081019290925280517f88254844946c31d824a5d167e83afa5982e88288bdeb6bc71961a585e2505d1b9281900390910190a160065460c08201516060830151604080517f41c728b90000000000000000000000000000000000000000000000000000000081523060048201526001600160a01b038b81166024830152604482019490945260648101929092525191909216916341c728b991608480830192600092919082900301818387803b15801561475257600080fd5b505af1158015614766573d6000803e3d6000fd5b50505050614772615354565b60c001516000969095509350505050565b600654604080517fda3d454c0000000000000000000000000000000000000000000000000000000081523060048201526001600160a01b0385811660248301526044820185905291516000938493169163da3d454c91606480830192602092919082900301818787803b1580156147f957600080fd5b505af115801561480d573d6000803e3d6000fd5b505050506040513d602081101561482357600080fd5b5051905080156148425761483a6003600e83612e51565b915050610db0565b61484a6128c7565b600a541461485d5761483a600a8061219e565b8261486661282e565b10156148785761483a600e600961219e565b614880615611565b61488985612c91565b602083018190528282600381111561489d57fe5b60038111156148a857fe5b90525060009050815160038111156148bc57fe5b146148e1576148d860096007836000015160038111156119cb57fe5b92505050610db0565b6148ef816020015185612eb7565b604083018190528282600381111561490357fe5b600381111561490e57fe5b905250600090508151600381111561492257fe5b1461493e576148d86009600c836000015160038111156119cb57fe5b61494a600c5485612eb7565b606083018190528282600381111561495e57fe5b600381111561496957fe5b905250600090508151600381111561497d57fe5b14614999576148d86009600b836000015160038111156119cb57fe5b6149a38585613b9e565b604080820180516001600160a01b03881660008181526011602090815290859020928355600b546001909301839055606080870151600c819055945186519384529183018a905282860191909152810192909252608082015290517f2dd79f4fccfd18c360ce7f9132f3621bf05eee18f995224badb32d17f172df739181900360a00190a1614a30615354565b600654604080517f5c7786050000000000000000000000000000000000000000000000000000000081523060048201526001600160a01b0388811660248301526044820188905291519190921691635c77860591606480830192600092919082900301818387803b158015614aa457600080fd5b505af1158015614ab8573d6000803e3d6000fd5b5060009250614ac5915050565b95945050505050565b600654604080517f5fc7e71e0000000000000000000000000000000000000000000000000000000081523060048201526001600160a01b0384811660248301528781166044830152868116606483015260848201869052915160009384938493911691635fc7e71e9160a48082019260209290919082900301818787803b158015614b5857600080fd5b505af1158015614b6c573d6000803e3d6000fd5b505050506040513d6020811015614b8257600080fd5b505190508015614ba657614b996003601283612e51565b9250600091506150b69050565b614bae6128c7565b600a5414614bc257614b99600a601661219e565b614bca6128c7565b846001600160a01b0316636c540baf6040518163ffffffff1660e01b815260040160206040518083038186803b158015614c0357600080fd5b505afa158015614c17573d6000803e3d6000fd5b505050506040513d6020811015614c2d57600080fd5b505114614c4057614b99600a601161219e565b866001600160a01b0316866001600160a01b03161415614c6657614b996006601761219e565b84614c7757614b996007601561219e565b600019851415614c8d57614b996007601461219e565b600080614c9b89898961353e565b90925090508115614ccb57614cbc826010811115614cb557fe5b601861219e565b9450600093506150b692505050565b600654604080517fc488847b0000000000000000000000000000000000000000000000000000000081523060048201526001600160a01b038981166024830152604482018590528251600094859492169263c488847b926064808301939192829003018186803b158015614d3e57600080fd5b505afa158015614d52573d6000803e3d6000fd5b505050506040513d6040811015614d6857600080fd5b50805160209091015190925090508115614db35760405162461bcd60e51b81526004018080602001828103825260338152602001806157e86033913960400191505060405180910390fd5b80886001600160a01b03166370a082318c6040518263ffffffff1660e01b815260040180826001600160a01b03166001600160a01b0316815260200191505060206040518083038186803b158015614e0a57600080fd5b505afa158015614e1e573d6000803e3d6000fd5b505050506040513d6020811015614e3457600080fd5b50511015614e89576040805162461bcd60e51b815260206004820152601860248201527f4c49515549444154455f5345495a455f544f4f5f4d5543480000000000000000604482015290519081900360640190fd5b60006001600160a01b038916301415614eaf57614ea8308d8d85612f39565b9050614f52565b604080517fb2a02ff10000000000000000000000000000000000000000000000000000000081526001600160a01b038e811660048301528d81166024830152604482018590529151918b169163b2a02ff1916064808201926020929091908290030181600087803b158015614f2357600080fd5b505af1158015614f37573d6000803e3d6000fd5b505050506040513d6020811015614f4d57600080fd5b505190505b8015614fa5576040805162461bcd60e51b815260206004820152601460248201527f746f6b656e207365697a757265206661696c6564000000000000000000000000604482015290519081900360640190fd5b604080516001600160a01b03808f168252808e1660208301528183018790528b1660608201526080810184905290517f298637f684da70674f26509b10f07ec2fbc77a335ab1e7d6215a4b2484d8bb529181900360a00190a1600654604080517f47ef3b3b0000000000000000000000000000000000000000000000000000000081523060048201526001600160a01b038c811660248301528f811660448301528e811660648301526084820188905260a48201869052915191909216916347ef3b3b9160c480830192600092919082900301818387803b15801561508957600080fd5b505af115801561509d573d6000803e3d6000fd5b505050506150a9615354565b6000975092955050505050505b94509492505050565b601254604080517f70a0823100000000000000000000000000000000000000000000000000000000815230600482015290516000926001600160a01b031691839183916370a08231916024808301926020929190829003018186803b15801561512757600080fd5b505afa15801561513b573d6000803e3d6000fd5b505050506040513d602081101561515157600080fd5b5051604080517f23b872dd0000000000000000000000000000000000000000000000000000000081526001600160a01b038881166004830152306024830152604482018890529151929350908416916323b872dd9160648082019260009290919082900301818387803b1580156151c757600080fd5b505af11580156151db573d6000803e3d6000fd5b5050505060003d600081146151f7576020811461520157600080fd5b600019915061520d565b60206000803e60005191505b5080615260576040805162461bcd60e51b815260206004820152601860248201527f544f4b454e5f5452414e534645525f494e5f4641494c45440000000000000000604482015290519081900360640190fd5b601254604080517f70a0823100000000000000000000000000000000000000000000000000000000815230600482015290516000926001600160a01b0316916370a08231916024808301926020929190829003018186803b1580156152c457600080fd5b505afa1580156152d8573d6000803e3d6000fd5b505050506040513d60208110156152ee57600080fd5b5051905082811015615347576040805162461bcd60e51b815260206004820152601a60248201527f544f4b454e5f5452414e534645525f494e5f4f564552464c4f57000000000000604482015290519081900360640190fd5b9190910395945050505050565b600061535e6110a6565b90506000600e5460001461541757600754600c54600d54604080517f15f240530000000000000000000000000000000000000000000000000000000081526004810187905260248101939093526044830191909152516001600160a01b03909216916315f2405391606480820192602092909190829003018186803b1580156153e657600080fd5b505afa1580156153fa573d6000803e3d6000fd5b505050506040513d602081101561541057600080fd5b505161541a565b60005b600c54600d54600e54600b546009546040805189815260208101969096528581019490945260608501929092526080840185905260a084015260c0830152519192507f834b66d4671f0b5428a4cc4c73af4c1a637d7f329457542766b847a8335b83f6919081900360e00190a15050565b60008060006154986154fc565b6127f1868660006154a76154fc565b6000806154bc670de0b6b3a76400008761422f565b909250905060008260038111156154cf57fe5b146154ee57506040805160208101909152600081529092509050612827565b6128208186600001516139f7565b6040518060200160405280600081525090565b828054600181600116156101000203166002900490600052602060002090601f016020900481019282601f1061555057805160ff191683800117855561557d565b8280016001018555821561557d579182015b8281111561557d578251825591602001919060010190615562565b5061558992915061563a565b5090565b6040805161010081019091528060008152602001600081526020016000815260200160008152602001600081526020016000815260200160008152602001600081525090565b6040805160e0810190915280600081526020016000815260200160008152602001600081526020016000815260200160008152602001600081525090565b604080516080810190915280600081526020016000815260200160008152602001600081525090565b610f4d91905b80821115615589576000815560010161564056fe6f6e6c792061646d696e206d617920696e697469616c697a6520746865206d61726b65746d61726b6574206d6179206f6e6c7920626520696e697469616c697a6564206f6e6365696e697469616c2065786368616e67652072617465206d7573742062652067726561746572207468616e207a65726f2e73657474696e6720696e7465726573742072617465206d6f64656c206661696c65646f6e6c79207468652061646d696e206d61792063616c6c205f72657369676e496d706c656d656e746174696f6e4d494e545f4e45575f4143434f554e545f42414c414e43455f43414c43554c4154494f4e5f4641494c4544626f72726f7742616c616e636553746f7265643a20626f72726f7742616c616e636553746f726564496e7465726e616c206661696c656452455041595f424f52524f575f4e45575f4143434f554e545f424f52524f575f42414c414e43455f43414c43554c4154494f4e5f4641494c454452455041595f424f52524f575f4e45575f544f54414c5f42414c414e43455f43414c43554c4154494f4e5f4641494c45444c49515549444154455f434f4d5054524f4c4c45525f43414c43554c4154455f414d4f554e545f5345495a455f4641494c454465786368616e67655261746553746f7265643a2065786368616e67655261746553746f726564496e7465726e616c206661696c65644d494e545f4e45575f544f54414c5f535550504c595f43414c43554c4154494f4e5f4641494c45446f6e65206f662072656465656d546f6b656e73496e206f722072656465656d416d6f756e74496e206d757374206265207a65726f72656475636520726573657276657320756e657870656374656420756e646572666c6f776f6e6c79207468652061646d696e206d61792063616c6c205f6265636f6d65496d706c656d656e746174696f6ea265627a7a72315820d44a7cdc2be5c3ab6530e7160e9810503f631424e6f7a6d419ecc5791e69456d64736f6c634300050c0032",
  "source": "pragma solidity ^0.5.12;\n\nimport \"./CErc20.sol\";\n\n/**\n * @title Compound's CErc20Delegate Contract\n * @notice CTokens which wrap an EIP-20 underlying and are delegated to\n * @author Compound\n */\ncontract CErc20Delegate is CErc20, CDelegateInterface {\n    /**\n     * @notice Construct an empty delegate\n     */\n    constructor() public {}\n\n    /**\n     * @notice Called by the delegator on a delegate to initialize it for duty\n     * @param data The encoded bytes data for any initialization\n     */\n    function _becomeImplementation(bytes memory data) public {\n        // Shh -- currently unused\n        data;\n\n        // Shh -- we don't ever want this hook to be marked pure\n        if (false) {\n            implementation = address(0);\n        }\n\n        require(msg.sender == admin, \"only the admin may call _becomeImplementation\");\n    }\n\n    /**\n     * @notice Called by the delegator on a delegate to forfeit its responsibility\n     */\n    function _resignImplementation() public {\n        // Shh -- we don't ever want this hook to be marked pure\n        if (false) {\n            implementation = address(0);\n        }\n\n        require(msg.sender == admin, \"only the admin may call _resignImplementation\");\n    }\n}\n",
  "sourcePath": "/Users/simtzujye/Desktop/hackathons/near-metabuild-hackathon-3/uruz-finance-near-protocol/contracts/CErc20Delegate.sol",
  "compiler": {
    "name": "solc",
    "version": "0.5.12+commit.7709ece9.Emscripten.clang"
  },
  "schemaVersion": "3.4.10",
  "updatedAt": "2022-11-17T07:10:49.347Z",
  "networkType": "ethereum",
  "devdoc": {
    "author": "Compound",
    "methods": {
      "_acceptAdmin()": {
        "details": "Admin function for pending admin to accept role and update admin",
        "return": "uint 0=success, otherwise a failure (see ErrorReporter.sol for details)"
      },
      "_addReserves(uint256)": {
        "params": {
          "addAmount": "The amount fo underlying token to add as reserves"
        },
        "return": "uint 0=success, otherwise a failure (see ErrorReporter.sol for details)"
      },
      "_becomeImplementation(bytes)": {
        "params": {
          "data": "The encoded bytes data for any initialization"
        }
      },
      "_reduceReserves(uint256)": {
        "params": {
          "reduceAmount": "Amount of reduction to reserves"
        },
        "return": "uint 0=success, otherwise a failure (see ErrorReporter.sol for details)"
      },
      "_setComptroller(address)": {
        "details": "Admin function to set a new comptroller",
        "return": "uint 0=success, otherwise a failure (see ErrorReporter.sol for details)"
      },
      "_setInterestRateModel(address)": {
        "details": "Admin function to accrue interest and update the interest rate model",
        "params": {
          "newInterestRateModel": "the new interest rate model to use"
        },
        "return": "uint 0=success, otherwise a failure (see ErrorReporter.sol for details)"
      },
      "_setPendingAdmin(address)": {
        "details": "Admin function to begin change of admin. The newPendingAdmin must call `_acceptAdmin` to finalize the transfer.",
        "params": {
          "newPendingAdmin": "New pending admin."
        },
        "return": "uint 0=success, otherwise a failure (see ErrorReporter.sol for details)"
      },
      "_setReserveFactor(uint256)": {
        "details": "Admin function to accrue interest and set a new reserve factor",
        "return": "uint 0=success, otherwise a failure (see ErrorReporter.sol for details)"
      },
      "accrueInterest()": {
        "details": "This calculates interest accrued from the last checkpointed block  up to the current block and writes new checkpoint to storage."
      },
      "allowance(address,address)": {
        "params": {
          "owner": "The address of the account which owns the tokens to be spent",
          "spender": "The address of the account which may transfer tokens"
        },
        "return": "The number of tokens allowed to be spent (-1 means infinite)"
      },
      "approve(address,uint256)": {
        "details": "This will overwrite the approval amount for `spender` and is subject to issues noted [here](https://eips.ethereum.org/EIPS/eip-20#approve)",
        "params": {
          "amount": "The number of tokens that are approved (-1 means infinite)",
          "spender": "The address of the account which may transfer tokens"
        },
        "return": "Whether or not the approval succeeded"
      },
      "balanceOf(address)": {
        "params": {
          "owner": "The address of the account to query"
        },
        "return": "The number of tokens owned by `owner`"
      },
      "balanceOfUnderlying(address)": {
        "details": "This also accrues interest in a transaction",
        "params": {
          "owner": "The address of the account to query"
        },
        "return": "The amount of underlying owned by `owner`"
      },
      "borrow(uint256)": {
        "params": {
          "borrowAmount": "The amount of the underlying asset to borrow"
        },
        "return": "uint 0=success, otherwise a failure (see ErrorReporter.sol for details)"
      },
      "borrowBalanceCurrent(address)": {
        "params": {
          "account": "The address whose balance should be calculated after updating borrowIndex"
        },
        "return": "The calculated balance"
      },
      "borrowBalanceStored(address)": {
        "params": {
          "account": "The address whose balance should be calculated"
        },
        "return": "The calculated balance"
      },
      "borrowRatePerBlock()": {
        "return": "The borrow interest rate per block, scaled by 1e18"
      },
      "exchangeRateCurrent()": {
        "return": "Calculated exchange rate scaled by 1e18"
      },
      "exchangeRateStored()": {
        "details": "This function does not accrue interest before calculating the exchange rate",
        "return": "Calculated exchange rate scaled by 1e18"
      },
      "getAccountSnapshot(address)": {
        "details": "This is used by comptroller to more efficiently perform liquidity checks.",
        "params": {
          "account": "Address of the account to snapshot"
        },
        "return": "(possible error, token balance, borrow balance, exchange rate mantissa)"
      },
      "getCash()": {
        "return": "The quantity of underlying asset owned by this contract"
      },
      "initialize(address,address,address,uint256,string,string,uint8,uint256)": {
        "params": {
          "comptroller_": "The address of the Comptroller",
          "decimals_": "ERC-20 decimal precision of this token",
          "initialExchangeRateMantissa_": "The initial exchange rate, scaled by 1e18",
          "interestRateModel_": "The address of the interest rate model",
          "name_": "ERC-20 name of this token",
          "symbol_": "ERC-20 symbol of this token",
          "underlying_": "The address of the underlying asset"
        }
      },
      "initialize(address,address,uint256,string,string,uint8,uint256)": {
        "params": {
          "comptroller_": "The address of the Comptroller",
          "decimals_": "EIP-20 decimal precision of this token",
          "initialExchangeRateMantissa_": "The initial exchange rate, scaled by 1e18",
          "interestRateModel_": "The address of the interest rate model",
          "name_": "EIP-20 name of this token",
          "symbol_": "EIP-20 symbol of this token"
        }
      },
      "liquidateBorrow(address,uint256,address)": {
        "params": {
          "borrower": "The borrower of this cToken to be liquidated",
          "cTokenCollateral": "The market in which to seize collateral from the borrower",
          "repayAmount": "The amount of the underlying borrowed asset to repay"
        },
        "return": "uint 0=success, otherwise a failure (see ErrorReporter.sol for details)"
      },
      "mint(uint256)": {
        "details": "Accrues interest whether or not the operation succeeds, unless reverted",
        "params": {
          "mintAmount": "The amount of the underlying asset to supply"
        },
        "return": "uint 0=success, otherwise a failure (see ErrorReporter.sol for details)"
      },
      "redeem(uint256)": {
        "details": "Accrues interest whether or not the operation succeeds, unless reverted",
        "params": {
          "redeemTokens": "The number of cTokens to redeem into underlying"
        },
        "return": "uint 0=success, otherwise a failure (see ErrorReporter.sol for details)"
      },
      "redeemUnderlying(uint256)": {
        "details": "Accrues interest whether or not the operation succeeds, unless reverted",
        "params": {
          "redeemAmount": "The amount of underlying to redeem"
        },
        "return": "uint 0=success, otherwise a failure (see ErrorReporter.sol for details)"
      },
      "repayBorrow(uint256)": {
        "params": {
          "repayAmount": "The amount to repay"
        },
        "return": "uint 0=success, otherwise a failure (see ErrorReporter.sol for details)"
      },
      "repayBorrowBehalf(address,uint256)": {
        "params": {
          "borrower": "the account with the debt being payed off",
          "repayAmount": "The amount to repay"
        },
        "return": "uint 0=success, otherwise a failure (see ErrorReporter.sol for details)"
      },
      "seize(address,address,uint256)": {
        "details": "Will fail unless called by another cToken during the process of liquidation. Its absolutely critical to use msg.sender as the borrowed cToken and not a parameter.",
        "params": {
          "borrower": "The account having collateral seized",
          "liquidator": "The account receiving seized collateral",
          "seizeTokens": "The number of cTokens to seize"
        },
        "return": "uint 0=success, otherwise a failure (see ErrorReporter.sol for details)"
      },
      "supplyRatePerBlock()": {
        "return": "The supply interest rate per block, scaled by 1e18"
      },
      "totalBorrowsCurrent()": {
        "return": "The total borrows with interest"
      },
      "transfer(address,uint256)": {
        "params": {
          "amount": "The number of tokens to transfer",
          "dst": "The address of the destination account"
        },
        "return": "Whether or not the transfer succeeded"
      },
      "transferFrom(address,address,uint256)": {
        "params": {
          "amount": "The number of tokens to transfer",
          "dst": "The address of the destination account",
          "src": "The address of the source account"
        },
        "return": "Whether or not the transfer succeeded"
      }
    },
    "title": "Compound's CErc20Delegate Contract"
  },
  "userdoc": {
    "methods": {
      "_acceptAdmin()": {
        "notice": "Accepts transfer of admin rights. msg.sender must be pendingAdmin"
      },
      "_addReserves(uint256)": {
        "notice": "The sender adds to reserves."
      },
      "_becomeImplementation(bytes)": {
        "notice": "Called by the delegator on a delegate to initialize it for duty"
      },
      "_reduceReserves(uint256)": {
        "notice": "Accrues interest and reduces reserves by transferring to admin"
      },
      "_resignImplementation()": {
        "notice": "Called by the delegator on a delegate to forfeit its responsibility"
      },
      "_setComptroller(address)": {
        "notice": "Sets a new comptroller for the market"
      },
      "_setInterestRateModel(address)": {
        "notice": "accrues interest and updates the interest rate model using _setInterestRateModelFresh"
      },
      "_setPendingAdmin(address)": {
        "notice": "Begins transfer of admin rights. The newPendingAdmin must call `_acceptAdmin` to finalize the transfer."
      },
      "_setReserveFactor(uint256)": {
        "notice": "accrues interest and sets a new reserve factor for the protocol using _setReserveFactorFresh"
      },
      "accrueInterest()": {
        "notice": "Applies accrued interest to total borrows and reserves"
      },
      "allowance(address,address)": {
        "notice": "Get the current allowance from `owner` for `spender`"
      },
      "approve(address,uint256)": {
        "notice": "Approve `spender` to transfer up to `amount` from `src`"
      },
      "balanceOf(address)": {
        "notice": "Get the token balance of the `owner`"
      },
      "balanceOfUnderlying(address)": {
        "notice": "Get the underlying balance of the `owner`"
      },
      "borrow(uint256)": {
        "notice": "Sender borrows assets from the protocol to their own address"
      },
      "borrowBalanceCurrent(address)": {
        "notice": "Accrue interest to updated borrowIndex and then calculate account's borrow balance using the updated borrowIndex"
      },
      "borrowBalanceStored(address)": {
        "notice": "Return the borrow balance of account based on stored data"
      },
      "borrowRatePerBlock()": {
        "notice": "Returns the current per-block borrow interest rate for this cToken"
      },
      "constructor": "Construct an empty delegate",
      "exchangeRateCurrent()": {
        "notice": "Accrue interest then return the up-to-date exchange rate"
      },
      "exchangeRateStored()": {
        "notice": "Calculates the exchange rate from the underlying to the CToken"
      },
      "getAccountSnapshot(address)": {
        "notice": "Get a snapshot of the account's balances, and the cached exchange rate"
      },
      "getCash()": {
        "notice": "Get cash balance of this cToken in the underlying asset"
      },
      "initialize(address,address,address,uint256,string,string,uint8,uint256)": {
        "notice": "Initialize the new money market"
      },
      "initialize(address,address,uint256,string,string,uint8,uint256)": {
        "notice": "Initialize the money market"
      },
      "liquidateBorrow(address,uint256,address)": {
        "notice": "The sender liquidates the borrowers collateral. The collateral seized is transferred to the liquidator."
      },
      "mint(uint256)": {
        "notice": "Sender supplies assets into the market and receives cTokens in exchange"
      },
      "redeem(uint256)": {
        "notice": "Sender redeems cTokens in exchange for the underlying asset"
      },
      "redeemUnderlying(uint256)": {
        "notice": "Sender redeems cTokens in exchange for a specified amount of underlying asset"
      },
      "repayBorrow(uint256)": {
        "notice": "Sender repays their own borrow"
      },
      "repayBorrowBehalf(address,uint256)": {
        "notice": "Sender repays a borrow belonging to borrower"
      },
      "seize(address,address,uint256)": {
        "notice": "Transfers collateral tokens (this market) to the liquidator."
      },
      "supplyRatePerBlock()": {
        "notice": "Returns the current per-block supply interest rate for this cToken"
      },
      "totalBorrowsCurrent()": {
        "notice": "Returns the current total borrows plus accrued interest"
      },
      "transfer(address,uint256)": {
        "notice": "Transfer `amount` tokens from `msg.sender` to `dst`"
      },
      "transferFrom(address,address,uint256)": {
        "notice": "Transfer `amount` tokens from `src` to `dst`"
      }
    },
    "notice": "CTokens which wrap an EIP-20 underlying and are delegated to"
  }
}