{
  "contractName": "CErc20Delegator",
  "abi": [
    {
      "inputs": [
        {
          "internalType": "address",
          "name": "underlying_",
          "type": "address"
        },
        {
          "internalType": "contract ComptrollerInterface",
          "name": "comptroller_",
          "type": "address"
        },
        {
          "internalType": "contract InterestRateModel",
          "name": "interestRateModel_",
          "type": "address"
        },
        {
          "internalType": "uint256",
          "name": "initialExchangeRateMantissa_",
          "type": "uint256"
        },
        {
          "internalType": "string",
          "name": "name_",
          "type": "string"
        },
        {
          "internalType": "string",
          "name": "symbol_",
          "type": "string"
        },
        {
          "internalType": "uint8",
          "name": "decimals_",
          "type": "uint8"
        },
        {
          "internalType": "address payable",
          "name": "admin_",
          "type": "address"
        },
        {
          "internalType": "address payable",
          "name": "reserveAdmin_",
          "type": "address"
        },
        {
          "internalType": "address",
          "name": "implementation_",
          "type": "address"
        },
        {
          "internalType": "bytes",
          "name": "becomeImplementationData",
          "type": "bytes"
        },
        {
          "internalType": "uint256",
          "name": "newReserveFactorMantissa_",
          "type": "uint256"
        }
      ],
      "payable": false,
      "stateMutability": "nonpayable",
      "type": "constructor"
    },
    {
      "anonymous": false,
      "inputs": [
        {
          "indexed": false,
          "internalType": "uint256",
          "name": "cashPrior",
          "type": "uint256"
        },
        {
          "indexed": false,
          "internalType": "uint256",
          "name": "interestAccumulated",
          "type": "uint256"
        },
        {
          "indexed": false,
          "internalType": "uint256",
          "name": "borrowIndex",
          "type": "uint256"
        },
        {
          "indexed": false,
          "internalType": "uint256",
          "name": "totalBorrows",
          "type": "uint256"
        }
      ],
      "name": "AccrueInterest",
      "type": "event"
    },
    {
      "anonymous": false,
      "inputs": [
        {
          "indexed": true,
          "internalType": "address",
          "name": "owner",
          "type": "address"
        },
        {
          "indexed": true,
          "internalType": "address",
          "name": "spender",
          "type": "address"
        },
        {
          "indexed": false,
          "internalType": "uint256",
          "name": "amount",
          "type": "uint256"
        }
      ],
      "name": "Approval",
      "type": "event"
    },
    {
      "anonymous": false,
      "inputs": [
        {
          "indexed": false,
          "internalType": "address",
          "name": "borrower",
          "type": "address"
        },
        {
          "indexed": false,
          "internalType": "uint256",
          "name": "borrowAmount",
          "type": "uint256"
        },
        {
          "indexed": false,
          "internalType": "uint256",
          "name": "accountBorrows",
          "type": "uint256"
        },
        {
          "indexed": false,
          "internalType": "uint256",
          "name": "totalBorrows",
          "type": "uint256"
        },
        {
          "indexed": false,
          "internalType": "uint256",
          "name": "borrowIndex",
          "type": "uint256"
        }
      ],
      "name": "Borrow",
      "type": "event"
    },
    {
      "anonymous": false,
      "inputs": [
        {
          "indexed": false,
          "internalType": "uint256",
          "name": "error",
          "type": "uint256"
        },
        {
          "indexed": false,
          "internalType": "uint256",
          "name": "info",
          "type": "uint256"
        },
        {
          "indexed": false,
          "internalType": "uint256",
          "name": "detail",
          "type": "uint256"
        }
      ],
      "name": "Failure",
      "type": "event"
    },
    {
      "anonymous": false,
      "inputs": [
        {
          "indexed": false,
          "internalType": "address",
          "name": "liquidator",
          "type": "address"
        },
        {
          "indexed": false,
          "internalType": "address",
          "name": "borrower",
          "type": "address"
        },
        {
          "indexed": false,
          "internalType": "uint256",
          "name": "repayAmount",
          "type": "uint256"
        },
        {
          "indexed": false,
          "internalType": "address",
          "name": "cTokenCollateral",
          "type": "address"
        },
        {
          "indexed": false,
          "internalType": "uint256",
          "name": "seizeTokens",
          "type": "uint256"
        }
      ],
      "name": "LiquidateBorrow",
      "type": "event"
    },
    {
      "anonymous": false,
      "inputs": [
        {
          "indexed": false,
          "internalType": "address",
          "name": "minter",
          "type": "address"
        },
        {
          "indexed": false,
          "internalType": "uint256",
          "name": "mintAmount",
          "type": "uint256"
        },
        {
          "indexed": false,
          "internalType": "uint256",
          "name": "mintTokens",
          "type": "uint256"
        }
      ],
      "name": "Mint",
      "type": "event"
    },
    {
      "anonymous": false,
      "inputs": [
        {
          "indexed": false,
          "internalType": "address",
          "name": "oldAdmin",
          "type": "address"
        },
        {
          "indexed": false,
          "internalType": "address",
          "name": "newAdmin",
          "type": "address"
        }
      ],
      "name": "NewAdmin",
      "type": "event"
    },
    {
      "anonymous": false,
      "inputs": [
        {
          "indexed": false,
          "internalType": "contract ComptrollerInterface",
          "name": "oldComptroller",
          "type": "address"
        },
        {
          "indexed": false,
          "internalType": "contract ComptrollerInterface",
          "name": "newComptroller",
          "type": "address"
        }
      ],
      "name": "NewComptroller",
      "type": "event"
    },
    {
      "anonymous": false,
      "inputs": [
        {
          "indexed": false,
          "internalType": "address",
          "name": "oldImplementation",
          "type": "address"
        },
        {
          "indexed": false,
          "internalType": "address",
          "name": "newImplementation",
          "type": "address"
        }
      ],
      "name": "NewImplementation",
      "type": "event"
    },
    {
      "anonymous": false,
      "inputs": [
        {
          "indexed": false,
          "internalType": "contract InterestRateModel",
          "name": "oldInterestRateModel",
          "type": "address"
        },
        {
          "indexed": false,
          "internalType": "contract InterestRateModel",
          "name": "newInterestRateModel",
          "type": "address"
        }
      ],
      "name": "NewMarketInterestRateModel",
      "type": "event"
    },
    {
      "anonymous": false,
      "inputs": [
        {
          "indexed": false,
          "internalType": "address",
          "name": "oldPendingAdmin",
          "type": "address"
        },
        {
          "indexed": false,
          "internalType": "address",
          "name": "newPendingAdmin",
          "type": "address"
        }
      ],
      "name": "NewPendingAdmin",
      "type": "event"
    },
    {
      "anonymous": false,
      "inputs": [
        {
          "indexed": false,
          "internalType": "address",
          "name": "oldAdmin",
          "type": "address"
        },
        {
          "indexed": false,
          "internalType": "address",
          "name": "newAdmin",
          "type": "address"
        }
      ],
      "name": "NewReserveAdmin",
      "type": "event"
    },
    {
      "anonymous": false,
      "inputs": [
        {
          "indexed": false,
          "internalType": "uint256",
          "name": "oldReserveFactorMantissa",
          "type": "uint256"
        },
        {
          "indexed": false,
          "internalType": "uint256",
          "name": "newReserveFactorMantissa",
          "type": "uint256"
        }
      ],
      "name": "NewReserveFactor",
      "type": "event"
    },
    {
      "anonymous": false,
      "inputs": [
        {
          "indexed": false,
          "internalType": "address",
          "name": "redeemer",
          "type": "address"
        },
        {
          "indexed": false,
          "internalType": "uint256",
          "name": "redeemAmount",
          "type": "uint256"
        },
        {
          "indexed": false,
          "internalType": "uint256",
          "name": "redeemTokens",
          "type": "uint256"
        }
      ],
      "name": "Redeem",
      "type": "event"
    },
    {
      "anonymous": false,
      "inputs": [
        {
          "indexed": false,
          "internalType": "address",
          "name": "payer",
          "type": "address"
        },
        {
          "indexed": false,
          "internalType": "address",
          "name": "borrower",
          "type": "address"
        },
        {
          "indexed": false,
          "internalType": "uint256",
          "name": "repayAmount",
          "type": "uint256"
        },
        {
          "indexed": false,
          "internalType": "uint256",
          "name": "accountBorrows",
          "type": "uint256"
        },
        {
          "indexed": false,
          "internalType": "uint256",
          "name": "totalBorrows",
          "type": "uint256"
        },
        {
          "indexed": false,
          "internalType": "uint256",
          "name": "borrowIndex",
          "type": "uint256"
        }
      ],
      "name": "RepayBorrow",
      "type": "event"
    },
    {
      "anonymous": false,
      "inputs": [
        {
          "indexed": false,
          "internalType": "address",
          "name": "benefactor",
          "type": "address"
        },
        {
          "indexed": false,
          "internalType": "uint256",
          "name": "addAmount",
          "type": "uint256"
        },
        {
          "indexed": false,
          "internalType": "uint256",
          "name": "newTotalReserves",
          "type": "uint256"
        }
      ],
      "name": "ReservesAdded",
      "type": "event"
    },
    {
      "anonymous": false,
      "inputs": [
        {
          "indexed": false,
          "internalType": "address",
          "name": "admin",
          "type": "address"
        },
        {
          "indexed": false,
          "internalType": "uint256",
          "name": "reduceAmount",
          "type": "uint256"
        },
        {
          "indexed": false,
          "internalType": "uint256",
          "name": "newTotalReserves",
          "type": "uint256"
        }
      ],
      "name": "ReservesReduced",
      "type": "event"
    },
    {
      "anonymous": false,
      "inputs": [
        {
          "indexed": true,
          "internalType": "address",
          "name": "from",
          "type": "address"
        },
        {
          "indexed": true,
          "internalType": "address",
          "name": "to",
          "type": "address"
        },
        {
          "indexed": false,
          "internalType": "uint256",
          "name": "amount",
          "type": "uint256"
        }
      ],
      "name": "Transfer",
      "type": "event"
    },
    {
      "anonymous": false,
      "inputs": [
        {
          "indexed": false,
          "internalType": "address",
          "name": "user",
          "type": "address"
        },
        {
          "indexed": false,
          "internalType": "uint256",
          "name": "utoken_balance",
          "type": "uint256"
        }
      ],
      "name": "UTokenBalance",
      "type": "event"
    },
    {
      "anonymous": false,
      "inputs": [
        {
          "indexed": false,
          "internalType": "uint256",
          "name": "totalCash",
          "type": "uint256"
        },
        {
          "indexed": false,
          "internalType": "uint256",
          "name": "totalBorrow",
          "type": "uint256"
        },
        {
          "indexed": false,
          "internalType": "uint256",
          "name": "totalReserve",
          "type": "uint256"
        },
        {
          "indexed": false,
          "internalType": "uint256",
          "name": "totalSupply",
          "type": "uint256"
        },
        {
          "indexed": false,
          "internalType": "uint256",
          "name": "borrowRatePerBlock",
          "type": "uint256"
        },
        {
          "indexed": false,
          "internalType": "uint256",
          "name": "borrowIndex",
          "type": "uint256"
        },
        {
          "indexed": false,
          "internalType": "uint256",
          "name": "reserveFactorMantissa",
          "type": "uint256"
        }
      ],
      "name": "UTokenStatus",
      "type": "event"
    },
    {
      "payable": true,
      "stateMutability": "payable",
      "type": "fallback"
    },
    {
      "constant": true,
      "inputs": [],
      "name": "accrualBlockNumber",
      "outputs": [
        {
          "internalType": "uint256",
          "name": "",
          "type": "uint256"
        }
      ],
      "payable": false,
      "stateMutability": "view",
      "type": "function"
    },
    {
      "constant": true,
      "inputs": [],
      "name": "admin",
      "outputs": [
        {
          "internalType": "address payable",
          "name": "",
          "type": "address"
        }
      ],
      "payable": false,
      "stateMutability": "view",
      "type": "function"
    },
    {
      "constant": true,
      "inputs": [],
      "name": "borrowIndex",
      "outputs": [
        {
          "internalType": "uint256",
          "name": "",
          "type": "uint256"
        }
      ],
      "payable": false,
      "stateMutability": "view",
      "type": "function"
    },
    {
      "constant": true,
      "inputs": [],
      "name": "comptroller",
      "outputs": [
        {
          "internalType": "contract ComptrollerInterface",
          "name": "",
          "type": "address"
        }
      ],
      "payable": false,
      "stateMutability": "view",
      "type": "function"
    },
    {
      "constant": true,
      "inputs": [],
      "name": "decimals",
      "outputs": [
        {
          "internalType": "uint8",
          "name": "",
          "type": "uint8"
        }
      ],
      "payable": false,
      "stateMutability": "view",
      "type": "function"
    },
    {
      "constant": true,
      "inputs": [],
      "name": "implementation",
      "outputs": [
        {
          "internalType": "address",
          "name": "",
          "type": "address"
        }
      ],
      "payable": false,
      "stateMutability": "view",
      "type": "function"
    },
    {
      "constant": true,
      "inputs": [],
      "name": "interestRateModel",
      "outputs": [
        {
          "internalType": "contract InterestRateModel",
          "name": "",
          "type": "address"
        }
      ],
      "payable": false,
      "stateMutability": "view",
      "type": "function"
    },
    {
      "constant": true,
      "inputs": [],
      "name": "isCToken",
      "outputs": [
        {
          "internalType": "bool",
          "name": "",
          "type": "bool"
        }
      ],
      "payable": false,
      "stateMutability": "view",
      "type": "function"
    },
    {
      "constant": true,
      "inputs": [],
      "name": "name",
      "outputs": [
        {
          "internalType": "string",
          "name": "",
          "type": "string"
        }
      ],
      "payable": false,
      "stateMutability": "view",
      "type": "function"
    },
    {
      "constant": true,
      "inputs": [],
      "name": "pendingAdmin",
      "outputs": [
        {
          "internalType": "address payable",
          "name": "",
          "type": "address"
        }
      ],
      "payable": false,
      "stateMutability": "view",
      "type": "function"
    },
    {
      "constant": true,
      "inputs": [],
      "name": "reserveAdmin",
      "outputs": [
        {
          "internalType": "address payable",
          "name": "",
          "type": "address"
        }
      ],
      "payable": false,
      "stateMutability": "view",
      "type": "function"
    },
    {
      "constant": true,
      "inputs": [],
      "name": "reserveFactorMantissa",
      "outputs": [
        {
          "internalType": "uint256",
          "name": "",
          "type": "uint256"
        }
      ],
      "payable": false,
      "stateMutability": "view",
      "type": "function"
    },
    {
      "constant": true,
      "inputs": [],
      "name": "symbol",
      "outputs": [
        {
          "internalType": "string",
          "name": "",
          "type": "string"
        }
      ],
      "payable": false,
      "stateMutability": "view",
      "type": "function"
    },
    {
      "constant": true,
      "inputs": [],
      "name": "totalBorrows",
      "outputs": [
        {
          "internalType": "uint256",
          "name": "",
          "type": "uint256"
        }
      ],
      "payable": false,
      "stateMutability": "view",
      "type": "function"
    },
    {
      "constant": true,
      "inputs": [],
      "name": "totalReserves",
      "outputs": [
        {
          "internalType": "uint256",
          "name": "",
          "type": "uint256"
        }
      ],
      "payable": false,
      "stateMutability": "view",
      "type": "function"
    },
    {
      "constant": true,
      "inputs": [],
      "name": "totalSupply",
      "outputs": [
        {
          "internalType": "uint256",
          "name": "",
          "type": "uint256"
        }
      ],
      "payable": false,
      "stateMutability": "view",
      "type": "function"
    },
    {
      "constant": true,
      "inputs": [],
      "name": "underlying",
      "outputs": [
        {
          "internalType": "address",
          "name": "",
          "type": "address"
        }
      ],
      "payable": false,
      "stateMutability": "view",
      "type": "function"
    },
    {
      "constant": false,
      "inputs": [
        {
          "internalType": "address",
          "name": "implementation_",
          "type": "address"
        },
        {
          "internalType": "bool",
          "name": "allowResign",
          "type": "bool"
        },
        {
          "internalType": "bytes",
          "name": "becomeImplementationData",
          "type": "bytes"
        }
      ],
      "name": "_setImplementation",
      "outputs": [],
      "payable": false,
      "stateMutability": "nonpayable",
      "type": "function"
    },
    {
      "constant": false,
      "inputs": [
        {
          "internalType": "uint256",
          "name": "mintAmount",
          "type": "uint256"
        }
      ],
      "name": "mint",
      "outputs": [
        {
          "internalType": "uint256",
          "name": "",
          "type": "uint256"
        }
      ],
      "payable": false,
      "stateMutability": "nonpayable",
      "type": "function"
    },
    {
      "constant": false,
      "inputs": [
        {
          "internalType": "uint256",
          "name": "redeemTokens",
          "type": "uint256"
        }
      ],
      "name": "redeem",
      "outputs": [
        {
          "internalType": "uint256",
          "name": "",
          "type": "uint256"
        }
      ],
      "payable": false,
      "stateMutability": "nonpayable",
      "type": "function"
    },
    {
      "constant": false,
      "inputs": [
        {
          "internalType": "uint256",
          "name": "redeemAmount",
          "type": "uint256"
        }
      ],
      "name": "redeemUnderlying",
      "outputs": [
        {
          "internalType": "uint256",
          "name": "",
          "type": "uint256"
        }
      ],
      "payable": false,
      "stateMutability": "nonpayable",
      "type": "function"
    },
    {
      "constant": false,
      "inputs": [
        {
          "internalType": "uint256",
          "name": "borrowAmount",
          "type": "uint256"
        }
      ],
      "name": "borrow",
      "outputs": [
        {
          "internalType": "uint256",
          "name": "",
          "type": "uint256"
        }
      ],
      "payable": false,
      "stateMutability": "nonpayable",
      "type": "function"
    },
    {
      "constant": false,
      "inputs": [
        {
          "internalType": "uint256",
          "name": "repayAmount",
          "type": "uint256"
        }
      ],
      "name": "repayBorrow",
      "outputs": [
        {
          "internalType": "uint256",
          "name": "",
          "type": "uint256"
        }
      ],
      "payable": false,
      "stateMutability": "nonpayable",
      "type": "function"
    },
    {
      "constant": false,
      "inputs": [
        {
          "internalType": "address",
          "name": "borrower",
          "type": "address"
        },
        {
          "internalType": "uint256",
          "name": "repayAmount",
          "type": "uint256"
        }
      ],
      "name": "repayBorrowBehalf",
      "outputs": [
        {
          "internalType": "uint256",
          "name": "",
          "type": "uint256"
        }
      ],
      "payable": false,
      "stateMutability": "nonpayable",
      "type": "function"
    },
    {
      "constant": false,
      "inputs": [
        {
          "internalType": "address",
          "name": "borrower",
          "type": "address"
        },
        {
          "internalType": "uint256",
          "name": "repayAmount",
          "type": "uint256"
        },
        {
          "internalType": "contract CTokenInterface",
          "name": "cTokenCollateral",
          "type": "address"
        }
      ],
      "name": "liquidateBorrow",
      "outputs": [
        {
          "internalType": "uint256",
          "name": "",
          "type": "uint256"
        }
      ],
      "payable": false,
      "stateMutability": "nonpayable",
      "type": "function"
    },
    {
      "constant": false,
      "inputs": [
        {
          "internalType": "address",
          "name": "dst",
          "type": "address"
        },
        {
          "internalType": "uint256",
          "name": "amount",
          "type": "uint256"
        }
      ],
      "name": "transfer",
      "outputs": [
        {
          "internalType": "bool",
          "name": "",
          "type": "bool"
        }
      ],
      "payable": false,
      "stateMutability": "nonpayable",
      "type": "function"
    },
    {
      "constant": false,
      "inputs": [
        {
          "internalType": "address",
          "name": "src",
          "type": "address"
        },
        {
          "internalType": "address",
          "name": "dst",
          "type": "address"
        },
        {
          "internalType": "uint256",
          "name": "amount",
          "type": "uint256"
        }
      ],
      "name": "transferFrom",
      "outputs": [
        {
          "internalType": "bool",
          "name": "",
          "type": "bool"
        }
      ],
      "payable": false,
      "stateMutability": "nonpayable",
      "type": "function"
    },
    {
      "constant": false,
      "inputs": [
        {
          "internalType": "address",
          "name": "spender",
          "type": "address"
        },
        {
          "internalType": "uint256",
          "name": "amount",
          "type": "uint256"
        }
      ],
      "name": "approve",
      "outputs": [
        {
          "internalType": "bool",
          "name": "",
          "type": "bool"
        }
      ],
      "payable": false,
      "stateMutability": "nonpayable",
      "type": "function"
    },
    {
      "constant": true,
      "inputs": [
        {
          "internalType": "address",
          "name": "owner",
          "type": "address"
        },
        {
          "internalType": "address",
          "name": "spender",
          "type": "address"
        }
      ],
      "name": "allowance",
      "outputs": [
        {
          "internalType": "uint256",
          "name": "",
          "type": "uint256"
        }
      ],
      "payable": false,
      "stateMutability": "view",
      "type": "function"
    },
    {
      "constant": true,
      "inputs": [
        {
          "internalType": "address",
          "name": "owner",
          "type": "address"
        }
      ],
      "name": "balanceOf",
      "outputs": [
        {
          "internalType": "uint256",
          "name": "",
          "type": "uint256"
        }
      ],
      "payable": false,
      "stateMutability": "view",
      "type": "function"
    },
    {
      "constant": false,
      "inputs": [
        {
          "internalType": "address",
          "name": "owner",
          "type": "address"
        }
      ],
      "name": "balanceOfUnderlying",
      "outputs": [
        {
          "internalType": "uint256",
          "name": "",
          "type": "uint256"
        }
      ],
      "payable": false,
      "stateMutability": "nonpayable",
      "type": "function"
    },
    {
      "constant": true,
      "inputs": [
        {
          "internalType": "address",
          "name": "account",
          "type": "address"
        }
      ],
      "name": "getAccountSnapshot",
      "outputs": [
        {
          "internalType": "uint256",
          "name": "",
          "type": "uint256"
        },
        {
          "internalType": "uint256",
          "name": "",
          "type": "uint256"
        },
        {
          "internalType": "uint256",
          "name": "",
          "type": "uint256"
        },
        {
          "internalType": "uint256",
          "name": "",
          "type": "uint256"
        }
      ],
      "payable": false,
      "stateMutability": "view",
      "type": "function"
    },
    {
      "constant": true,
      "inputs": [],
      "name": "borrowRatePerBlock",
      "outputs": [
        {
          "internalType": "uint256",
          "name": "",
          "type": "uint256"
        }
      ],
      "payable": false,
      "stateMutability": "view",
      "type": "function"
    },
    {
      "constant": true,
      "inputs": [],
      "name": "supplyRatePerBlock",
      "outputs": [
        {
          "internalType": "uint256",
          "name": "",
          "type": "uint256"
        }
      ],
      "payable": false,
      "stateMutability": "view",
      "type": "function"
    },
    {
      "constant": false,
      "inputs": [],
      "name": "totalBorrowsCurrent",
      "outputs": [
        {
          "internalType": "uint256",
          "name": "",
          "type": "uint256"
        }
      ],
      "payable": false,
      "stateMutability": "nonpayable",
      "type": "function"
    },
    {
      "constant": false,
      "inputs": [
        {
          "internalType": "address",
          "name": "account",
          "type": "address"
        }
      ],
      "name": "borrowBalanceCurrent",
      "outputs": [
        {
          "internalType": "uint256",
          "name": "",
          "type": "uint256"
        }
      ],
      "payable": false,
      "stateMutability": "nonpayable",
      "type": "function"
    },
    {
      "constant": true,
      "inputs": [
        {
          "internalType": "address",
          "name": "account",
          "type": "address"
        }
      ],
      "name": "borrowBalanceStored",
      "outputs": [
        {
          "internalType": "uint256",
          "name": "",
          "type": "uint256"
        }
      ],
      "payable": false,
      "stateMutability": "view",
      "type": "function"
    },
    {
      "constant": false,
      "inputs": [],
      "name": "exchangeRateCurrent",
      "outputs": [
        {
          "internalType": "uint256",
          "name": "",
          "type": "uint256"
        }
      ],
      "payable": false,
      "stateMutability": "nonpayable",
      "type": "function"
    },
    {
      "constant": true,
      "inputs": [],
      "name": "exchangeRateStored",
      "outputs": [
        {
          "internalType": "uint256",
          "name": "",
          "type": "uint256"
        }
      ],
      "payable": false,
      "stateMutability": "view",
      "type": "function"
    },
    {
      "constant": true,
      "inputs": [],
      "name": "getCash",
      "outputs": [
        {
          "internalType": "uint256",
          "name": "",
          "type": "uint256"
        }
      ],
      "payable": false,
      "stateMutability": "view",
      "type": "function"
    },
    {
      "constant": false,
      "inputs": [],
      "name": "accrueInterest",
      "outputs": [
        {
          "internalType": "uint256",
          "name": "",
          "type": "uint256"
        }
      ],
      "payable": false,
      "stateMutability": "nonpayable",
      "type": "function"
    },
    {
      "constant": false,
      "inputs": [
        {
          "internalType": "address",
          "name": "liquidator",
          "type": "address"
        },
        {
          "internalType": "address",
          "name": "borrower",
          "type": "address"
        },
        {
          "internalType": "uint256",
          "name": "seizeTokens",
          "type": "uint256"
        }
      ],
      "name": "seize",
      "outputs": [
        {
          "internalType": "uint256",
          "name": "",
          "type": "uint256"
        }
      ],
      "payable": false,
      "stateMutability": "nonpayable",
      "type": "function"
    },
    {
      "constant": false,
      "inputs": [
        {
          "internalType": "address payable",
          "name": "newPendingAdmin",
          "type": "address"
        }
      ],
      "name": "_setPendingAdmin",
      "outputs": [
        {
          "internalType": "uint256",
          "name": "",
          "type": "uint256"
        }
      ],
      "payable": false,
      "stateMutability": "nonpayable",
      "type": "function"
    },
    {
      "constant": false,
      "inputs": [
        {
          "internalType": "address payable",
          "name": "newReserveAdmin",
          "type": "address"
        }
      ],
      "name": "_setReserveAdmin",
      "outputs": [
        {
          "internalType": "uint256",
          "name": "",
          "type": "uint256"
        }
      ],
      "payable": false,
      "stateMutability": "nonpayable",
      "type": "function"
    },
    {
      "constant": false,
      "inputs": [
        {
          "internalType": "contract ComptrollerInterface",
          "name": "newComptroller",
          "type": "address"
        }
      ],
      "name": "_setComptroller",
      "outputs": [
        {
          "internalType": "uint256",
          "name": "",
          "type": "uint256"
        }
      ],
      "payable": false,
      "stateMutability": "nonpayable",
      "type": "function"
    },
    {
      "constant": false,
      "inputs": [
        {
          "internalType": "uint256",
          "name": "newReserveFactorMantissa",
          "type": "uint256"
        }
      ],
      "name": "_setReserveFactor",
      "outputs": [
        {
          "internalType": "uint256",
          "name": "",
          "type": "uint256"
        }
      ],
      "payable": false,
      "stateMutability": "nonpayable",
      "type": "function"
    },
    {
      "constant": false,
      "inputs": [],
      "name": "_acceptAdmin",
      "outputs": [
        {
          "internalType": "uint256",
          "name": "",
          "type": "uint256"
        }
      ],
      "payable": false,
      "stateMutability": "nonpayable",
      "type": "function"
    },
    {
      "constant": false,
      "inputs": [
        {
          "internalType": "uint256",
          "name": "addAmount",
          "type": "uint256"
        }
      ],
      "name": "_addReserves",
      "outputs": [
        {
          "internalType": "uint256",
          "name": "",
          "type": "uint256"
        }
      ],
      "payable": false,
      "stateMutability": "nonpayable",
      "type": "function"
    },
    {
      "constant": false,
      "inputs": [
        {
          "internalType": "uint256",
          "name": "reduceAmount",
          "type": "uint256"
        }
      ],
      "name": "_reduceReserves",
      "outputs": [
        {
          "internalType": "uint256",
          "name": "",
          "type": "uint256"
        }
      ],
      "payable": false,
      "stateMutability": "nonpayable",
      "type": "function"
    },
    {
      "constant": false,
      "inputs": [
        {
          "internalType": "contract InterestRateModel",
          "name": "newInterestRateModel",
          "type": "address"
        }
      ],
      "name": "_setInterestRateModel",
      "outputs": [
        {
          "internalType": "uint256",
          "name": "",
          "type": "uint256"
        }
      ],
      "payable": false,
      "stateMutability": "nonpayable",
      "type": "function"
    },
    {
      "constant": false,
      "inputs": [
        {
          "internalType": "bytes",
          "name": "data",
          "type": "bytes"
        }
      ],
      "name": "delegateToImplementation",
      "outputs": [
        {
          "internalType": "bytes",
          "name": "",
          "type": "bytes"
        }
      ],
      "payable": false,
      "stateMutability": "nonpayable",
      "type": "function"
    },
    {
      "constant": true,
      "inputs": [
        {
          "internalType": "bytes",
          "name": "data",
          "type": "bytes"
        }
      ],
      "name": "delegateToViewImplementation",
      "outputs": [
        {
          "internalType": "bytes",
          "name": "",
          "type": "bytes"
        }
      ],
      "payable": false,
      "stateMutability": "view",
      "type": "function"
    }
  ],
  "bytecode": "0x60806040523480156200001157600080fd5b5060405162001d9738038062001d9783398181016040526101808110156200003857600080fd5b81516020830151604080850151606086015160808701805193519597949692959194919392820192846401000000008211156200007457600080fd5b9083019060208201858111156200008a57600080fd5b8251640100000000811182820188101715620000a557600080fd5b82525081516020918201929091019080838360005b83811015620000d4578181015183820152602001620000ba565b50505050905090810190601f168015620001025780820380516001836020036101000a031916815260200191505b50604052602001805160405193929190846401000000008211156200012657600080fd5b9083019060208201858111156200013c57600080fd5b82516401000000008111828201881017156200015757600080fd5b82525081516020918201929091019080838360005b83811015620001865781810151838201526020016200016c565b50505050905090810190601f168015620001b45780820380516001836020036101000a031916815260200191505b5060408181526020830151908301516060840151608085015160a09095018051939792969195949384640100000000821115620001f057600080fd5b9083019060208201858111156200020657600080fd5b82516401000000008111828201881017156200022157600080fd5b82525081516020918201929091019080838360005b838110156200025057818101518382015260200162000236565b50505050905090810190601f1680156200027e5780820380516001836020036101000a031916815260200191505b506040526020018051906020019092919050505033600360016101000a8154816001600160a01b0302191690836001600160a01b0316021790555062000459838d8d8d8d8d8d8d8960405160240180896001600160a01b03166001600160a01b03168152602001886001600160a01b03166001600160a01b03168152602001876001600160a01b03166001600160a01b0316815260200186815260200180602001806020018560ff1660ff168152602001848152602001838103835287818151815260200191508051906020019080838360005b838110156200036c57818101518382015260200162000352565b50505050905090810190601f1680156200039a5780820380516001836020036101000a031916815260200191505b50838103825286518152865160209182019188019080838360005b83811015620003cf578181015183820152602001620003b5565b50505050905090810190601f168015620003fd5780820380516001836020036101000a031916815260200191505b5060408051601f198184030181529190526020810180516001600160e01b039081167f9af6702e0000000000000000000000000000000000000000000000000000000017909152909b50620004b8169950505050505050505050565b5062000471836000846001600160e01b036200057f16565b505060038054610100600160a81b0319166101006001600160a01b039586160217905550600480546001600160a01b0319169190921617905550620007ac95505050505050565b606060006060846001600160a01b0316846040518082805190602001908083835b60208310620004fa5780518252601f199092019160209182019101620004d9565b6001836020036101000a038019825116818451168082178552505050505050905001915050600060405180830381855af49150503d80600081146200055c576040519150601f19603f3d011682016040523d82523d6000602084013e62000561565b606091505b5091509150600082141562000577573d60208201fd5b949350505050565b60035461010090046001600160a01b03163314620005e9576040517f08c379a000000000000000000000000000000000000000000000000000000000815260040180806020018281038252603981526020018062001d5e6039913960400191505060405180910390fd5b811562000644576040805160048152602481019091526020810180516001600160e01b039081167f153ab50500000000000000000000000000000000000000000000000000000000179091526200064291906200078216565b505b601380546001600160a01b038581166001600160a01b0319831617909255604051602060248201818152855160448401528551949093169362000733938693909283926064909201919085019080838360005b83811015620006b157818101518382015260200162000697565b50505050905090810190601f168015620006df5780820380516001836020036101000a031916815260200191505b5060408051601f198184030181529190526020810180516001600160e01b039081167f56e6772800000000000000000000000000000000000000000000000000000000179091529093506200078216915050565b50601354604080516001600160a01b038085168252909216602083015280517fd604de94d45953f9138079ec1b82d533cb2160c906d1076d1f7ed54befbca97a9281900390910190a150505050565b601354606090620007a6906001600160a01b0316836001600160e01b03620004b816565b92915050565b6115a280620007bc6000396000f3fe60806040526004361061033f5760003560e01c806373acee98116101b0578063c37f68e2116100ec578063f3fdb15a11610095578063f851a4401161006f578063f851a44014610aa3578063f8f9da28146105de578063fca7820b1461058a578063fe9c44ae14610ab85761033f565b8063f3fdb15a14610a29578063f52b84a514610a3e578063f5e3c46214610a535761033f565b8063dd62ed3e116100c6578063dd62ed3e146109e1578063e9c714f214610904578063f2b3abbd1461042b5761033f565b8063c37f68e21461097b578063c5ebeaec1461058a578063db006a751461058a5761033f565b8063a6afed9511610159578063ae9d70b011610133578063ae9d70b0146105de578063b2a02ff114610958578063b71d1a0c1461042b578063bd6d894d146109045761033f565b8063a6afed9514610904578063a9059cbb14610530578063aa5af0fd146109435761033f565b806395d89b411161018a57806395d89b411461092e57806395dd9193146108c4578063a0712d681461058a5761033f565b806373acee9814610904578063852a12e31461058a5780638f840ddd146109195761033f565b80633af9e6691161027f578063555bcc4011610228578063601a0bf111610202578063601a0bf11461058a5780636c540baf1461089a5780636f307dc3146108af57806370a08231146108c45761033f565b8063555bcc40146107975780635c60da1b146108705780635fe3b567146108855761033f565b80634487152f116102595780634487152f146106cf5780634576b5db1461042b57806347bd3718146107825761033f565b80633af9e6691461042b5780633b1d21a2146105de5780633e9410101461058a5761033f565b806317bfdfbc116102ec57806323b872dd116102c657806323b872dd146105f35780632608f818146106435780632678224714610666578063313ce567146106a45761033f565b806317bfdfbc1461042b57806318160ddd146105c9578063182df0f5146105de5761033f565b8063095ea7b31161031d578063095ea7b3146105305780630e7527021461058a578063173b9904146105b45761033f565b806306fdde03146103a15780630764074a1461042b5780630933c1ed1461047d575b3415610396576040517f08c379a00000000000000000000000000000000000000000000000000000000081526004018080602001828103825260378152602001806114fe6037913960400191505060405180910390fd5b61039e610acd565b50005b3480156103ad57600080fd5b506103b6610b62565b6040805160208082528351818301528351919283929083019185019080838360005b838110156103f05781810151838201526020016103d8565b50505050905090810190601f16801561041d5780820380516001836020036101000a031916815260200191505b509250505060405180910390f35b34801561043757600080fd5b5061046b6004803603602081101561044e57600080fd5b503573ffffffffffffffffffffffffffffffffffffffff16610c0d565b60408051918252519081900360200190f35b34801561048957600080fd5b506103b6600480360360208110156104a057600080fd5b8101906020810181356401000000008111156104bb57600080fd5b8201836020820111156104cd57600080fd5b803590602001918460018302840111640100000000831117156104ef57600080fd5b91908080601f016020809104026020016040519081016040528093929190818152602001838380828437600092019190915250929550610c1d945050505050565b34801561053c57600080fd5b506105766004803603604081101561055357600080fd5b5073ffffffffffffffffffffffffffffffffffffffff8135169060200135610c49565b604080519115158252519081900360200190f35b34801561059657600080fd5b5061046b600480360360208110156105ad57600080fd5b5035610c0d565b3480156105c057600080fd5b5061046b610c5a565b3480156105d557600080fd5b5061046b610c60565b3480156105ea57600080fd5b5061046b610c66565b3480156105ff57600080fd5b506105766004803603606081101561061657600080fd5b5073ffffffffffffffffffffffffffffffffffffffff813581169160208101359091169060400135610c74565b34801561064f57600080fd5b5061046b6004803603604081101561055357600080fd5b34801561067257600080fd5b5061067b610c86565b6040805173ffffffffffffffffffffffffffffffffffffffff9092168252519081900360200190f35b3480156106b057600080fd5b506106b9610ca2565b6040805160ff9092168252519081900360200190f35b3480156106db57600080fd5b506103b6600480360360208110156106f257600080fd5b81019060208101813564010000000081111561070d57600080fd5b82018360208201111561071f57600080fd5b8035906020019184600183028401116401000000008311171561074157600080fd5b91908080601f016020809104026020016040519081016040528093929190818152602001838380828437600092019190915250929550610cab945050505050565b34801561078e57600080fd5b5061046b610f07565b3480156107a357600080fd5b5061086e600480360360608110156107ba57600080fd5b73ffffffffffffffffffffffffffffffffffffffff8235169160208101351515918101906060810160408201356401000000008111156107f957600080fd5b82018360208201111561080b57600080fd5b8035906020019184600183028401116401000000008311171561082d57600080fd5b91908080601f016020809104026020016040519081016040528093929190818152602001838380828437600092019190915250929550610f0d945050505050565b005b34801561087c57600080fd5b5061067b611165565b34801561089157600080fd5b5061067b611181565b3480156108a657600080fd5b5061046b61119d565b3480156108bb57600080fd5b5061067b6111a3565b3480156108d057600080fd5b5061046b600480360360208110156108e757600080fd5b503573ffffffffffffffffffffffffffffffffffffffff166111bf565b34801561091057600080fd5b5061046b6111c9565b34801561092557600080fd5b5061046b6111d3565b34801561093a57600080fd5b506103b66111d9565b34801561094f57600080fd5b5061046b61124f565b34801561096457600080fd5b5061046b6004803603606081101561061657600080fd5b34801561098757600080fd5b506109bb6004803603602081101561099e57600080fd5b503573ffffffffffffffffffffffffffffffffffffffff16611255565b604080519485526020850193909352838301919091526060830152519081900360800190f35b3480156109ed57600080fd5b5061046b60048036036040811015610a0457600080fd5b5073ffffffffffffffffffffffffffffffffffffffff8135811691602001351661126b565b348015610a3557600080fd5b5061067b611275565b348015610a4a57600080fd5b5061067b611291565b348015610a5f57600080fd5b5061046b60048036036060811015610a7657600080fd5b5073ffffffffffffffffffffffffffffffffffffffff813581169160208101359160409091013516610c74565b348015610aaf57600080fd5b5061067b6112ad565b348015610ac457600080fd5b506105766112ce565b60135460405160609160009173ffffffffffffffffffffffffffffffffffffffff90911690829036908083838082843760405192019450600093509091505080830381855af49150503d8060008114610b42576040519150601f19603f3d011682016040523d82523d6000602084013e610b47565b606091505b505090506040513d6000823e818015610b5e573d82f35b3d82fd5b60018054604080516020600284861615610100027fffffffffffffffffffffffffffffffffffffffffffffffffffffffffffffffff0190941693909304601f81018490048402820184019092528181529291830182828015610c055780601f10610bda57610100808354040283529160200191610c05565b820191906000526020600020905b815481529060010190602001808311610be857829003601f168201915b505050505081565b6000610c17610acd565b50919050565b601354606090610c439073ffffffffffffffffffffffffffffffffffffffff16836112d3565b92915050565b6000610c53610acd565b5092915050565b60095481565b600e5481565b6000610c706113a2565b5090565b6000610c7e610acd565b509392505050565b60055473ffffffffffffffffffffffffffffffffffffffff1681565b60035460ff1681565b6060600060603073ffffffffffffffffffffffffffffffffffffffff16846040516024018080602001828103825283818151815260200191508051906020019080838360005b83811015610d09578181015183820152602001610cf1565b50505050905090810190601f168015610d365780820380516001836020036101000a031916815260200191505b5060408051601f198184030181529181526020820180517bffffffffffffffffffffffffffffffffffffffffffffffffffffffff167f0933c1ed00000000000000000000000000000000000000000000000000000000178152905182519295509350839250908083835b60208310610dbf5780518252601f199092019160209182019101610da0565b6001836020036101000a038019825116818451168082178552505050505050905001915050600060405180830381855afa9150503d8060008114610e1f576040519150601f19603f3d011682016040523d82523d6000602084013e610e24565b606091505b50915091506000821415610e39573d60208201fd5b808060200190516020811015610e4e57600080fd5b8101908080516040519392919084640100000000821115610e6e57600080fd5b908301906020820185811115610e8357600080fd5b8251640100000000811182820188101715610e9d57600080fd5b82525081516020918201929091019080838360005b83811015610eca578181015183820152602001610eb2565b50505050905090810190601f168015610ef75780820380516001836020036101000a031916815260200191505b5060405250505092505050919050565b600c5481565b600354610100900473ffffffffffffffffffffffffffffffffffffffff163314610f82576040517f08c379a00000000000000000000000000000000000000000000000000000000081526004018080602001828103825260398152602001806115356039913960400191505060405180910390fd5b8115610fea576040805160048152602481019091526020810180517bffffffffffffffffffffffffffffffffffffffffffffffffffffffff167f153ab50500000000000000000000000000000000000000000000000000000000179052610fe890610c1d565b505b6013805473ffffffffffffffffffffffffffffffffffffffff8581167fffffffffffffffffffffffff00000000000000000000000000000000000000008316179092556040516020602482018181528551604484015285519490931693611109938693909283926064909201919085019080838360005b83811015611079578181015183820152602001611061565b50505050905090810190601f1680156110a65780820380516001836020036101000a031916815260200191505b5060408051601f198184030181529190526020810180517bffffffffffffffffffffffffffffffffffffffffffffffffffffffff167f56e67728000000000000000000000000000000000000000000000000000000001790529250610c1d915050565b506013546040805173ffffffffffffffffffffffffffffffffffffffff8085168252909216602083015280517fd604de94d45953f9138079ec1b82d533cb2160c906d1076d1f7ed54befbca97a9281900390910190a150505050565b60135473ffffffffffffffffffffffffffffffffffffffff1681565b60065473ffffffffffffffffffffffffffffffffffffffff1681565b600a5481565b60125473ffffffffffffffffffffffffffffffffffffffff1681565b6000610c176113a2565b6000610c70610acd565b600d5481565b600280546040805160206001841615610100027fffffffffffffffffffffffffffffffffffffffffffffffffffffffffffffffff01909316849004601f81018490048402820184019092528181529291830182828015610c055780601f10610bda57610100808354040283529160200191610c05565b600b5481565b6000806000806112636113a2565b509193509193565b6000610c536113a2565b60075473ffffffffffffffffffffffffffffffffffffffff1681565b60045473ffffffffffffffffffffffffffffffffffffffff1681565b600354610100900473ffffffffffffffffffffffffffffffffffffffff1681565b600181565b6060600060608473ffffffffffffffffffffffffffffffffffffffff16846040518082805190602001908083835b602083106113205780518252601f199092019160209182019101611301565b6001836020036101000a038019825116818451168082178552505050505050905001915050600060405180830381855af49150503d8060008114611380576040519150601f19603f3d011682016040523d82523d6000602084013e611385565b606091505b5091509150600082141561139a573d60208201fd5b949350505050565b606060003073ffffffffffffffffffffffffffffffffffffffff166000366040516024018080602001828103825284848281815260200192508082843760008382015260408051601f909201601f1990811690940182810390940182529283526020810180517bffffffffffffffffffffffffffffffffffffffffffffffffffffffff167f0933c1ed0000000000000000000000000000000000000000000000000000000017815292518151919750955085945091925081905083835b6020831061147e5780518252601f19909201916020918201910161145f565b6001836020036101000a038019825116818451168082178552505050505050905001915050600060405180830381855afa9150503d80600081146114de576040519150601f19603f3d011682016040523d82523d6000602084013e6114e3565b606091505b505090506040513d6000823e818015610b5e573d60408301f3fe43457263323044656c656761746f723a66616c6c6261636b3a2063616e6e6f742073656e642076616c756520746f2066616c6c6261636b43457263323044656c656761746f723a3a5f736574496d706c656d656e746174696f6e3a2043616c6c6572206d7573742062652061646d696ea265627a7a723158201bdeb3254148e495efdd84aa6e4bb3a35696ebeb41b955cfbb9a395d05f892d164736f6c634300050c003243457263323044656c656761746f723a3a5f736574496d706c656d656e746174696f6e3a2043616c6c6572206d7573742062652061646d696e",
  "source": "pragma solidity ^0.5.12;\n\nimport \"./CTokenInterfaces.sol\";\n\n/**\n * @title Compound's CErc20Delegator Contract\n * @notice CTokens which wrap an EIP-20 underlying and delegate to an implementation\n * @author Compound\n */\ncontract CErc20Delegator is CTokenInterface, CErc20Interface, CDelegatorInterface {\n    /**\n     * @notice Construct a new money market\n     * @param underlying_ The address of the underlying asset\n     * @param comptroller_ The address of the Comptroller\n     * @param interestRateModel_ The address of the interest rate model\n     * @param initialExchangeRateMantissa_ The initial exchange rate, scaled by 1e18\n     * @param name_ ERC-20 name of this token\n     * @param symbol_ ERC-20 symbol of this token\n     * @param decimals_ ERC-20 decimal precision of this token\n     * @param admin_ Address of the administrator of this token\n     * @param implementation_ The address of the implementation the contract delegates to\n     * @param becomeImplementationData The encoded args for becomeImplementation\n     */\n    constructor(address underlying_,\n                ComptrollerInterface comptroller_,\n                InterestRateModel interestRateModel_,\n                uint initialExchangeRateMantissa_,\n                string memory name_,\n                string memory symbol_,\n                uint8 decimals_,\n                address payable admin_,\n                address payable reserveAdmin_,\n                address implementation_,\n                bytes memory becomeImplementationData,\n                uint256 newReserveFactorMantissa_) public {\n        // Creator of the contract is admin during initialization\n        admin = msg.sender;\n\n        // First delegate gets to initialize the delegator (i.e. storage contract)\n        delegateTo(implementation_, abi.encodeWithSignature(\"initialize(address,address,address,uint256,string,string,uint8,uint256)\",\n                                                            underlying_,\n                                                            comptroller_,\n                                                            interestRateModel_,\n                                                            initialExchangeRateMantissa_,\n                                                            name_,\n                                                            symbol_,\n                                                            decimals_,\n                                                            newReserveFactorMantissa_));\n\n        // New implementations always get set via the settor (post-initialize)\n        _setImplementation(implementation_, false, becomeImplementationData);\n\n        // Set the proper admin now that initialization is done\n        admin = admin_;\n        reserveAdmin = reserveAdmin_;\n    }\n\n    /**\n     * @notice Called by the admin to update the implementation of the delegator\n     * @param implementation_ The address of the new implementation for delegation\n     * @param allowResign Flag to indicate whether to call _resignImplementation on the old implementation\n     * @param becomeImplementationData The encoded bytes data to be passed to _becomeImplementation\n     */\n    function _setImplementation(address implementation_, bool allowResign, bytes memory becomeImplementationData) public {\n        require(msg.sender == admin, \"CErc20Delegator::_setImplementation: Caller must be admin\");\n\n        if (allowResign) {\n            delegateToImplementation(abi.encodeWithSignature(\"_resignImplementation()\"));\n        }\n\n        address oldImplementation = implementation;\n        implementation = implementation_;\n\n        delegateToImplementation(abi.encodeWithSignature(\"_becomeImplementation(bytes)\", becomeImplementationData));\n\n        emit NewImplementation(oldImplementation, implementation);\n    }\n\n    /**\n     * @notice Sender supplies assets into the market and receives cTokens in exchange\n     * @dev Accrues interest whether or not the operation succeeds, unless reverted\n     * @param mintAmount The amount of the underlying asset to supply\n     * @return uint 0=success, otherwise a failure (see ErrorReporter.sol for details)\n     */\n    function mint(uint mintAmount) external returns (uint) {\n        mintAmount; // Shh\n        delegateAndReturn();\n    }\n\n    /**\n     * @notice Sender redeems cTokens in exchange for the underlying asset\n     * @dev Accrues interest whether or not the operation succeeds, unless reverted\n     * @param redeemTokens The number of cTokens to redeem into underlying\n     * @return uint 0=success, otherwise a failure (see ErrorReporter.sol for details)\n     */\n    function redeem(uint redeemTokens) external returns (uint) {\n        redeemTokens; // Shh\n        delegateAndReturn();\n    }\n\n    /**\n     * @notice Sender redeems cTokens in exchange for a specified amount of underlying asset\n     * @dev Accrues interest whether or not the operation succeeds, unless reverted\n     * @param redeemAmount The amount of underlying to redeem\n     * @return uint 0=success, otherwise a failure (see ErrorReporter.sol for details)\n     */\n    function redeemUnderlying(uint redeemAmount) external returns (uint) {\n        redeemAmount; // Shh\n        delegateAndReturn();\n    }\n\n    /**\n      * @notice Sender borrows assets from the protocol to their own address\n      * @param borrowAmount The amount of the underlying asset to borrow\n      * @return uint 0=success, otherwise a failure (see ErrorReporter.sol for details)\n      */\n    function borrow(uint borrowAmount) external returns (uint) {\n        borrowAmount; // Shh\n        delegateAndReturn();\n    }\n\n    /**\n     * @notice Sender repays their own borrow\n     * @param repayAmount The amount to repay\n     * @return uint 0=success, otherwise a failure (see ErrorReporter.sol for details)\n     */\n    function repayBorrow(uint repayAmount) external returns (uint) {\n        repayAmount; // Shh\n        delegateAndReturn();\n    }\n\n    /**\n     * @notice Sender repays a borrow belonging to borrower\n     * @param borrower the account with the debt being payed off\n     * @param repayAmount The amount to repay\n     * @return uint 0=success, otherwise a failure (see ErrorReporter.sol for details)\n     */\n    function repayBorrowBehalf(address borrower, uint repayAmount) external returns (uint) {\n        borrower; repayAmount; // Shh\n        delegateAndReturn();\n    }\n\n    /**\n     * @notice The sender liquidates the borrowers collateral.\n     *  The collateral seized is transferred to the liquidator.\n     * @param borrower The borrower of this cToken to be liquidated\n     * @param cTokenCollateral The market in which to seize collateral from the borrower\n     * @param repayAmount The amount of the underlying borrowed asset to repay\n     * @return uint 0=success, otherwise a failure (see ErrorReporter.sol for details)\n     */\n    function liquidateBorrow(address borrower, uint repayAmount, CTokenInterface cTokenCollateral) external returns (uint) {\n        borrower; repayAmount; cTokenCollateral; // Shh\n        delegateAndReturn();\n    }\n\n    /**\n     * @notice Transfer `amount` tokens from `msg.sender` to `dst`\n     * @param dst The address of the destination account\n     * @param amount The number of tokens to transfer\n     * @return Whether or not the transfer succeeded\n     */\n    function transfer(address dst, uint amount) external returns (bool) {\n        dst; amount; // Shh\n        delegateAndReturn();\n    }\n\n    /**\n     * @notice Transfer `amount` tokens from `src` to `dst`\n     * @param src The address of the source account\n     * @param dst The address of the destination account\n     * @param amount The number of tokens to transfer\n     * @return Whether or not the transfer succeeded\n     */\n    function transferFrom(address src, address dst, uint256 amount) external returns (bool) {\n        src; dst; amount; // Shh\n        delegateAndReturn();\n    }\n\n    /**\n     * @notice Approve `spender` to transfer up to `amount` from `src`\n     * @dev This will overwrite the approval amount for `spender`\n     *  and is subject to issues noted [here](https://eips.ethereum.org/EIPS/eip-20#approve)\n     * @param spender The address of the account which may transfer tokens\n     * @param amount The number of tokens that are approved (-1 means infinite)\n     * @return Whether or not the approval succeeded\n     */\n    function approve(address spender, uint256 amount) external returns (bool) {\n        spender; amount; // Shh\n        delegateAndReturn();\n    }\n\n    /**\n     * @notice Get the current allowance from `owner` for `spender`\n     * @param owner The address of the account which owns the tokens to be spent\n     * @param spender The address of the account which may transfer tokens\n     * @return The number of tokens allowed to be spent (-1 means infinite)\n     */\n    function allowance(address owner, address spender) external view returns (uint) {\n        owner; spender; // Shh\n        delegateToViewAndReturn();\n    }\n\n    /**\n     * @notice Get the token balance of the `owner`\n     * @param owner The address of the account to query\n     * @return The number of tokens owned by `owner`\n     */\n    function balanceOf(address owner) external view returns (uint) {\n        owner; // Shh\n        delegateToViewAndReturn();\n    }\n\n    /**\n     * @notice Get the underlying balance of the `owner`\n     * @dev This also accrues interest in a transaction\n     * @param owner The address of the account to query\n     * @return The amount of underlying owned by `owner`\n     */\n    function balanceOfUnderlying(address owner) external returns (uint) {\n        owner; // Shh\n        delegateAndReturn();\n    }\n\n    /**\n     * @notice Get a snapshot of the account's balances, and the cached exchange rate\n     * @dev This is used by comptroller to more efficiently perform liquidity checks.\n     * @param account Address of the account to snapshot\n     * @return (possible error, token balance, borrow balance, exchange rate mantissa)\n     */\n    function getAccountSnapshot(address account) external view returns (uint, uint, uint, uint) {\n        account; // Shh\n        delegateToViewAndReturn();\n    }\n\n    /**\n     * @notice Returns the current per-block borrow interest rate for this cToken\n     * @return The borrow interest rate per block, scaled by 1e18\n     */\n    function borrowRatePerBlock() external view returns (uint) {\n        delegateToViewAndReturn();\n    }\n\n    /**\n     * @notice Returns the current per-block supply interest rate for this cToken\n     * @return The supply interest rate per block, scaled by 1e18\n     */\n    function supplyRatePerBlock() external view returns (uint) {\n        delegateToViewAndReturn();\n    }\n\n    /**\n     * @notice Returns the current total borrows plus accrued interest\n     * @return The total borrows with interest\n     */\n    function totalBorrowsCurrent() external returns (uint) {\n        delegateAndReturn();\n    }\n\n    /**\n     * @notice Accrue interest to updated borrowIndex and then calculate account's borrow balance using the updated borrowIndex\n     * @param account The address whose balance should be calculated after updating borrowIndex\n     * @return The calculated balance\n     */\n    function borrowBalanceCurrent(address account) external returns (uint) {\n        account; // Shh\n        delegateAndReturn();\n    }\n\n    /**\n     * @notice Return the borrow balance of account based on stored data\n     * @param account The address whose balance should be calculated\n     * @return The calculated balance\n     */\n    function borrowBalanceStored(address account) public view returns (uint) {\n        account; // Shh\n        delegateToViewAndReturn();\n    }\n\n   /**\n     * @notice Accrue interest then return the up-to-date exchange rate\n     * @return Calculated exchange rate scaled by 1e18\n     */\n    function exchangeRateCurrent() public returns (uint) {\n        delegateAndReturn();\n    }\n\n    /**\n     * @notice Calculates the exchange rate from the underlying to the CToken\n     * @dev This function does not accrue interest before calculating the exchange rate\n     * @return Calculated exchange rate scaled by 1e18\n     */\n    function exchangeRateStored() public view returns (uint) {\n        delegateToViewAndReturn();\n    }\n\n    /**\n     * @notice Get cash balance of this cToken in the underlying asset\n     * @return The quantity of underlying asset owned by this contract\n     */\n    function getCash() public view returns (uint) {\n        delegateToViewAndReturn();\n    }\n\n    /**\n      * @notice Applies accrued interest to total borrows and reserves.\n      * @dev This calculates interest accrued from the last checkpointed block\n      *      up to the current block and writes new checkpoint to storage.\n      */\n    function accrueInterest() public returns (uint) {\n        delegateAndReturn();\n    }\n\n    /**\n     * @notice Transfers collateral tokens (this market) to the liquidator.\n     * @dev Will fail unless called by another cToken during the process of liquidation.\n     *  Its absolutely critical to use msg.sender as the borrowed cToken and not a parameter.\n     * @param liquidator The account receiving seized collateral\n     * @param borrower The account having collateral seized\n     * @param seizeTokens The number of cTokens to seize\n     * @return uint 0=success, otherwise a failure (see ErrorReporter.sol for details)\n     */\n    function seize(address liquidator, address borrower, uint seizeTokens) external returns (uint) {\n        liquidator; borrower; seizeTokens; // Shh\n        delegateAndReturn();\n    }\n\n    /*** Admin Functions ***/\n\n    /**\n      * @notice Begins transfer of admin rights. The newPendingAdmin must call `_acceptAdmin` to finalize the transfer.\n      * @dev Admin function to begin change of admin. The newPendingAdmin must call `_acceptAdmin` to finalize the transfer.\n      * @param newPendingAdmin New pending admin.\n      * @return uint 0=success, otherwise a failure (see ErrorReporter.sol for details)\n      */\n    function _setPendingAdmin(address payable newPendingAdmin) external returns (uint) {\n        newPendingAdmin; // Shh\n        delegateAndReturn();\n    }\n\n    function _setReserveAdmin(address payable newReserveAdmin) external returns (uint) {\n        newReserveAdmin; // Shh\n        delegateAndReturn();\n    }\n\n    /**\n      * @notice Sets a new comptroller for the market\n      * @dev Admin function to set a new comptroller\n      * @return uint 0=success, otherwise a failure (see ErrorReporter.sol for details)\n      */\n    function _setComptroller(ComptrollerInterface newComptroller) public returns (uint) {\n        newComptroller; // Shh\n        delegateAndReturn();\n    }\n\n    /**\n      * @notice accrues interest and sets a new reserve factor for the protocol using _setReserveFactorFresh\n      * @dev Admin function to accrue interest and set a new reserve factor\n      * @return uint 0=success, otherwise a failure (see ErrorReporter.sol for details)\n      */\n    function _setReserveFactor(uint newReserveFactorMantissa) external returns (uint) {\n        newReserveFactorMantissa; // Shh\n        delegateAndReturn();\n    }\n\n    /**\n      * @notice Accepts transfer of admin rights. msg.sender must be pendingAdmin\n      * @dev Admin function for pending admin to accept role and update admin\n      * @return uint 0=success, otherwise a failure (see ErrorReporter.sol for details)\n      */\n    function _acceptAdmin() external returns (uint) {\n        delegateAndReturn();\n    }\n\n    /**\n     * @notice Accrues interest and adds reserves by transferring from admin\n     * @param addAmount Amount of reserves to add\n     * @return uint 0=success, otherwise a failure (see ErrorReporter.sol for details)\n     */\n    function _addReserves(uint addAmount) external returns (uint) {\n        addAmount; // Shh\n        delegateAndReturn();\n    }\n\n    /**\n     * @notice Accrues interest and reduces reserves by transferring to admin\n     * @param reduceAmount Amount of reduction to reserves\n     * @return uint 0=success, otherwise a failure (see ErrorReporter.sol for details)\n     */\n    function _reduceReserves(uint reduceAmount) external returns (uint) {\n        reduceAmount; // Shh\n        delegateAndReturn();\n    }\n\n    /**\n     * @notice Accrues interest and updates the interest rate model using _setInterestRateModelFresh\n     * @dev Admin function to accrue interest and update the interest rate model\n     * @param newInterestRateModel the new interest rate model to use\n     * @return uint 0=success, otherwise a failure (see ErrorReporter.sol for details)\n     */\n    function _setInterestRateModel(InterestRateModel newInterestRateModel) public returns (uint) {\n        newInterestRateModel; // Shh\n        delegateAndReturn();\n    }\n\n    /**\n     * @notice Internal method to delegate execution to another contract\n     * @dev It returns to the external caller whatever the implementation returns or forwards reverts\n     * @param callee The contract to delegatecall\n     * @param data The raw data to delegatecall\n     * @return The returned bytes from the delegatecall\n     */\n    function delegateTo(address callee, bytes memory data) internal returns (bytes memory) {\n        (bool success, bytes memory returnData) = callee.delegatecall(data);\n        assembly {\n            if eq(success, 0) {\n                revert(add(returnData, 0x20), returndatasize)\n            }\n        }\n        return returnData;\n    }\n\n    /**\n     * @notice Delegates execution to the implementation contract\n     * @dev It returns to the external caller whatever the implementation returns or forwards reverts\n     * @param data The raw data to delegatecall\n     * @return The returned bytes from the delegatecall\n     */\n    function delegateToImplementation(bytes memory data) public returns (bytes memory) {\n        return delegateTo(implementation, data);\n    }\n\n    /**\n     * @notice Delegates execution to an implementation contract\n     * @dev It returns to the external caller whatever the implementation returns or forwards reverts\n     *  There are an additional 2 prefix uints from the wrapper returndata, which we ignore since we make an extra hop.\n     * @param data The raw data to delegatecall\n     * @return The returned bytes from the delegatecall\n     */\n    function delegateToViewImplementation(bytes memory data) public view returns (bytes memory) {\n        (bool success, bytes memory returnData) = address(this).staticcall(abi.encodeWithSignature(\"delegateToImplementation(bytes)\", data));\n        assembly {\n            if eq(success, 0) {\n                revert(add(returnData, 0x20), returndatasize)\n            }\n        }\n        return abi.decode(returnData, (bytes));\n    }\n\n    function delegateToViewAndReturn() private view returns (bytes memory) {\n        (bool success, ) = address(this).staticcall(abi.encodeWithSignature(\"delegateToImplementation(bytes)\", msg.data));\n\n        assembly {\n            let free_mem_ptr := mload(0x40)\n            returndatacopy(free_mem_ptr, 0, returndatasize)\n\n            switch success\n            case 0 { revert(free_mem_ptr, returndatasize) }\n            default { return(add(free_mem_ptr, 0x40), returndatasize) }\n        }\n    }\n\n    function delegateAndReturn() private returns (bytes memory) {\n        (bool success, ) = implementation.delegatecall(msg.data);\n\n        assembly {\n            let free_mem_ptr := mload(0x40)\n            returndatacopy(free_mem_ptr, 0, returndatasize)\n\n            switch success\n            case 0 { revert(free_mem_ptr, returndatasize) }\n            default { return(free_mem_ptr, returndatasize) }\n        }\n    }\n\n    /**\n     * @notice Delegates execution to an implementation contract\n     * @dev It returns to the external caller whatever the implementation returns or forwards reverts\n     */\n    function () external payable {\n        require(msg.value == 0,\"CErc20Delegator:fallback: cannot send value to fallback\");\n\n        // delegate all other functions to current implementation\n        delegateAndReturn();\n    }\n}\n",
  "sourcePath": "/Users/simtzujye/Desktop/hackathons/near-metabuild-hackathon-3/uruz-finance-near-protocol/contracts/CErc20Delegator.sol",
  "compiler": {
    "name": "solc",
    "version": "0.5.12+commit.7709ece9.Emscripten.clang"
  },
  "schemaVersion": "3.4.10",
  "updatedAt": "2022-11-17T08:16:37.130Z",
  "networkType": "ethereum",
  "devdoc": {
    "author": "Compound",
    "methods": {
      "_acceptAdmin()": {
        "details": "Admin function for pending admin to accept role and update admin",
        "return": "uint 0=success, otherwise a failure (see ErrorReporter.sol for details)"
      },
      "_addReserves(uint256)": {
        "params": {
          "addAmount": "Amount of reserves to add"
        },
        "return": "uint 0=success, otherwise a failure (see ErrorReporter.sol for details)"
      },
      "_reduceReserves(uint256)": {
        "params": {
          "reduceAmount": "Amount of reduction to reserves"
        },
        "return": "uint 0=success, otherwise a failure (see ErrorReporter.sol for details)"
      },
      "_setComptroller(address)": {
        "details": "Admin function to set a new comptroller",
        "return": "uint 0=success, otherwise a failure (see ErrorReporter.sol for details)"
      },
      "_setImplementation(address,bool,bytes)": {
        "params": {
          "allowResign": "Flag to indicate whether to call _resignImplementation on the old implementation",
          "becomeImplementationData": "The encoded bytes data to be passed to _becomeImplementation",
          "implementation_": "The address of the new implementation for delegation"
        }
      },
      "_setInterestRateModel(address)": {
        "details": "Admin function to accrue interest and update the interest rate model",
        "params": {
          "newInterestRateModel": "the new interest rate model to use"
        },
        "return": "uint 0=success, otherwise a failure (see ErrorReporter.sol for details)"
      },
      "_setPendingAdmin(address)": {
        "details": "Admin function to begin change of admin. The newPendingAdmin must call `_acceptAdmin` to finalize the transfer.",
        "params": {
          "newPendingAdmin": "New pending admin."
        },
        "return": "uint 0=success, otherwise a failure (see ErrorReporter.sol for details)"
      },
      "_setReserveFactor(uint256)": {
        "details": "Admin function to accrue interest and set a new reserve factor",
        "return": "uint 0=success, otherwise a failure (see ErrorReporter.sol for details)"
      },
      "accrueInterest()": {
        "details": "This calculates interest accrued from the last checkpointed block     up to the current block and writes new checkpoint to storage."
      },
      "allowance(address,address)": {
        "params": {
          "owner": "The address of the account which owns the tokens to be spent",
          "spender": "The address of the account which may transfer tokens"
        },
        "return": "The number of tokens allowed to be spent (-1 means infinite)"
      },
      "approve(address,uint256)": {
        "details": "This will overwrite the approval amount for `spender` and is subject to issues noted [here](https://eips.ethereum.org/EIPS/eip-20#approve)",
        "params": {
          "amount": "The number of tokens that are approved (-1 means infinite)",
          "spender": "The address of the account which may transfer tokens"
        },
        "return": "Whether or not the approval succeeded"
      },
      "balanceOf(address)": {
        "params": {
          "owner": "The address of the account to query"
        },
        "return": "The number of tokens owned by `owner`"
      },
      "balanceOfUnderlying(address)": {
        "details": "This also accrues interest in a transaction",
        "params": {
          "owner": "The address of the account to query"
        },
        "return": "The amount of underlying owned by `owner`"
      },
      "borrow(uint256)": {
        "params": {
          "borrowAmount": "The amount of the underlying asset to borrow"
        },
        "return": "uint 0=success, otherwise a failure (see ErrorReporter.sol for details)"
      },
      "borrowBalanceCurrent(address)": {
        "params": {
          "account": "The address whose balance should be calculated after updating borrowIndex"
        },
        "return": "The calculated balance"
      },
      "borrowBalanceStored(address)": {
        "params": {
          "account": "The address whose balance should be calculated"
        },
        "return": "The calculated balance"
      },
      "borrowRatePerBlock()": {
        "return": "The borrow interest rate per block, scaled by 1e18"
      },
      "constructor": {
        "params": {
          "admin_": "Address of the administrator of this token",
          "becomeImplementationData": "The encoded args for becomeImplementation",
          "comptroller_": "The address of the Comptroller",
          "decimals_": "ERC-20 decimal precision of this token",
          "implementation_": "The address of the implementation the contract delegates to",
          "initialExchangeRateMantissa_": "The initial exchange rate, scaled by 1e18",
          "interestRateModel_": "The address of the interest rate model",
          "name_": "ERC-20 name of this token",
          "symbol_": "ERC-20 symbol of this token",
          "underlying_": "The address of the underlying asset"
        }
      },
      "delegateToImplementation(bytes)": {
        "details": "It returns to the external caller whatever the implementation returns or forwards reverts",
        "params": {
          "data": "The raw data to delegatecall"
        },
        "return": "The returned bytes from the delegatecall"
      },
      "delegateToViewImplementation(bytes)": {
        "details": "It returns to the external caller whatever the implementation returns or forwards reverts There are an additional 2 prefix uints from the wrapper returndata, which we ignore since we make an extra hop.",
        "params": {
          "data": "The raw data to delegatecall"
        },
        "return": "The returned bytes from the delegatecall"
      },
      "exchangeRateCurrent()": {
        "return": "Calculated exchange rate scaled by 1e18"
      },
      "exchangeRateStored()": {
        "details": "This function does not accrue interest before calculating the exchange rate",
        "return": "Calculated exchange rate scaled by 1e18"
      },
      "getAccountSnapshot(address)": {
        "details": "This is used by comptroller to more efficiently perform liquidity checks.",
        "params": {
          "account": "Address of the account to snapshot"
        },
        "return": "(possible error, token balance, borrow balance, exchange rate mantissa)"
      },
      "getCash()": {
        "return": "The quantity of underlying asset owned by this contract"
      },
      "liquidateBorrow(address,uint256,address)": {
        "params": {
          "borrower": "The borrower of this cToken to be liquidated",
          "cTokenCollateral": "The market in which to seize collateral from the borrower",
          "repayAmount": "The amount of the underlying borrowed asset to repay"
        },
        "return": "uint 0=success, otherwise a failure (see ErrorReporter.sol for details)"
      },
      "mint(uint256)": {
        "details": "Accrues interest whether or not the operation succeeds, unless reverted",
        "params": {
          "mintAmount": "The amount of the underlying asset to supply"
        },
        "return": "uint 0=success, otherwise a failure (see ErrorReporter.sol for details)"
      },
      "redeem(uint256)": {
        "details": "Accrues interest whether or not the operation succeeds, unless reverted",
        "params": {
          "redeemTokens": "The number of cTokens to redeem into underlying"
        },
        "return": "uint 0=success, otherwise a failure (see ErrorReporter.sol for details)"
      },
      "redeemUnderlying(uint256)": {
        "details": "Accrues interest whether or not the operation succeeds, unless reverted",
        "params": {
          "redeemAmount": "The amount of underlying to redeem"
        },
        "return": "uint 0=success, otherwise a failure (see ErrorReporter.sol for details)"
      },
      "repayBorrow(uint256)": {
        "params": {
          "repayAmount": "The amount to repay"
        },
        "return": "uint 0=success, otherwise a failure (see ErrorReporter.sol for details)"
      },
      "repayBorrowBehalf(address,uint256)": {
        "params": {
          "borrower": "the account with the debt being payed off",
          "repayAmount": "The amount to repay"
        },
        "return": "uint 0=success, otherwise a failure (see ErrorReporter.sol for details)"
      },
      "seize(address,address,uint256)": {
        "details": "Will fail unless called by another cToken during the process of liquidation. Its absolutely critical to use msg.sender as the borrowed cToken and not a parameter.",
        "params": {
          "borrower": "The account having collateral seized",
          "liquidator": "The account receiving seized collateral",
          "seizeTokens": "The number of cTokens to seize"
        },
        "return": "uint 0=success, otherwise a failure (see ErrorReporter.sol for details)"
      },
      "supplyRatePerBlock()": {
        "return": "The supply interest rate per block, scaled by 1e18"
      },
      "totalBorrowsCurrent()": {
        "return": "The total borrows with interest"
      },
      "transfer(address,uint256)": {
        "params": {
          "amount": "The number of tokens to transfer",
          "dst": "The address of the destination account"
        },
        "return": "Whether or not the transfer succeeded"
      },
      "transferFrom(address,address,uint256)": {
        "params": {
          "amount": "The number of tokens to transfer",
          "dst": "The address of the destination account",
          "src": "The address of the source account"
        },
        "return": "Whether or not the transfer succeeded"
      }
    },
    "title": "Compound's CErc20Delegator Contract"
  },
  "userdoc": {
    "methods": {
      "_acceptAdmin()": {
        "notice": "Accepts transfer of admin rights. msg.sender must be pendingAdmin"
      },
      "_addReserves(uint256)": {
        "notice": "Accrues interest and adds reserves by transferring from admin"
      },
      "_reduceReserves(uint256)": {
        "notice": "Accrues interest and reduces reserves by transferring to admin"
      },
      "_setComptroller(address)": {
        "notice": "Sets a new comptroller for the market"
      },
      "_setImplementation(address,bool,bytes)": {
        "notice": "Called by the admin to update the implementation of the delegator"
      },
      "_setInterestRateModel(address)": {
        "notice": "Accrues interest and updates the interest rate model using _setInterestRateModelFresh"
      },
      "_setPendingAdmin(address)": {
        "notice": "Begins transfer of admin rights. The newPendingAdmin must call `_acceptAdmin` to finalize the transfer."
      },
      "_setReserveFactor(uint256)": {
        "notice": "accrues interest and sets a new reserve factor for the protocol using _setReserveFactorFresh"
      },
      "accrueInterest()": {
        "notice": "Applies accrued interest to total borrows and reserves."
      },
      "allowance(address,address)": {
        "notice": "Get the current allowance from `owner` for `spender`"
      },
      "approve(address,uint256)": {
        "notice": "Approve `spender` to transfer up to `amount` from `src`"
      },
      "balanceOf(address)": {
        "notice": "Get the token balance of the `owner`"
      },
      "balanceOfUnderlying(address)": {
        "notice": "Get the underlying balance of the `owner`"
      },
      "borrow(uint256)": {
        "notice": "Sender borrows assets from the protocol to their own address"
      },
      "borrowBalanceCurrent(address)": {
        "notice": "Accrue interest to updated borrowIndex and then calculate account's borrow balance using the updated borrowIndex"
      },
      "borrowBalanceStored(address)": {
        "notice": "Return the borrow balance of account based on stored data"
      },
      "borrowRatePerBlock()": {
        "notice": "Returns the current per-block borrow interest rate for this cToken"
      },
      "constructor": "Construct a new money market",
      "delegateToImplementation(bytes)": {
        "notice": "Delegates execution to the implementation contract"
      },
      "delegateToViewImplementation(bytes)": {
        "notice": "Delegates execution to an implementation contract"
      },
      "exchangeRateCurrent()": {
        "notice": "Accrue interest then return the up-to-date exchange rate"
      },
      "exchangeRateStored()": {
        "notice": "Calculates the exchange rate from the underlying to the CToken"
      },
      "getAccountSnapshot(address)": {
        "notice": "Get a snapshot of the account's balances, and the cached exchange rate"
      },
      "getCash()": {
        "notice": "Get cash balance of this cToken in the underlying asset"
      },
      "liquidateBorrow(address,uint256,address)": {
        "notice": "The sender liquidates the borrowers collateral. The collateral seized is transferred to the liquidator."
      },
      "mint(uint256)": {
        "notice": "Sender supplies assets into the market and receives cTokens in exchange"
      },
      "redeem(uint256)": {
        "notice": "Sender redeems cTokens in exchange for the underlying asset"
      },
      "redeemUnderlying(uint256)": {
        "notice": "Sender redeems cTokens in exchange for a specified amount of underlying asset"
      },
      "repayBorrow(uint256)": {
        "notice": "Sender repays their own borrow"
      },
      "repayBorrowBehalf(address,uint256)": {
        "notice": "Sender repays a borrow belonging to borrower"
      },
      "seize(address,address,uint256)": {
        "notice": "Transfers collateral tokens (this market) to the liquidator."
      },
      "supplyRatePerBlock()": {
        "notice": "Returns the current per-block supply interest rate for this cToken"
      },
      "totalBorrowsCurrent()": {
        "notice": "Returns the current total borrows plus accrued interest"
      },
      "transfer(address,uint256)": {
        "notice": "Transfer `amount` tokens from `msg.sender` to `dst`"
      },
      "transferFrom(address,address,uint256)": {
        "notice": "Transfer `amount` tokens from `src` to `dst`"
      }
    },
    "notice": "CTokens which wrap an EIP-20 underlying and delegate to an implementation"
  }
}