{
  "contractName": "CEther",
  "abi": [
    {
      "inputs": [
        {
          "internalType": "contract ComptrollerInterface",
          "name": "comptroller_",
          "type": "address"
        },
        {
          "internalType": "contract InterestRateModel",
          "name": "interestRateModel_",
          "type": "address"
        },
        {
          "internalType": "uint256",
          "name": "initialExchangeRateMantissa_",
          "type": "uint256"
        },
        {
          "internalType": "string",
          "name": "name_",
          "type": "string"
        },
        {
          "internalType": "string",
          "name": "symbol_",
          "type": "string"
        },
        {
          "internalType": "uint8",
          "name": "decimals_",
          "type": "uint8"
        },
        {
          "internalType": "address payable",
          "name": "admin_",
          "type": "address"
        },
        {
          "internalType": "address payable",
          "name": "reserveAdmin_",
          "type": "address"
        },
        {
          "internalType": "uint256",
          "name": "newReserveFactorMantissa_",
          "type": "uint256"
        }
      ],
      "payable": false,
      "stateMutability": "nonpayable",
      "type": "constructor"
    },
    {
      "anonymous": false,
      "inputs": [
        {
          "indexed": false,
          "internalType": "uint256",
          "name": "cashPrior",
          "type": "uint256"
        },
        {
          "indexed": false,
          "internalType": "uint256",
          "name": "interestAccumulated",
          "type": "uint256"
        },
        {
          "indexed": false,
          "internalType": "uint256",
          "name": "borrowIndex",
          "type": "uint256"
        },
        {
          "indexed": false,
          "internalType": "uint256",
          "name": "totalBorrows",
          "type": "uint256"
        }
      ],
      "name": "AccrueInterest",
      "type": "event"
    },
    {
      "anonymous": false,
      "inputs": [
        {
          "indexed": true,
          "internalType": "address",
          "name": "owner",
          "type": "address"
        },
        {
          "indexed": true,
          "internalType": "address",
          "name": "spender",
          "type": "address"
        },
        {
          "indexed": false,
          "internalType": "uint256",
          "name": "amount",
          "type": "uint256"
        }
      ],
      "name": "Approval",
      "type": "event"
    },
    {
      "anonymous": false,
      "inputs": [
        {
          "indexed": false,
          "internalType": "address",
          "name": "borrower",
          "type": "address"
        },
        {
          "indexed": false,
          "internalType": "uint256",
          "name": "borrowAmount",
          "type": "uint256"
        },
        {
          "indexed": false,
          "internalType": "uint256",
          "name": "accountBorrows",
          "type": "uint256"
        },
        {
          "indexed": false,
          "internalType": "uint256",
          "name": "totalBorrows",
          "type": "uint256"
        },
        {
          "indexed": false,
          "internalType": "uint256",
          "name": "borrowIndex",
          "type": "uint256"
        }
      ],
      "name": "Borrow",
      "type": "event"
    },
    {
      "anonymous": false,
      "inputs": [
        {
          "indexed": false,
          "internalType": "uint256",
          "name": "error",
          "type": "uint256"
        },
        {
          "indexed": false,
          "internalType": "uint256",
          "name": "info",
          "type": "uint256"
        },
        {
          "indexed": false,
          "internalType": "uint256",
          "name": "detail",
          "type": "uint256"
        }
      ],
      "name": "Failure",
      "type": "event"
    },
    {
      "anonymous": false,
      "inputs": [
        {
          "indexed": false,
          "internalType": "address",
          "name": "liquidator",
          "type": "address"
        },
        {
          "indexed": false,
          "internalType": "address",
          "name": "borrower",
          "type": "address"
        },
        {
          "indexed": false,
          "internalType": "uint256",
          "name": "repayAmount",
          "type": "uint256"
        },
        {
          "indexed": false,
          "internalType": "address",
          "name": "cTokenCollateral",
          "type": "address"
        },
        {
          "indexed": false,
          "internalType": "uint256",
          "name": "seizeTokens",
          "type": "uint256"
        }
      ],
      "name": "LiquidateBorrow",
      "type": "event"
    },
    {
      "anonymous": false,
      "inputs": [
        {
          "indexed": false,
          "internalType": "address",
          "name": "minter",
          "type": "address"
        },
        {
          "indexed": false,
          "internalType": "uint256",
          "name": "mintAmount",
          "type": "uint256"
        },
        {
          "indexed": false,
          "internalType": "uint256",
          "name": "mintTokens",
          "type": "uint256"
        }
      ],
      "name": "Mint",
      "type": "event"
    },
    {
      "anonymous": false,
      "inputs": [
        {
          "indexed": false,
          "internalType": "address",
          "name": "oldAdmin",
          "type": "address"
        },
        {
          "indexed": false,
          "internalType": "address",
          "name": "newAdmin",
          "type": "address"
        }
      ],
      "name": "NewAdmin",
      "type": "event"
    },
    {
      "anonymous": false,
      "inputs": [
        {
          "indexed": false,
          "internalType": "contract ComptrollerInterface",
          "name": "oldComptroller",
          "type": "address"
        },
        {
          "indexed": false,
          "internalType": "contract ComptrollerInterface",
          "name": "newComptroller",
          "type": "address"
        }
      ],
      "name": "NewComptroller",
      "type": "event"
    },
    {
      "anonymous": false,
      "inputs": [
        {
          "indexed": false,
          "internalType": "contract InterestRateModel",
          "name": "oldInterestRateModel",
          "type": "address"
        },
        {
          "indexed": false,
          "internalType": "contract InterestRateModel",
          "name": "newInterestRateModel",
          "type": "address"
        }
      ],
      "name": "NewMarketInterestRateModel",
      "type": "event"
    },
    {
      "anonymous": false,
      "inputs": [
        {
          "indexed": false,
          "internalType": "address",
          "name": "oldPendingAdmin",
          "type": "address"
        },
        {
          "indexed": false,
          "internalType": "address",
          "name": "newPendingAdmin",
          "type": "address"
        }
      ],
      "name": "NewPendingAdmin",
      "type": "event"
    },
    {
      "anonymous": false,
      "inputs": [
        {
          "indexed": false,
          "internalType": "address",
          "name": "oldAdmin",
          "type": "address"
        },
        {
          "indexed": false,
          "internalType": "address",
          "name": "newAdmin",
          "type": "address"
        }
      ],
      "name": "NewReserveAdmin",
      "type": "event"
    },
    {
      "anonymous": false,
      "inputs": [
        {
          "indexed": false,
          "internalType": "uint256",
          "name": "oldReserveFactorMantissa",
          "type": "uint256"
        },
        {
          "indexed": false,
          "internalType": "uint256",
          "name": "newReserveFactorMantissa",
          "type": "uint256"
        }
      ],
      "name": "NewReserveFactor",
      "type": "event"
    },
    {
      "anonymous": false,
      "inputs": [
        {
          "indexed": false,
          "internalType": "address",
          "name": "redeemer",
          "type": "address"
        },
        {
          "indexed": false,
          "internalType": "uint256",
          "name": "redeemAmount",
          "type": "uint256"
        },
        {
          "indexed": false,
          "internalType": "uint256",
          "name": "redeemTokens",
          "type": "uint256"
        }
      ],
      "name": "Redeem",
      "type": "event"
    },
    {
      "anonymous": false,
      "inputs": [
        {
          "indexed": false,
          "internalType": "address",
          "name": "payer",
          "type": "address"
        },
        {
          "indexed": false,
          "internalType": "address",
          "name": "borrower",
          "type": "address"
        },
        {
          "indexed": false,
          "internalType": "uint256",
          "name": "repayAmount",
          "type": "uint256"
        },
        {
          "indexed": false,
          "internalType": "uint256",
          "name": "accountBorrows",
          "type": "uint256"
        },
        {
          "indexed": false,
          "internalType": "uint256",
          "name": "totalBorrows",
          "type": "uint256"
        },
        {
          "indexed": false,
          "internalType": "uint256",
          "name": "borrowIndex",
          "type": "uint256"
        }
      ],
      "name": "RepayBorrow",
      "type": "event"
    },
    {
      "anonymous": false,
      "inputs": [
        {
          "indexed": false,
          "internalType": "address",
          "name": "benefactor",
          "type": "address"
        },
        {
          "indexed": false,
          "internalType": "uint256",
          "name": "addAmount",
          "type": "uint256"
        },
        {
          "indexed": false,
          "internalType": "uint256",
          "name": "newTotalReserves",
          "type": "uint256"
        }
      ],
      "name": "ReservesAdded",
      "type": "event"
    },
    {
      "anonymous": false,
      "inputs": [
        {
          "indexed": false,
          "internalType": "address",
          "name": "admin",
          "type": "address"
        },
        {
          "indexed": false,
          "internalType": "uint256",
          "name": "reduceAmount",
          "type": "uint256"
        },
        {
          "indexed": false,
          "internalType": "uint256",
          "name": "newTotalReserves",
          "type": "uint256"
        }
      ],
      "name": "ReservesReduced",
      "type": "event"
    },
    {
      "anonymous": false,
      "inputs": [
        {
          "indexed": true,
          "internalType": "address",
          "name": "from",
          "type": "address"
        },
        {
          "indexed": true,
          "internalType": "address",
          "name": "to",
          "type": "address"
        },
        {
          "indexed": false,
          "internalType": "uint256",
          "name": "amount",
          "type": "uint256"
        }
      ],
      "name": "Transfer",
      "type": "event"
    },
    {
      "anonymous": false,
      "inputs": [
        {
          "indexed": false,
          "internalType": "address",
          "name": "user",
          "type": "address"
        },
        {
          "indexed": false,
          "internalType": "uint256",
          "name": "utoken_balance",
          "type": "uint256"
        }
      ],
      "name": "UTokenBalance",
      "type": "event"
    },
    {
      "anonymous": false,
      "inputs": [
        {
          "indexed": false,
          "internalType": "uint256",
          "name": "totalCash",
          "type": "uint256"
        },
        {
          "indexed": false,
          "internalType": "uint256",
          "name": "totalBorrow",
          "type": "uint256"
        },
        {
          "indexed": false,
          "internalType": "uint256",
          "name": "totalReserve",
          "type": "uint256"
        },
        {
          "indexed": false,
          "internalType": "uint256",
          "name": "totalSupply",
          "type": "uint256"
        },
        {
          "indexed": false,
          "internalType": "uint256",
          "name": "borrowRatePerBlock",
          "type": "uint256"
        },
        {
          "indexed": false,
          "internalType": "uint256",
          "name": "borrowIndex",
          "type": "uint256"
        },
        {
          "indexed": false,
          "internalType": "uint256",
          "name": "reserveFactorMantissa",
          "type": "uint256"
        }
      ],
      "name": "UTokenStatus",
      "type": "event"
    },
    {
      "payable": true,
      "stateMutability": "payable",
      "type": "fallback"
    },
    {
      "constant": false,
      "inputs": [],
      "name": "_acceptAdmin",
      "outputs": [
        {
          "internalType": "uint256",
          "name": "",
          "type": "uint256"
        }
      ],
      "payable": false,
      "stateMutability": "nonpayable",
      "type": "function"
    },
    {
      "constant": false,
      "inputs": [
        {
          "internalType": "uint256",
          "name": "reduceAmount",
          "type": "uint256"
        }
      ],
      "name": "_reduceReserves",
      "outputs": [
        {
          "internalType": "uint256",
          "name": "",
          "type": "uint256"
        }
      ],
      "payable": false,
      "stateMutability": "nonpayable",
      "type": "function"
    },
    {
      "constant": false,
      "inputs": [
        {
          "internalType": "contract ComptrollerInterface",
          "name": "newComptroller",
          "type": "address"
        }
      ],
      "name": "_setComptroller",
      "outputs": [
        {
          "internalType": "uint256",
          "name": "",
          "type": "uint256"
        }
      ],
      "payable": false,
      "stateMutability": "nonpayable",
      "type": "function"
    },
    {
      "constant": false,
      "inputs": [
        {
          "internalType": "contract InterestRateModel",
          "name": "newInterestRateModel",
          "type": "address"
        }
      ],
      "name": "_setInterestRateModel",
      "outputs": [
        {
          "internalType": "uint256",
          "name": "",
          "type": "uint256"
        }
      ],
      "payable": false,
      "stateMutability": "nonpayable",
      "type": "function"
    },
    {
      "constant": false,
      "inputs": [
        {
          "internalType": "address payable",
          "name": "newPendingAdmin",
          "type": "address"
        }
      ],
      "name": "_setPendingAdmin",
      "outputs": [
        {
          "internalType": "uint256",
          "name": "",
          "type": "uint256"
        }
      ],
      "payable": false,
      "stateMutability": "nonpayable",
      "type": "function"
    },
    {
      "constant": false,
      "inputs": [
        {
          "internalType": "address payable",
          "name": "newReserveAdmin",
          "type": "address"
        }
      ],
      "name": "_setReserveAdmin",
      "outputs": [
        {
          "internalType": "uint256",
          "name": "",
          "type": "uint256"
        }
      ],
      "payable": false,
      "stateMutability": "nonpayable",
      "type": "function"
    },
    {
      "constant": false,
      "inputs": [
        {
          "internalType": "uint256",
          "name": "newReserveFactorMantissa",
          "type": "uint256"
        }
      ],
      "name": "_setReserveFactor",
      "outputs": [
        {
          "internalType": "uint256",
          "name": "",
          "type": "uint256"
        }
      ],
      "payable": false,
      "stateMutability": "nonpayable",
      "type": "function"
    },
    {
      "constant": true,
      "inputs": [],
      "name": "accrualBlockNumber",
      "outputs": [
        {
          "internalType": "uint256",
          "name": "",
          "type": "uint256"
        }
      ],
      "payable": false,
      "stateMutability": "view",
      "type": "function"
    },
    {
      "constant": false,
      "inputs": [],
      "name": "accrueInterest",
      "outputs": [
        {
          "internalType": "uint256",
          "name": "",
          "type": "uint256"
        }
      ],
      "payable": false,
      "stateMutability": "nonpayable",
      "type": "function"
    },
    {
      "constant": true,
      "inputs": [],
      "name": "admin",
      "outputs": [
        {
          "internalType": "address payable",
          "name": "",
          "type": "address"
        }
      ],
      "payable": false,
      "stateMutability": "view",
      "type": "function"
    },
    {
      "constant": true,
      "inputs": [
        {
          "internalType": "address",
          "name": "owner",
          "type": "address"
        },
        {
          "internalType": "address",
          "name": "spender",
          "type": "address"
        }
      ],
      "name": "allowance",
      "outputs": [
        {
          "internalType": "uint256",
          "name": "",
          "type": "uint256"
        }
      ],
      "payable": false,
      "stateMutability": "view",
      "type": "function"
    },
    {
      "constant": false,
      "inputs": [
        {
          "internalType": "address",
          "name": "spender",
          "type": "address"
        },
        {
          "internalType": "uint256",
          "name": "amount",
          "type": "uint256"
        }
      ],
      "name": "approve",
      "outputs": [
        {
          "internalType": "bool",
          "name": "",
          "type": "bool"
        }
      ],
      "payable": false,
      "stateMutability": "nonpayable",
      "type": "function"
    },
    {
      "constant": true,
      "inputs": [
        {
          "internalType": "address",
          "name": "owner",
          "type": "address"
        }
      ],
      "name": "balanceOf",
      "outputs": [
        {
          "internalType": "uint256",
          "name": "",
          "type": "uint256"
        }
      ],
      "payable": false,
      "stateMutability": "view",
      "type": "function"
    },
    {
      "constant": false,
      "inputs": [
        {
          "internalType": "address",
          "name": "owner",
          "type": "address"
        }
      ],
      "name": "balanceOfUnderlying",
      "outputs": [
        {
          "internalType": "uint256",
          "name": "",
          "type": "uint256"
        }
      ],
      "payable": false,
      "stateMutability": "nonpayable",
      "type": "function"
    },
    {
      "constant": false,
      "inputs": [
        {
          "internalType": "address",
          "name": "account",
          "type": "address"
        }
      ],
      "name": "borrowBalanceCurrent",
      "outputs": [
        {
          "internalType": "uint256",
          "name": "",
          "type": "uint256"
        }
      ],
      "payable": false,
      "stateMutability": "nonpayable",
      "type": "function"
    },
    {
      "constant": true,
      "inputs": [
        {
          "internalType": "address",
          "name": "account",
          "type": "address"
        }
      ],
      "name": "borrowBalanceStored",
      "outputs": [
        {
          "internalType": "uint256",
          "name": "",
          "type": "uint256"
        }
      ],
      "payable": false,
      "stateMutability": "view",
      "type": "function"
    },
    {
      "constant": true,
      "inputs": [],
      "name": "borrowIndex",
      "outputs": [
        {
          "internalType": "uint256",
          "name": "",
          "type": "uint256"
        }
      ],
      "payable": false,
      "stateMutability": "view",
      "type": "function"
    },
    {
      "constant": true,
      "inputs": [],
      "name": "borrowRatePerBlock",
      "outputs": [
        {
          "internalType": "uint256",
          "name": "",
          "type": "uint256"
        }
      ],
      "payable": false,
      "stateMutability": "view",
      "type": "function"
    },
    {
      "constant": true,
      "inputs": [],
      "name": "comptroller",
      "outputs": [
        {
          "internalType": "contract ComptrollerInterface",
          "name": "",
          "type": "address"
        }
      ],
      "payable": false,
      "stateMutability": "view",
      "type": "function"
    },
    {
      "constant": true,
      "inputs": [],
      "name": "decimals",
      "outputs": [
        {
          "internalType": "uint8",
          "name": "",
          "type": "uint8"
        }
      ],
      "payable": false,
      "stateMutability": "view",
      "type": "function"
    },
    {
      "constant": false,
      "inputs": [],
      "name": "exchangeRateCurrent",
      "outputs": [
        {
          "internalType": "uint256",
          "name": "",
          "type": "uint256"
        }
      ],
      "payable": false,
      "stateMutability": "nonpayable",
      "type": "function"
    },
    {
      "constant": true,
      "inputs": [],
      "name": "exchangeRateStored",
      "outputs": [
        {
          "internalType": "uint256",
          "name": "",
          "type": "uint256"
        }
      ],
      "payable": false,
      "stateMutability": "view",
      "type": "function"
    },
    {
      "constant": true,
      "inputs": [
        {
          "internalType": "address",
          "name": "account",
          "type": "address"
        }
      ],
      "name": "getAccountSnapshot",
      "outputs": [
        {
          "internalType": "uint256",
          "name": "",
          "type": "uint256"
        },
        {
          "internalType": "uint256",
          "name": "",
          "type": "uint256"
        },
        {
          "internalType": "uint256",
          "name": "",
          "type": "uint256"
        },
        {
          "internalType": "uint256",
          "name": "",
          "type": "uint256"
        }
      ],
      "payable": false,
      "stateMutability": "view",
      "type": "function"
    },
    {
      "constant": false,
      "inputs": [
        {
          "internalType": "contract ComptrollerInterface",
          "name": "comptroller_",
          "type": "address"
        },
        {
          "internalType": "contract InterestRateModel",
          "name": "interestRateModel_",
          "type": "address"
        },
        {
          "internalType": "uint256",
          "name": "initialExchangeRateMantissa_",
          "type": "uint256"
        },
        {
          "internalType": "string",
          "name": "name_",
          "type": "string"
        },
        {
          "internalType": "string",
          "name": "symbol_",
          "type": "string"
        },
        {
          "internalType": "uint8",
          "name": "decimals_",
          "type": "uint8"
        },
        {
          "internalType": "uint256",
          "name": "newReserveFactorMantissa_",
          "type": "uint256"
        }
      ],
      "name": "initialize",
      "outputs": [],
      "payable": false,
      "stateMutability": "nonpayable",
      "type": "function"
    },
    {
      "constant": true,
      "inputs": [],
      "name": "interestRateModel",
      "outputs": [
        {
          "internalType": "contract InterestRateModel",
          "name": "",
          "type": "address"
        }
      ],
      "payable": false,
      "stateMutability": "view",
      "type": "function"
    },
    {
      "constant": true,
      "inputs": [],
      "name": "isCToken",
      "outputs": [
        {
          "internalType": "bool",
          "name": "",
          "type": "bool"
        }
      ],
      "payable": false,
      "stateMutability": "view",
      "type": "function"
    },
    {
      "constant": true,
      "inputs": [],
      "name": "name",
      "outputs": [
        {
          "internalType": "string",
          "name": "",
          "type": "string"
        }
      ],
      "payable": false,
      "stateMutability": "view",
      "type": "function"
    },
    {
      "constant": true,
      "inputs": [],
      "name": "pendingAdmin",
      "outputs": [
        {
          "internalType": "address payable",
          "name": "",
          "type": "address"
        }
      ],
      "payable": false,
      "stateMutability": "view",
      "type": "function"
    },
    {
      "constant": true,
      "inputs": [],
      "name": "reserveAdmin",
      "outputs": [
        {
          "internalType": "address payable",
          "name": "",
          "type": "address"
        }
      ],
      "payable": false,
      "stateMutability": "view",
      "type": "function"
    },
    {
      "constant": true,
      "inputs": [],
      "name": "reserveFactorMantissa",
      "outputs": [
        {
          "internalType": "uint256",
          "name": "",
          "type": "uint256"
        }
      ],
      "payable": false,
      "stateMutability": "view",
      "type": "function"
    },
    {
      "constant": false,
      "inputs": [
        {
          "internalType": "address",
          "name": "liquidator",
          "type": "address"
        },
        {
          "internalType": "address",
          "name": "borrower",
          "type": "address"
        },
        {
          "internalType": "uint256",
          "name": "seizeTokens",
          "type": "uint256"
        }
      ],
      "name": "seize",
      "outputs": [
        {
          "internalType": "uint256",
          "name": "",
          "type": "uint256"
        }
      ],
      "payable": false,
      "stateMutability": "nonpayable",
      "type": "function"
    },
    {
      "constant": true,
      "inputs": [],
      "name": "supplyRatePerBlock",
      "outputs": [
        {
          "internalType": "uint256",
          "name": "",
          "type": "uint256"
        }
      ],
      "payable": false,
      "stateMutability": "view",
      "type": "function"
    },
    {
      "constant": true,
      "inputs": [],
      "name": "symbol",
      "outputs": [
        {
          "internalType": "string",
          "name": "",
          "type": "string"
        }
      ],
      "payable": false,
      "stateMutability": "view",
      "type": "function"
    },
    {
      "constant": true,
      "inputs": [],
      "name": "totalBorrows",
      "outputs": [
        {
          "internalType": "uint256",
          "name": "",
          "type": "uint256"
        }
      ],
      "payable": false,
      "stateMutability": "view",
      "type": "function"
    },
    {
      "constant": false,
      "inputs": [],
      "name": "totalBorrowsCurrent",
      "outputs": [
        {
          "internalType": "uint256",
          "name": "",
          "type": "uint256"
        }
      ],
      "payable": false,
      "stateMutability": "nonpayable",
      "type": "function"
    },
    {
      "constant": true,
      "inputs": [],
      "name": "totalReserves",
      "outputs": [
        {
          "internalType": "uint256",
          "name": "",
          "type": "uint256"
        }
      ],
      "payable": false,
      "stateMutability": "view",
      "type": "function"
    },
    {
      "constant": true,
      "inputs": [],
      "name": "totalSupply",
      "outputs": [
        {
          "internalType": "uint256",
          "name": "",
          "type": "uint256"
        }
      ],
      "payable": false,
      "stateMutability": "view",
      "type": "function"
    },
    {
      "constant": false,
      "inputs": [
        {
          "internalType": "address",
          "name": "dst",
          "type": "address"
        },
        {
          "internalType": "uint256",
          "name": "amount",
          "type": "uint256"
        }
      ],
      "name": "transfer",
      "outputs": [
        {
          "internalType": "bool",
          "name": "",
          "type": "bool"
        }
      ],
      "payable": false,
      "stateMutability": "nonpayable",
      "type": "function"
    },
    {
      "constant": false,
      "inputs": [
        {
          "internalType": "address",
          "name": "src",
          "type": "address"
        },
        {
          "internalType": "address",
          "name": "dst",
          "type": "address"
        },
        {
          "internalType": "uint256",
          "name": "amount",
          "type": "uint256"
        }
      ],
      "name": "transferFrom",
      "outputs": [
        {
          "internalType": "bool",
          "name": "",
          "type": "bool"
        }
      ],
      "payable": false,
      "stateMutability": "nonpayable",
      "type": "function"
    },
    {
      "constant": false,
      "inputs": [],
      "name": "mint",
      "outputs": [],
      "payable": true,
      "stateMutability": "payable",
      "type": "function"
    },
    {
      "constant": false,
      "inputs": [
        {
          "internalType": "uint256",
          "name": "redeemTokens",
          "type": "uint256"
        }
      ],
      "name": "redeem",
      "outputs": [
        {
          "internalType": "uint256",
          "name": "",
          "type": "uint256"
        }
      ],
      "payable": false,
      "stateMutability": "nonpayable",
      "type": "function"
    },
    {
      "constant": false,
      "inputs": [
        {
          "internalType": "uint256",
          "name": "redeemAmount",
          "type": "uint256"
        }
      ],
      "name": "redeemUnderlying",
      "outputs": [
        {
          "internalType": "uint256",
          "name": "",
          "type": "uint256"
        }
      ],
      "payable": false,
      "stateMutability": "nonpayable",
      "type": "function"
    },
    {
      "constant": false,
      "inputs": [
        {
          "internalType": "uint256",
          "name": "borrowAmount",
          "type": "uint256"
        }
      ],
      "name": "borrow",
      "outputs": [
        {
          "internalType": "uint256",
          "name": "",
          "type": "uint256"
        }
      ],
      "payable": false,
      "stateMutability": "nonpayable",
      "type": "function"
    },
    {
      "constant": false,
      "inputs": [
        {
          "internalType": "uint256",
          "name": "amount",
          "type": "uint256"
        }
      ],
      "name": "repayBorrow",
      "outputs": [],
      "payable": true,
      "stateMutability": "payable",
      "type": "function"
    },
    {
      "constant": false,
      "inputs": [
        {
          "internalType": "address",
          "name": "borrower",
          "type": "address"
        }
      ],
      "name": "repayBorrowBehalf",
      "outputs": [],
      "payable": true,
      "stateMutability": "payable",
      "type": "function"
    },
    {
      "constant": false,
      "inputs": [
        {
          "internalType": "address",
          "name": "borrower",
          "type": "address"
        },
        {
          "internalType": "contract CToken",
          "name": "cTokenCollateral",
          "type": "address"
        }
      ],
      "name": "liquidateBorrow",
      "outputs": [],
      "payable": true,
      "stateMutability": "payable",
      "type": "function"
    },
    {
      "constant": false,
      "inputs": [],
      "name": "_addReserves",
      "outputs": [
        {
          "internalType": "uint256",
          "name": "",
          "type": "uint256"
        }
      ],
      "payable": true,
      "stateMutability": "payable",
      "type": "function"
    },
    {
      "constant": true,
      "inputs": [],
      "name": "getCash",
      "outputs": [
        {
          "internalType": "uint256",
          "name": "",
          "type": "uint256"
        }
      ],
      "payable": false,
      "stateMutability": "view",
      "type": "function"
    }
  ],
  "bytecode": "0x60806040523480156200001157600080fd5b506040516200624d3803806200624d83398181016040526101208110156200003857600080fd5b8151602083015160408085015160608601805192519496939591949391820192846401000000008211156200006c57600080fd5b9083019060208201858111156200008257600080fd5b82516401000000008111828201881017156200009d57600080fd5b82525081516020918201929091019080838360005b83811015620000cc578181015183820152602001620000b2565b50505050905090810190601f168015620000fa5780820380516001836020036101000a031916815260200191505b50604052602001805160405193929190846401000000008211156200011e57600080fd5b9083019060208201858111156200013457600080fd5b82516401000000008111828201881017156200014f57600080fd5b82525081516020918201929091019080838360005b838110156200017e57818101518382015260200162000164565b50505050905090810190601f168015620001ac5780820380516001836020036101000a031916815260200191505b506040908152602082015190820151606083015160809093015160038054610100600160a81b03191633610100021790559194509250620001f38989898989898762000237565b5060038054610100600160a81b0319166101006001600160a01b0394851602179055600480546001600160a01b031916919092161790555062000947945050505050565b60035461010090046001600160a01b03163314620002a1576040517f08c379a0000000000000000000000000000000000000000000000000000000008152600401808060200182810382526024815260200180620061b46024913960400191505060405180910390fd5b600a54158015620002b25750600b54155b62000309576040517f08c379a0000000000000000000000000000000000000000000000000000000008152600401808060200182810382526023815260200180620061d86023913960400191505060405180910390fd5b60088590558462000366576040517f08c379a0000000000000000000000000000000000000000000000000000000008152600401808060200182810382526030815260200180620061fb6030913960400191505060405180910390fd5b6009819055600062000381886001600160e01b03620004d516565b90508015620003f157604080517f08c379a000000000000000000000000000000000000000000000000000000000815260206004820152601a60248201527f73657474696e6720636f6d7074726f6c6c6572206661696c6564000000000000604482015290519081900360640190fd5b620004046001600160e01b036200067016565b600a55670de0b6b3a7640000600b5562000427876001600160e01b036200067516565b9050801562000482576040517f08c379a00000000000000000000000000000000000000000000000000000000081526004018080602001828103825260228152602001806200622b6022913960400191505060405180910390fd5b845162000497906001906020880190620008a5565b508351620004ad906002906020870190620008a5565b50506003805460ff90931660ff19938416179055506000805490911660011790555050505050565b60035460009061010090046001600160a01b031633146200050f57620005076001603f6001600160e01b036200083516565b90506200066b565b600654604080517e7e3dd200000000000000000000000000000000000000000000000000000000815290516001600160a01b0392831692851691627e3dd2916004808301926020929190829003018186803b1580156200056e57600080fd5b505afa15801562000583573d6000803e3d6000fd5b505050506040513d60208110156200059a57600080fd5b50516200060857604080517f08c379a000000000000000000000000000000000000000000000000000000000815260206004820152601c60248201527f6d61726b6572206d6574686f642072657475726e65642066616c736500000000604482015290519081900360640190fd5b600680546001600160a01b0319166001600160a01b03858116918217909255604080519284168352602083019190915280517f7ac369dbd14fa5ea3f473ed67cc9d598964a77501540ba6751eb0b3decf5870d9281900390910190a160005b9150505b919050565b435b90565b600354600090819061010090046001600160a01b03163314620006b257620006a9600160426001600160e01b036200083516565b9150506200066b565b620006c56001600160e01b036200067016565b600a5414620006e557620006a9600a60416001600160e01b036200083516565b600760009054906101000a90046001600160a01b03169050826001600160a01b0316632191f92a6040518163ffffffff1660e01b815260040160206040518083038186803b1580156200073757600080fd5b505afa1580156200074c573d6000803e3d6000fd5b505050506040513d60208110156200076357600080fd5b5051620007d157604080517f08c379a000000000000000000000000000000000000000000000000000000000815260206004820152601c60248201527f6d61726b6572206d6574686f642072657475726e65642066616c736500000000604482015290519081900360640190fd5b600780546001600160a01b0319166001600160a01b03858116918217909255604080519284168352602083019190915280517fedffc32e068c7c95dfd4bdfd5c4d939a084d6b11c4199eac8436ed234d72f9269281900390910190a1600062000667565b60007f45b96fe442630264581b197e84bbada861235052c5a1aadfff9ea4e40a969aa08360108111156200086557fe5b8360508111156200087257fe5b604080519283526020830191909152600082820152519081900360600190a18260108111156200089e57fe5b9392505050565b828054600181600116156101000203166002900490600052602060002090601f016020900481019282601f10620008e857805160ff191683800117855562000918565b8280016001018555821562000918579182015b8281111562000918578251825591602001919060010190620008fb565b50620009269291506200092a565b5090565b6200067291905b8082111562000926576000815560010162000931565b61585d80620009576000396000f3fe6080604052600436106103135760003560e01c806395d89b411161019a578063db006a75116100e1578063f52b84a51161008a578063fca7820b11610064578063fca7820b14610ba7578063fcb6414714610bd1578063fe9c44ae14610bd957610313565b8063f52b84a514610b68578063f851a44014610b7d578063f8f9da2814610b9257610313565b8063e9c714f2116100bb578063e9c714f214610b0b578063f2b3abbd14610b20578063f3fdb15a14610b5357610313565b8063db006a7514610a80578063dd62ed3e14610aaa578063e597461914610ae557610313565b8063ae9d70b011610143578063bd6d894d1161011d578063bd6d894d146109e8578063c37f68e2146109fd578063c5ebeaec14610a5657610313565b8063ae9d70b01461095d578063b2a02ff114610972578063b71d1a0c146109b557610313565b8063a9059cbb11610174578063a9059cbb146108e1578063aa5af0fd1461091a578063aae40a2a1461092f57610313565b806395d89b411461088457806395dd919314610899578063a6afed95146108cc57610313565b80633af9e6691161025e578063601a0bf11161020757806373acee98116101e157806373acee9814610830578063852a12e3146108455780638f840ddd1461086f57610313565b8063601a0bf1146107be5780636c540baf146107e857806370a08231146107fd57610313565b80634576b5db116102385780634576b5db1461076157806347bd3718146107945780635fe3b567146107a957610313565b80633af9e669146105b75780633b1d21a2146105ea5780633d5d1d99146105ff57610313565b806317bfdfbc116102c057806323b872dd1161029a57806323b872dd14610518578063267822471461055b578063313ce5671461058c57610313565b806317bfdfbc146104bb57806318160ddd146104ee578063182df0f51461050357610313565b80630e752702116102f15780630e7527021461047f5780631249c58b1461049e578063173b9904146104a657610313565b806306fdde03146103635780630764074a146103ed578063095ea7b314610432575b600061031e34610bee565b509050610360816040518060400160405280600b81526020017f6d696e74206661696c6564000000000000000000000000000000000000000000815250610c96565b50005b34801561036f57600080fd5b50610378610f42565b6040805160208082528351818301528351919283929083019185019080838360005b838110156103b257818101518382015260200161039a565b50505050905090810190601f1680156103df5780820380516001836020036101000a031916815260200191505b509250505060405180910390f35b3480156103f957600080fd5b506104206004803603602081101561041057600080fd5b50356001600160a01b0316610fcf565b60408051918252519081900360200190f35b34801561043e57600080fd5b5061046b6004803603604081101561045557600080fd5b506001600160a01b03813516906020013561107f565b604080519115158252519081900360200190f35b61049c6004803603602081101561049557600080fd5b50356110ec565b005b61049c611139565b3480156104b257600080fd5b50610420611189565b3480156104c757600080fd5b50610420600480360360208110156104de57600080fd5b50356001600160a01b031661118f565b3480156104fa57600080fd5b50610420611256565b34801561050f57600080fd5b5061042061125c565b34801561052457600080fd5b5061046b6004803603606081101561053b57600080fd5b506001600160a01b038135811691602081013590911690604001356112bf565b34801561056757600080fd5b50610570611331565b604080516001600160a01b039092168252519081900360200190f35b34801561059857600080fd5b506105a1611340565b6040805160ff9092168252519081900360200190f35b3480156105c357600080fd5b50610420600480360360208110156105da57600080fd5b50356001600160a01b0316611349565b3480156105f657600080fd5b506104206113ff565b34801561060b57600080fd5b5061049c600480360360e081101561062257600080fd5b6001600160a01b0382358116926020810135909116916040820135919081019060808101606082013564010000000081111561065d57600080fd5b82018360208201111561066f57600080fd5b8035906020019184600183028401116401000000008311171561069157600080fd5b91908080601f01602080910402602001604051908101604052809392919081815260200183838082843760009201919091525092959493602081019350359150506401000000008111156106e457600080fd5b8201836020820111156106f657600080fd5b8035906020019184600183028401116401000000008311171561071857600080fd5b91908080601f0160208091040260200160405190810160405280939291908181526020018383808284376000920191909152509295505060ff8335169350505060200135611404565b34801561076d57600080fd5b506104206004803603602081101561078457600080fd5b50356001600160a01b03166115f1565b3480156107a057600080fd5b5061042061176d565b3480156107b557600080fd5b50610570611773565b3480156107ca57600080fd5b50610420600480360360208110156107e157600080fd5b5035611782565b3480156107f457600080fd5b5061042061181d565b34801561080957600080fd5b506104206004803603602081101561082057600080fd5b50356001600160a01b0316611823565b34801561083c57600080fd5b5061042061183e565b34801561085157600080fd5b506104206004803603602081101561086857600080fd5b50356118fb565b34801561087b57600080fd5b50610420611906565b34801561089057600080fd5b5061037861190c565b3480156108a557600080fd5b50610420600480360360208110156108bc57600080fd5b50356001600160a01b0316611964565b3480156108d857600080fd5b506104206119c1565b3480156108ed57600080fd5b5061046b6004803603604081101561090457600080fd5b506001600160a01b038135169060200135611d32565b34801561092657600080fd5b50610420611da3565b61049c6004803603604081101561094557600080fd5b506001600160a01b0381358116916020013516611da9565b34801561096957600080fd5b50610420611dfd565b34801561097e57600080fd5b506104206004803603606081101561099557600080fd5b506001600160a01b03813581169160208101359091169060400135611e9c565b3480156109c157600080fd5b50610420600480360360208110156109d857600080fd5b50356001600160a01b0316611f0d565b3480156109f457600080fd5b50610420611fb1565b348015610a0957600080fd5b50610a3060048036036020811015610a2057600080fd5b50356001600160a01b0316612074565b604080519485526020850193909352838301919091526060830152519081900360800190f35b348015610a6257600080fd5b5061042060048036036020811015610a7957600080fd5b5035612109565b348015610a8c57600080fd5b5061042060048036036020811015610aa357600080fd5b5035612114565b348015610ab657600080fd5b5061042060048036036040811015610acd57600080fd5b506001600160a01b038135811691602001351661211f565b61049c60048036036020811015610afb57600080fd5b50356001600160a01b031661214a565b348015610b1757600080fd5b50610420612198565b348015610b2c57600080fd5b5061042060048036036020811015610b4357600080fd5b50356001600160a01b03166122ca565b348015610b5f57600080fd5b50610570612304565b348015610b7457600080fd5b50610570612313565b348015610b8957600080fd5b50610570612322565b348015610b9e57600080fd5b50610420612336565b348015610bb357600080fd5b5061042060048036036020811015610bca57600080fd5b503561239a565b610420612418565b348015610be557600080fd5b5061046b612428565b60008054819060ff16610c35576040805162461bcd60e51b815260206004820152600a6024820152691c994b595b9d195c995960b21b604482015290519081900360640190fd5b6000805460ff19168155610c476119c1565b90508015610c7257610c65816010811115610c5e57fe5b601e61242d565b925060009150610c829050565b610c7c338561249a565b92509250505b6000805460ff191660011790559092909150565b81610ca057610f3e565b606081516005016040519080825280601f01601f191660200182016040528015610cd1576020820181803883390190505b50905060005b8251811015610d3a57828181518110610cec57fe5b602001015160f81c60f81b828281518110610d0357fe5b60200101907effffffffffffffffffffffffffffffffffffffffffffffffffffffffffffff1916908160001a905350600101610cd7565b81517f200000000000000000000000000000000000000000000000000000000000000090839083908110610d6a57fe5b60200101907effffffffffffffffffffffffffffffffffffffffffffffffffffffffffffff1916908160001a905350602860f81b828260010181518110610dad57fe5b60200101907effffffffffffffffffffffffffffffffffffffffffffffffffffffffffffff1916908160001a905350600a840460300160f81b828260020181518110610df557fe5b60200101907effffffffffffffffffffffffffffffffffffffffffffffffffffffffffffff1916908160001a905350600a840660300160f81b828260030181518110610e3d57fe5b60200101907effffffffffffffffffffffffffffffffffffffffffffffffffffffffffffff1916908160001a905350602960f81b828260040181518110610e8057fe5b60200101907effffffffffffffffffffffffffffffffffffffffffffffffffffffffffffff1916908160001a905350818415610f3a5760405162461bcd60e51b81526004018080602001828103825283818151815260200191508051906020019080838360005b83811015610eff578181015183820152602001610ee7565b50505050905090810190601f168015610f2c5780820380516001836020036101000a031916815260200191505b509250505060405180910390fd5b5050505b5050565b60018054604080516020600284861615610100026000190190941693909304601f81018490048402820184019092528181529291830182828015610fc75780601f10610f9c57610100808354040283529160200191610fc7565b820191906000526020600020905b815481529060010190602001808311610faa57829003601f168201915b505050505081565b60035460009061010090046001600160a01b03163314610ffc57610ff56001604561242d565b905061107a565b600480546001600160a01b038481167fffffffffffffffffffffffff0000000000000000000000000000000000000000831681179093556040805191909216808252602082019390935281517f6b05e4710a05e41140c8589bc8113d9a357a2202e233f6c599bc07971cc1b9c4929181900390910190a160005b9150505b919050565b3360008181526010602090815260408083206001600160a01b03871680855290835281842086905581518681529151939493909284927f8c5be1e5ebec7d5bd14f71427d1e84f3dd0314c0f7b2291e5b200ac8c7c3b925929081900390910190a360019150505b92915050565b60006110f782612986565b509050610f3e816040518060400160405280601281526020017f7265706179426f72726f77206661696c65640000000000000000000000000000815250610c96565b600061114434610bee565b509050611186816040518060400160405280600b81526020017f6d696e74206661696c6564000000000000000000000000000000000000000000815250610c96565b50565b60095481565b6000805460ff166111d4576040805162461bcd60e51b815260206004820152600a6024820152691c994b595b9d195c995960b21b604482015290519081900360640190fd5b6000805460ff191681556111e66119c1565b14611238576040805162461bcd60e51b815260206004820152601660248201527f61636372756520696e746572657374206661696c656400000000000000000000604482015290519081900360640190fd5b61124182611964565b90505b6000805460ff19166001179055919050565b600e5481565b6000806000611269612a08565b9092509050600082600381111561127c57fe5b146112b85760405162461bcd60e51b81526004018080602001828103825260358152602001806157746035913960400191505060405180910390fd5b9150505b90565b6000805460ff16611304576040805162461bcd60e51b815260206004820152600a6024820152691c994b595b9d195c995960b21b604482015290519081900360640190fd5b6000805460ff1916815561131a33868686612ab7565b1490506000805460ff191660011790559392505050565b6005546001600160a01b031681565b60035460ff1681565b6000611353615482565b6040518060200160405280611366611fb1565b90526001600160a01b0384166000908152600f6020526040812054919250908190611392908490612e8a565b909250905060008260038111156113a557fe5b146113f7576040805162461bcd60e51b815260206004820152601f60248201527f62616c616e636520636f756c64206e6f742062652063616c63756c6174656400604482015290519081900360640190fd5b949350505050565b303190565b60035461010090046001600160a01b031633146114525760405162461bcd60e51b81526004018080602001828103825260248152602001806155db6024913960400191505060405180910390fd5b600a541580156114625750600b54155b61149d5760405162461bcd60e51b81526004018080602001828103825260238152602001806155ff6023913960400191505060405180910390fd5b6008859055846114de5760405162461bcd60e51b81526004018080602001828103825260308152602001806156226030913960400191505060405180910390fd5b600981905560006114ee886115f1565b90508015611543576040805162461bcd60e51b815260206004820152601a60248201527f73657474696e6720636f6d7074726f6c6c6572206661696c6564000000000000604482015290519081900360640190fd5b61154b612edd565b600a55670de0b6b3a7640000600b5561156387612ee1565b905080156115a25760405162461bcd60e51b81526004018080602001828103825260228152602001806156526022913960400191505060405180910390fd5b84516115b5906001906020880190615495565b5083516115c9906002906020870190615495565b50506003805460ff90931660ff19938416179055506000805490911660011790555050505050565b60035460009061010090046001600160a01b0316331461161757610ff56001603f61242d565b600654604080517e7e3dd200000000000000000000000000000000000000000000000000000000815290516001600160a01b0392831692851691627e3dd2916004808301926020929190829003018186803b15801561167557600080fd5b505afa158015611689573d6000803e3d6000fd5b505050506040513d602081101561169f57600080fd5b50516116f2576040805162461bcd60e51b815260206004820152601c60248201527f6d61726b6572206d6574686f642072657475726e65642066616c736500000000604482015290519081900360640190fd5b600680547fffffffffffffffffffffffff0000000000000000000000000000000000000000166001600160a01b03858116918217909255604080519284168352602083019190915280517f7ac369dbd14fa5ea3f473ed67cc9d598964a77501540ba6751eb0b3decf5870d9281900390910190a16000611076565b600c5481565b6006546001600160a01b031681565b6000805460ff166117c7576040805162461bcd60e51b815260206004820152600a6024820152691c994b595b9d195c995960b21b604482015290519081900360640190fd5b6000805460ff191681556117d96119c1565b905080156117ff576117f78160108111156117f057fe5b603061242d565b915050611244565b6118088361306e565b9150506000805460ff19166001179055919050565b600a5481565b6001600160a01b03166000908152600f602052604090205490565b6000805460ff16611883576040805162461bcd60e51b815260206004820152600a6024820152691c994b595b9d195c995960b21b604482015290519081900360640190fd5b6000805460ff191681556118956119c1565b146118e7576040805162461bcd60e51b815260206004820152601660248201527f61636372756520696e746572657374206661696c656400000000000000000000604482015290519081900360640190fd5b50600c546000805460ff1916600117905590565b60006110e682613192565b600d5481565b6002805460408051602060018416156101000260001901909316849004601f81018490048402820184019092528181529291830182828015610fc75780601f10610f9c57610100808354040283529160200191610fc7565b600080600061197284613213565b9092509050600082600381111561198557fe5b146110765760405162461bcd60e51b815260040180806020018281038252603781526020018061569f6037913960400191505060405180910390fd5b6000806119cc612edd565b600a54909150808214156119e5576000925050506112bc565b60006119ef6132c7565b600c54600d54600b54600754604080517f15f2405300000000000000000000000000000000000000000000000000000000815260048101879052602481018690526044810185905290519596509394929391926000926001600160a01b03909216916315f24053916064808301926020929190829003018186803b158015611a7657600080fd5b505afa158015611a8a573d6000803e3d6000fd5b505050506040513d6020811015611aa057600080fd5b5051905065048c27395000811115611aff576040805162461bcd60e51b815260206004820152601c60248201527f626f72726f772072617465206973206162737572646c79206869676800000000604482015290519081900360640190fd5b600080611b0c89896132f3565b90925090506000826003811115611b1f57fe5b14611b71576040805162461bcd60e51b815260206004820152601f60248201527f636f756c64206e6f742063616c63756c61746520626c6f636b2064656c746100604482015290519081900360640190fd5b611b79615482565b600080600080611b9760405180602001604052808a81525087613316565b90975094506000876003811115611baa57fe5b14611bdc57611bc760096006896003811115611bc257fe5b61337e565b9e5050505050505050505050505050506112bc565b611be6858c612e8a565b90975093506000876003811115611bf957fe5b14611c1157611bc760096001896003811115611bc257fe5b611c1b848c6133e4565b90975092506000876003811115611c2e57fe5b14611c4657611bc760096004896003811115611bc257fe5b611c616040518060200160405280600954815250858c61340a565b90975091506000876003811115611c7457fe5b14611c8c57611bc760096005896003811115611bc257fe5b611c97858a8b61340a565b90975090506000876003811115611caa57fe5b14611cc257611bc760096003896003811115611bc257fe5b600a8e9055600b819055600c839055600d829055604080518d8152602081018690528082018390526060810185905290517f4dec04e750ca11537cabcd8a9eab06494de08da3735bc8871cd41250e190bc049181900360800190a160009e50505050505050505050505050505090565b6000805460ff16611d77576040805162461bcd60e51b815260206004820152600a6024820152691c994b595b9d195c995960b21b604482015290519081900360640190fd5b6000805460ff19168155611d8d33338686612ab7565b1490506000805460ff1916600117905592915050565b600b5481565b6000611db6833484613466565b509050611df8816040518060400160405280601681526020017f6c6971756964617465426f72726f77206661696c656400000000000000000000815250610c96565b505050565b6007546000906001600160a01b031663b8168816611e196132c7565b600c54600d546009546040518563ffffffff1660e01b81526004018085815260200184815260200183815260200182815260200194505050505060206040518083038186803b158015611e6b57600080fd5b505afa158015611e7f573d6000803e3d6000fd5b505050506040513d6020811015611e9557600080fd5b5051905090565b6000805460ff16611ee1576040805162461bcd60e51b815260206004820152600a6024820152691c994b595b9d195c995960b21b604482015290519081900360640190fd5b6000805460ff19169055611ef733858585613598565b90506000805460ff191660011790559392505050565b60035460009061010090046001600160a01b03163314611f3357610ff56001604561242d565b600580546001600160a01b038481167fffffffffffffffffffffffff0000000000000000000000000000000000000000831681179093556040805191909216808252602082019390935281517fca4f2f25d0898edd99413412fb94012f9e54ec8142f9b093e7720646a95b16a9929181900390910190a16000611076565b6000805460ff16611ff6576040805162461bcd60e51b815260206004820152600a6024820152691c994b595b9d195c995960b21b604482015290519081900360640190fd5b6000805460ff191681556120086119c1565b1461205a576040805162461bcd60e51b815260206004820152601660248201527f61636372756520696e746572657374206661696c656400000000000000000000604482015290519081900360640190fd5b61206261125c565b90506000805460ff1916600117905590565b6001600160a01b0381166000908152600f602052604081205481908190819081808061209f89613213565b9350905060008160038111156120b157fe5b146120cf5760095b9750600096508695508594506121029350505050565b6120d7612a08565b9250905060008160038111156120e957fe5b146120f55760096120b9565b5060009650919450925090505b9193509193565b60006110e6826138ca565b60006110e682613949565b6001600160a01b03918216600090815260106020908152604080832093909416825291909152205490565b600061215682346139c3565b509050610f3e816040518060400160405280601881526020017f7265706179426f72726f77426568616c66206661696c65640000000000000000815250610c96565b6005546000906001600160a01b0316331415806121b3575033155b156121cb576121c46001600061242d565b90506112bc565b60038054600580546001600160a01b038181166101008181027fffffffffffffffffffffff0000000000000000000000000000000000000000ff871617968790557fffffffffffffffffffffffff000000000000000000000000000000000000000090931690935560408051948390048216808652929095041660208401528351909391927ff9ffabca9c8276e99321725bcb43fb076a6c66a54b7f21c4e8146d8519b417dc92908290030190a1600554604080516001600160a01b038085168252909216602083015280517fca4f2f25d0898edd99413412fb94012f9e54ec8142f9b093e7720646a95b16a99281900390910190a160009250505090565b6000806122d56119c1565b905080156122fb576122f38160108111156122ec57fe5b604061242d565b91505061107a565b61107683612ee1565b6007546001600160a01b031681565b6004546001600160a01b031681565b60035461010090046001600160a01b031681565b6007546000906001600160a01b03166315f240536123526132c7565b600c54600d546040518463ffffffff1660e01b815260040180848152602001838152602001828152602001935050505060206040518083038186803b158015611e6b57600080fd5b6000805460ff166123df576040805162461bcd60e51b815260206004820152600a6024820152691c994b595b9d195c995960b21b604482015290519081900360640190fd5b6000805460ff191681556123f16119c1565b9050801561240f576117f781601081111561240857fe5b604661242d565b61180883613a6e565b600061242334613b16565b905090565b600181565b60007f45b96fe442630264581b197e84bbada861235052c5a1aadfff9ea4e40a969aa083601081111561245c57fe5b83605081111561246857fe5b604080519283526020830191909152600082820152519081900360600190a182601081111561249357fe5b9392505050565b600654604080517f4ef4c3e10000000000000000000000000000000000000000000000000000000081523060048201526001600160a01b03858116602483015260448201859052915160009384938493911691634ef4c3e19160648082019260209290919082900301818787803b15801561251457600080fd5b505af1158015612528573d6000803e3d6000fd5b505050506040513d602081101561253e57600080fd5b505190508015612562576125556003601f8361337e565b92506000915061297f9050565b61256a612edd565b600a541461257e57612555600a602261242d565b612586615513565b61258e612a08565b60408301819052602083018260038111156125a557fe5b60038111156125b057fe5b90525060009050816020015160038111156125c757fe5b146125f1576125e36009602183602001516003811115611bc257fe5b93506000925061297f915050565b6125fb8686613baa565b60c082018190526040805160208101825290830151815261261c9190613cea565b606083018190526020830182600381111561263357fe5b600381111561263e57fe5b905250600090508160200151600381111561265557fe5b146126a7576040805162461bcd60e51b815260206004820181905260248201527f4d494e545f45584348414e47455f43414c43554c4154494f4e5f4641494c4544604482015290519081900360640190fd5b6126b7600e5482606001516133e4565b60808301819052602083018260038111156126ce57fe5b60038111156126d957fe5b90525060009050816020015160038111156126f057fe5b1461272c5760405162461bcd60e51b81526004018080602001828103825260288152602001806157a96028913960400191505060405180910390fd5b6001600160a01b0386166000908152600f6020526040902054606082015161275491906133e4565b60a083018190526020830182600381111561276b57fe5b600381111561277657fe5b905250600090508160200151600381111561278d57fe5b146127c95760405162461bcd60e51b815260040180806020018281038252602b815260200180615674602b913960400191505060405180910390fd5b6080810151600e5560a08101516001600160a01b0387166000818152600f60209081526040918290209390935560c084015160608086015183519485529484019190915282820193909352517f4c209b5fc8ad50758f13e2e1088ba56a560dff690a1c6fef26394f4c03821c4f929181900390910190a1606081015160408051918252516001600160a01b0388169130917fddf252ad1be2c89b69c2b068fc378daa952ba7f163c4a11628f55a4df523b3ef9181900360200190a360a0810151604080516001600160a01b0389168152602081019290925280517f88254844946c31d824a5d167e83afa5982e88288bdeb6bc71961a585e2505d1b9281900390910190a160065460c08201516060830151604080517f41c728b90000000000000000000000000000000000000000000000000000000081523060048201526001600160a01b038b81166024830152604482019490945260648101929092525191909216916341c728b991608480830192600092919082900301818387803b15801561295357600080fd5b505af1158015612967573d6000803e3d6000fd5b50505050612973613d01565b60c00151600093509150505b9250929050565b60008054819060ff166129cd576040805162461bcd60e51b815260206004820152600a6024820152691c994b595b9d195c995960b21b604482015290519081900360640190fd5b6000805460ff191681556129df6119c1565b905080156129fd57610c658160108111156129f657fe5b603661242d565b610c7c333386613e38565b600e54600090819080612a2357505060085460009150612ab3565b6000612a2d6132c7565b90506000612a39615482565b6000612a4a84600c54600d546142b3565b935090506000816003811115612a5c57fe5b14612a7157955060009450612ab39350505050565b612a7b83866142f1565b925090506000816003811115612a8d57fe5b14612aa257955060009450612ab39350505050565b5051600095509350612ab392505050565b9091565b600654604080517fbdcdc2580000000000000000000000000000000000000000000000000000000081523060048201526001600160a01b03868116602483015285811660448301526064820185905291516000938493169163bdcdc25891608480830192602092919082900301818787803b158015612b3557600080fd5b505af1158015612b49573d6000803e3d6000fd5b505050506040513d6020811015612b5f57600080fd5b505190508015612b7e57612b766003604a8361337e565b9150506113f7565b836001600160a01b0316856001600160a01b03161415612ba457612b766002604b61242d565b60006001600160a01b038781169087161415612bc35750600019612beb565b506001600160a01b038086166000908152601060209081526040808320938a16835292905220545b600080600080612bfb85896132f3565b90945092506000846003811115612c0e57fe5b14612c2c57612c1f6009604b61242d565b96505050505050506113f7565b6001600160a01b038a166000908152600f6020526040902054612c4f90896132f3565b90945091506000846003811115612c6257fe5b14612c7357612c1f6009604c61242d565b6001600160a01b0389166000908152600f6020526040902054612c9690896133e4565b90945090506000846003811115612ca957fe5b14612cba57612c1f6009604d61242d565b6001600160a01b03808b166000908152600f6020526040808220859055918b168152208190556000198514612d12576001600160a01b03808b166000908152601060209081526040808320938f168352929052208390555b886001600160a01b03168a6001600160a01b03167fddf252ad1be2c89b69c2b068fc378daa952ba7f163c4a11628f55a4df523b3ef8a6040518082815260200191505060405180910390a3600654604080517f6a56947e0000000000000000000000000000000000000000000000000000000081523060048201526001600160a01b038d811660248301528c81166044830152606482018c905291519190921691636a56947e91608480830192600092919082900301818387803b158015612dd957600080fd5b505af1158015612ded573d6000803e3d6000fd5b5050604080516001600160a01b038e1681526020810186905281517f88254844946c31d824a5d167e83afa5982e88288bdeb6bc71961a585e2505d1b9450908190039091019150a1604080516001600160a01b038b1681526020810183905281517f88254844946c31d824a5d167e83afa5982e88288bdeb6bc71961a585e2505d1b929181900390910190a15060009a9950505050505050505050565b6000806000612e97615482565b612ea18686613316565b90925090506000826003811115612eb457fe5b14612ec5575091506000905061297f565b6000612ed0826143a1565b9350935050509250929050565b4390565b600354600090819061010090046001600160a01b03163314612f09576122f36001604261242d565b612f11612edd565b600a5414612f25576122f3600a604161242d565b600760009054906101000a90046001600160a01b03169050826001600160a01b0316632191f92a6040518163ffffffff1660e01b815260040160206040518083038186803b158015612f7657600080fd5b505afa158015612f8a573d6000803e3d6000fd5b505050506040513d6020811015612fa057600080fd5b5051612ff3576040805162461bcd60e51b815260206004820152601c60248201527f6d61726b6572206d6574686f642072657475726e65642066616c736500000000604482015290519081900360640190fd5b600780547fffffffffffffffffffffffff0000000000000000000000000000000000000000166001600160a01b03858116918217909255604080519284168352602083019190915280517fedffc32e068c7c95dfd4bdfd5c4d939a084d6b11c4199eac8436ed234d72f9269281900390910190a16000611076565b60045460009081906001600160a01b03163314613091576122f36001603161242d565b613099612edd565b600a54146130ad576122f3600a603361242d565b826130b66132c7565b10156130c8576122f3600e603261242d565b600d548311156130de576122f36002603461242d565b50600d54828103908111156131245760405162461bcd60e51b81526004018080602001828103825260248152602001806158056024913960400191505060405180910390fd5b600d81905560045461313f906001600160a01b0316846143b0565b600454604080516001600160a01b03909216825260208201859052818101839052517f3bad0c59cf2f06e7314077049f48a93578cd16f5ef92329f1dab1420a99c177e9181900360600190a16000611076565b6000805460ff166131d7576040805162461bcd60e51b815260206004820152600a6024820152691c994b595b9d195c995960b21b604482015290519081900360640190fd5b6000805460ff191681556131e96119c1565b90508015613207576117f781601081111561320057fe5b602761242d565b611808336000856143e6565b6001600160a01b03811660009081526011602052604081208054829182918291829161324a5750600094508493506132c292505050565b61325a8160000154600b5461493b565b9094509250600084600381111561326d57fe5b146132825750919350600092506132c2915050565b61329083826001015461497a565b909450915060008460038111156132a357fe5b146132b85750919350600092506132c2915050565b5060009450925050505b915091565b600080806132d63031346132f3565b909250905060008260038111156132e957fe5b146112b857600080fd5b60008083831161330a57506000905081830361297f565b5060039050600061297f565b6000613320615482565b60008061333186600001518661493b565b9092509050600082600381111561334457fe5b146133635750604080516020810190915260008152909250905061297f565b60408051602081019091529081526000969095509350505050565b60007f45b96fe442630264581b197e84bbada861235052c5a1aadfff9ea4e40a969aa08460108111156133ad57fe5b8460508111156133b957fe5b604080519283526020830191909152818101859052519081900360600190a18360108111156113f757fe5b6000808383018481106133fc5760009250905061297f565b50600291506000905061297f565b6000806000613417615482565b6134218787613316565b9092509050600082600381111561343457fe5b14613445575091506000905061345e565b613457613451826143a1565b866133e4565b9350935050505b935093915050565b60008054819060ff166134ad576040805162461bcd60e51b815260206004820152600a6024820152691c994b595b9d195c995960b21b604482015290519081900360640190fd5b6000805460ff191681556134bf6119c1565b905080156134ea576134dd8160108111156134d657fe5b600f61242d565b9250600091506135819050565b836001600160a01b031663a6afed956040518163ffffffff1660e01b8152600401602060405180830381600087803b15801561352557600080fd5b505af1158015613539573d6000803e3d6000fd5b505050506040513d602081101561354f57600080fd5b50519050801561356f576134dd81601081111561356857fe5b601061242d565b61357b338787876149a5565b92509250505b6000805460ff191660011790559094909350915050565b600654604080517fd02f73510000000000000000000000000000000000000000000000000000000081523060048201526001600160a01b038781166024830152868116604483015285811660648301526084820185905291516000938493169163d02f73519160a480830192602092919082900301818787803b15801561361e57600080fd5b505af1158015613632573d6000803e3d6000fd5b505050506040513d602081101561364857600080fd5b50519050801561365f57612b766003601b8361337e565b846001600160a01b0316846001600160a01b0316141561368557612b766006601c61242d565b6001600160a01b0384166000908152600f6020526040812054819081906136ac90876132f3565b909350915060008360038111156136bf57fe5b146136e2576136d76009601a856003811115611bc257fe5b9450505050506113f7565b6001600160a01b0388166000908152600f602052604090205461370590876133e4565b9093509050600083600381111561371857fe5b14613730576136d760096019856003811115611bc257fe5b6001600160a01b038088166000818152600f60209081526040808320879055938c168083529184902085905583518a8152935191937fddf252ad1be2c89b69c2b068fc378daa952ba7f163c4a11628f55a4df523b3ef929081900390910190a3604080516001600160a01b03891681526020810184905281517f88254844946c31d824a5d167e83afa5982e88288bdeb6bc71961a585e2505d1b929181900390910190a1604080516001600160a01b038a1681526020810183905281517f88254844946c31d824a5d167e83afa5982e88288bdeb6bc71961a585e2505d1b929181900390910190a1600654604080517f6d35bf910000000000000000000000000000000000000000000000000000000081523060048201526001600160a01b038c811660248301528b811660448301528a81166064830152608482018a905291519190921691636d35bf919160a480830192600092919082900301818387803b15801561389c57600080fd5b505af11580156138b0573d6000803e3d6000fd5b50600092506138bd915050565b9998505050505050505050565b6000805460ff1661390f576040805162461bcd60e51b815260206004820152600a6024820152691c994b595b9d195c995960b21b604482015290519081900360640190fd5b6000805460ff191681556139216119c1565b9050801561393f576117f781601081111561393857fe5b600861242d565b6118083384614f96565b6000805460ff1661398e576040805162461bcd60e51b815260206004820152600a6024820152691c994b595b9d195c995960b21b604482015290519081900360640190fd5b6000805460ff191681556139a06119c1565b905080156139b7576117f781601081111561320057fe5b611808338460006143e6565b60008054819060ff16613a0a576040805162461bcd60e51b815260206004820152600a6024820152691c994b595b9d195c995960b21b604482015290519081900360640190fd5b6000805460ff19168155613a1c6119c1565b90508015613a4757613a3a816010811115613a3357fe5b603561242d565b925060009150613a589050565b613a52338686613e38565b92509250505b6000805460ff1916600117905590939092509050565b60035460009061010090046001600160a01b03163314613a9457610ff56001604761242d565b613a9c612edd565b600a5414613ab057610ff5600a604861242d565b670de0b6b3a7640000821115613acc57610ff56002604961242d565b6009805490839055604080518281526020810185905281517faaa68312e2ea9d50e16af5068410ab56e1a1fd06037b1a35664812c30f821460929181900390910190a16000611076565b6000805460ff16613b5b576040805162461bcd60e51b815260206004820152600a6024820152691c994b595b9d195c995960b21b604482015290519081900360640190fd5b6000805460ff19168155613b6d6119c1565b90508015613b8b576117f7816010811115613b8457fe5b604e61242d565b613b94836152e1565b509150506000805460ff19166001179055919050565b6000336001600160a01b03841614613c09576040805162461bcd60e51b815260206004820152600f60248201527f73656e646572206d69736d617463680000000000000000000000000000000000604482015290519081900360640190fd5b81341015613c5e576040805162461bcd60e51b815260206004820152600e60248201527f76616c7565206d69736d61746368000000000000000000000000000000000000604482015290519081900360640190fd5b81341115613ce4576000613ca834846040518060400160405280600c81526020017f63616c6320737572706c757300000000000000000000000000000000000000008152506153c9565b6040519091506001600160a01b0385169082156108fc029083906000818181858888f19350505050158015613ce1573d6000803e3d6000fd5b50505b50919050565b6000806000613cf7615482565b612ea18686615423565b6000613d0b6113ff565b90506000600e54600014613dc457600754600c54600d54604080517f15f240530000000000000000000000000000000000000000000000000000000081526004810187905260248101939093526044830191909152516001600160a01b03909216916315f2405391606480820192602092909190829003018186803b158015613d9357600080fd5b505afa158015613da7573d6000803e3d6000fd5b505050506040513d6020811015613dbd57600080fd5b5051613dc7565b60005b600c54600d54600e54600b546009546040805189815260208101969096528581019490945260608501929092526080840185905260a084015260c0830152519192507f834b66d4671f0b5428a4cc4c73af4c1a637d7f329457542766b847a8335b83f6919081900360e00190a15050565b600654604080517f24008a620000000000000000000000000000000000000000000000000000000081523060048201526001600160a01b0386811660248301528581166044830152606482018590529151600093849384939116916324008a629160848082019260209290919082900301818787803b158015613eba57600080fd5b505af1158015613ece573d6000803e3d6000fd5b505050506040513d6020811015613ee457600080fd5b505190508015613f0857613efb600360388361337e565b92506000915061345e9050565b613f10612edd565b600a5414613f2457613efb600a603961242d565b613f2c615551565b6001600160a01b0386166000908152601160205260409020600101546060820152613f5686613213565b6080830181905260208301826003811115613f6d57fe5b6003811115613f7857fe5b9052506000905081602001516003811115613f8f57fe5b14613fb957613fab6009603783602001516003811115611bc257fe5b93506000925061345e915050565b600019851415613fd25760808101516040820152613fda565b604081018590525b613fe8878260400151613baa565b60e082018190526080820151613ffd916132f3565b60a083018190526020830182600381111561401457fe5b600381111561401f57fe5b905250600090508160200151600381111561403657fe5b146140725760405162461bcd60e51b815260040180806020018281038252603a8152602001806156d6603a913960400191505060405180910390fd5b614082600c548260e001516132f3565b60c083018190526020830182600381111561409957fe5b60038111156140a457fe5b90525060009050816020015160038111156140bb57fe5b146140f75760405162461bcd60e51b81526004018080602001828103825260318152602001806157106031913960400191505060405180910390fd5b8060a0015160116000886001600160a01b03166001600160a01b0316815260200190815260200160002060000181905550600b5460116000886001600160a01b03166001600160a01b03168152602001908152602001600020600101819055508060c00151600c819055507f6fadbf7329d21f278e724fa0d4511001a158f2a97ee35c5bc4cf8b64417399ef87878360e001518460a001518560c00151600b5460405180876001600160a01b03166001600160a01b03168152602001866001600160a01b03166001600160a01b03168152602001858152602001848152602001838152602001828152602001965050505050505060405180910390a160065460e08201516060830151604080517f1ededc910000000000000000000000000000000000000000000000000000000081523060048201526001600160a01b038c811660248301528b8116604483015260648201949094526084810192909252519190921691631ededc919160a480830192600092919082900301818387803b15801561428157600080fd5b505af1158015614295573d6000803e3d6000fd5b505050506142a1613d01565b60e00151600097909650945050505050565b6000806000806142c387876133e4565b909250905060008260038111156142d657fe5b146142e7575091506000905061345e565b61345781866132f3565b60006142fb615482565b60008061431086670de0b6b3a764000061493b565b9092509050600082600381111561432357fe5b146143425750604080516020810190915260008152909250905061297f565b60008061434f838861497a565b9092509050600082600381111561436257fe5b146143845750604080516020810190915260008152909450925061297f915050565b604080516020810190915290815260009890975095505050505050565b51670de0b6b3a7640000900490565b6040516001600160a01b0383169082156108fc029083906000818181858888f19350505050158015611df8573d6000803e3d6000fd5b60008215806143f3575081155b61442e5760405162461bcd60e51b81526004018080602001828103825260348152602001806157d16034913960400191505060405180910390fd5b614436615513565b61443e612a08565b604083018190526020830182600381111561445557fe5b600381111561446057fe5b905250600090508160200151600381111561447757fe5b1461449b576144936009602b83602001516003811115611bc257fe5b915050612493565b831561451c5760608101849052604080516020810182529082015181526144c29085612e8a565b60808301819052602083018260038111156144d957fe5b60038111156144e457fe5b90525060009050816020015160038111156144fb57fe5b14614517576144936009602983602001516003811115611bc257fe5b614595565b6145388360405180602001604052808460400151815250613cea565b606083018190526020830182600381111561454f57fe5b600381111561455a57fe5b905250600090508160200151600381111561457157fe5b1461458d576144936009602a83602001516003811115611bc257fe5b608081018390525b6006546060820151604080517feabe7d910000000000000000000000000000000000000000000000000000000081523060048201526001600160a01b03898116602483015260448201939093529051600093929092169163eabe7d919160648082019260209290919082900301818787803b15801561461357600080fd5b505af1158015614627573d6000803e3d6000fd5b505050506040513d602081101561463d57600080fd5b50519050801561465d57614654600360288361337e565b92505050612493565b614665612edd565b600a541461467957614654600a602c61242d565b614689600e5483606001516132f3565b60a08401819052602084018260038111156146a057fe5b60038111156146ab57fe5b90525060009050826020015160038111156146c257fe5b146146de576146546009602e84602001516003811115611bc257fe5b6001600160a01b0386166000908152600f6020526040902054606083015161470691906132f3565b60c084018190526020840182600381111561471d57fe5b600381111561472857fe5b905250600090508260200151600381111561473f57fe5b1461475b576146546009602d84602001516003811115611bc257fe5b81608001516147686132c7565b101561477a57614654600e602f61242d565b6147888683608001516143b0565b60a0820151600e5560c08201516001600160a01b0387166000818152600f60209081526040918290209390935560608501518151908152905130937fddf252ad1be2c89b69c2b068fc378daa952ba7f163c4a11628f55a4df523b3ef928290030190a36080820151606080840151604080516001600160a01b038b168152602081019490945283810191909152517fe5b754fb1abb7f01b499791d0b820ae3b6af3424ac1c59768edb53f4ec31a9299281900390910190a160c0820151604080516001600160a01b0389168152602081019290925280517f88254844946c31d824a5d167e83afa5982e88288bdeb6bc71961a585e2505d1b9281900390910190a160065460808301516060840151604080517f51dff9890000000000000000000000000000000000000000000000000000000081523060048201526001600160a01b038b81166024830152604482019490945260648101929092525191909216916351dff98991608480830192600092919082900301818387803b15801561490f57600080fd5b505af1158015614923573d6000803e3d6000fd5b5050505061492f613d01565b60009695505050505050565b6000808361494e5750600090508061297f565b8383028385828161495b57fe5b041461496f5750600291506000905061297f565b60009250905061297f565b6000808261498e575060019050600061297f565b600083858161499957fe5b04915091509250929050565b600654604080517f5fc7e71e0000000000000000000000000000000000000000000000000000000081523060048201526001600160a01b0384811660248301528781166044830152868116606483015260848201869052915160009384938493911691635fc7e71e9160a48082019260209290919082900301818787803b158015614a2f57600080fd5b505af1158015614a43573d6000803e3d6000fd5b505050506040513d6020811015614a5957600080fd5b505190508015614a7d57614a70600360128361337e565b925060009150614f8d9050565b614a85612edd565b600a5414614a9957614a70600a601661242d565b614aa1612edd565b846001600160a01b0316636c540baf6040518163ffffffff1660e01b815260040160206040518083038186803b158015614ada57600080fd5b505afa158015614aee573d6000803e3d6000fd5b505050506040513d6020811015614b0457600080fd5b505114614b1757614a70600a601161242d565b866001600160a01b0316866001600160a01b03161415614b3d57614a706006601761242d565b84614b4e57614a706007601561242d565b600019851415614b6457614a706007601461242d565b600080614b72898989613e38565b90925090508115614ba257614b93826010811115614b8c57fe5b601861242d565b945060009350614f8d92505050565b600654604080517fc488847b0000000000000000000000000000000000000000000000000000000081523060048201526001600160a01b038981166024830152604482018590528251600094859492169263c488847b926064808301939192829003018186803b158015614c1557600080fd5b505afa158015614c29573d6000803e3d6000fd5b505050506040513d6040811015614c3f57600080fd5b50805160209091015190925090508115614c8a5760405162461bcd60e51b81526004018080602001828103825260338152602001806157416033913960400191505060405180910390fd5b80886001600160a01b03166370a082318c6040518263ffffffff1660e01b815260040180826001600160a01b03166001600160a01b0316815260200191505060206040518083038186803b158015614ce157600080fd5b505afa158015614cf5573d6000803e3d6000fd5b505050506040513d6020811015614d0b57600080fd5b50511015614d60576040805162461bcd60e51b815260206004820152601860248201527f4c49515549444154455f5345495a455f544f4f5f4d5543480000000000000000604482015290519081900360640190fd5b60006001600160a01b038916301415614d8657614d7f308d8d85613598565b9050614e29565b604080517fb2a02ff10000000000000000000000000000000000000000000000000000000081526001600160a01b038e811660048301528d81166024830152604482018590529151918b169163b2a02ff1916064808201926020929091908290030181600087803b158015614dfa57600080fd5b505af1158015614e0e573d6000803e3d6000fd5b505050506040513d6020811015614e2457600080fd5b505190505b8015614e7c576040805162461bcd60e51b815260206004820152601460248201527f746f6b656e207365697a757265206661696c6564000000000000000000000000604482015290519081900360640190fd5b604080516001600160a01b03808f168252808e1660208301528183018790528b1660608201526080810184905290517f298637f684da70674f26509b10f07ec2fbc77a335ab1e7d6215a4b2484d8bb529181900360a00190a1600654604080517f47ef3b3b0000000000000000000000000000000000000000000000000000000081523060048201526001600160a01b038c811660248301528f811660448301528e811660648301526084820188905260a48201869052915191909216916347ef3b3b9160c480830192600092919082900301818387803b158015614f6057600080fd5b505af1158015614f74573d6000803e3d6000fd5b50505050614f80613d01565b6000975092955050505050505b94509492505050565b600654604080517fda3d454c0000000000000000000000000000000000000000000000000000000081523060048201526001600160a01b0385811660248301526044820185905291516000938493169163da3d454c91606480830192602092919082900301818787803b15801561500c57600080fd5b505af1158015615020573d6000803e3d6000fd5b505050506040513d602081101561503657600080fd5b5051905080156150555761504d6003600e8361337e565b9150506110e6565b61505d612edd565b600a54146150705761504d600a8061242d565b826150796132c7565b101561508b5761504d600e600961242d565b615093615597565b61509c85613213565b60208301819052828260038111156150b057fe5b60038111156150bb57fe5b90525060009050815160038111156150cf57fe5b146150f4576150eb6009600783600001516003811115611bc257fe5b925050506110e6565b6151028160200151856133e4565b604083018190528282600381111561511657fe5b600381111561512157fe5b905250600090508151600381111561513557fe5b14615151576150eb6009600c83600001516003811115611bc257fe5b61515d600c54856133e4565b606083018190528282600381111561517157fe5b600381111561517c57fe5b905250600090508151600381111561519057fe5b146151ac576150eb6009600b83600001516003811115611bc257fe5b6151b685856143b0565b604080820180516001600160a01b03881660008181526011602090815290859020928355600b546001909301839055606080870151600c819055945186519384529183018a905282860191909152810192909252608082015290517f2dd79f4fccfd18c360ce7f9132f3621bf05eee18f995224badb32d17f172df739181900360a00190a1615243613d01565b600654604080517f5c7786050000000000000000000000000000000000000000000000000000000081523060048201526001600160a01b0388811660248301526044820188905291519190921691635c77860591606480830192600092919082900301818387803b1580156152b757600080fd5b505af11580156152cb573d6000803e3d6000fd5b50600092506152d8915050565b95945050505050565b6000806000806152ef612edd565b600a541461530e57615303600a604f61242d565b935091506132c29050565b6153183386613baa565b905080600d54019150600d54821015615378576040805162461bcd60e51b815260206004820181905260248201527f61646420726573657276657320756e6578706563746564206f766572666c6f77604482015290519081900360640190fd5b600d829055604080513381526020810183905280820184905290517fa91e67c5ea634cd43a12c5a482724b03de01e85ca68702a53d0c2f45cb7c1dc59181900360600190a160009350915050915091565b6000818484111561541b5760405162461bcd60e51b8152602060048201818152835160248401528351909283926044909101919085019080838360008315610eff578181015183820152602001610ee7565b505050900390565b600061542d615482565b600080615442670de0b6b3a76400008761493b565b9092509050600082600381111561545557fe5b146154745750604080516020810190915260008152909250905061297f565b612ed08186600001516142f1565b6040518060200160405280600081525090565b828054600181600116156101000203166002900490600052602060002090601f016020900481019282601f106154d657805160ff1916838001178555615503565b82800160010185558215615503579182015b828111156155035782518255916020019190600101906154e8565b5061550f9291506155c0565b5090565b6040805160e0810190915280600081526020016000815260200160008152602001600081526020016000815260200160008152602001600081525090565b6040805161010081019091528060008152602001600081526020016000815260200160008152602001600081526020016000815260200160008152602001600081525090565b604080516080810190915280600081526020016000815260200160008152602001600081525090565b6112bc91905b8082111561550f57600081556001016155c656fe6f6e6c792061646d696e206d617920696e697469616c697a6520746865206d61726b65746d61726b6574206d6179206f6e6c7920626520696e697469616c697a6564206f6e6365696e697469616c2065786368616e67652072617465206d7573742062652067726561746572207468616e207a65726f2e73657474696e6720696e7465726573742072617465206d6f64656c206661696c65644d494e545f4e45575f4143434f554e545f42414c414e43455f43414c43554c4154494f4e5f4641494c4544626f72726f7742616c616e636553746f7265643a20626f72726f7742616c616e636553746f726564496e7465726e616c206661696c656452455041595f424f52524f575f4e45575f4143434f554e545f424f52524f575f42414c414e43455f43414c43554c4154494f4e5f4641494c454452455041595f424f52524f575f4e45575f544f54414c5f42414c414e43455f43414c43554c4154494f4e5f4641494c45444c49515549444154455f434f4d5054524f4c4c45525f43414c43554c4154455f414d4f554e545f5345495a455f4641494c454465786368616e67655261746553746f7265643a2065786368616e67655261746553746f726564496e7465726e616c206661696c65644d494e545f4e45575f544f54414c5f535550504c595f43414c43554c4154494f4e5f4641494c45446f6e65206f662072656465656d546f6b656e73496e206f722072656465656d416d6f756e74496e206d757374206265207a65726f72656475636520726573657276657320756e657870656374656420756e646572666c6f77a265627a7a723158200c5c42374829705b1a94af1274254a62604fbb964b6138b773d5e1abb7b6315064736f6c634300050c00326f6e6c792061646d696e206d617920696e697469616c697a6520746865206d61726b65746d61726b6574206d6179206f6e6c7920626520696e697469616c697a6564206f6e6365696e697469616c2065786368616e67652072617465206d7573742062652067726561746572207468616e207a65726f2e73657474696e6720696e7465726573742072617465206d6f64656c206661696c6564",
  "source": "pragma solidity ^0.5.12;\n\nimport \"./CToken.sol\";\n\n/**\n * @title Compound's CEther Contract\n * @notice CToken which wraps Ether\n * @author Compound\n */\ncontract CEther is CToken {\n    /**\n     * @notice Construct a new CEther money market\n     * @param comptroller_ The address of the Comptroller\n     * @param interestRateModel_ The address of the interest rate model\n     * @param initialExchangeRateMantissa_ The initial exchange rate, scaled by 1e18\n     * @param name_ ERC-20 name of this token\n     * @param symbol_ ERC-20 symbol of this token\n     * @param decimals_ ERC-20 decimal precision of this token\n     * @param admin_ Address of the administrator of this token\n     */\n    constructor(ComptrollerInterface comptroller_,\n                InterestRateModel interestRateModel_,\n                uint initialExchangeRateMantissa_,\n                string memory name_,\n                string memory symbol_,\n                uint8 decimals_,\n                address payable admin_,\n                address payable reserveAdmin_,\n                uint256 newReserveFactorMantissa_\n                ) public {\n        // Creator of the contract is admin during initialization\n        admin = msg.sender;\n\n        initialize(comptroller_, interestRateModel_, initialExchangeRateMantissa_, name_, symbol_, decimals_, newReserveFactorMantissa_);\n\n        // Set the proper admin now that initialization is done\n        admin = admin_;\n\n        reserveAdmin = reserveAdmin_;\n\n    }\n\n\n    /*** User Interface ***/\n\n    /**\n     * @notice Sender supplies assets into the market and receives cTokens in exchange\n     * @dev Reverts upon any failure\n     */\n    function mint() external payable {\n        (uint err,) = mintInternal(msg.value);\n        requireNoError(err, \"mint failed\");\n    }\n\n    /**\n     * @notice Sender redeems cTokens in exchange for the underlying asset\n     * @dev Accrues interest whether or not the operation succeeds, unless reverted\n     * @param redeemTokens The number of cTokens to redeem into underlying\n     * @return uint 0=success, otherwise a failure (see ErrorReporter.sol for details)\n     */\n    function redeem(uint redeemTokens) external returns (uint) {\n        return redeemInternal(redeemTokens);\n    }\n\n    /**\n     * @notice Sender redeems cTokens in exchange for a specified amount of underlying asset\n     * @dev Accrues interest whether or not the operation succeeds, unless reverted\n     * @param redeemAmount The amount of underlying to redeem\n     * @return uint 0=success, otherwise a failure (see ErrorReporter.sol for details)\n     */\n    function redeemUnderlying(uint redeemAmount) external returns (uint) {\n        return redeemUnderlyingInternal(redeemAmount);\n    }\n\n    /**\n      * @notice Sender borrows assets from the protocol to their own address\n      * @param borrowAmount The amount of the underlying asset to borrow\n      * @return uint 0=success, otherwise a failure (see ErrorReporter.sol for details)\n      */\n    function borrow(uint borrowAmount) external returns (uint) {\n        return borrowInternal(borrowAmount);\n    }\n\n    /**\n     * @notice Sender repays their own borrow\n     * @dev Reverts upon any failure\n     */\n    function repayBorrow(uint amount) external payable {\n        (uint err,) = repayBorrowInternal(amount);\n        requireNoError(err, \"repayBorrow failed\");\n    }\n\n    /**\n     * @notice Sender repays a borrow belonging to borrower\n     * @dev Reverts upon any failure\n     * @param borrower the account with the debt being payed off\n     */\n    function repayBorrowBehalf(address borrower) external payable {\n        (uint err,) = repayBorrowBehalfInternal(borrower, msg.value);\n        requireNoError(err, \"repayBorrowBehalf failed\");\n    }\n\n    /**\n     * @notice The sender liquidates the borrowers collateral.\n     *  The collateral seized is transferred to the liquidator.\n     * @dev Reverts upon any failure\n     * @param borrower The borrower of this cToken to be liquidated\n     * @param cTokenCollateral The market in which to seize collateral from the borrower\n     */\n    function liquidateBorrow(address borrower, CToken cTokenCollateral) external payable {\n        (uint err,) = liquidateBorrowInternal(borrower, msg.value, cTokenCollateral);\n        requireNoError(err, \"liquidateBorrow failed\");\n    }\n\n    /**\n     * @notice The sender adds to reserves.\n     * @return uint 0=success, otherwise a failure (see ErrorReporter.sol for details)\n     */\n    function _addReserves() external payable returns (uint) {\n        return _addReservesInternal(msg.value);\n    }\n\n    /**\n     * @notice Send Ether to CEther to mint\n     */\n    function () external payable {\n        (uint err,) = mintInternal(msg.value);\n        requireNoError(err, \"mint failed\");\n    }\n\n    /*** Safe Token ***/\n\n    /**\n     * @notice Gets balance of this contract in terms of Ether, before this message\n     * @dev This excludes the value of the current message, if any\n     * @return The quantity of Ether owned by this contract\n     */\n    function getCashPrior() internal view returns (uint) {\n        (MathError err, uint startingBalance) = subUInt(address(this).balance, msg.value);\n        require(err == MathError.NO_ERROR);\n        return startingBalance;\n    }\n\n    function getCash() public view returns (uint){\n        return address(this).balance;\n    }\n\n\n    /**\n     * @notice Perform the actual transfer in, which is a no-op\n     * @param from Address sending the Ether\n     * @param amount Amount of Ether being sent\n     * @return The actual amount of Ether transferred\n     */\n    function doTransferIn(address from, uint amount) internal returns (uint) {\n        // Sanity checks\n        require(msg.sender == from, \"sender mismatch\");\n        // require(msg.value == amount, \"value mismatch\");\n        require(msg.value >= amount, \"value mismatch\");\n        if (msg.value > amount) {\n            uint256 repayAmount = sub(msg.value, amount, \"calc surplus\");\n            address(uint160(from)).transfer(repayAmount);\n        }\n        return amount;\n    }\n\n    function doTransferOut(address payable to, uint amount) internal {\n        /* Send the Ether, with minimal gas and revert on failure */\n        to.transfer(amount);\n    }\n\n    function requireNoError(uint errCode, string memory message) internal pure {\n        if (errCode == uint(Error.NO_ERROR)) {\n            return;\n        }\n\n        bytes memory fullMessage = new bytes(bytes(message).length + 5);\n        uint i;\n\n        for (i = 0; i < bytes(message).length; i++) {\n            fullMessage[i] = bytes(message)[i];\n        }\n\n        fullMessage[i+0] = byte(uint8(32));\n        fullMessage[i+1] = byte(uint8(40));\n        fullMessage[i+2] = byte(uint8(48 + ( errCode / 10 )));\n        fullMessage[i+3] = byte(uint8(48 + ( errCode % 10 )));\n        fullMessage[i+4] = byte(uint8(41));\n\n        require(errCode == uint(Error.NO_ERROR), string(fullMessage));\n    }\n\n    function sub(uint a, uint b, string memory errorMessage) internal pure returns (uint) {\n        require(b <= a, errorMessage);\n        uint c = a - b;\n        return c;\n    }\n}\n",
  "sourcePath": "/Users/simtzujye/Desktop/hackathons/near-metabuild-hackathon-3/uruz-finance-near-protocol/contracts/CEther.sol",
  "compiler": {
    "name": "solc",
    "version": "0.5.12+commit.7709ece9.Emscripten.clang"
  },
  "schemaVersion": "3.4.10",
  "updatedAt": "2022-11-17T07:19:06.866Z",
  "networkType": "ethereum",
  "devdoc": {
    "author": "Compound",
    "methods": {
      "_acceptAdmin()": {
        "details": "Admin function for pending admin to accept role and update admin",
        "return": "uint 0=success, otherwise a failure (see ErrorReporter.sol for details)"
      },
      "_addReserves()": {
        "return": "uint 0=success, otherwise a failure (see ErrorReporter.sol for details)"
      },
      "_reduceReserves(uint256)": {
        "params": {
          "reduceAmount": "Amount of reduction to reserves"
        },
        "return": "uint 0=success, otherwise a failure (see ErrorReporter.sol for details)"
      },
      "_setComptroller(address)": {
        "details": "Admin function to set a new comptroller",
        "return": "uint 0=success, otherwise a failure (see ErrorReporter.sol for details)"
      },
      "_setInterestRateModel(address)": {
        "details": "Admin function to accrue interest and update the interest rate model",
        "params": {
          "newInterestRateModel": "the new interest rate model to use"
        },
        "return": "uint 0=success, otherwise a failure (see ErrorReporter.sol for details)"
      },
      "_setPendingAdmin(address)": {
        "details": "Admin function to begin change of admin. The newPendingAdmin must call `_acceptAdmin` to finalize the transfer.",
        "params": {
          "newPendingAdmin": "New pending admin."
        },
        "return": "uint 0=success, otherwise a failure (see ErrorReporter.sol for details)"
      },
      "_setReserveFactor(uint256)": {
        "details": "Admin function to accrue interest and set a new reserve factor",
        "return": "uint 0=success, otherwise a failure (see ErrorReporter.sol for details)"
      },
      "accrueInterest()": {
        "details": "This calculates interest accrued from the last checkpointed block  up to the current block and writes new checkpoint to storage."
      },
      "allowance(address,address)": {
        "params": {
          "owner": "The address of the account which owns the tokens to be spent",
          "spender": "The address of the account which may transfer tokens"
        },
        "return": "The number of tokens allowed to be spent (-1 means infinite)"
      },
      "approve(address,uint256)": {
        "details": "This will overwrite the approval amount for `spender` and is subject to issues noted [here](https://eips.ethereum.org/EIPS/eip-20#approve)",
        "params": {
          "amount": "The number of tokens that are approved (-1 means infinite)",
          "spender": "The address of the account which may transfer tokens"
        },
        "return": "Whether or not the approval succeeded"
      },
      "balanceOf(address)": {
        "params": {
          "owner": "The address of the account to query"
        },
        "return": "The number of tokens owned by `owner`"
      },
      "balanceOfUnderlying(address)": {
        "details": "This also accrues interest in a transaction",
        "params": {
          "owner": "The address of the account to query"
        },
        "return": "The amount of underlying owned by `owner`"
      },
      "borrow(uint256)": {
        "params": {
          "borrowAmount": "The amount of the underlying asset to borrow"
        },
        "return": "uint 0=success, otherwise a failure (see ErrorReporter.sol for details)"
      },
      "borrowBalanceCurrent(address)": {
        "params": {
          "account": "The address whose balance should be calculated after updating borrowIndex"
        },
        "return": "The calculated balance"
      },
      "borrowBalanceStored(address)": {
        "params": {
          "account": "The address whose balance should be calculated"
        },
        "return": "The calculated balance"
      },
      "borrowRatePerBlock()": {
        "return": "The borrow interest rate per block, scaled by 1e18"
      },
      "constructor": {
        "params": {
          "admin_": "Address of the administrator of this token",
          "comptroller_": "The address of the Comptroller",
          "decimals_": "ERC-20 decimal precision of this token",
          "initialExchangeRateMantissa_": "The initial exchange rate, scaled by 1e18",
          "interestRateModel_": "The address of the interest rate model",
          "name_": "ERC-20 name of this token",
          "symbol_": "ERC-20 symbol of this token"
        }
      },
      "exchangeRateCurrent()": {
        "return": "Calculated exchange rate scaled by 1e18"
      },
      "exchangeRateStored()": {
        "details": "This function does not accrue interest before calculating the exchange rate",
        "return": "Calculated exchange rate scaled by 1e18"
      },
      "getAccountSnapshot(address)": {
        "details": "This is used by comptroller to more efficiently perform liquidity checks.",
        "params": {
          "account": "Address of the account to snapshot"
        },
        "return": "(possible error, token balance, borrow balance, exchange rate mantissa)"
      },
      "initialize(address,address,uint256,string,string,uint8,uint256)": {
        "params": {
          "comptroller_": "The address of the Comptroller",
          "decimals_": "EIP-20 decimal precision of this token",
          "initialExchangeRateMantissa_": "The initial exchange rate, scaled by 1e18",
          "interestRateModel_": "The address of the interest rate model",
          "name_": "EIP-20 name of this token",
          "symbol_": "EIP-20 symbol of this token"
        }
      },
      "liquidateBorrow(address,address)": {
        "details": "Reverts upon any failure",
        "params": {
          "borrower": "The borrower of this cToken to be liquidated",
          "cTokenCollateral": "The market in which to seize collateral from the borrower"
        }
      },
      "mint()": {
        "details": "Reverts upon any failure"
      },
      "redeem(uint256)": {
        "details": "Accrues interest whether or not the operation succeeds, unless reverted",
        "params": {
          "redeemTokens": "The number of cTokens to redeem into underlying"
        },
        "return": "uint 0=success, otherwise a failure (see ErrorReporter.sol for details)"
      },
      "redeemUnderlying(uint256)": {
        "details": "Accrues interest whether or not the operation succeeds, unless reverted",
        "params": {
          "redeemAmount": "The amount of underlying to redeem"
        },
        "return": "uint 0=success, otherwise a failure (see ErrorReporter.sol for details)"
      },
      "repayBorrow(uint256)": {
        "details": "Reverts upon any failure"
      },
      "repayBorrowBehalf(address)": {
        "details": "Reverts upon any failure",
        "params": {
          "borrower": "the account with the debt being payed off"
        }
      },
      "seize(address,address,uint256)": {
        "details": "Will fail unless called by another cToken during the process of liquidation. Its absolutely critical to use msg.sender as the borrowed cToken and not a parameter.",
        "params": {
          "borrower": "The account having collateral seized",
          "liquidator": "The account receiving seized collateral",
          "seizeTokens": "The number of cTokens to seize"
        },
        "return": "uint 0=success, otherwise a failure (see ErrorReporter.sol for details)"
      },
      "supplyRatePerBlock()": {
        "return": "The supply interest rate per block, scaled by 1e18"
      },
      "totalBorrowsCurrent()": {
        "return": "The total borrows with interest"
      },
      "transfer(address,uint256)": {
        "params": {
          "amount": "The number of tokens to transfer",
          "dst": "The address of the destination account"
        },
        "return": "Whether or not the transfer succeeded"
      },
      "transferFrom(address,address,uint256)": {
        "params": {
          "amount": "The number of tokens to transfer",
          "dst": "The address of the destination account",
          "src": "The address of the source account"
        },
        "return": "Whether or not the transfer succeeded"
      }
    },
    "title": "Compound's CEther Contract"
  },
  "userdoc": {
    "methods": {
      "_acceptAdmin()": {
        "notice": "Accepts transfer of admin rights. msg.sender must be pendingAdmin"
      },
      "_addReserves()": {
        "notice": "The sender adds to reserves."
      },
      "_reduceReserves(uint256)": {
        "notice": "Accrues interest and reduces reserves by transferring to admin"
      },
      "_setComptroller(address)": {
        "notice": "Sets a new comptroller for the market"
      },
      "_setInterestRateModel(address)": {
        "notice": "accrues interest and updates the interest rate model using _setInterestRateModelFresh"
      },
      "_setPendingAdmin(address)": {
        "notice": "Begins transfer of admin rights. The newPendingAdmin must call `_acceptAdmin` to finalize the transfer."
      },
      "_setReserveFactor(uint256)": {
        "notice": "accrues interest and sets a new reserve factor for the protocol using _setReserveFactorFresh"
      },
      "accrueInterest()": {
        "notice": "Applies accrued interest to total borrows and reserves"
      },
      "allowance(address,address)": {
        "notice": "Get the current allowance from `owner` for `spender`"
      },
      "approve(address,uint256)": {
        "notice": "Approve `spender` to transfer up to `amount` from `src`"
      },
      "balanceOf(address)": {
        "notice": "Get the token balance of the `owner`"
      },
      "balanceOfUnderlying(address)": {
        "notice": "Get the underlying balance of the `owner`"
      },
      "borrow(uint256)": {
        "notice": "Sender borrows assets from the protocol to their own address"
      },
      "borrowBalanceCurrent(address)": {
        "notice": "Accrue interest to updated borrowIndex and then calculate account's borrow balance using the updated borrowIndex"
      },
      "borrowBalanceStored(address)": {
        "notice": "Return the borrow balance of account based on stored data"
      },
      "borrowRatePerBlock()": {
        "notice": "Returns the current per-block borrow interest rate for this cToken"
      },
      "constructor": "Construct a new CEther money market",
      "exchangeRateCurrent()": {
        "notice": "Accrue interest then return the up-to-date exchange rate"
      },
      "exchangeRateStored()": {
        "notice": "Calculates the exchange rate from the underlying to the CToken"
      },
      "getAccountSnapshot(address)": {
        "notice": "Get a snapshot of the account's balances, and the cached exchange rate"
      },
      "initialize(address,address,uint256,string,string,uint8,uint256)": {
        "notice": "Initialize the money market"
      },
      "liquidateBorrow(address,address)": {
        "notice": "The sender liquidates the borrowers collateral. The collateral seized is transferred to the liquidator."
      },
      "mint()": {
        "notice": "Sender supplies assets into the market and receives cTokens in exchange"
      },
      "redeem(uint256)": {
        "notice": "Sender redeems cTokens in exchange for the underlying asset"
      },
      "redeemUnderlying(uint256)": {
        "notice": "Sender redeems cTokens in exchange for a specified amount of underlying asset"
      },
      "repayBorrow(uint256)": {
        "notice": "Sender repays their own borrow"
      },
      "repayBorrowBehalf(address)": {
        "notice": "Sender repays a borrow belonging to borrower"
      },
      "seize(address,address,uint256)": {
        "notice": "Transfers collateral tokens (this market) to the liquidator."
      },
      "supplyRatePerBlock()": {
        "notice": "Returns the current per-block supply interest rate for this cToken"
      },
      "totalBorrowsCurrent()": {
        "notice": "Returns the current total borrows plus accrued interest"
      },
      "transfer(address,uint256)": {
        "notice": "Transfer `amount` tokens from `msg.sender` to `dst`"
      },
      "transferFrom(address,address,uint256)": {
        "notice": "Transfer `amount` tokens from `src` to `dst`"
      }
    },
    "notice": "CToken which wraps Ether"
  }
}