{
  "contractName": "Comp",
  "abi": [
    {
      "inputs": [
        {
          "internalType": "address",
          "name": "account",
          "type": "address"
        }
      ],
      "payable": false,
      "stateMutability": "nonpayable",
      "type": "constructor"
    },
    {
      "anonymous": false,
      "inputs": [
        {
          "indexed": true,
          "internalType": "address",
          "name": "owner",
          "type": "address"
        },
        {
          "indexed": true,
          "internalType": "address",
          "name": "spender",
          "type": "address"
        },
        {
          "indexed": false,
          "internalType": "uint256",
          "name": "amount",
          "type": "uint256"
        }
      ],
      "name": "Approval",
      "type": "event"
    },
    {
      "anonymous": false,
      "inputs": [
        {
          "indexed": true,
          "internalType": "address",
          "name": "delegator",
          "type": "address"
        },
        {
          "indexed": true,
          "internalType": "address",
          "name": "fromDelegate",
          "type": "address"
        },
        {
          "indexed": true,
          "internalType": "address",
          "name": "toDelegate",
          "type": "address"
        }
      ],
      "name": "DelegateChanged",
      "type": "event"
    },
    {
      "anonymous": false,
      "inputs": [
        {
          "indexed": true,
          "internalType": "address",
          "name": "delegate",
          "type": "address"
        },
        {
          "indexed": false,
          "internalType": "uint256",
          "name": "previousBalance",
          "type": "uint256"
        },
        {
          "indexed": false,
          "internalType": "uint256",
          "name": "newBalance",
          "type": "uint256"
        }
      ],
      "name": "DelegateVotesChanged",
      "type": "event"
    },
    {
      "anonymous": false,
      "inputs": [
        {
          "indexed": true,
          "internalType": "address",
          "name": "from",
          "type": "address"
        },
        {
          "indexed": true,
          "internalType": "address",
          "name": "to",
          "type": "address"
        },
        {
          "indexed": false,
          "internalType": "uint256",
          "name": "amount",
          "type": "uint256"
        }
      ],
      "name": "Transfer",
      "type": "event"
    },
    {
      "constant": true,
      "inputs": [],
      "name": "DELEGATION_TYPEHASH",
      "outputs": [
        {
          "internalType": "bytes32",
          "name": "",
          "type": "bytes32"
        }
      ],
      "payable": false,
      "stateMutability": "view",
      "type": "function"
    },
    {
      "constant": true,
      "inputs": [],
      "name": "DOMAIN_TYPEHASH",
      "outputs": [
        {
          "internalType": "bytes32",
          "name": "",
          "type": "bytes32"
        }
      ],
      "payable": false,
      "stateMutability": "view",
      "type": "function"
    },
    {
      "constant": true,
      "inputs": [
        {
          "internalType": "address",
          "name": "",
          "type": "address"
        },
        {
          "internalType": "uint32",
          "name": "",
          "type": "uint32"
        }
      ],
      "name": "checkpoints",
      "outputs": [
        {
          "internalType": "uint32",
          "name": "fromBlock",
          "type": "uint32"
        },
        {
          "internalType": "uint96",
          "name": "votes",
          "type": "uint96"
        }
      ],
      "payable": false,
      "stateMutability": "view",
      "type": "function"
    },
    {
      "constant": true,
      "inputs": [],
      "name": "decimals",
      "outputs": [
        {
          "internalType": "uint8",
          "name": "",
          "type": "uint8"
        }
      ],
      "payable": false,
      "stateMutability": "view",
      "type": "function"
    },
    {
      "constant": true,
      "inputs": [
        {
          "internalType": "address",
          "name": "",
          "type": "address"
        }
      ],
      "name": "delegates",
      "outputs": [
        {
          "internalType": "address",
          "name": "",
          "type": "address"
        }
      ],
      "payable": false,
      "stateMutability": "view",
      "type": "function"
    },
    {
      "constant": true,
      "inputs": [],
      "name": "name",
      "outputs": [
        {
          "internalType": "string",
          "name": "",
          "type": "string"
        }
      ],
      "payable": false,
      "stateMutability": "view",
      "type": "function"
    },
    {
      "constant": true,
      "inputs": [
        {
          "internalType": "address",
          "name": "",
          "type": "address"
        }
      ],
      "name": "nonces",
      "outputs": [
        {
          "internalType": "uint256",
          "name": "",
          "type": "uint256"
        }
      ],
      "payable": false,
      "stateMutability": "view",
      "type": "function"
    },
    {
      "constant": true,
      "inputs": [
        {
          "internalType": "address",
          "name": "",
          "type": "address"
        }
      ],
      "name": "numCheckpoints",
      "outputs": [
        {
          "internalType": "uint32",
          "name": "",
          "type": "uint32"
        }
      ],
      "payable": false,
      "stateMutability": "view",
      "type": "function"
    },
    {
      "constant": true,
      "inputs": [],
      "name": "symbol",
      "outputs": [
        {
          "internalType": "string",
          "name": "",
          "type": "string"
        }
      ],
      "payable": false,
      "stateMutability": "view",
      "type": "function"
    },
    {
      "constant": true,
      "inputs": [],
      "name": "totalSupply",
      "outputs": [
        {
          "internalType": "uint256",
          "name": "",
          "type": "uint256"
        }
      ],
      "payable": false,
      "stateMutability": "view",
      "type": "function"
    },
    {
      "constant": true,
      "inputs": [
        {
          "internalType": "address",
          "name": "account",
          "type": "address"
        },
        {
          "internalType": "address",
          "name": "spender",
          "type": "address"
        }
      ],
      "name": "allowance",
      "outputs": [
        {
          "internalType": "uint256",
          "name": "",
          "type": "uint256"
        }
      ],
      "payable": false,
      "stateMutability": "view",
      "type": "function"
    },
    {
      "constant": false,
      "inputs": [
        {
          "internalType": "address",
          "name": "spender",
          "type": "address"
        },
        {
          "internalType": "uint256",
          "name": "rawAmount",
          "type": "uint256"
        }
      ],
      "name": "approve",
      "outputs": [
        {
          "internalType": "bool",
          "name": "",
          "type": "bool"
        }
      ],
      "payable": false,
      "stateMutability": "nonpayable",
      "type": "function"
    },
    {
      "constant": true,
      "inputs": [
        {
          "internalType": "address",
          "name": "account",
          "type": "address"
        }
      ],
      "name": "balanceOf",
      "outputs": [
        {
          "internalType": "uint256",
          "name": "",
          "type": "uint256"
        }
      ],
      "payable": false,
      "stateMutability": "view",
      "type": "function"
    },
    {
      "constant": false,
      "inputs": [
        {
          "internalType": "address",
          "name": "dst",
          "type": "address"
        },
        {
          "internalType": "uint256",
          "name": "rawAmount",
          "type": "uint256"
        }
      ],
      "name": "transfer",
      "outputs": [
        {
          "internalType": "bool",
          "name": "",
          "type": "bool"
        }
      ],
      "payable": false,
      "stateMutability": "nonpayable",
      "type": "function"
    },
    {
      "constant": false,
      "inputs": [
        {
          "internalType": "address",
          "name": "src",
          "type": "address"
        },
        {
          "internalType": "address",
          "name": "dst",
          "type": "address"
        },
        {
          "internalType": "uint256",
          "name": "rawAmount",
          "type": "uint256"
        }
      ],
      "name": "transferFrom",
      "outputs": [
        {
          "internalType": "bool",
          "name": "",
          "type": "bool"
        }
      ],
      "payable": false,
      "stateMutability": "nonpayable",
      "type": "function"
    },
    {
      "constant": false,
      "inputs": [
        {
          "internalType": "address",
          "name": "delegatee",
          "type": "address"
        }
      ],
      "name": "delegate",
      "outputs": [],
      "payable": false,
      "stateMutability": "nonpayable",
      "type": "function"
    },
    {
      "constant": false,
      "inputs": [
        {
          "internalType": "address",
          "name": "delegatee",
          "type": "address"
        },
        {
          "internalType": "uint256",
          "name": "nonce",
          "type": "uint256"
        },
        {
          "internalType": "uint256",
          "name": "expiry",
          "type": "uint256"
        },
        {
          "internalType": "uint8",
          "name": "v",
          "type": "uint8"
        },
        {
          "internalType": "bytes32",
          "name": "r",
          "type": "bytes32"
        },
        {
          "internalType": "bytes32",
          "name": "s",
          "type": "bytes32"
        }
      ],
      "name": "delegateBySig",
      "outputs": [],
      "payable": false,
      "stateMutability": "nonpayable",
      "type": "function"
    },
    {
      "constant": true,
      "inputs": [
        {
          "internalType": "address",
          "name": "account",
          "type": "address"
        }
      ],
      "name": "getCurrentVotes",
      "outputs": [
        {
          "internalType": "uint96",
          "name": "",
          "type": "uint96"
        }
      ],
      "payable": false,
      "stateMutability": "view",
      "type": "function"
    },
    {
      "constant": true,
      "inputs": [
        {
          "internalType": "address",
          "name": "account",
          "type": "address"
        },
        {
          "internalType": "uint256",
          "name": "blockNumber",
          "type": "uint256"
        }
      ],
      "name": "getPriorVotes",
      "outputs": [
        {
          "internalType": "uint96",
          "name": "",
          "type": "uint96"
        }
      ],
      "payable": false,
      "stateMutability": "view",
      "type": "function"
    }
  ],
  "bytecode": "0x60806040523480156200001157600080fd5b5060405162002142380380620021428339810160408190526200003491620000bc565b6001600160a01b03811660008181526001602052604080822080546001600160601b0319166a084595161401484a00000090811790915590517fddf252ad1be2c89b69c2b068fc378daa952ba7f163c4a11628f55a4df523b3ef916200009a91620000f6565b60405180910390a35062000135565b8051620000b6816200011b565b92915050565b600060208284031215620000cf57600080fd5b6000620000dd8484620000a9565b949350505050565b620000f08162000118565b82525050565b60208101620000b68284620000e5565b60006001600160a01b038216620000b6565b90565b620001268162000106565b81146200013257600080fd5b50565b611ffd80620001456000396000f3fe608060405234801561001057600080fd5b50600436106101515760003560e01c806370a08231116100cd578063b4b5ea5711610081578063dd62ed3e11610066578063dd62ed3e146102b5578063e7a324dc146102c8578063f1127ed8146102d057610151565b8063b4b5ea571461028f578063c3cda520146102a257610151565b80637ecebe00116100b25780637ecebe001461026157806395d89b4114610274578063a9059cbb1461027c57610151565b806370a082311461022e578063782d6fe11461024157610151565b806323b872dd11610124578063587cde1e11610109578063587cde1e146101d95780635c19a95c146101f95780636fcfff451461020e57610151565b806323b872dd146101b1578063313ce567146101c457610151565b806306fdde0314610156578063095ea7b31461017457806318160ddd1461019457806320606b70146101a9575b600080fd5b61015e6102f1565b60405161016b9190611c7e565b60405180910390f35b6101876101823660046116b3565b61032a565b60405161016b9190611bd4565b61019c610411565b60405161016b9190611be2565b61019c610420565b6101876101bf366004611666565b610437565b6101cc6105d7565b60405161016b9190611d18565b6101ec6101e7366004611606565b6105dc565b60405161016b9190611bc6565b61020c610207366004611606565b610604565b005b61022161021c366004611606565b610611565b60405161016b9190611cef565b61019c61023c366004611606565b610629565b61025461024f3660046116b3565b61065f565b60405161016b9190611d34565b61019c61026f366004611606565b6108f0565b61015e610902565b61018761028a3660046116b3565b61093b565b61025461029d366004611606565b610977565b61020c6102b03660046116e3565b610a07565b61019c6102c336600461162c565b610c8c565b61019c610cd0565b6102e36102de36600461176a565b610cdc565b60405161016b929190611cfd565b6040518060400160405280600881526020017f436f6d706f756e6400000000000000000000000000000000000000000000000081525081565b6000806000198314156103405750600019610365565b61036283604051806060016040528060258152602001611e8060259139610d17565b90505b3360008181526020818152604080832073ffffffffffffffffffffffffffffffffffffffff891680855292529182902080547fffffffffffffffffffffffffffffffffffffffff000000000000000000000000166bffffffffffffffffffffffff861617905590519091907f8c5be1e5ebec7d5bd14f71427d1e84f3dd0314c0f7b2291e5b200ac8c7c3b925906103fd908590611d26565b60405180910390a360019150505b92915050565b6a084595161401484a00000081565b60405161042c90611bb0565b604051809103902081565b73ffffffffffffffffffffffffffffffffffffffff83166000908152602081815260408083203380855290835281842054825160608101909352602580845291936bffffffffffffffffffffffff90911692859261049f9288929190611e8090830139610d17565b90508673ffffffffffffffffffffffffffffffffffffffff168373ffffffffffffffffffffffffffffffffffffffff16141580156104eb57506bffffffffffffffffffffffff82811614155b156105bd57600061051583836040518060600160405280603d8152602001611f57603d9139610d69565b73ffffffffffffffffffffffffffffffffffffffff898116600081815260208181526040808320948a16808452949091529081902080547fffffffffffffffffffffffffffffffffffffffff000000000000000000000000166bffffffffffffffffffffffff86161790555192935090917f8c5be1e5ebec7d5bd14f71427d1e84f3dd0314c0f7b2291e5b200ac8c7c3b925906105b3908590611d26565b60405180910390a3505b6105c8878783610dcc565b600193505050505b9392505050565b601281565b60026020526000908152604090205473ffffffffffffffffffffffffffffffffffffffff1681565b61060e3382611038565b50565b60046020526000908152604090205463ffffffff1681565b73ffffffffffffffffffffffffffffffffffffffff166000908152600160205260409020546bffffffffffffffffffffffff1690565b60004382106106a3576040517f08c379a000000000000000000000000000000000000000000000000000000000815260040161069a90611caf565b60405180910390fd5b73ffffffffffffffffffffffffffffffffffffffff831660009081526004602052604090205463ffffffff16806106de57600091505061040b565b73ffffffffffffffffffffffffffffffffffffffff8416600090815260036020908152604080832063ffffffff60001986018116855292529091205416831061077a5773ffffffffffffffffffffffffffffffffffffffff841660009081526003602090815260408083206000199490940163ffffffff168352929052205464010000000090046bffffffffffffffffffffffff16905061040b565b73ffffffffffffffffffffffffffffffffffffffff8416600090815260036020908152604080832083805290915290205463ffffffff168310156107c257600091505061040b565b600060001982015b8163ffffffff168163ffffffff16111561089857600282820363ffffffff160481036107f46115c3565b5073ffffffffffffffffffffffffffffffffffffffff8716600090815260036020908152604080832063ffffffff8581168552908352928190208151808301909252549283168082526401000000009093046bffffffffffffffffffffffff1691810191909152908714156108735760200151945061040b9350505050565b805163ffffffff1687111561088a57819350610891565b6001820392505b50506107ca565b5073ffffffffffffffffffffffffffffffffffffffff8516600090815260036020908152604080832063ffffffff909416835292905220546bffffffffffffffffffffffff6401000000009091041691505092915050565b60056020526000908152604090205481565b6040518060400160405280600481526020017f434f4d500000000000000000000000000000000000000000000000000000000081525081565b60008061096083604051806060016040528060268152602001611ea560269139610d17565b905061096d338583610dcc565b5060019392505050565b73ffffffffffffffffffffffffffffffffffffffff811660009081526004602052604081205463ffffffff16806109af5760006105d0565b73ffffffffffffffffffffffffffffffffffffffff83166000908152600360209081526040808320600019850163ffffffff16845290915290205464010000000090046bffffffffffffffffffffffff169392505050565b6000604051610a1590611bb0565b60408051918290038220828201909152600882527f436f6d706f756e640000000000000000000000000000000000000000000000006020909201919091527f561ca898cce9f021c15a441ef41899706e923541cee724530075d1a1144761c7610a7c6110ec565b30604051602001610a909493929190611c2e565b6040516020818303038152906040528051906020012090506000604051610ab690611bbb565b604051908190038120610ad1918a908a908a90602001611bf0565b60405160208183030381529060405280519060200120905060008282604051602001610afe929190611b7f565b604051602081830303815290604052805190602001209050600060018288888860405160008152602001604052604051610b3b9493929190611c63565b6020604051602081039080840390855afa158015610b5d573d6000803e3d6000fd5b50506040517fffffffffffffffffffffffffffffffffffffffffffffffffffffffffffffffe0015191505073ffffffffffffffffffffffffffffffffffffffff8116610bd5576040517f08c379a000000000000000000000000000000000000000000000000000000000815260040161069a90611c8f565b73ffffffffffffffffffffffffffffffffffffffff811660009081526005602052604090208054600181019091558914610c3b576040517f08c379a000000000000000000000000000000000000000000000000000000000815260040161069a90611cbf565b87421115610c75576040517f08c379a000000000000000000000000000000000000000000000000000000000815260040161069a90611c9f565b610c7f818b611038565b505050505b505050505050565b73ffffffffffffffffffffffffffffffffffffffff9182166000908152602081815260408083209390941682529190915220546bffffffffffffffffffffffff1690565b60405161042c90611bbb565b600360209081526000928352604080842090915290825290205463ffffffff81169064010000000090046bffffffffffffffffffffffff1682565b6000816c010000000000000000000000008410610d61576040517f08c379a000000000000000000000000000000000000000000000000000000000815260040161069a9190611c7e565b509192915050565b6000836bffffffffffffffffffffffff16836bffffffffffffffffffffffff1611158290610dc4576040517f08c379a000000000000000000000000000000000000000000000000000000000815260040161069a9190611c7e565b505050900390565b73ffffffffffffffffffffffffffffffffffffffff8316610e19576040517f08c379a000000000000000000000000000000000000000000000000000000000815260040161069a90611cdf565b73ffffffffffffffffffffffffffffffffffffffff8216610e66576040517f08c379a000000000000000000000000000000000000000000000000000000000815260040161069a90611ccf565b73ffffffffffffffffffffffffffffffffffffffff8316600090815260016020908152604091829020548251606081019093526036808452610ec3936bffffffffffffffffffffffff9092169285929190611e4a90830139610d69565b73ffffffffffffffffffffffffffffffffffffffff848116600090815260016020908152604080832080547fffffffffffffffffffffffffffffffffffffffff000000000000000000000000166bffffffffffffffffffffffff968716179055928616825290829020548251606081019093526030808452610f559491909116928592909190611f27908301396110f1565b73ffffffffffffffffffffffffffffffffffffffff8381166000818152600160205260409081902080547fffffffffffffffffffffffffffffffffffffffff000000000000000000000000166bffffffffffffffffffffffff95909516949094179093559151908516907fddf252ad1be2c89b69c2b068fc378daa952ba7f163c4a11628f55a4df523b3ef90610fec908590611d26565b60405180910390a373ffffffffffffffffffffffffffffffffffffffff8084166000908152600260205260408082205485841683529120546110339291821691168361114c565b505050565b73ffffffffffffffffffffffffffffffffffffffff808316600081815260026020818152604080842080546001845282862054949093528787167fffffffffffffffffffffffff000000000000000000000000000000000000000084168117909155905191909516946bffffffffffffffffffffffff9092169391928592917f3134e8a2e6d97e929a7e54011ea5485d7d196dd5f0ba4d4ef95803e8e3fc257f9190a46110e682848361114c565b50505050565b600190565b6000838301826bffffffffffffffffffffffff8087169083161015611143576040517f08c379a000000000000000000000000000000000000000000000000000000000815260040161069a9190611c7e565b50949350505050565b8173ffffffffffffffffffffffffffffffffffffffff168373ffffffffffffffffffffffffffffffffffffffff161415801561119657506000816bffffffffffffffffffffffff16115b156110335773ffffffffffffffffffffffffffffffffffffffff83161561127b5773ffffffffffffffffffffffffffffffffffffffff831660009081526004602052604081205463ffffffff1690816111f0576000611242565b73ffffffffffffffffffffffffffffffffffffffff85166000908152600360209081526040808320600019860163ffffffff16845290915290205464010000000090046bffffffffffffffffffffffff165b905060006112698285604051806060016040528060288152602001611eff60289139610d69565b905061127786848484611353565b5050505b73ffffffffffffffffffffffffffffffffffffffff8216156110335773ffffffffffffffffffffffffffffffffffffffff821660009081526004602052604081205463ffffffff1690816112d0576000611322565b73ffffffffffffffffffffffffffffffffffffffff84166000908152600360209081526040808320600019860163ffffffff16845290915290205464010000000090046bffffffffffffffffffffffff165b905060006113498285604051806060016040528060278152602001611f94602791396110f1565b9050610c84858484845b600061137743604051806060016040528060348152602001611ecb60349139611581565b905060008463ffffffff161180156113cd575073ffffffffffffffffffffffffffffffffffffffff8516600090815260036020908152604080832063ffffffff6000198901811685529252909120548282169116145b1561144e5773ffffffffffffffffffffffffffffffffffffffff85166000908152600360209081526040808320600019880163ffffffff168452909152902080547fffffffffffffffffffffffffffffffff000000000000000000000000ffffffff166401000000006bffffffffffffffffffffffff85160217905561152a565b60408051808201825263ffffffff80841682526bffffffffffffffffffffffff808616602080850191825273ffffffffffffffffffffffffffffffffffffffff8b166000818152600383528781208c871682528352878120965187549451909516640100000000027fffffffffffffffffffffffffffffffff000000000000000000000000ffffffff9587167fffffffffffffffffffffffffffffffffffffffffffffffffffffffff00000000958616179590951694909417909555938252600490935292909220805460018801909316929091169190911790555b8473ffffffffffffffffffffffffffffffffffffffff167fdec2bacdd2f05b59de34da9b523dff8be42e5e38e818c82fdb0bae774387a7248484604051611572929190611d42565b60405180910390a25050505050565b6000816401000000008410610d61576040517f08c379a000000000000000000000000000000000000000000000000000000000815260040161069a9190611c7e565b604080518082019091526000808252602082015290565b803561040b81611e1a565b803561040b81611e2e565b803561040b81611e37565b803561040b81611e40565b60006020828403121561161857600080fd5b600061162484846115da565b949350505050565b6000806040838503121561163f57600080fd5b600061164b85856115da565b925050602061165c858286016115da565b9150509250929050565b60008060006060848603121561167b57600080fd5b600061168786866115da565b9350506020611698868287016115da565b92505060406116a9868287016115e5565b9150509250925092565b600080604083850312156116c657600080fd5b60006116d285856115da565b925050602061165c858286016115e5565b60008060008060008060c087890312156116fc57600080fd5b600061170889896115da565b965050602061171989828a016115e5565b955050604061172a89828a016115e5565b945050606061173b89828a016115fb565b935050608061174c89828a016115e5565b92505060a061175d89828a016115e5565b9150509295509295509295565b6000806040838503121561177d57600080fd5b600061178985856115da565b925050602061165c858286016115f0565b6117a381611d6f565b82525050565b6117a381611d7a565b6117a381611d7f565b6117a36117c782611d7f565b611d7f565b60006117d782611d5d565b6117e18185611d61565b93506117f1818560208601611dc6565b6117fa81611df2565b9093019392505050565b6000611811602683611d61565b7f436f6d703a3a64656c656761746542795369673a20696e76616c69642073696781527f6e61747572650000000000000000000000000000000000000000000000000000602082015260400192915050565b6000611870602683611d61565b7f436f6d703a3a64656c656761746542795369673a207369676e6174757265206581527f7870697265640000000000000000000000000000000000000000000000000000602082015260400192915050565b60006118cf600283611d6a565b7f1901000000000000000000000000000000000000000000000000000000000000815260020192915050565b6000611908602783611d61565b7f436f6d703a3a6765745072696f72566f7465733a206e6f74207965742064657481527f65726d696e656400000000000000000000000000000000000000000000000000602082015260400192915050565b6000611967602283611d61565b7f436f6d703a3a64656c656761746542795369673a20696e76616c6964206e6f6e81527f6365000000000000000000000000000000000000000000000000000000000000602082015260400192915050565b60006119c6603a83611d61565b7f436f6d703a3a5f7472616e73666572546f6b656e733a2063616e6e6f7420747281527f616e7366657220746f20746865207a65726f2061646472657373000000000000602082015260400192915050565b6000611a25604383611d6a565b7f454950373132446f6d61696e28737472696e67206e616d652c75696e7432353681527f20636861696e49642c6164647265737320766572696679696e67436f6e74726160208201527f6374290000000000000000000000000000000000000000000000000000000000604082015260430192915050565b6000611aaa603c83611d61565b7f436f6d703a3a5f7472616e73666572546f6b656e733a2063616e6e6f7420747281527f616e736665722066726f6d20746865207a65726f206164647265737300000000602082015260400192915050565b6000611b09603a83611d6a565b7f44656c65676174696f6e28616464726573732064656c6567617465652c75696e81527f74323536206e6f6e63652c75696e7432353620657870697279290000000000006020820152603a0192915050565b6117a381611d9b565b6117a381611da4565b6117a381611dbb565b6117a381611daa565b6000611b8a826118c2565b9150611b9682856117bb565b602082019150611ba682846117bb565b5060200192915050565b600061040b82611a18565b600061040b82611afc565b6020810161040b828461179a565b6020810161040b82846117a9565b6020810161040b82846117b2565b60808101611bfe82876117b2565b611c0b602083018661179a565b611c1860408301856117b2565b611c2560608301846117b2565b95945050505050565b60808101611c3c82876117b2565b611c4960208301866117b2565b611c5660408301856117b2565b611c25606083018461179a565b60808101611c7182876117b2565b611c0b6020830186611b64565b602080825281016105d081846117cc565b6020808252810161040b81611804565b6020808252810161040b81611863565b6020808252810161040b816118fb565b6020808252810161040b8161195a565b6020808252810161040b816119b9565b6020808252810161040b81611a9d565b6020810161040b8284611b5b565b60408101611d0b8285611b5b565b6105d06020830184611b76565b6020810161040b8284611b64565b6020810161040b8284611b6d565b6020810161040b8284611b76565b60408101611d508285611b6d565b6105d06020830184611b6d565b5190565b90815260200190565b919050565b600061040b82611d82565b151590565b90565b73ffffffffffffffffffffffffffffffffffffffff1690565b63ffffffff1690565b60ff1690565b6bffffffffffffffffffffffff1690565b600061040b82611daa565b60005b83811015611de1578181015183820152602001611dc9565b838111156110e65750506000910152565b601f017fffffffffffffffffffffffffffffffffffffffffffffffffffffffffffffffe01690565b611e2381611d6f565b811461060e57600080fd5b611e2381611d7f565b611e2381611d9b565b611e2381611da456fe436f6d703a3a5f7472616e73666572546f6b656e733a207472616e7366657220616d6f756e7420657863656564732062616c616e6365436f6d703a3a617070726f76653a20616d6f756e7420657863656564732039362062697473436f6d703a3a7472616e736665723a20616d6f756e7420657863656564732039362062697473436f6d703a3a5f7772697465436865636b706f696e743a20626c6f636b206e756d62657220657863656564732033322062697473436f6d703a3a5f6d6f7665566f7465733a20766f746520616d6f756e7420756e646572666c6f7773436f6d703a3a5f7472616e73666572546f6b656e733a207472616e7366657220616d6f756e74206f766572666c6f7773436f6d703a3a7472616e7366657246726f6d3a207472616e7366657220616d6f756e742065786365656473207370656e64657220616c6c6f77616e6365436f6d703a3a5f6d6f7665566f7465733a20766f746520616d6f756e74206f766572666c6f7773a365627a7a72315820a94861a38fb5778a2b5fd3390df3e392658d14391aa89ad50bfcd6db23cc84ed6c6578706572696d656e74616cf564736f6c634300050c0040",
  "source": "pragma solidity ^0.5.12;\npragma experimental ABIEncoderV2;\n\ncontract Comp {\n    /// @notice EIP-20 token name for this token\n    string public constant name = \"Compound\";\n\n    /// @notice EIP-20 token symbol for this token\n    string public constant symbol = \"COMP\";\n\n    /// @notice EIP-20 token decimals for this token\n    uint8 public constant decimals = 18;\n\n    /// @notice Total number of tokens in circulation\n    uint public constant totalSupply = 10000000e18; // 10 million Comp\n\n    /// @notice Allowance amounts on behalf of others\n    mapping (address => mapping (address => uint96)) internal allowances;\n\n    /// @notice Official record of token balances for each account\n    mapping (address => uint96) internal balances;\n\n    /// @notice A record of each accounts delegate\n    mapping (address => address) public delegates;\n\n    /// @notice A checkpoint for marking number of votes from a given block\n    struct Checkpoint {\n        uint32 fromBlock;\n        uint96 votes;\n    }\n\n    /// @notice A record of votes checkpoints for each account, by index\n    mapping (address => mapping (uint32 => Checkpoint)) public checkpoints;\n\n    /// @notice The number of checkpoints for each account\n    mapping (address => uint32) public numCheckpoints;\n\n    /// @notice The EIP-712 typehash for the contract's domain\n    bytes32 public constant DOMAIN_TYPEHASH = keccak256(\"EIP712Domain(string name,uint256 chainId,address verifyingContract)\");\n\n    /// @notice The EIP-712 typehash for the delegation struct used by the contract\n    bytes32 public constant DELEGATION_TYPEHASH = keccak256(\"Delegation(address delegatee,uint256 nonce,uint256 expiry)\");\n\n    /// @notice A record of states for signing / validating signatures\n    mapping (address => uint) public nonces;\n\n    /// @notice An event thats emitted when an account changes its delegate\n    event DelegateChanged(address indexed delegator, address indexed fromDelegate, address indexed toDelegate);\n\n    /// @notice An event thats emitted when a delegate account's vote balance changes\n    event DelegateVotesChanged(address indexed delegate, uint previousBalance, uint newBalance);\n\n    /// @notice The standard EIP-20 transfer event\n    event Transfer(address indexed from, address indexed to, uint256 amount);\n\n    /// @notice The standard EIP-20 approval event\n    event Approval(address indexed owner, address indexed spender, uint256 amount);\n\n    /**\n     * @notice Construct a new Comp token\n     * @param account The initial account to grant all the tokens\n     */\n    constructor(address account) public {\n        balances[account] = uint96(totalSupply);\n        emit Transfer(address(0), account, totalSupply);\n    }\n\n    /**\n     * @notice Get the number of tokens `spender` is approved to spend on behalf of `account`\n     * @param account The address of the account holding the funds\n     * @param spender The address of the account spending the funds\n     * @return The number of tokens approved\n     */\n    function allowance(address account, address spender) external view returns (uint) {\n        return allowances[account][spender];\n    }\n\n    /**\n     * @notice Approve `spender` to transfer up to `amount` from `src`\n     * @dev This will overwrite the approval amount for `spender`\n     *  and is subject to issues noted [here](https://eips.ethereum.org/EIPS/eip-20#approve)\n     * @param spender The address of the account which may transfer tokens\n     * @param rawAmount The number of tokens that are approved (2^256-1 means infinite)\n     * @return Whether or not the approval succeeded\n     */\n    function approve(address spender, uint rawAmount) external returns (bool) {\n        uint96 amount;\n        if (rawAmount == uint(-1)) {\n            amount = uint96(-1);\n        } else {\n            amount = safe96(rawAmount, \"Comp::approve: amount exceeds 96 bits\");\n        }\n\n        allowances[msg.sender][spender] = amount;\n\n        emit Approval(msg.sender, spender, amount);\n        return true;\n    }\n\n    /**\n     * @notice Get the number of tokens held by the `account`\n     * @param account The address of the account to get the balance of\n     * @return The number of tokens held\n     */\n    function balanceOf(address account) external view returns (uint) {\n        return balances[account];\n    }\n\n    /**\n     * @notice Transfer `amount` tokens from `msg.sender` to `dst`\n     * @param dst The address of the destination account\n     * @param rawAmount The number of tokens to transfer\n     * @return Whether or not the transfer succeeded\n     */\n    function transfer(address dst, uint rawAmount) external returns (bool) {\n        uint96 amount = safe96(rawAmount, \"Comp::transfer: amount exceeds 96 bits\");\n        _transferTokens(msg.sender, dst, amount);\n        return true;\n    }\n\n    /**\n     * @notice Transfer `amount` tokens from `src` to `dst`\n     * @param src The address of the source account\n     * @param dst The address of the destination account\n     * @param rawAmount The number of tokens to transfer\n     * @return Whether or not the transfer succeeded\n     */\n    function transferFrom(address src, address dst, uint rawAmount) external returns (bool) {\n        address spender = msg.sender;\n        uint96 spenderAllowance = allowances[src][spender];\n        uint96 amount = safe96(rawAmount, \"Comp::approve: amount exceeds 96 bits\");\n\n        if (spender != src && spenderAllowance != uint96(-1)) {\n            uint96 newAllowance = sub96(spenderAllowance, amount, \"Comp::transferFrom: transfer amount exceeds spender allowance\");\n            allowances[src][spender] = newAllowance;\n\n            emit Approval(src, spender, newAllowance);\n        }\n\n        _transferTokens(src, dst, amount);\n        return true;\n    }\n\n    /**\n     * @notice Delegate votes from `msg.sender` to `delegatee`\n     * @param delegatee The address to delegate votes to\n     */\n    function delegate(address delegatee) public {\n        return _delegate(msg.sender, delegatee);\n    }\n\n    /**\n     * @notice Delegates votes from signatory to `delegatee`\n     * @param delegatee The address to delegate votes to\n     * @param nonce The contract state required to match the signature\n     * @param expiry The time at which to expire the signature\n     * @param v The recovery byte of the signature\n     * @param r Half of the ECDSA signature pair\n     * @param s Half of the ECDSA signature pair\n     */\n    function delegateBySig(address delegatee, uint nonce, uint expiry, uint8 v, bytes32 r, bytes32 s) public {\n        bytes32 domainSeparator = keccak256(abi.encode(DOMAIN_TYPEHASH, keccak256(bytes(name)), getChainId(), address(this)));\n        bytes32 structHash = keccak256(abi.encode(DELEGATION_TYPEHASH, delegatee, nonce, expiry));\n        bytes32 digest = keccak256(abi.encodePacked(\"\\x19\\x01\", domainSeparator, structHash));\n        address signatory = ecrecover(digest, v, r, s);\n        require(signatory != address(0), \"Comp::delegateBySig: invalid signature\");\n        require(nonce == nonces[signatory]++, \"Comp::delegateBySig: invalid nonce\");\n        require(now <= expiry, \"Comp::delegateBySig: signature expired\");\n        return _delegate(signatory, delegatee);\n    }\n\n    /**\n     * @notice Gets the current votes balance for `account`\n     * @param account The address to get votes balance\n     * @return The number of current votes for `account`\n     */\n    function getCurrentVotes(address account) external view returns (uint96) {\n        uint32 nCheckpoints = numCheckpoints[account];\n        return nCheckpoints > 0 ? checkpoints[account][nCheckpoints - 1].votes : 0;\n    }\n\n    /**\n     * @notice Determine the prior number of votes for an account as of a block number\n     * @dev Block number must be a finalized block or else this function will revert to prevent misinformation.\n     * @param account The address of the account to check\n     * @param blockNumber The block number to get the vote balance at\n     * @return The number of votes the account had as of the given block\n     */\n    function getPriorVotes(address account, uint blockNumber) public view returns (uint96) {\n        require(blockNumber < block.number, \"Comp::getPriorVotes: not yet determined\");\n\n        uint32 nCheckpoints = numCheckpoints[account];\n        if (nCheckpoints == 0) {\n            return 0;\n        }\n\n        // First check most recent balance\n        if (checkpoints[account][nCheckpoints - 1].fromBlock <= blockNumber) {\n            return checkpoints[account][nCheckpoints - 1].votes;\n        }\n\n        // Next check implicit zero balance\n        if (checkpoints[account][0].fromBlock > blockNumber) {\n            return 0;\n        }\n\n        uint32 lower = 0;\n        uint32 upper = nCheckpoints - 1;\n        while (upper > lower) {\n            uint32 center = upper - (upper - lower) / 2; // ceil, avoiding overflow\n            Checkpoint memory cp = checkpoints[account][center];\n            if (cp.fromBlock == blockNumber) {\n                return cp.votes;\n            } else if (cp.fromBlock < blockNumber) {\n                lower = center;\n            } else {\n                upper = center - 1;\n            }\n        }\n        return checkpoints[account][lower].votes;\n    }\n\n    function _delegate(address delegator, address delegatee) internal {\n        address currentDelegate = delegates[delegator];\n        uint96 delegatorBalance = balances[delegator];\n        delegates[delegator] = delegatee;\n\n        emit DelegateChanged(delegator, currentDelegate, delegatee);\n\n        _moveDelegates(currentDelegate, delegatee, delegatorBalance);\n    }\n\n    function _transferTokens(address src, address dst, uint96 amount) internal {\n        require(src != address(0), \"Comp::_transferTokens: cannot transfer from the zero address\");\n        require(dst != address(0), \"Comp::_transferTokens: cannot transfer to the zero address\");\n\n        balances[src] = sub96(balances[src], amount, \"Comp::_transferTokens: transfer amount exceeds balance\");\n        balances[dst] = add96(balances[dst], amount, \"Comp::_transferTokens: transfer amount overflows\");\n        emit Transfer(src, dst, amount);\n\n        _moveDelegates(delegates[src], delegates[dst], amount);\n    }\n\n    function _moveDelegates(address srcRep, address dstRep, uint96 amount) internal {\n        if (srcRep != dstRep && amount > 0) {\n            if (srcRep != address(0)) {\n                uint32 srcRepNum = numCheckpoints[srcRep];\n                uint96 srcRepOld = srcRepNum > 0 ? checkpoints[srcRep][srcRepNum - 1].votes : 0;\n                uint96 srcRepNew = sub96(srcRepOld, amount, \"Comp::_moveVotes: vote amount underflows\");\n                _writeCheckpoint(srcRep, srcRepNum, srcRepOld, srcRepNew);\n            }\n\n            if (dstRep != address(0)) {\n                uint32 dstRepNum = numCheckpoints[dstRep];\n                uint96 dstRepOld = dstRepNum > 0 ? checkpoints[dstRep][dstRepNum - 1].votes : 0;\n                uint96 dstRepNew = add96(dstRepOld, amount, \"Comp::_moveVotes: vote amount overflows\");\n                _writeCheckpoint(dstRep, dstRepNum, dstRepOld, dstRepNew);\n            }\n        }\n    }\n\n    function _writeCheckpoint(address delegatee, uint32 nCheckpoints, uint96 oldVotes, uint96 newVotes) internal {\n      uint32 blockNumber = safe32(block.number, \"Comp::_writeCheckpoint: block number exceeds 32 bits\");\n\n      if (nCheckpoints > 0 && checkpoints[delegatee][nCheckpoints - 1].fromBlock == blockNumber) {\n          checkpoints[delegatee][nCheckpoints - 1].votes = newVotes;\n      } else {\n          checkpoints[delegatee][nCheckpoints] = Checkpoint(blockNumber, newVotes);\n          numCheckpoints[delegatee] = nCheckpoints + 1;\n      }\n\n      emit DelegateVotesChanged(delegatee, oldVotes, newVotes);\n    }\n\n    function safe32(uint n, string memory errorMessage) internal pure returns (uint32) {\n        require(n < 2**32, errorMessage);\n        return uint32(n);\n    }\n\n    function safe96(uint n, string memory errorMessage) internal pure returns (uint96) {\n        require(n < 2**96, errorMessage);\n        return uint96(n);\n    }\n\n    function add96(uint96 a, uint96 b, string memory errorMessage) internal pure returns (uint96) {\n        uint96 c = a + b;\n        require(c >= a, errorMessage);\n        return c;\n    }\n\n    function sub96(uint96 a, uint96 b, string memory errorMessage) internal pure returns (uint96) {\n        require(b <= a, errorMessage);\n        return a - b;\n    }\n\n    function getChainId() internal pure returns (uint) {\n        //        uint chainId;\n        //        assembly { chainId := chainid() }\n        //        return chainId;\n        return uint(1);\n    }\n}\n",
  "sourcePath": "/Users/simtzujye/Desktop/hackathons/near-metabuild-hackathon-3/uruz-finance-near-protocol/contracts/Governance/Comp.sol",
  "compiler": {
    "name": "solc",
    "version": "0.5.12+commit.7709ece9.Emscripten.clang"
  },
  "schemaVersion": "3.4.10",
  "updatedAt": "2022-11-17T06:44:37.705Z",
  "devdoc": {
    "methods": {
      "allowance(address,address)": {
        "params": {
          "account": "The address of the account holding the funds",
          "spender": "The address of the account spending the funds"
        },
        "return": "The number of tokens approved"
      },
      "approve(address,uint256)": {
        "details": "This will overwrite the approval amount for `spender` and is subject to issues noted [here](https://eips.ethereum.org/EIPS/eip-20#approve)",
        "params": {
          "rawAmount": "The number of tokens that are approved (2^256-1 means infinite)",
          "spender": "The address of the account which may transfer tokens"
        },
        "return": "Whether or not the approval succeeded"
      },
      "balanceOf(address)": {
        "params": {
          "account": "The address of the account to get the balance of"
        },
        "return": "The number of tokens held"
      },
      "constructor": {
        "params": {
          "account": "The initial account to grant all the tokens"
        }
      },
      "delegate(address)": {
        "params": {
          "delegatee": "The address to delegate votes to"
        }
      },
      "delegateBySig(address,uint256,uint256,uint8,bytes32,bytes32)": {
        "params": {
          "delegatee": "The address to delegate votes to",
          "expiry": "The time at which to expire the signature",
          "nonce": "The contract state required to match the signature",
          "r": "Half of the ECDSA signature pair",
          "s": "Half of the ECDSA signature pair",
          "v": "The recovery byte of the signature"
        }
      },
      "getCurrentVotes(address)": {
        "params": {
          "account": "The address to get votes balance"
        },
        "return": "The number of current votes for `account`"
      },
      "getPriorVotes(address,uint256)": {
        "details": "Block number must be a finalized block or else this function will revert to prevent misinformation.",
        "params": {
          "account": "The address of the account to check",
          "blockNumber": "The block number to get the vote balance at"
        },
        "return": "The number of votes the account had as of the given block"
      },
      "transfer(address,uint256)": {
        "params": {
          "dst": "The address of the destination account",
          "rawAmount": "The number of tokens to transfer"
        },
        "return": "Whether or not the transfer succeeded"
      },
      "transferFrom(address,address,uint256)": {
        "params": {
          "dst": "The address of the destination account",
          "rawAmount": "The number of tokens to transfer",
          "src": "The address of the source account"
        },
        "return": "Whether or not the transfer succeeded"
      }
    }
  },
  "userdoc": {
    "methods": {
      "allowance(address,address)": {
        "notice": "Get the number of tokens `spender` is approved to spend on behalf of `account`"
      },
      "approve(address,uint256)": {
        "notice": "Approve `spender` to transfer up to `amount` from `src`"
      },
      "balanceOf(address)": {
        "notice": "Get the number of tokens held by the `account`"
      },
      "constructor": "Construct a new Comp token",
      "delegate(address)": {
        "notice": "Delegate votes from `msg.sender` to `delegatee`"
      },
      "delegateBySig(address,uint256,uint256,uint8,bytes32,bytes32)": {
        "notice": "Delegates votes from signatory to `delegatee`"
      },
      "getCurrentVotes(address)": {
        "notice": "Gets the current votes balance for `account`"
      },
      "getPriorVotes(address,uint256)": {
        "notice": "Determine the prior number of votes for an account as of a block number"
      },
      "transfer(address,uint256)": {
        "notice": "Transfer `amount` tokens from `msg.sender` to `dst`"
      },
      "transferFrom(address,address,uint256)": {
        "notice": "Transfer `amount` tokens from `src` to `dst`"
      }
    }
  }
}