{
  "contractName": "Comptroller",
  "abi": [
    {
      "inputs": [],
      "payable": false,
      "stateMutability": "nonpayable",
      "type": "constructor"
    },
    {
      "anonymous": false,
      "inputs": [
        {
          "indexed": false,
          "internalType": "string",
          "name": "action",
          "type": "string"
        },
        {
          "indexed": false,
          "internalType": "bool",
          "name": "pauseState",
          "type": "bool"
        }
      ],
      "name": "ActionPaused",
      "type": "event"
    },
    {
      "anonymous": false,
      "inputs": [
        {
          "indexed": false,
          "internalType": "contract CToken",
          "name": "cToken",
          "type": "address"
        },
        {
          "indexed": false,
          "internalType": "string",
          "name": "action",
          "type": "string"
        },
        {
          "indexed": false,
          "internalType": "bool",
          "name": "pauseState",
          "type": "bool"
        }
      ],
      "name": "ActionPaused",
      "type": "event"
    },
    {
      "anonymous": false,
      "inputs": [
        {
          "indexed": false,
          "internalType": "uint256",
          "name": "error",
          "type": "uint256"
        },
        {
          "indexed": false,
          "internalType": "uint256",
          "name": "info",
          "type": "uint256"
        },
        {
          "indexed": false,
          "internalType": "uint256",
          "name": "detail",
          "type": "uint256"
        }
      ],
      "name": "Failure",
      "type": "event"
    },
    {
      "anonymous": false,
      "inputs": [
        {
          "indexed": false,
          "internalType": "contract CToken",
          "name": "cToken",
          "type": "address"
        },
        {
          "indexed": false,
          "internalType": "address",
          "name": "account",
          "type": "address"
        }
      ],
      "name": "MarketEntered",
      "type": "event"
    },
    {
      "anonymous": false,
      "inputs": [
        {
          "indexed": false,
          "internalType": "contract CToken",
          "name": "cToken",
          "type": "address"
        },
        {
          "indexed": false,
          "internalType": "address",
          "name": "account",
          "type": "address"
        }
      ],
      "name": "MarketExited",
      "type": "event"
    },
    {
      "anonymous": false,
      "inputs": [
        {
          "indexed": false,
          "internalType": "contract CToken",
          "name": "cToken",
          "type": "address"
        }
      ],
      "name": "MarketListed",
      "type": "event"
    },
    {
      "anonymous": false,
      "inputs": [
        {
          "indexed": false,
          "internalType": "uint256",
          "name": "oldCloseFactorMantissa",
          "type": "uint256"
        },
        {
          "indexed": false,
          "internalType": "uint256",
          "name": "newCloseFactorMantissa",
          "type": "uint256"
        }
      ],
      "name": "NewCloseFactor",
      "type": "event"
    },
    {
      "anonymous": false,
      "inputs": [
        {
          "indexed": false,
          "internalType": "contract CToken",
          "name": "cToken",
          "type": "address"
        },
        {
          "indexed": false,
          "internalType": "uint256",
          "name": "oldCollateralFactorMantissa",
          "type": "uint256"
        },
        {
          "indexed": false,
          "internalType": "uint256",
          "name": "newCollateralFactorMantissa",
          "type": "uint256"
        }
      ],
      "name": "NewCollateralFactor",
      "type": "event"
    },
    {
      "anonymous": false,
      "inputs": [
        {
          "indexed": false,
          "internalType": "uint256",
          "name": "oldLiquidationIncentiveMantissa",
          "type": "uint256"
        },
        {
          "indexed": false,
          "internalType": "uint256",
          "name": "newLiquidationIncentiveMantissa",
          "type": "uint256"
        }
      ],
      "name": "NewLiquidationIncentive",
      "type": "event"
    },
    {
      "anonymous": false,
      "inputs": [
        {
          "indexed": false,
          "internalType": "uint256",
          "name": "oldMaxAssets",
          "type": "uint256"
        },
        {
          "indexed": false,
          "internalType": "uint256",
          "name": "newMaxAssets",
          "type": "uint256"
        }
      ],
      "name": "NewMaxAssets",
      "type": "event"
    },
    {
      "anonymous": false,
      "inputs": [
        {
          "indexed": false,
          "internalType": "address",
          "name": "oldPauseGuardian",
          "type": "address"
        },
        {
          "indexed": false,
          "internalType": "address",
          "name": "newPauseGuardian",
          "type": "address"
        }
      ],
      "name": "NewPauseGuardian",
      "type": "event"
    },
    {
      "anonymous": false,
      "inputs": [
        {
          "indexed": false,
          "internalType": "contract PriceOracle",
          "name": "oldPriceOracle",
          "type": "address"
        },
        {
          "indexed": false,
          "internalType": "contract PriceOracle",
          "name": "newPriceOracle",
          "type": "address"
        }
      ],
      "name": "NewPriceOracle",
      "type": "event"
    },
    {
      "constant": true,
      "inputs": [],
      "name": "_borrowGuardianPaused",
      "outputs": [
        {
          "internalType": "bool",
          "name": "",
          "type": "bool"
        }
      ],
      "payable": false,
      "stateMutability": "view",
      "type": "function"
    },
    {
      "constant": true,
      "inputs": [],
      "name": "_mintGuardianPaused",
      "outputs": [
        {
          "internalType": "bool",
          "name": "",
          "type": "bool"
        }
      ],
      "payable": false,
      "stateMutability": "view",
      "type": "function"
    },
    {
      "constant": true,
      "inputs": [
        {
          "internalType": "address",
          "name": "",
          "type": "address"
        },
        {
          "internalType": "uint256",
          "name": "",
          "type": "uint256"
        }
      ],
      "name": "accountAssets",
      "outputs": [
        {
          "internalType": "contract CToken",
          "name": "",
          "type": "address"
        }
      ],
      "payable": false,
      "stateMutability": "view",
      "type": "function"
    },
    {
      "constant": true,
      "inputs": [],
      "name": "admin",
      "outputs": [
        {
          "internalType": "address",
          "name": "",
          "type": "address"
        }
      ],
      "payable": false,
      "stateMutability": "view",
      "type": "function"
    },
    {
      "constant": true,
      "inputs": [
        {
          "internalType": "uint256",
          "name": "",
          "type": "uint256"
        }
      ],
      "name": "allMarkets",
      "outputs": [
        {
          "internalType": "contract CToken",
          "name": "",
          "type": "address"
        }
      ],
      "payable": false,
      "stateMutability": "view",
      "type": "function"
    },
    {
      "constant": true,
      "inputs": [
        {
          "internalType": "address",
          "name": "",
          "type": "address"
        }
      ],
      "name": "borrowGuardianPaused",
      "outputs": [
        {
          "internalType": "bool",
          "name": "",
          "type": "bool"
        }
      ],
      "payable": false,
      "stateMutability": "view",
      "type": "function"
    },
    {
      "constant": true,
      "inputs": [],
      "name": "closeFactorMantissa",
      "outputs": [
        {
          "internalType": "uint256",
          "name": "",
          "type": "uint256"
        }
      ],
      "payable": false,
      "stateMutability": "view",
      "type": "function"
    },
    {
      "constant": true,
      "inputs": [
        {
          "internalType": "address",
          "name": "",
          "type": "address"
        }
      ],
      "name": "compAccrued",
      "outputs": [
        {
          "internalType": "uint256",
          "name": "",
          "type": "uint256"
        }
      ],
      "payable": false,
      "stateMutability": "view",
      "type": "function"
    },
    {
      "constant": true,
      "inputs": [
        {
          "internalType": "address",
          "name": "",
          "type": "address"
        }
      ],
      "name": "compBorrowState",
      "outputs": [
        {
          "internalType": "uint224",
          "name": "index",
          "type": "uint224"
        },
        {
          "internalType": "uint32",
          "name": "block",
          "type": "uint32"
        }
      ],
      "payable": false,
      "stateMutability": "view",
      "type": "function"
    },
    {
      "constant": true,
      "inputs": [
        {
          "internalType": "address",
          "name": "",
          "type": "address"
        },
        {
          "internalType": "address",
          "name": "",
          "type": "address"
        }
      ],
      "name": "compBorrowerIndex",
      "outputs": [
        {
          "internalType": "uint256",
          "name": "",
          "type": "uint256"
        }
      ],
      "payable": false,
      "stateMutability": "view",
      "type": "function"
    },
    {
      "constant": true,
      "inputs": [],
      "name": "compRate",
      "outputs": [
        {
          "internalType": "uint256",
          "name": "",
          "type": "uint256"
        }
      ],
      "payable": false,
      "stateMutability": "view",
      "type": "function"
    },
    {
      "constant": true,
      "inputs": [
        {
          "internalType": "address",
          "name": "",
          "type": "address"
        }
      ],
      "name": "compSpeeds",
      "outputs": [
        {
          "internalType": "uint256",
          "name": "",
          "type": "uint256"
        }
      ],
      "payable": false,
      "stateMutability": "view",
      "type": "function"
    },
    {
      "constant": true,
      "inputs": [
        {
          "internalType": "address",
          "name": "",
          "type": "address"
        },
        {
          "internalType": "address",
          "name": "",
          "type": "address"
        }
      ],
      "name": "compSupplierIndex",
      "outputs": [
        {
          "internalType": "uint256",
          "name": "",
          "type": "uint256"
        }
      ],
      "payable": false,
      "stateMutability": "view",
      "type": "function"
    },
    {
      "constant": true,
      "inputs": [
        {
          "internalType": "address",
          "name": "",
          "type": "address"
        }
      ],
      "name": "compSupplyState",
      "outputs": [
        {
          "internalType": "uint224",
          "name": "index",
          "type": "uint224"
        },
        {
          "internalType": "uint32",
          "name": "block",
          "type": "uint32"
        }
      ],
      "payable": false,
      "stateMutability": "view",
      "type": "function"
    },
    {
      "constant": true,
      "inputs": [],
      "name": "comptrollerImplementation",
      "outputs": [
        {
          "internalType": "address",
          "name": "",
          "type": "address"
        }
      ],
      "payable": false,
      "stateMutability": "view",
      "type": "function"
    },
    {
      "constant": true,
      "inputs": [],
      "name": "isComptroller",
      "outputs": [
        {
          "internalType": "bool",
          "name": "",
          "type": "bool"
        }
      ],
      "payable": false,
      "stateMutability": "view",
      "type": "function"
    },
    {
      "constant": true,
      "inputs": [],
      "name": "liquidationIncentiveMantissa",
      "outputs": [
        {
          "internalType": "uint256",
          "name": "",
          "type": "uint256"
        }
      ],
      "payable": false,
      "stateMutability": "view",
      "type": "function"
    },
    {
      "constant": true,
      "inputs": [
        {
          "internalType": "address",
          "name": "",
          "type": "address"
        }
      ],
      "name": "markets",
      "outputs": [
        {
          "internalType": "bool",
          "name": "isListed",
          "type": "bool"
        },
        {
          "internalType": "uint256",
          "name": "collateralFactorMantissa",
          "type": "uint256"
        },
        {
          "internalType": "bool",
          "name": "isComped",
          "type": "bool"
        }
      ],
      "payable": false,
      "stateMutability": "view",
      "type": "function"
    },
    {
      "constant": true,
      "inputs": [],
      "name": "maxAssets",
      "outputs": [
        {
          "internalType": "uint256",
          "name": "",
          "type": "uint256"
        }
      ],
      "payable": false,
      "stateMutability": "view",
      "type": "function"
    },
    {
      "constant": true,
      "inputs": [
        {
          "internalType": "address",
          "name": "",
          "type": "address"
        }
      ],
      "name": "mintGuardianPaused",
      "outputs": [
        {
          "internalType": "bool",
          "name": "",
          "type": "bool"
        }
      ],
      "payable": false,
      "stateMutability": "view",
      "type": "function"
    },
    {
      "constant": true,
      "inputs": [],
      "name": "oracle",
      "outputs": [
        {
          "internalType": "contract PriceOracle",
          "name": "",
          "type": "address"
        }
      ],
      "payable": false,
      "stateMutability": "view",
      "type": "function"
    },
    {
      "constant": true,
      "inputs": [],
      "name": "pauseGuardian",
      "outputs": [
        {
          "internalType": "address",
          "name": "",
          "type": "address"
        }
      ],
      "payable": false,
      "stateMutability": "view",
      "type": "function"
    },
    {
      "constant": true,
      "inputs": [],
      "name": "pendingAdmin",
      "outputs": [
        {
          "internalType": "address",
          "name": "",
          "type": "address"
        }
      ],
      "payable": false,
      "stateMutability": "view",
      "type": "function"
    },
    {
      "constant": true,
      "inputs": [],
      "name": "pendingComptrollerImplementation",
      "outputs": [
        {
          "internalType": "address",
          "name": "",
          "type": "address"
        }
      ],
      "payable": false,
      "stateMutability": "view",
      "type": "function"
    },
    {
      "constant": true,
      "inputs": [],
      "name": "seizeGuardianPaused",
      "outputs": [
        {
          "internalType": "bool",
          "name": "",
          "type": "bool"
        }
      ],
      "payable": false,
      "stateMutability": "view",
      "type": "function"
    },
    {
      "constant": true,
      "inputs": [],
      "name": "transferGuardianPaused",
      "outputs": [
        {
          "internalType": "bool",
          "name": "",
          "type": "bool"
        }
      ],
      "payable": false,
      "stateMutability": "view",
      "type": "function"
    },
    {
      "constant": true,
      "inputs": [
        {
          "internalType": "address",
          "name": "account",
          "type": "address"
        }
      ],
      "name": "getAssetsIn",
      "outputs": [
        {
          "internalType": "contract CToken[]",
          "name": "",
          "type": "address[]"
        }
      ],
      "payable": false,
      "stateMutability": "view",
      "type": "function"
    },
    {
      "constant": true,
      "inputs": [
        {
          "internalType": "address",
          "name": "account",
          "type": "address"
        },
        {
          "internalType": "contract CToken",
          "name": "cToken",
          "type": "address"
        }
      ],
      "name": "checkMembership",
      "outputs": [
        {
          "internalType": "bool",
          "name": "",
          "type": "bool"
        }
      ],
      "payable": false,
      "stateMutability": "view",
      "type": "function"
    },
    {
      "constant": false,
      "inputs": [
        {
          "internalType": "address[]",
          "name": "cTokens",
          "type": "address[]"
        }
      ],
      "name": "enterMarkets",
      "outputs": [
        {
          "internalType": "uint256[]",
          "name": "",
          "type": "uint256[]"
        }
      ],
      "payable": false,
      "stateMutability": "nonpayable",
      "type": "function"
    },
    {
      "constant": false,
      "inputs": [
        {
          "internalType": "address",
          "name": "_cToken",
          "type": "address"
        }
      ],
      "name": "enterMarket",
      "outputs": [
        {
          "internalType": "uint256",
          "name": "",
          "type": "uint256"
        }
      ],
      "payable": false,
      "stateMutability": "nonpayable",
      "type": "function"
    },
    {
      "constant": false,
      "inputs": [
        {
          "internalType": "address",
          "name": "cTokenAddress",
          "type": "address"
        }
      ],
      "name": "exitMarket",
      "outputs": [
        {
          "internalType": "uint256",
          "name": "",
          "type": "uint256"
        }
      ],
      "payable": false,
      "stateMutability": "nonpayable",
      "type": "function"
    },
    {
      "constant": false,
      "inputs": [
        {
          "internalType": "address",
          "name": "cToken",
          "type": "address"
        },
        {
          "internalType": "address",
          "name": "minter",
          "type": "address"
        },
        {
          "internalType": "uint256",
          "name": "mintAmount",
          "type": "uint256"
        }
      ],
      "name": "mintAllowed",
      "outputs": [
        {
          "internalType": "uint256",
          "name": "",
          "type": "uint256"
        }
      ],
      "payable": false,
      "stateMutability": "nonpayable",
      "type": "function"
    },
    {
      "constant": false,
      "inputs": [
        {
          "internalType": "address",
          "name": "cToken",
          "type": "address"
        },
        {
          "internalType": "address",
          "name": "minter",
          "type": "address"
        },
        {
          "internalType": "uint256",
          "name": "actualMintAmount",
          "type": "uint256"
        },
        {
          "internalType": "uint256",
          "name": "mintTokens",
          "type": "uint256"
        }
      ],
      "name": "mintVerify",
      "outputs": [],
      "payable": false,
      "stateMutability": "nonpayable",
      "type": "function"
    },
    {
      "constant": false,
      "inputs": [
        {
          "internalType": "address",
          "name": "cToken",
          "type": "address"
        },
        {
          "internalType": "address",
          "name": "redeemer",
          "type": "address"
        },
        {
          "internalType": "uint256",
          "name": "redeemTokens",
          "type": "uint256"
        }
      ],
      "name": "redeemAllowed",
      "outputs": [
        {
          "internalType": "uint256",
          "name": "",
          "type": "uint256"
        }
      ],
      "payable": false,
      "stateMutability": "nonpayable",
      "type": "function"
    },
    {
      "constant": false,
      "inputs": [
        {
          "internalType": "address",
          "name": "cToken",
          "type": "address"
        },
        {
          "internalType": "address",
          "name": "redeemer",
          "type": "address"
        },
        {
          "internalType": "uint256",
          "name": "redeemAmount",
          "type": "uint256"
        },
        {
          "internalType": "uint256",
          "name": "redeemTokens",
          "type": "uint256"
        }
      ],
      "name": "redeemVerify",
      "outputs": [],
      "payable": false,
      "stateMutability": "nonpayable",
      "type": "function"
    },
    {
      "constant": false,
      "inputs": [
        {
          "internalType": "address",
          "name": "cToken",
          "type": "address"
        },
        {
          "internalType": "address",
          "name": "borrower",
          "type": "address"
        },
        {
          "internalType": "uint256",
          "name": "borrowAmount",
          "type": "uint256"
        }
      ],
      "name": "borrowAllowed",
      "outputs": [
        {
          "internalType": "uint256",
          "name": "",
          "type": "uint256"
        }
      ],
      "payable": false,
      "stateMutability": "nonpayable",
      "type": "function"
    },
    {
      "constant": false,
      "inputs": [
        {
          "internalType": "address",
          "name": "cToken",
          "type": "address"
        },
        {
          "internalType": "address",
          "name": "borrower",
          "type": "address"
        },
        {
          "internalType": "uint256",
          "name": "borrowAmount",
          "type": "uint256"
        }
      ],
      "name": "borrowVerify",
      "outputs": [],
      "payable": false,
      "stateMutability": "nonpayable",
      "type": "function"
    },
    {
      "constant": false,
      "inputs": [
        {
          "internalType": "address",
          "name": "cToken",
          "type": "address"
        },
        {
          "internalType": "address",
          "name": "payer",
          "type": "address"
        },
        {
          "internalType": "address",
          "name": "borrower",
          "type": "address"
        },
        {
          "internalType": "uint256",
          "name": "repayAmount",
          "type": "uint256"
        }
      ],
      "name": "repayBorrowAllowed",
      "outputs": [
        {
          "internalType": "uint256",
          "name": "",
          "type": "uint256"
        }
      ],
      "payable": false,
      "stateMutability": "nonpayable",
      "type": "function"
    },
    {
      "constant": false,
      "inputs": [
        {
          "internalType": "address",
          "name": "cToken",
          "type": "address"
        },
        {
          "internalType": "address",
          "name": "payer",
          "type": "address"
        },
        {
          "internalType": "address",
          "name": "borrower",
          "type": "address"
        },
        {
          "internalType": "uint256",
          "name": "actualRepayAmount",
          "type": "uint256"
        },
        {
          "internalType": "uint256",
          "name": "borrowerIndex",
          "type": "uint256"
        }
      ],
      "name": "repayBorrowVerify",
      "outputs": [],
      "payable": false,
      "stateMutability": "nonpayable",
      "type": "function"
    },
    {
      "constant": false,
      "inputs": [
        {
          "internalType": "address",
          "name": "cTokenBorrowed",
          "type": "address"
        },
        {
          "internalType": "address",
          "name": "cTokenCollateral",
          "type": "address"
        },
        {
          "internalType": "address",
          "name": "liquidator",
          "type": "address"
        },
        {
          "internalType": "address",
          "name": "borrower",
          "type": "address"
        },
        {
          "internalType": "uint256",
          "name": "repayAmount",
          "type": "uint256"
        }
      ],
      "name": "liquidateBorrowAllowed",
      "outputs": [
        {
          "internalType": "uint256",
          "name": "",
          "type": "uint256"
        }
      ],
      "payable": false,
      "stateMutability": "nonpayable",
      "type": "function"
    },
    {
      "constant": false,
      "inputs": [
        {
          "internalType": "address",
          "name": "cTokenBorrowed",
          "type": "address"
        },
        {
          "internalType": "address",
          "name": "cTokenCollateral",
          "type": "address"
        },
        {
          "internalType": "address",
          "name": "liquidator",
          "type": "address"
        },
        {
          "internalType": "address",
          "name": "borrower",
          "type": "address"
        },
        {
          "internalType": "uint256",
          "name": "actualRepayAmount",
          "type": "uint256"
        },
        {
          "internalType": "uint256",
          "name": "seizeTokens",
          "type": "uint256"
        }
      ],
      "name": "liquidateBorrowVerify",
      "outputs": [],
      "payable": false,
      "stateMutability": "nonpayable",
      "type": "function"
    },
    {
      "constant": false,
      "inputs": [
        {
          "internalType": "address",
          "name": "cTokenCollateral",
          "type": "address"
        },
        {
          "internalType": "address",
          "name": "cTokenBorrowed",
          "type": "address"
        },
        {
          "internalType": "address",
          "name": "liquidator",
          "type": "address"
        },
        {
          "internalType": "address",
          "name": "borrower",
          "type": "address"
        },
        {
          "internalType": "uint256",
          "name": "seizeTokens",
          "type": "uint256"
        }
      ],
      "name": "seizeAllowed",
      "outputs": [
        {
          "internalType": "uint256",
          "name": "",
          "type": "uint256"
        }
      ],
      "payable": false,
      "stateMutability": "nonpayable",
      "type": "function"
    },
    {
      "constant": false,
      "inputs": [
        {
          "internalType": "address",
          "name": "cTokenCollateral",
          "type": "address"
        },
        {
          "internalType": "address",
          "name": "cTokenBorrowed",
          "type": "address"
        },
        {
          "internalType": "address",
          "name": "liquidator",
          "type": "address"
        },
        {
          "internalType": "address",
          "name": "borrower",
          "type": "address"
        },
        {
          "internalType": "uint256",
          "name": "seizeTokens",
          "type": "uint256"
        }
      ],
      "name": "seizeVerify",
      "outputs": [],
      "payable": false,
      "stateMutability": "nonpayable",
      "type": "function"
    },
    {
      "constant": false,
      "inputs": [
        {
          "internalType": "address",
          "name": "cToken",
          "type": "address"
        },
        {
          "internalType": "address",
          "name": "src",
          "type": "address"
        },
        {
          "internalType": "address",
          "name": "dst",
          "type": "address"
        },
        {
          "internalType": "uint256",
          "name": "transferTokens",
          "type": "uint256"
        }
      ],
      "name": "transferAllowed",
      "outputs": [
        {
          "internalType": "uint256",
          "name": "",
          "type": "uint256"
        }
      ],
      "payable": false,
      "stateMutability": "nonpayable",
      "type": "function"
    },
    {
      "constant": false,
      "inputs": [
        {
          "internalType": "address",
          "name": "cToken",
          "type": "address"
        },
        {
          "internalType": "address",
          "name": "src",
          "type": "address"
        },
        {
          "internalType": "address",
          "name": "dst",
          "type": "address"
        },
        {
          "internalType": "uint256",
          "name": "transferTokens",
          "type": "uint256"
        }
      ],
      "name": "transferVerify",
      "outputs": [],
      "payable": false,
      "stateMutability": "nonpayable",
      "type": "function"
    },
    {
      "constant": true,
      "inputs": [
        {
          "internalType": "address",
          "name": "account",
          "type": "address"
        }
      ],
      "name": "getAccountLiquidity",
      "outputs": [
        {
          "internalType": "uint256",
          "name": "",
          "type": "uint256"
        },
        {
          "internalType": "uint256",
          "name": "",
          "type": "uint256"
        },
        {
          "internalType": "uint256",
          "name": "",
          "type": "uint256"
        }
      ],
      "payable": false,
      "stateMutability": "view",
      "type": "function"
    },
    {
      "constant": true,
      "inputs": [
        {
          "internalType": "address",
          "name": "account",
          "type": "address"
        },
        {
          "internalType": "address",
          "name": "cTokenModify",
          "type": "address"
        },
        {
          "internalType": "uint256",
          "name": "redeemTokens",
          "type": "uint256"
        },
        {
          "internalType": "uint256",
          "name": "borrowAmount",
          "type": "uint256"
        }
      ],
      "name": "getHypotheticalAccountLiquidity",
      "outputs": [
        {
          "internalType": "uint256",
          "name": "",
          "type": "uint256"
        },
        {
          "internalType": "uint256",
          "name": "",
          "type": "uint256"
        },
        {
          "internalType": "uint256",
          "name": "",
          "type": "uint256"
        }
      ],
      "payable": false,
      "stateMutability": "view",
      "type": "function"
    },
    {
      "constant": true,
      "inputs": [
        {
          "internalType": "address",
          "name": "cTokenBorrowed",
          "type": "address"
        },
        {
          "internalType": "address",
          "name": "cTokenCollateral",
          "type": "address"
        },
        {
          "internalType": "uint256",
          "name": "actualRepayAmount",
          "type": "uint256"
        }
      ],
      "name": "liquidateCalculateSeizeTokens",
      "outputs": [
        {
          "internalType": "uint256",
          "name": "",
          "type": "uint256"
        },
        {
          "internalType": "uint256",
          "name": "",
          "type": "uint256"
        }
      ],
      "payable": false,
      "stateMutability": "view",
      "type": "function"
    },
    {
      "constant": false,
      "inputs": [
        {
          "internalType": "contract PriceOracle",
          "name": "newOracle",
          "type": "address"
        }
      ],
      "name": "_setPriceOracle",
      "outputs": [
        {
          "internalType": "uint256",
          "name": "",
          "type": "uint256"
        }
      ],
      "payable": false,
      "stateMutability": "nonpayable",
      "type": "function"
    },
    {
      "constant": false,
      "inputs": [
        {
          "internalType": "uint256",
          "name": "newCloseFactorMantissa",
          "type": "uint256"
        }
      ],
      "name": "_setCloseFactor",
      "outputs": [
        {
          "internalType": "uint256",
          "name": "",
          "type": "uint256"
        }
      ],
      "payable": false,
      "stateMutability": "nonpayable",
      "type": "function"
    },
    {
      "constant": false,
      "inputs": [
        {
          "internalType": "contract CToken",
          "name": "cToken",
          "type": "address"
        },
        {
          "internalType": "uint256",
          "name": "newCollateralFactorMantissa",
          "type": "uint256"
        }
      ],
      "name": "_setCollateralFactor",
      "outputs": [
        {
          "internalType": "uint256",
          "name": "",
          "type": "uint256"
        }
      ],
      "payable": false,
      "stateMutability": "nonpayable",
      "type": "function"
    },
    {
      "constant": false,
      "inputs": [
        {
          "internalType": "uint256",
          "name": "newMaxAssets",
          "type": "uint256"
        }
      ],
      "name": "_setMaxAssets",
      "outputs": [
        {
          "internalType": "uint256",
          "name": "",
          "type": "uint256"
        }
      ],
      "payable": false,
      "stateMutability": "nonpayable",
      "type": "function"
    },
    {
      "constant": false,
      "inputs": [
        {
          "internalType": "uint256",
          "name": "newLiquidationIncentiveMantissa",
          "type": "uint256"
        }
      ],
      "name": "_setLiquidationIncentive",
      "outputs": [
        {
          "internalType": "uint256",
          "name": "",
          "type": "uint256"
        }
      ],
      "payable": false,
      "stateMutability": "nonpayable",
      "type": "function"
    },
    {
      "constant": false,
      "inputs": [
        {
          "internalType": "contract CToken",
          "name": "cToken",
          "type": "address"
        }
      ],
      "name": "_supportMarket",
      "outputs": [
        {
          "internalType": "uint256",
          "name": "",
          "type": "uint256"
        }
      ],
      "payable": false,
      "stateMutability": "nonpayable",
      "type": "function"
    },
    {
      "constant": false,
      "inputs": [
        {
          "internalType": "address",
          "name": "newPauseGuardian",
          "type": "address"
        }
      ],
      "name": "_setPauseGuardian",
      "outputs": [
        {
          "internalType": "uint256",
          "name": "",
          "type": "uint256"
        }
      ],
      "payable": false,
      "stateMutability": "nonpayable",
      "type": "function"
    },
    {
      "constant": false,
      "inputs": [
        {
          "internalType": "contract CToken",
          "name": "cToken",
          "type": "address"
        },
        {
          "internalType": "bool",
          "name": "state",
          "type": "bool"
        }
      ],
      "name": "_setMintPaused",
      "outputs": [
        {
          "internalType": "bool",
          "name": "",
          "type": "bool"
        }
      ],
      "payable": false,
      "stateMutability": "nonpayable",
      "type": "function"
    },
    {
      "constant": false,
      "inputs": [
        {
          "internalType": "contract CToken",
          "name": "cToken",
          "type": "address"
        },
        {
          "internalType": "bool",
          "name": "state",
          "type": "bool"
        }
      ],
      "name": "_setBorrowPaused",
      "outputs": [
        {
          "internalType": "bool",
          "name": "",
          "type": "bool"
        }
      ],
      "payable": false,
      "stateMutability": "nonpayable",
      "type": "function"
    },
    {
      "constant": false,
      "inputs": [
        {
          "internalType": "bool",
          "name": "state",
          "type": "bool"
        }
      ],
      "name": "_setTransferPaused",
      "outputs": [
        {
          "internalType": "bool",
          "name": "",
          "type": "bool"
        }
      ],
      "payable": false,
      "stateMutability": "nonpayable",
      "type": "function"
    },
    {
      "constant": false,
      "inputs": [
        {
          "internalType": "bool",
          "name": "state",
          "type": "bool"
        }
      ],
      "name": "_setSeizePaused",
      "outputs": [
        {
          "internalType": "bool",
          "name": "",
          "type": "bool"
        }
      ],
      "payable": false,
      "stateMutability": "nonpayable",
      "type": "function"
    },
    {
      "constant": false,
      "inputs": [
        {
          "internalType": "contract Unitroller",
          "name": "unitroller",
          "type": "address"
        },
        {
          "internalType": "address[]",
          "name": "otherMarketsToAdd",
          "type": "address[]"
        }
      ],
      "name": "_become",
      "outputs": [],
      "payable": false,
      "stateMutability": "nonpayable",
      "type": "function"
    },
    {
      "constant": false,
      "inputs": [
        {
          "internalType": "address[]",
          "name": "otherMarketsToAdd",
          "type": "address[]"
        }
      ],
      "name": "_becomeG3",
      "outputs": [],
      "payable": false,
      "stateMutability": "nonpayable",
      "type": "function"
    },
    {
      "constant": true,
      "inputs": [],
      "name": "getAllMarkets",
      "outputs": [
        {
          "internalType": "contract CToken[]",
          "name": "",
          "type": "address[]"
        }
      ],
      "payable": false,
      "stateMutability": "view",
      "type": "function"
    },
    {
      "constant": true,
      "inputs": [],
      "name": "getBlockNumber",
      "outputs": [
        {
          "internalType": "uint256",
          "name": "",
          "type": "uint256"
        }
      ],
      "payable": false,
      "stateMutability": "view",
      "type": "function"
    },
    {
      "constant": true,
      "inputs": [],
      "name": "getCompAddress",
      "outputs": [
        {
          "internalType": "address",
          "name": "",
          "type": "address"
        }
      ],
      "payable": false,
      "stateMutability": "view",
      "type": "function"
    }
  ],
  "bytecode": "0x608060405234801561001057600080fd5b50600080546001600160a01b03191633179055614016806100326000396000f3fe608060405234801561001057600080fd5b50600436106103cf5760003560e01c80637dc0d1d0116101ff578063bdcdc2581161011a578063dce15449116100ad578063e87554461161007c578063e875544614610ef5578063eabe7d9114610efd578063ede4edd014610f33578063f851a44014610f59576103cf565b8063dce1544914610e8d578063dcfbc0c714610eb9578063e4028eee14610ec1578063e6653f3d14610eed576103cf565b8063cc7ebdc4116100e9578063cc7ebdc414610dce578063d02f735114610df4578063d9226ced14610e3a578063da3d454c14610e57576103cf565b8063bdcdc25814610c72578063c299823814610cae578063c488847b14610d51578063ca0af04314610da0576103cf565b80639d1b5a0a11610192578063ac0b0bb711610161578063ac0b0bb714610c2c578063b0772d0b14610c34578063b21be7fd14610c3c578063bb82aa5e14610c6a576103cf565b80639d1b5a0a14610b80578063a76b3fda14610b88578063aa90075414610bae578063abfceffc14610bb6576103cf565b80638ebf6364116101ce5780638ebf636414610a885780639117192d14610aa7578063929fe9a114610b4a57806394b2294b14610b78576103cf565b80637dc0d1d014610a0a57806387f7630314610a125780638c57804e14610a1a5780638e8f294b14610a40576103cf565b80634ada90af116102ef5780635ec88c79116102825780636b79c38d116102515780636b79c38d146109155780636d154ea5146109785780636d35bf911461099e578063731f0c2b146109e4576103cf565b80635ec88c79146108475780635f5af1aa1461086d5780635fc7e71e146108935780636a56947e146108d9576103cf565b806351dff989116102be57806351dff9891461079257806352d84d1e146107ce57806355ee1fe1146107eb5780635c77860514610811576103cf565b80634ada90af146106dd5780634e79238f146106e55780634ef4c3e11461073f5780634fd42e1714610775576103cf565b8063317b0b77116103675780633fe5d425116103365780633fe5d4251461062757806341c728b91461064d57806342cbb15c1461068957806347ef3b3b14610691576103cf565b8063317b0b771461052157806336ef46531461053e5780633bcf7ec1146105f15780633c94786f1461061f576103cf565b806324008a62116103a357806324008a621461049a57806324a3d622146104d657806326782247146104fa5780632d70db7814610502576103cf565b80627e3dd2146103d457806318c882a5146103f05780631d7b33d71461041e5780631ededc9114610456575b600080fd5b6103dc610f61565b604080519115158252519081900360200190f35b6103dc6004803603604081101561040657600080fd5b506001600160a01b0381351690602001351515610f66565b6104446004803603602081101561043457600080fd5b50356001600160a01b0316611142565b60408051918252519081900360200190f35b610498600480360360a081101561046c57600080fd5b506001600160a01b03813581169160208101358216916040820135169060608101359060800135611154565b005b610444600480360360808110156104b057600080fd5b506001600160a01b0381358116916020810135821691604082013516906060013561115b565b6104de611191565b604080516001600160a01b039092168252519081900360200190f35b6104de6111a0565b6103dc6004803603602081101561051857600080fd5b503515156111af565b6104446004803603602081101561053757600080fd5b5035611337565b6104986004803603604081101561055457600080fd5b6001600160a01b03823516919081019060408101602082013564010000000081111561057f57600080fd5b82018360208201111561059157600080fd5b803590602001918460208302840111640100000000831117156105b357600080fd5b919080806020026020016040519081016040528093929190818152602001838360200280828437600092019190915250929550611448945050505050565b6103dc6004803603604081101561060757600080fd5b506001600160a01b0381351690602001351515611662565b6103dc61183b565b6104446004803603602081101561063d57600080fd5b50356001600160a01b031661185c565b6104986004803603608081101561066357600080fd5b506001600160a01b0381358116916020810135909116906040810135906060013561187b565b610444611881565b610498600480360360c08110156106a757600080fd5b506001600160a01b0381358116916020810135821691604082013581169160608101359091169060808101359060a00135611886565b61044461188b565b610721600480360360808110156106fb57600080fd5b506001600160a01b03813581169160208101359091169060408101359060600135611891565b60408051938452602084019290925282820152519081900360600190f35b6104446004803603606081101561075557600080fd5b506001600160a01b038135811691602081013590911690604001356118cb565b6104446004803603602081101561078b57600080fd5b503561196d565b610498600480360360808110156107a857600080fd5b506001600160a01b03813581169160208101359091169060408101359060600135611a61565b6104de600480360360208110156107e457600080fd5b5035611ac1565b6104446004803603602081101561080157600080fd5b50356001600160a01b0316611ae8565b6104986004803603606081101561082757600080fd5b506001600160a01b03813581169160208101359091169060400135611b85565b6107216004803603602081101561085d57600080fd5b50356001600160a01b0316611b8a565b6104446004803603602081101561088357600080fd5b50356001600160a01b0316611bbf565b610444600480360360a08110156108a957600080fd5b506001600160a01b0381358116916020810135821691604082013581169160608101359091169060800135611c5b565b610498600480360360808110156108ef57600080fd5b506001600160a01b0381358116916020810135821691604082013516906060013561187b565b61093b6004803603602081101561092b57600080fd5b50356001600160a01b0316611de2565b604080517bffffffffffffffffffffffffffffffffffffffffffffffffffffffff909316835263ffffffff90911660208301528051918290030190f35b6103dc6004803603602081101561098e57600080fd5b50356001600160a01b0316611e3a565b610498600480360360a08110156109b457600080fd5b506001600160a01b0381358116916020810135821691604082013581169160608101359091169060800135611154565b6103dc600480360360208110156109fa57600080fd5b50356001600160a01b0316611e4f565b6104de611e64565b6103dc611e73565b61093b60048036036020811015610a3057600080fd5b50356001600160a01b0316611e96565b610a6660048036036020811015610a5657600080fd5b50356001600160a01b0316611eee565b6040805193151584526020840192909252151582820152519081900360600190f35b6103dc60048036036020811015610a9e57600080fd5b50351515611f14565b61049860048036036020811015610abd57600080fd5b810190602081018135640100000000811115610ad857600080fd5b820183602082011115610aea57600080fd5b80359060200191846020830284011164010000000083111715610b0c57600080fd5b919080806020026020016040519081016040528093929190818152602001838360200280828437600092019190915250929550612097945050505050565b6103dc60048036036040811015610b6057600080fd5b506001600160a01b038135811691602001351661212a565b61044461215d565b6104de612163565b61044460048036036020811015610b9e57600080fd5b50356001600160a01b0316612172565b6104446122ed565b610bdc60048036036020811015610bcc57600080fd5b50356001600160a01b03166122f3565b60408051602080825283518183015283519192839290830191858101910280838360005b83811015610c18578181015183820152602001610c00565b505050509050019250505060405180910390f35b6103dc61237c565b610bdc6123a0565b61044460048036036040811015610c5257600080fd5b506001600160a01b0381358116916020013516612402565b6104de61241f565b61044460048036036080811015610c8857600080fd5b506001600160a01b0381358116916020810135821691604082013516906060013561242e565b610bdc60048036036020811015610cc457600080fd5b810190602081018135640100000000811115610cdf57600080fd5b820183602082011115610cf157600080fd5b80359060200191846020830284011164010000000083111715610d1357600080fd5b9190808060200260200160405190810160405280939291908181526020018383602002808284376000920191909152509295506124ae945050505050565b610d8760048036036060811015610d6757600080fd5b506001600160a01b03813581169160208101359091169060400135612545565b6040805192835260208301919091528051918290030190f35b61044460048036036040811015610db657600080fd5b506001600160a01b03813581169160200135166127ec565b61044460048036036020811015610de457600080fd5b50356001600160a01b0316612809565b610444600480360360a0811015610e0a57600080fd5b506001600160a01b038135811691602081013582169160408201358116916060810135909116906080013561281b565b61044460048036036020811015610e5057600080fd5b50356129ed565b61044460048036036060811015610e6d57600080fd5b506001600160a01b03813581169160208101359091169060400135612a56565b6104de60048036036040811015610ea357600080fd5b506001600160a01b038135169060200135612cd1565b6104de612d06565b61044460048036036040811015610ed757600080fd5b506001600160a01b038135169060200135612d15565b6103dc612ede565b610444612f00565b61044460048036036060811015610f1357600080fd5b506001600160a01b03813581169160208101359091169060400135612f06565b61044460048036036020811015610f4957600080fd5b50356001600160a01b0316612f13565b6104de613298565b600181565b6001600160a01b03821660009081526009602052604081205460ff16610fbd5760405162461bcd60e51b8152600401808060200182810382526028815260200180613f476028913960400191505060405180910390fd5b600a546001600160a01b0316331480610fe057506000546001600160a01b031633145b61101b5760405162461bcd60e51b8152600401808060200182810382526027815260200180613f6f6027913960400191505060405180910390fd5b6000546001600160a01b031633148061103657506001821515145b611087576040805162461bcd60e51b815260206004820152601660248201527f6f6e6c792061646d696e2063616e20756e706175736500000000000000000000604482015290519081900360640190fd5b6001600160a01b0383166000818152600c602090815260409182902080548615157fffffffffffffffffffffffffffffffffffffffffffffffffffffffffffffff00909116811790915582519384528383015260609083018190526006908301527f426f72726f7700000000000000000000000000000000000000000000000000006080830152517f71aec636243f9709bb0007ae15e9afb8150ab01716d75fd7573be5cc096e03b09181900360a00190a150805b92915050565b60106020526000908152604090205481565b5050505050565b6001600160a01b03841660009081526009602052604081205460ff1661118357506009611189565b60005b90505b949350505050565b600a546001600160a01b031681565b6001546001600160a01b031681565b600a546000906001600160a01b03163314806111d557506000546001600160a01b031633145b6112105760405162461bcd60e51b8152600401808060200182810382526027815260200180613f6f6027913960400191505060405180910390fd5b6000546001600160a01b031633148061122b57506001821515145b61127c576040805162461bcd60e51b815260206004820152601660248201527f6f6e6c792061646d696e2063616e20756e706175736500000000000000000000604482015290519081900360640190fd5b600a80548315157701000000000000000000000000000000000000000000000081027fffffffffffffffff00ffffffffffffffffffffffffffffffffffffffffffffff909216919091179091556040805160208101929092528082526005828201527f5365697a650000000000000000000000000000000000000000000000000000006060830152517fef159d9a32b2472e32b098f954f3ce62d232939f1c207070b584df1814de2de09181900360800190a150805b919050565b600080546001600160a01b0316331461135d57611356600160046132a7565b9050611332565b611365613e87565b50604080516020810190915282815261137c613e87565b50604080516020810190915266b1a2bc2ec50000815261139c828261330d565b156113b5576113ac6005806132a7565b92505050611332565b6113bd613e87565b506040805160208101909152670c7d713b49da000081526113de8184613315565b156113f8576113ee6005806132a7565b9350505050611332565b6005805490869055604080518281526020810188905281517f3b9670cf975d26958e754b57098eaa2ac914d8d2a31b83257997b9f346110fd9929181900390910190a160005b9695505050505050565b816001600160a01b031663f851a4406040518163ffffffff1660e01b815260040160206040518083038186803b15801561148157600080fd5b505afa158015611495573d6000803e3d6000fd5b505050506040513d60208110156114ab57600080fd5b50516001600160a01b031633146114f35760405162461bcd60e51b8152600401808060200182810382526027815260200180613fbb6027913960400191505060405180910390fd5b816001600160a01b031663c1e803346040518163ffffffff1660e01b8152600401602060405180830381600087803b15801561152e57600080fd5b505af1158015611542573d6000803e3d6000fd5b505050506040513d602081101561155857600080fd5b5051156115ac576040805162461bcd60e51b815260206004820152601560248201527f6368616e6765206e6f7420617574686f72697a65640000000000000000000000604482015290519081900360640190fd5b6040517f9117192d0000000000000000000000000000000000000000000000000000000081526020600482018181528351602484015283516001600160a01b03861693639117192d93869392839260440191808601910280838360005b83811015611621578181015183820152602001611609565b5050505090500192505050600060405180830381600087803b15801561164657600080fd5b505af115801561165a573d6000803e3d6000fd5b505050505050565b6001600160a01b03821660009081526009602052604081205460ff166116b95760405162461bcd60e51b8152600401808060200182810382526028815260200180613f476028913960400191505060405180910390fd5b600a546001600160a01b03163314806116dc57506000546001600160a01b031633145b6117175760405162461bcd60e51b8152600401808060200182810382526027815260200180613f6f6027913960400191505060405180910390fd5b6000546001600160a01b031633148061173257506001821515145b611783576040805162461bcd60e51b815260206004820152601660248201527f6f6e6c792061646d696e2063616e20756e706175736500000000000000000000604482015290519081900360640190fd5b6001600160a01b0383166000818152600b602090815260409182902080548615157fffffffffffffffffffffffffffffffffffffffffffffffffffffffffffffff00909116811790915582519384528383015260609083018190526004908301527f4d696e74000000000000000000000000000000000000000000000000000000006080830152517f71aec636243f9709bb0007ae15e9afb8150ab01716d75fd7573be5cc096e03b09181900360a00190a150919050565b600a5474010000000000000000000000000000000000000000900460ff1681565b600081611869813361331c565b601181111561187457fe5b9392505050565b50505050565b435b90565b61165a565b60065481565b6000806000806000806118a68a8a8a8a613473565b9250925092508260118111156118b857fe5b95509093509150505b9450945094915050565b6001600160a01b0383166000908152600b602052604081205460ff1615611939576040805162461bcd60e51b815260206004820152600e60248201527f6d696e7420697320706175736564000000000000000000000000000000000000604482015290519081900360640190fd5b6001600160a01b03841660009081526009602052604090205460ff166119635760095b9050611874565b6000949350505050565b600080546001600160a01b0316331461198c576113566001600b6132a7565b611994613e87565b5060408051602081019091528281526119ab613e87565b506040805160208101909152670de0b6b3a764000081526119cc8282613315565b156119dd576113ac6007600c6132a7565b6119e5613e87565b5060408051602081019091526714d1120d7b1600008152611a068184613315565b15611a17576113ee6007600c6132a7565b6006805490869055604080518281526020810188905281517faeba5a6c40a8ac138134bff1aaa65debf25971188a58804bad717f82f0ec1316929181900390910190a1600061143e565b80158015611a6f5750600082115b1561187b576040805162461bcd60e51b815260206004820152601160248201527f72656465656d546f6b656e73207a65726f000000000000000000000000000000604482015290519081900360640190fd5b600d8181548110611ace57fe5b6000918252602090912001546001600160a01b0316905081565b600080546001600160a01b03163314611b0757611356600160106132a7565b600480546001600160a01b038481167fffffffffffffffffffffffff0000000000000000000000000000000000000000831681179093556040805191909216808252602082019390935281517fd52b2b9b7e9ee655fcb95d2e5b9e0c9f69e7ef2b8e9d2d0ea78402d576d22e22929181900390910190a16000611874565b505050565b600080600080600080611ba1876000806000613473565b925092509250826011811115611bb357fe5b97919650945092505050565b600080546001600160a01b03163314611bde57611356600160136132a7565b600a80546001600160a01b038481167fffffffffffffffffffffffff0000000000000000000000000000000000000000831617928390556040805192821680845293909116602083015280517f0613b6ee6a04f0d09f390e4d9318894b9f6ac7fd83897cd8d18896ba579c401e9281900390910190a16000611874565b6001600160a01b03851660009081526009602052604081205460ff161580611c9c57506001600160a01b03851660009081526009602052604090205460ff16155b15611cab5760095b9050611dd9565b600080611cb7856138a7565b91935090915060009050826011811115611ccd57fe5b14611ce757816011811115611cde57fe5b92505050611dd9565b80611cf3576003611cde565b6000886001600160a01b03166395dd9193876040518263ffffffff1660e01b815260040180826001600160a01b03166001600160a01b0316815260200191505060206040518083038186803b158015611d4b57600080fd5b505afa158015611d5f573d6000803e3d6000fd5b505050506040513d6020811015611d7557600080fd5b5051604080516020810190915260055481529091506000908190611d9990846138c7565b90925090506000826003811115611dac57fe5b14611dc057600b5b95505050505050611dd9565b80871115611dcf576011611db4565b6000955050505050505b95945050505050565b6011602052600090815260409020547bffffffffffffffffffffffffffffffffffffffffffffffffffffffff8116907c0100000000000000000000000000000000000000000000000000000000900463ffffffff1682565b600c6020526000908152604090205460ff1681565b600b6020526000908152604090205460ff1681565b6004546001600160a01b031681565b600a54760100000000000000000000000000000000000000000000900460ff1681565b6012602052600090815260409020547bffffffffffffffffffffffffffffffffffffffffffffffffffffffff8116907c0100000000000000000000000000000000000000000000000000000000900463ffffffff1682565b60096020526000908152604090208054600182015460039092015460ff91821692911683565b600a546000906001600160a01b0316331480611f3a57506000546001600160a01b031633145b611f755760405162461bcd60e51b8152600401808060200182810382526027815260200180613f6f6027913960400191505060405180910390fd5b6000546001600160a01b0316331480611f9057506001821515145b611fe1576040805162461bcd60e51b815260206004820152601660248201527f6f6e6c792061646d696e2063616e20756e706175736500000000000000000000604482015290519081900360640190fd5b600a805483151576010000000000000000000000000000000000000000000081027fffffffffffffffffff00ffffffffffffffffffffffffffffffffffffffffffff909216919091179091556040805160208101929092528082526008828201527f5472616e736665720000000000000000000000000000000000000000000000006060830152517fef159d9a32b2472e32b098f954f3ce62d232939f1c207070b584df1814de2de09181900360800190a15090565b6002546001600160a01b031633146120f6576040805162461bcd60e51b815260206004820152601d60248201527f6f6e6c7920627261696e732063616e206265636f6d6520697473656c66000000604482015290519081900360640190fd5b60005b81518110156121265761211e82828151811061211157fe5b602002602001015161391b565b6001016120f9565b5050565b6001600160a01b038082166000908152600960209081526040808320938616835260029093019052205460ff1692915050565b60075481565b600f546001600160a01b031690565b600080546001600160a01b0316331461219157611356600160126132a7565b6001600160a01b03821660009081526009602052604090205460ff16156121be57611356600a60116132a7565b816001600160a01b031663fe9c44ae6040518163ffffffff1660e01b815260040160206040518083038186803b1580156121f757600080fd5b505afa15801561220b573d6000803e3d6000fd5b505050506040513d602081101561222157600080fd5b5050604080516060810182526001808252600060208381018281528486018381526001600160a01b0389168452600990925294909120925183549015157fffffffffffffffffffffffffffffffffffffffffffffffffffffffffffffff009182161784559351918301919091555160039091018054911515919092161790556122a98261391b565b604080516001600160a01b038416815290517fcf583bb0c569eb967f806b11601c4cb93c10310485c67add5f8362c2f212321f9181900360200190a1600092915050565b600e5481565b60608060086000846001600160a01b03166001600160a01b0316815260200190815260200160002080548060200260200160405190810160405280929190818152602001828054801561236f57602002820191906000526020600020905b81546001600160a01b03168152600190910190602001808311612351575b5093979650505050505050565b600a5477010000000000000000000000000000000000000000000000900460ff1681565b6060600d8054806020026020016040519081016040528092919081815260200182805480156123f857602002820191906000526020600020905b81546001600160a01b031681526001909101906020018083116123da575b5050505050905090565b601360209081526000928352604080842090915290825290205481565b6002546001600160a01b031681565b600a54600090760100000000000000000000000000000000000000000000900460ff16156124a3576040805162461bcd60e51b815260206004820152601260248201527f7472616e73666572206973207061757365640000000000000000000000000000604482015290519081900360640190fd5b611186858584613a1a565b60606000825190506060816040519080825280602002602001820160405280156124e2578160200160208202803883390190505b50905060005b8281101561253d5760008582815181106124fe57fe5b60200260200101519050612512813361331c565b601181111561251d57fe5b83838151811061252957fe5b6020908102919091010152506001016124e8565b509392505050565b60048054604080517ffc57d4df0000000000000000000000000000000000000000000000000000000081526001600160a01b038781169482019490945290516000938493849391169163fc57d4df91602480820192602092909190829003018186803b1580156125b457600080fd5b505afa1580156125c8573d6000803e3d6000fd5b505050506040513d60208110156125de57600080fd5b505160048054604080517ffc57d4df0000000000000000000000000000000000000000000000000000000081526001600160a01b038a8116948201949094529051939450600093929091169163fc57d4df91602480820192602092909190829003018186803b15801561265057600080fd5b505afa158015612664573d6000803e3d6000fd5b505050506040513d602081101561267a57600080fd5b50519050811580612689575080155b1561269e57600d9350600092506127e4915050565b6000866001600160a01b031663182df0f56040518163ffffffff1660e01b815260040160206040518083038186803b1580156126d957600080fd5b505afa1580156126ed573d6000803e3d6000fd5b505050506040513d602081101561270357600080fd5b505190506000612711613e87565b612719613e87565b612721613e87565b600061272f60065489613a89565b94509050600081600381111561274157fe5b1461275d57600b5b9950600098506127e4975050505050505050565b6127678787613a89565b93509050600081600381111561277957fe5b1461278557600b612749565b61278f8484613ac4565b9250905060008160038111156127a157fe5b146127ad57600b612749565b6127b7828c6138c7565b9550905060008160038111156127c957fe5b146127d557600b612749565b60009950939750505050505050505b935093915050565b601460209081526000928352604080842090915290825290205481565b60156020526000908152604090205481565b600a5460009077010000000000000000000000000000000000000000000000900460ff1615612891576040805162461bcd60e51b815260206004820152600f60248201527f7365697a65206973207061757365640000000000000000000000000000000000604482015290519081900360640190fd5b6001600160a01b03861660009081526009602052604090205460ff1615806128d257506001600160a01b03851660009081526009602052604090205460ff16155b156128de576009611ca4565b846001600160a01b0316635fe3b5676040518163ffffffff1660e01b815260040160206040518083038186803b15801561291757600080fd5b505afa15801561292b573d6000803e3d6000fd5b505050506040513d602081101561294157600080fd5b5051604080517f5fe3b56700000000000000000000000000000000000000000000000000000000815290516001600160a01b0392831692891691635fe3b567916004808301926020929190829003018186803b1580156129a057600080fd5b505afa1580156129b4573d6000803e3d6000fd5b505050506040513d60208110156129ca57600080fd5b50516001600160a01b0316146129e1576002611ca4565b60009695505050505050565b600080546001600160a01b03163314612a0c576113566001600d6132a7565b6007805490839055604080518281526020810185905281517f7093cf1eb653f749c3ff531d6df7f92764536a7fa0d13530cd26e070780c32ea929181900390910190a16000611874565b6001600160a01b0383166000908152600c602052604081205460ff1615612ac4576040805162461bcd60e51b815260206004820152601060248201527f626f72726f772069732070617573656400000000000000000000000000000000604482015290519081900360640190fd5b6001600160a01b03841660009081526009602052604090205460ff16612aeb57600961195c565b6001600160a01b038085166000908152600960209081526040808320938716835260029093019052205460ff16612be357336001600160a01b03851614612b79576040805162461bcd60e51b815260206004820152601560248201527f73656e646572206d7573742062652063546f6b656e0000000000000000000000604482015290519081900360640190fd5b6000612b85338561331c565b90506000816011811115612b9557fe5b14612bae57806011811115612ba657fe5b915050611874565b6001600160a01b038086166000908152600960209081526040808320938816835260029093019052205460ff16612be157fe5b505b60048054604080517ffc57d4df0000000000000000000000000000000000000000000000000000000081526001600160a01b03888116948201949094529051929091169163fc57d4df91602480820192602092909190829003018186803b158015612c4d57600080fd5b505afa158015612c61573d6000803e3d6000fd5b505050506040513d6020811015612c7757600080fd5b5051612c8457600d61195c565b600080612c948587600087613473565b91935090915060009050826011811115612caa57fe5b14612cc457816011811115612cbb57fe5b92505050611874565b80156129e1576004612cbb565b60086020528160005260406000208181548110612cea57fe5b6000918252602090912001546001600160a01b03169150829050565b6003546001600160a01b031681565b600080546001600160a01b03163314612d3b57612d34600160066132a7565b905061113c565b6001600160a01b0383166000908152600960205260409020805460ff16612d7057612d68600960076132a7565b91505061113c565b612d78613e87565b506040805160208101909152838152612d8f613e87565b506040805160208101909152670c7d713b49da00008152612db08183613315565b15612dcb57612dc1600660086132a7565b935050505061113c565b8415801590612e6d575060048054604080517ffc57d4df0000000000000000000000000000000000000000000000000000000081526001600160a01b038a8116948201949094529051929091169163fc57d4df91602480820192602092909190829003018186803b158015612e3f57600080fd5b505afa158015612e53573d6000803e3d6000fd5b505050506040513d6020811015612e6957600080fd5b5051155b15612e7e57612dc1600d60096132a7565b60018301805490869055604080516001600160a01b03891681526020810183905280820188905290517f70483e6592cd5182d45ac970e05bc62cdcc90e9d8ef2c2dbe686cf383bcd7fc59181900360600190a16000979650505050505050565b600a547501000000000000000000000000000000000000000000900460ff1681565b60055481565b6000611189848484613a1a565b6000808290506000806000836001600160a01b031663c37f68e2336040518263ffffffff1660e01b815260040180826001600160a01b03166001600160a01b0316815260200191505060806040518083038186803b158015612f7457600080fd5b505afa158015612f88573d6000803e3d6000fd5b505050506040513d6080811015612f9e57600080fd5b508051602082015160409092015190945090925090508215612ff15760405162461bcd60e51b8152600401808060200182810382526025815260200180613f966025913960400191505060405180910390fd5b801561300e57613003600c60026132a7565b945050505050611332565b600061301b873385613a1a565b9050801561303c57613030600e600383613adc565b95505050505050611332565b6001600160a01b0385166000908152600960209081526040808320338452600281019092529091205460ff1661307b5760009650505050505050611332565b336000908152600282016020908152604080832080547fffffffffffffffffffffffffffffffffffffffffffffffffffffffffffffff00169055600882529182902080548351818402810184019094528084526060939283018282801561310b57602002820191906000526020600020905b81546001600160a01b031681526001909101906020018083116130ed575b5050835193945083925060009150505b8281101561316057896001600160a01b031684828151811061313957fe5b60200260200101516001600160a01b0316141561315857809150613160565b60010161311b565b5081811061316a57fe5b336000908152600860205260409020805481907fffffffffffffffffffffffffffffffffffffffffffffffffffffffffffffffff81019081106131a957fe5b9060005260206000200160009054906101000a90046001600160a01b03168183815481106131d357fe5b600091825260209091200180547fffffffffffffffffffffffff0000000000000000000000000000000000000000166001600160a01b03929092169190911790558054613242827fffffffffffffffffffffffffffffffffffffffffffffffffffffffffffffffff8301613e9a565b50604080516001600160a01b038c16815233602082015281517fe699a64c18b07ac5b7301aa273f36a2287239eb9501d81950672794afba29a0d929181900390910190a160009c9b505050505050505050505050565b6000546001600160a01b031681565b60007f45b96fe442630264581b197e84bbada861235052c5a1aadfff9ea4e40a969aa08360118111156132d657fe5b8360138111156132e257fe5b604080519283526020830191909152600082820152519081900360600190a182601181111561187457fe5b519051111590565b5190511090565b6001600160a01b0382166000908152600960205260408120805460ff1661334757600991505061113c565b6001600160a01b038316600090815260028201602052604090205460ff1615156001141561337957600091505061113c565b6007546001600160a01b038416600090815260086020526040902054106133a457601091505061113c565b6001600160a01b038084166000818152600284016020908152604080832080547fffffffffffffffffffffffffffffffffffffffffffffffffffffffffffffff00166001908117909155600883528184208054918201815584529282902090920180549489167fffffffffffffffffffffffff000000000000000000000000000000000000000090951685179055815193845283019190915280517f3ab23ab0d51cccc0c3085aec51f99228625aa1a922b3a8ca89a26b0f2027a1a59281900390910190a15060009392505050565b6000806000613480613ebe565b6001600160a01b0388166000908152600860209081526040808320805482518185028101850190935280835284936060939291908301828280156134ed57602002820191906000526020600020905b81546001600160a01b031681526001909101906020018083116134cf575b50939450600093505050505b815181101561386257600082828151811061351057fe5b60200260200101519050806001600160a01b031663c37f68e28e6040518263ffffffff1660e01b815260040180826001600160a01b03166001600160a01b0316815260200191505060806040518083038186803b15801561357057600080fd5b505afa158015613584573d6000803e3d6000fd5b505050506040513d608081101561359a57600080fd5b508051602082015160408084015160609485015160808c0152938a019390935291880191909152945084156135e05750600f9750600096508695506118c1945050505050565b60408051602080820183526001600160a01b0380851660008181526009845285902060010154845260c08b01939093528351808301855260808b0151815260e08b01526004805485517ffc57d4df00000000000000000000000000000000000000000000000000000000815291820194909452935192169263fc57d4df9260248083019392829003018186803b15801561367957600080fd5b505afa15801561368d573d6000803e3d6000fd5b505050506040513d60208110156136a357600080fd5b505160a087018190526136c75750600d9750600096508695506118c1945050505050565b604080516020810190915260a08701518152610100870181905260c087015160e08801516136f492613b42565b6101208801529350600084600381111561370a57fe5b146137265750600b9750600096508695506118c1945050505050565b61373e86610120015187604001518860000151613b9a565b87529350600084600381111561375057fe5b1461376c5750600b9750600096508695506118c1945050505050565b61378486610100015187606001518860200151613b9a565b60208801529350600084600381111561379957fe5b146137b55750600b9750600096508695506118c1945050505050565b8b6001600160a01b0316816001600160a01b03161415613859576137e38661012001518c8860200151613b9a565b6020880152935060008460038111156137f857fe5b146138145750600b9750600096508695506118c1945050505050565b6138288661010001518b8860200151613b9a565b60208801529350600084600381111561383d57fe5b146138595750600b9750600096508695506118c1945050505050565b506001016134f9565b506020840151845111156138895750505060208101519051600094500391508290506118c1565b50508151602090920151600095508594509190910391506118c19050565b60008060006138ba846000806000613473565b9250925092509193909250565b60008060006138d4613e87565b6138de8686613be7565b909250905060008260038111156138f157fe5b146139025750915060009050613914565b600061390d82613c4f565b9350935050505b9250929050565b60005b600d548110156139af57816001600160a01b0316600d828154811061393f57fe5b6000918252602090912001546001600160a01b031614156139a7576040805162461bcd60e51b815260206004820152601460248201527f6d61726b657420616c7265616479206164646564000000000000000000000000604482015290519081900360640190fd5b60010161391e565b50600d80546001810182556000919091527fd7b6990105719101dabeb77144f2a3385c8033acd3af97e9423a695e81ad1eb50180547fffffffffffffffffffffffff0000000000000000000000000000000000000000166001600160a01b0392909216919091179055565b6001600160a01b03831660009081526009602052604081205460ff16613a4157600961195c565b6001600160a01b038085166000908152600960209081526040808320938716835260029093019052205460ff16613a7957600061195c565b600080612c948587866000613473565b6000613a93613e87565b613ab9604051806020016040528086815250604051806020016040528086815250613c5e565b915091509250929050565b6000613ace613e87565b83518351613ab99190613d47565b60007f45b96fe442630264581b197e84bbada861235052c5a1aadfff9ea4e40a969aa0846011811115613b0b57fe5b846013811115613b1757fe5b604080519283526020830191909152818101859052519081900360600190a183601181111561118957fe5b6000613b4c613e87565b6000613b56613e87565b613b608787613c5e565b90925090506000826003811115613b7357fe5b14613b825790925090506127e4565b613b8c8186613c5e565b935093505050935093915050565b6000806000613ba7613e87565b613bb18787613be7565b90925090506000826003811115613bc457fe5b14613bd557509150600090506127e4565b613b8c613be182613c4f565b86613df7565b6000613bf1613e87565b600080613c02866000015186613e1d565b90925090506000826003811115613c1557fe5b14613c3457506040805160208101909152600081529092509050613914565b60408051602081019091529081526000969095509350505050565b51670de0b6b3a7640000900490565b6000613c68613e87565b600080613c7d86600001518660000151613e1d565b90925090506000826003811115613c9057fe5b14613caf57506040805160208101909152600081529092509050613914565b600080613cc46706f05b59d3b2000084613df7565b90925090506000826003811115613cd757fe5b14613cf957506040805160208101909152600081529094509250613914915050565b600080613d0e83670de0b6b3a7640000613e5c565b90925090506000826003811115613d2157fe5b14613d2857fe5b604080516020810190915290815260009a909950975050505050505050565b6000613d51613e87565b600080613d6686670de0b6b3a7640000613e1d565b90925090506000826003811115613d7957fe5b14613d9857506040805160208101909152600081529092509050613914565b600080613da58388613e5c565b90925090506000826003811115613db857fe5b14613dda57506040805160208101909152600081529094509250613914915050565b604080516020810190915290815260009890975095505050505050565b600080838301848110613e0f57600092509050613914565b506002915060009050613914565b60008083613e3057506000905080613914565b83830283858281613e3d57fe5b0414613e5157506002915060009050613914565b600092509050613914565b60008082613e705750600190506000613914565b6000838581613e7b57fe5b04915091509250929050565b6040518060200160405280600081525090565b815481835581811115611b8557600083815260209020611b85918101908301613f28565b604051806101400160405280600081526020016000815260200160008152602001600081526020016000815260200160008152602001613efc613e87565b8152602001613f09613e87565b8152602001613f16613e87565b8152602001613f23613e87565b905290565b61188391905b80821115613f425760008155600101613f2e565b509056fe63616e6e6f742070617573652061206d61726b65742074686174206973206e6f74206c69737465646f6e6c7920706175736520677561726469616e20616e642061646d696e2063616e207061757365657869744d61726b65743a206765744163636f756e74536e617073686f74206661696c65646f6e6c7920756e6974726f6c6c65722061646d696e2063616e206368616e676520627261696e73a265627a7a72315820d5a46037a67ae22e7fa5a4188a6c860ba1682c110ecd3f098af17ca623a9a8fc64736f6c634300050c0032",
  "source": "pragma solidity ^0.5.12;\n\nimport \"./CToken.sol\";\nimport \"./ErrorReporter.sol\";\nimport \"./Exponential.sol\";\nimport \"./PriceOracle.sol\";\nimport \"./ComptrollerInterface.sol\";\nimport \"./ComptrollerStorage.sol\";\nimport \"./Unitroller.sol\";\n\n/**\n * @title Compound's Comptroller Contract\n * @author Compound\n */\ncontract Comptroller is ComptrollerV3Storage, ComptrollerInterface, ComptrollerErrorReporter, Exponential {\n    /// @notice Emitted when an admin supports a market\n    event MarketListed(CToken cToken);\n\n    /// @notice Emitted when an account enters a market\n    event MarketEntered(CToken cToken, address account);\n\n    /// @notice Emitted when an account exits a market\n    event MarketExited(CToken cToken, address account);\n\n    /// @notice Emitted when close factor is changed by admin\n    event NewCloseFactor(uint oldCloseFactorMantissa, uint newCloseFactorMantissa);\n\n    /// @notice Emitted when a collateral factor is changed by admin\n    event NewCollateralFactor(CToken cToken, uint oldCollateralFactorMantissa, uint newCollateralFactorMantissa);\n\n    /// @notice Emitted when liquidation incentive is changed by admin\n    event NewLiquidationIncentive(uint oldLiquidationIncentiveMantissa, uint newLiquidationIncentiveMantissa);\n\n    /// @notice Emitted when maxAssets is changed by admin\n    event NewMaxAssets(uint oldMaxAssets, uint newMaxAssets);\n\n    /// @notice Emitted when price oracle is changed\n    event NewPriceOracle(PriceOracle oldPriceOracle, PriceOracle newPriceOracle);\n\n    /// @notice Emitted when pause guardian is changed\n    event NewPauseGuardian(address oldPauseGuardian, address newPauseGuardian);\n\n    /// @notice Emitted when an action is paused globally\n    event ActionPaused(string action, bool pauseState);\n\n    /// @notice Emitted when an action is paused on a market\n    event ActionPaused(CToken cToken, string action, bool pauseState);\n\n    // closeFactorMantissa must be strictly greater than this value\n    uint internal constant closeFactorMinMantissa = 0.05e18; // 0.05\n\n    // closeFactorMantissa must not exceed this value\n    uint internal constant closeFactorMaxMantissa = 0.9e18; // 0.9\n\n    // No collateralFactorMantissa may exceed this value\n    uint internal constant collateralFactorMaxMantissa = 0.9e18; // 0.9\n\n    // liquidationIncentiveMantissa must be no less than this value\n    uint internal constant liquidationIncentiveMinMantissa = 1.0e18; // 1.0\n\n    // liquidationIncentiveMantissa must be no greater than this value\n    uint internal constant liquidationIncentiveMaxMantissa = 1.5e18; // 1.5\n\n    constructor() public {\n        admin = msg.sender;\n    }\n\n    /*** Assets You Are In ***/\n\n    /**\n     * @notice Returns the assets an account has entered\n     * @param account The address of the account to pull assets for\n     * @return A dynamic list with the assets the account has entered\n     */\n    function getAssetsIn(address account) external view returns (CToken[] memory) {\n        CToken[] memory assetsIn = accountAssets[account];\n\n        return assetsIn;\n    }\n\n    /**\n     * @notice Returns whether the given account is entered in the given asset\n     * @param account The address of the account to check\n     * @param cToken The cToken to check\n     * @return True if the account is in the asset, otherwise false.\n     */\n    function checkMembership(address account, CToken cToken) external view returns (bool) {\n        return markets[address(cToken)].accountMembership[account];\n    }\n\n    /**\n     * @notice Add assets to be included in account liquidity calculation\n     * @param cTokens The list of addresses of the cToken markets to be enabled\n     * @return Success indicator for whether each corresponding market was entered\n     */\n    function enterMarkets(address[] memory cTokens) public returns (uint[] memory) {\n        uint len = cTokens.length;\n\n        uint[] memory results = new uint[](len);\n        for (uint i = 0; i < len; i++) {\n            CToken cToken = CToken(cTokens[i]);\n\n            results[i] = uint(addToMarketInternal(cToken, msg.sender));\n        }\n\n        return results;\n    }\n\n\n\n    /**\n     * @notice Add an asset to be included in account liquidity calculation\n    * @param _cToken The list of addresses of the cToken markets to be enabled\n    * @return Success indicator for whether each corresponding market was entered\n    */\n    function enterMarket(address _cToken) public returns (uint) {\n        CToken cToken = CToken(_cToken);\n        return uint(addToMarketInternal(cToken, msg.sender));\n    }\n\n    /**\n     * @notice Add the market to the borrower's \"assets in\" for liquidity calculations\n     * @param cToken The market to enter\n     * @param borrower The address of the account to modify\n     * @return Success indicator for whether the market was entered\n     */\n    function addToMarketInternal(CToken cToken, address borrower) internal returns (Error) {\n        Market storage marketToJoin = markets[address(cToken)];\n\n        if (!marketToJoin.isListed) {\n            // market is not listed, cannot join\n            return Error.MARKET_NOT_LISTED;\n        }\n\n        if (marketToJoin.accountMembership[borrower] == true) {\n            // already joined\n            return Error.NO_ERROR;\n        }\n\n        if (accountAssets[borrower].length >= maxAssets)  {\n            // no space, cannot join\n            return Error.TOO_MANY_ASSETS;\n        }\n\n        // survived the gauntlet, add to list\n        // NOTE: we store these somewhat redundantly as a significant optimization\n        //  this avoids having to iterate through the list for the most common use cases\n        //  that is, only when we need to perform liquidity checks\n        //  and not whenever we want to check if an account is in a particular market\n        marketToJoin.accountMembership[borrower] = true;\n        accountAssets[borrower].push(cToken);\n\n        emit MarketEntered(cToken, borrower);\n\n        return Error.NO_ERROR;\n    }\n\n    /**\n     * @notice Removes asset from sender's account liquidity calculation\n     * @dev Sender must not have an outstanding borrow balance in the asset,\n     *  or be providing neccessary collateral for an outstanding borrow.\n     * @param cTokenAddress The address of the asset to be removed\n     * @return Whether or not the account successfully exited the market\n     */\n    function exitMarket(address cTokenAddress) external returns (uint) {\n        CToken cToken = CToken(cTokenAddress);\n        /* Get sender tokensHeld and amountOwed underlying from the cToken */\n        (uint oErr, uint tokensHeld, uint amountOwed, ) = cToken.getAccountSnapshot(msg.sender);\n        require(oErr == 0, \"exitMarket: getAccountSnapshot failed\"); // semi-opaque error code\n\n        /* Fail if the sender has a borrow balance */\n        if (amountOwed != 0) {\n            return fail(Error.NONZERO_BORROW_BALANCE, FailureInfo.EXIT_MARKET_BALANCE_OWED);\n        }\n\n        /* Fail if the sender is not permitted to redeem all of their tokens */\n        uint allowed = redeemAllowedInternal(cTokenAddress, msg.sender, tokensHeld);\n        if (allowed != 0) {\n            return failOpaque(Error.REJECTION, FailureInfo.EXIT_MARKET_REJECTION, allowed);\n        }\n\n        Market storage marketToExit = markets[address(cToken)];\n\n        /* Return true if the sender is not already in the market */\n        if (!marketToExit.accountMembership[msg.sender]) {\n            return uint(Error.NO_ERROR);\n        }\n\n        /* Set cToken account membership to false */\n        delete marketToExit.accountMembership[msg.sender];\n\n        /* Delete cToken from the accounts list of assets */\n        // load into memory for faster iteration\n        CToken[] memory userAssetList = accountAssets[msg.sender];\n        uint len = userAssetList.length;\n        uint assetIndex = len;\n        for (uint i = 0; i < len; i++) {\n            if (userAssetList[i] == cToken) {\n                assetIndex = i;\n                break;\n            }\n        }\n\n        // We *must* have found the asset in the list or our redundant data structure is broken\n        assert(assetIndex < len);\n\n        // copy last item in list to location of item to be removed, reduce length by 1\n        CToken[] storage storedList = accountAssets[msg.sender];\n        storedList[assetIndex] = storedList[storedList.length - 1];\n        storedList.length--;\n\n        emit MarketExited(cToken, msg.sender);\n\n        return uint(Error.NO_ERROR);\n    }\n\n    /*** Policy Hooks ***/\n\n    /**\n     * @notice Checks if the account should be allowed to mint tokens in the given market\n     * @param cToken The market to verify the mint against\n     * @param minter The account which would get the minted tokens\n     * @param mintAmount The amount of underlying being supplied to the market in exchange for tokens\n     * @return 0 if the mint is allowed, otherwise a semi-opaque error code (See ErrorReporter.sol)\n     */\n    function mintAllowed(address cToken, address minter, uint mintAmount) external returns (uint) {\n        // Pausing is a very serious situation - we revert to sound the alarms\n        require(!mintGuardianPaused[cToken], \"mint is paused\");\n\n        // Shh - currently unused\n        minter;\n        mintAmount;\n\n        if (!markets[cToken].isListed) {\n            return uint(Error.MARKET_NOT_LISTED);\n        }\n\n        // *may include Policy Hook-type checks\n\n        return uint(Error.NO_ERROR);\n    }\n\n    /**\n     * @notice Validates mint and reverts on rejection. May emit logs.\n     * @param cToken Asset being minted\n     * @param minter The address minting the tokens\n     * @param actualMintAmount The amount of the underlying asset being minted\n     * @param mintTokens The number of tokens being minted\n     */\n    function mintVerify(address cToken, address minter, uint actualMintAmount, uint mintTokens) external {\n        // Shh - currently unused\n        cToken;\n        minter;\n        actualMintAmount;\n        mintTokens;\n\n        // Shh - we don't ever want this hook to be marked pure\n        if (false) {\n            maxAssets = maxAssets;\n        }\n    }\n\n    /**\n     * @notice Checks if the account should be allowed to redeem tokens in the given market\n     * @param cToken The market to verify the redeem against\n     * @param redeemer The account which would redeem the tokens\n     * @param redeemTokens The number of cTokens to exchange for the underlying asset in the market\n     * @return 0 if the redeem is allowed, otherwise a semi-opaque error code (See ErrorReporter.sol)\n     */\n    function redeemAllowed(address cToken, address redeemer, uint redeemTokens) external returns (uint) {\n        return redeemAllowedInternal(cToken, redeemer, redeemTokens);\n    }\n\n    function redeemAllowedInternal(address cToken, address redeemer, uint redeemTokens) internal view returns (uint) {\n        if (!markets[cToken].isListed) {\n            return uint(Error.MARKET_NOT_LISTED);\n        }\n\n        /* If the redeemer is not 'in' the market, then we can bypass the liquidity check */\n        if (!markets[cToken].accountMembership[redeemer]) {\n            return uint(Error.NO_ERROR);\n        }\n\n        /* Otherwise, perform a hypothetical liquidity check to guard against shortfall */\n        (Error err, , uint shortfall) = getHypotheticalAccountLiquidityInternal(redeemer, CToken(cToken), redeemTokens, 0);\n        if (err != Error.NO_ERROR) {\n            return uint(err);\n        }\n        if (shortfall > 0) {\n            return uint(Error.INSUFFICIENT_LIQUIDITY);\n        }\n\n        return uint(Error.NO_ERROR);\n    }\n\n    /**\n     * @notice Validates redeem and reverts on rejection. May emit logs.\n     * @param cToken Asset being redeemed\n     * @param redeemer The address redeeming the tokens\n     * @param redeemAmount The amount of the underlying asset being redeemed\n     * @param redeemTokens The number of tokens being redeemed\n     */\n    function redeemVerify(address cToken, address redeemer, uint redeemAmount, uint redeemTokens) external {\n        // Shh - currently unused\n        cToken;\n        redeemer;\n\n        // Require tokens is zero or amount is also zero\n        if (redeemTokens == 0 && redeemAmount > 0) {\n            revert(\"redeemTokens zero\");\n        }\n    }\n\n    /**\n     * @notice Checks if the account should be allowed to borrow the underlying asset of the given market\n     * @param cToken The market to verify the borrow against\n     * @param borrower The account which would borrow the asset\n     * @param borrowAmount The amount of underlying the account would borrow\n     * @return 0 if the borrow is allowed, otherwise a semi-opaque error code (See ErrorReporter.sol)\n     */\n    function borrowAllowed(address cToken, address borrower, uint borrowAmount) external returns (uint) {\n        // Pausing is a very serious situation - we revert to sound the alarms\n        require(!borrowGuardianPaused[cToken], \"borrow is paused\");\n\n        if (!markets[cToken].isListed) {\n            return uint(Error.MARKET_NOT_LISTED);\n        }\n\n        if (!markets[cToken].accountMembership[borrower]) {\n            // only cTokens may call borrowAllowed if borrower not in market\n            require(msg.sender == cToken, \"sender must be cToken\");\n\n            // attempt to add borrower to the market\n            Error err = addToMarketInternal(CToken(msg.sender), borrower);\n            if (err != Error.NO_ERROR) {\n                return uint(err);\n            }\n\n            // it should be impossible to break the important invariant\n            assert(markets[cToken].accountMembership[borrower]);\n        }\n\n        if (oracle.getUnderlyingPrice(CToken(cToken)) == 0) {\n            return uint(Error.PRICE_ERROR);\n        }\n\n        (Error err, , uint shortfall) = getHypotheticalAccountLiquidityInternal(borrower, CToken(cToken), 0, borrowAmount);\n        if (err != Error.NO_ERROR) {\n            return uint(err);\n        }\n        if (shortfall > 0) {\n            return uint(Error.INSUFFICIENT_LIQUIDITY);\n        }\n\n        return uint(Error.NO_ERROR);\n    }\n\n    /**\n     * @notice Validates borrow and reverts on rejection. May emit logs.\n     * @param cToken Asset whose underlying is being borrowed\n     * @param borrower The address borrowing the underlying\n     * @param borrowAmount The amount of the underlying asset requested to borrow\n     */\n    function borrowVerify(address cToken, address borrower, uint borrowAmount) external {\n        // Shh - currently unused\n        cToken;\n        borrower;\n        borrowAmount;\n\n        // Shh - we don't ever want this hook to be marked pure\n        if (false) {\n            maxAssets = maxAssets;\n        }\n    }\n\n    /**\n     * @notice Checks if the account should be allowed to repay a borrow in the given market\n     * @param cToken The market to verify the repay against\n     * @param payer The account which would repay the asset\n     * @param borrower The account which would borrowed the asset\n     * @param repayAmount The amount of the underlying asset the account would repay\n     * @return 0 if the repay is allowed, otherwise a semi-opaque error code (See ErrorReporter.sol)\n     */\n    function repayBorrowAllowed(\n        address cToken,\n        address payer,\n        address borrower,\n        uint repayAmount) external returns (uint) {\n        // Shh - currently unused\n        payer;\n        borrower;\n        repayAmount;\n\n        if (!markets[cToken].isListed) {\n            return uint(Error.MARKET_NOT_LISTED);\n        }\n\n        // *may include Policy Hook-type checks\n\n        return uint(Error.NO_ERROR);\n    }\n\n    /**\n     * @notice Validates repayBorrow and reverts on rejection. May emit logs.\n     * @param cToken Asset being repaid\n     * @param payer The address repaying the borrow\n     * @param borrower The address of the borrower\n     * @param actualRepayAmount The amount of underlying being repaid\n     */\n    function repayBorrowVerify(\n        address cToken,\n        address payer,\n        address borrower,\n        uint actualRepayAmount,\n        uint borrowerIndex) external {\n        // Shh - currently unused\n        cToken;\n        payer;\n        borrower;\n        actualRepayAmount;\n        borrowerIndex;\n\n        // Shh - we don't ever want this hook to be marked pure\n        if (false) {\n            maxAssets = maxAssets;\n        }\n    }\n\n    /**\n     * @notice Checks if the liquidation should be allowed to occur\n     * @param cTokenBorrowed Asset which was borrowed by the borrower\n     * @param cTokenCollateral Asset which was used as collateral and will be seized\n     * @param liquidator The address repaying the borrow and seizing the collateral\n     * @param borrower The address of the borrower\n     * @param repayAmount The amount of underlying being repaid\n     */\n    function liquidateBorrowAllowed(\n        address cTokenBorrowed,\n        address cTokenCollateral,\n        address liquidator,\n        address borrower,\n        uint repayAmount) external returns (uint) {\n        // Shh - currently unused\n        liquidator;\n\n        if (!markets[cTokenBorrowed].isListed || !markets[cTokenCollateral].isListed) {\n            return uint(Error.MARKET_NOT_LISTED);\n        }\n\n        /* The borrower must have shortfall in order to be liquidatable */\n        (Error err, , uint shortfall) = getAccountLiquidityInternal(borrower);\n        if (err != Error.NO_ERROR) {\n            return uint(err);\n        }\n        if (shortfall == 0) {\n            return uint(Error.INSUFFICIENT_SHORTFALL);\n        }\n\n        /* The liquidator may not repay more than what is allowed by the closeFactor */\n        uint borrowBalance = CToken(cTokenBorrowed).borrowBalanceStored(borrower);\n        (MathError mathErr, uint maxClose) = mulScalarTruncate(Exp({mantissa: closeFactorMantissa}), borrowBalance);\n        if (mathErr != MathError.NO_ERROR) {\n            return uint(Error.MATH_ERROR);\n        }\n        if (repayAmount > maxClose) {\n            return uint(Error.TOO_MUCH_REPAY);\n        }\n\n        return uint(Error.NO_ERROR);\n    }\n\n    /**\n     * @notice Validates liquidateBorrow and reverts on rejection. May emit logs.\n     * @param cTokenBorrowed Asset which was borrowed by the borrower\n     * @param cTokenCollateral Asset which was used as collateral and will be seized\n     * @param liquidator The address repaying the borrow and seizing the collateral\n     * @param borrower The address of the borrower\n     * @param actualRepayAmount The amount of underlying being repaid\n     */\n    function liquidateBorrowVerify(\n        address cTokenBorrowed,\n        address cTokenCollateral,\n        address liquidator,\n        address borrower,\n        uint actualRepayAmount,\n        uint seizeTokens) external {\n        // Shh - currently unused\n        cTokenBorrowed;\n        cTokenCollateral;\n        liquidator;\n        borrower;\n        actualRepayAmount;\n        seizeTokens;\n\n        // Shh - we don't ever want this hook to be marked pure\n        if (false) {\n            maxAssets = maxAssets;\n        }\n    }\n\n    /**\n     * @notice Checks if the seizing of assets should be allowed to occur\n     * @param cTokenCollateral Asset which was used as collateral and will be seized\n     * @param cTokenBorrowed Asset which was borrowed by the borrower\n     * @param liquidator The address repaying the borrow and seizing the collateral\n     * @param borrower The address of the borrower\n     * @param seizeTokens The number of collateral tokens to seize\n     */\n    function seizeAllowed(\n        address cTokenCollateral,\n        address cTokenBorrowed,\n        address liquidator,\n        address borrower,\n        uint seizeTokens) external returns (uint) {\n        // Pausing is a very serious situation - we revert to sound the alarms\n        require(!seizeGuardianPaused, \"seize is paused\");\n\n        // Shh - currently unused\n        liquidator;\n        borrower;\n        seizeTokens;\n\n        if (!markets[cTokenCollateral].isListed || !markets[cTokenBorrowed].isListed) {\n            return uint(Error.MARKET_NOT_LISTED);\n        }\n\n        if (CToken(cTokenCollateral).comptroller() != CToken(cTokenBorrowed).comptroller()) {\n            return uint(Error.COMPTROLLER_MISMATCH);\n        }\n\n        // *may include Policy Hook-type checks\n\n        return uint(Error.NO_ERROR);\n    }\n\n    /**\n     * @notice Validates seize and reverts on rejection. May emit logs.\n     * @param cTokenCollateral Asset which was used as collateral and will be seized\n     * @param cTokenBorrowed Asset which was borrowed by the borrower\n     * @param liquidator The address repaying the borrow and seizing the collateral\n     * @param borrower The address of the borrower\n     * @param seizeTokens The number of collateral tokens to seize\n     */\n    function seizeVerify(\n        address cTokenCollateral,\n        address cTokenBorrowed,\n        address liquidator,\n        address borrower,\n        uint seizeTokens) external {\n        // Shh - currently unused\n        cTokenCollateral;\n        cTokenBorrowed;\n        liquidator;\n        borrower;\n        seizeTokens;\n\n        // Shh - we don't ever want this hook to be marked pure\n        if (false) {\n            maxAssets = maxAssets;\n        }\n    }\n\n    /**\n     * @notice Checks if the account should be allowed to transfer tokens in the given market\n     * @param cToken The market to verify the transfer against\n     * @param src The account which sources the tokens\n     * @param dst The account which receives the tokens\n     * @param transferTokens The number of cTokens to transfer\n     * @return 0 if the transfer is allowed, otherwise a semi-opaque error code (See ErrorReporter.sol)\n     */\n    function transferAllowed(address cToken, address src, address dst, uint transferTokens) external returns (uint) {\n        // Pausing is a very serious situation - we revert to sound the alarms\n        require(!transferGuardianPaused, \"transfer is paused\");\n\n        // Shh - currently unused\n        dst;\n\n        // *may include Policy Hook-type checks\n\n        // Currently the only consideration is whether or not\n        //  the src is allowed to redeem this many tokens\n        return redeemAllowedInternal(cToken, src, transferTokens);\n    }\n\n    /**\n     * @notice Validates transfer and reverts on rejection. May emit logs.\n     * @param cToken Asset being transferred\n     * @param src The account which sources the tokens\n     * @param dst The account which receives the tokens\n     * @param transferTokens The number of cTokens to transfer\n     */\n    function transferVerify(address cToken, address src, address dst, uint transferTokens) external {\n        // Shh - currently unused\n        cToken;\n        src;\n        dst;\n        transferTokens;\n\n        // Shh - we don't ever want this hook to be marked pure\n        if (false) {\n            maxAssets = maxAssets;\n        }\n    }\n\n    /*** Liquidity/Liquidation Calculations ***/\n\n    /**\n     * @dev Local vars for avoiding stack-depth limits in calculating account liquidity.\n     *  Note that `cTokenBalance` is the number of cTokens the account owns in the market,\n     *  whereas `borrowBalance` is the amount of underlying that the account has borrowed.\n     */\n    struct AccountLiquidityLocalVars {\n        uint sumCollateral;\n        uint sumBorrowPlusEffects;\n        uint cTokenBalance;\n        uint borrowBalance;\n        uint exchangeRateMantissa;\n        uint oraclePriceMantissa;\n        Exp collateralFactor;\n        Exp exchangeRate;\n        Exp oraclePrice;\n        Exp tokensToDenom;\n    }\n\n    /**\n     * @notice Determine the current account liquidity wrt collateral requirements\n     * @return (possible error code (semi-opaque),\n                account liquidity in excess of collateral requirements,\n     *          account shortfall below collateral requirements)\n     */\n    function getAccountLiquidity(address account) public view returns (uint, uint, uint) {\n        (Error err, uint liquidity, uint shortfall) = getHypotheticalAccountLiquidityInternal(account, CToken(0), 0, 0);\n\n        return (uint(err), liquidity, shortfall);\n    }\n\n    /**\n     * @notice Determine the current account liquidity wrt collateral requirements\n     * @return (possible error code,\n                account liquidity in excess of collateral requirements,\n     *          account shortfall below collateral requirements)\n     */\n    function getAccountLiquidityInternal(address account) internal view returns (Error, uint, uint) {\n        return getHypotheticalAccountLiquidityInternal(account, CToken(0), 0, 0);\n    }\n\n    /**\n     * @notice Determine what the account liquidity would be if the given amounts were redeemed/borrowed\n     * @param cTokenModify The market to hypothetically redeem/borrow in\n     * @param account The account to determine liquidity for\n     * @param redeemTokens The number of tokens to hypothetically redeem\n     * @param borrowAmount The amount of underlying to hypothetically borrow\n     * @return (possible error code (semi-opaque),\n                hypothetical account liquidity in excess of collateral requirements,\n     *          hypothetical account shortfall below collateral requirements)\n     */\n    function getHypotheticalAccountLiquidity(\n        address account,\n        address cTokenModify,\n        uint redeemTokens,\n        uint borrowAmount) public view returns (uint, uint, uint) {\n        (Error err, uint liquidity, uint shortfall) = getHypotheticalAccountLiquidityInternal(account, CToken(cTokenModify), redeemTokens, borrowAmount);\n        return (uint(err), liquidity, shortfall);\n    }\n\n    /**\n     * @notice Determine what the account liquidity would be if the given amounts were redeemed/borrowed\n     * @param cTokenModify The market to hypothetically redeem/borrow in\n     * @param account The account to determine liquidity for\n     * @param redeemTokens The number of tokens to hypothetically redeem\n     * @param borrowAmount The amount of underlying to hypothetically borrow\n     * @dev Note that we calculate the exchangeRateStored for each collateral cToken using stored data,\n     *  without calculating accumulated interest.\n     * @return (possible error code,\n                hypothetical account liquidity in excess of collateral requirements,\n     *          hypothetical account shortfall below collateral requirements)\n     */\n    function getHypotheticalAccountLiquidityInternal(\n        address account,\n        CToken cTokenModify,\n        uint redeemTokens,\n        uint borrowAmount) internal view returns (Error, uint, uint) {\n\n        AccountLiquidityLocalVars memory vars; // Holds all our calculation results\n        uint oErr;\n        MathError mErr;\n\n        // For each asset the account is in\n        CToken[] memory assets = accountAssets[account];\n        for (uint i = 0; i < assets.length; i++) {\n            CToken asset = assets[i];\n\n            // Read the balances and exchange rate from the cToken\n            (oErr, vars.cTokenBalance, vars.borrowBalance, vars.exchangeRateMantissa) = asset.getAccountSnapshot(account);\n            if (oErr != 0) { // semi-opaque error code, we assume NO_ERROR == 0 is invariant between upgrades\n                return (Error.SNAPSHOT_ERROR, 0, 0);\n            }\n            vars.collateralFactor = Exp({mantissa: markets[address(asset)].collateralFactorMantissa});\n            vars.exchangeRate = Exp({mantissa: vars.exchangeRateMantissa});\n\n            // Get the normalized price of the asset\n            vars.oraclePriceMantissa = oracle.getUnderlyingPrice(asset);\n            if (vars.oraclePriceMantissa == 0) {\n                return (Error.PRICE_ERROR, 0, 0);\n            }\n            vars.oraclePrice = Exp({mantissa: vars.oraclePriceMantissa});\n\n            // Pre-compute a conversion factor from tokens -> ether (normalized price value)\n            (mErr, vars.tokensToDenom) = mulExp3(vars.collateralFactor, vars.exchangeRate, vars.oraclePrice);\n            if (mErr != MathError.NO_ERROR) {\n                return (Error.MATH_ERROR, 0, 0);\n            }\n\n            // sumCollateral += tokensToDenom * cTokenBalance\n            (mErr, vars.sumCollateral) = mulScalarTruncateAddUInt(vars.tokensToDenom, vars.cTokenBalance, vars.sumCollateral);\n            if (mErr != MathError.NO_ERROR) {\n                return (Error.MATH_ERROR, 0, 0);\n            }\n\n            // sumBorrowPlusEffects += oraclePrice * borrowBalance\n            (mErr, vars.sumBorrowPlusEffects) = mulScalarTruncateAddUInt(vars.oraclePrice, vars.borrowBalance, vars.sumBorrowPlusEffects);\n            if (mErr != MathError.NO_ERROR) {\n                return (Error.MATH_ERROR, 0, 0);\n            }\n\n            // Calculate effects of interacting with cTokenModify\n            if (asset == cTokenModify) {\n                // redeem effect\n                // sumBorrowPlusEffects += tokensToDenom * redeemTokens\n                (mErr, vars.sumBorrowPlusEffects) = mulScalarTruncateAddUInt(vars.tokensToDenom, redeemTokens, vars.sumBorrowPlusEffects);\n                if (mErr != MathError.NO_ERROR) {\n                    return (Error.MATH_ERROR, 0, 0);\n                }\n\n                // borrow effect\n                // sumBorrowPlusEffects += oraclePrice * borrowAmount\n                (mErr, vars.sumBorrowPlusEffects) = mulScalarTruncateAddUInt(vars.oraclePrice, borrowAmount, vars.sumBorrowPlusEffects);\n                if (mErr != MathError.NO_ERROR) {\n                    return (Error.MATH_ERROR, 0, 0);\n                }\n            }\n        }\n\n        // These are safe, as the underflow condition is checked first\n        if (vars.sumCollateral > vars.sumBorrowPlusEffects) {\n            return (Error.NO_ERROR, vars.sumCollateral - vars.sumBorrowPlusEffects, 0);\n        } else {\n            return (Error.NO_ERROR, 0, vars.sumBorrowPlusEffects - vars.sumCollateral);\n        }\n    }\n\n    /**\n     * @notice Calculate number of tokens of collateral asset to seize given an underlying amount\n     * @dev Used in liquidation (called in cToken.liquidateBorrowFresh)\n     * @param cTokenBorrowed The address of the borrowed cToken\n     * @param cTokenCollateral The address of the collateral cToken\n     * @param actualRepayAmount The amount of cTokenBorrowed underlying to convert into cTokenCollateral tokens\n     * @return (errorCode, number of cTokenCollateral tokens to be seized in a liquidation)\n     */\n    function liquidateCalculateSeizeTokens(address cTokenBorrowed, address cTokenCollateral, uint actualRepayAmount) external view returns (uint, uint) {\n        /* Read oracle prices for borrowed and collateral markets */\n        uint priceBorrowedMantissa = oracle.getUnderlyingPrice(CToken(cTokenBorrowed));\n        uint priceCollateralMantissa = oracle.getUnderlyingPrice(CToken(cTokenCollateral));\n        if (priceBorrowedMantissa == 0 || priceCollateralMantissa == 0) {\n            return (uint(Error.PRICE_ERROR), 0);\n        }\n\n        /*\n         * Get the exchange rate and calculate the number of collateral tokens to seize:\n         *  seizeAmount = actualRepayAmount * liquidationIncentive * priceBorrowed / priceCollateral\n         *  seizeTokens = seizeAmount / exchangeRate\n         *   = actualRepayAmount * (liquidationIncentive * priceBorrowed) / (priceCollateral * exchangeRate)\n         */\n        uint exchangeRateMantissa = CToken(cTokenCollateral).exchangeRateStored(); // Note: reverts on error\n        uint seizeTokens;\n        Exp memory numerator;\n        Exp memory denominator;\n        Exp memory ratio;\n        MathError mathErr;\n\n        (mathErr, numerator) = mulExp(liquidationIncentiveMantissa, priceBorrowedMantissa);\n        if (mathErr != MathError.NO_ERROR) {\n            return (uint(Error.MATH_ERROR), 0);\n        }\n\n        (mathErr, denominator) = mulExp(priceCollateralMantissa, exchangeRateMantissa);\n        if (mathErr != MathError.NO_ERROR) {\n            return (uint(Error.MATH_ERROR), 0);\n        }\n\n        (mathErr, ratio) = divExp(numerator, denominator);\n        if (mathErr != MathError.NO_ERROR) {\n            return (uint(Error.MATH_ERROR), 0);\n        }\n\n        (mathErr, seizeTokens) = mulScalarTruncate(ratio, actualRepayAmount);\n        if (mathErr != MathError.NO_ERROR) {\n            return (uint(Error.MATH_ERROR), 0);\n        }\n\n        return (uint(Error.NO_ERROR), seizeTokens);\n    }\n\n    /*** Admin Functions ***/\n\n    /**\n      * @notice Sets a new price oracle for the comptroller\n      * @dev Admin function to set a new price oracle\n      * @return uint 0=success, otherwise a failure (see ErrorReporter.sol for details)\n      */\n    function _setPriceOracle(PriceOracle newOracle) public returns (uint) {\n        // Check caller is admin\n        if (msg.sender != admin) {\n            return fail(Error.UNAUTHORIZED, FailureInfo.SET_PRICE_ORACLE_OWNER_CHECK);\n        }\n\n        // Track the old oracle for the comptroller\n        PriceOracle oldOracle = oracle;\n\n        // Set comptroller's oracle to newOracle\n        oracle = newOracle;\n\n        // Emit NewPriceOracle(oldOracle, newOracle)\n        emit NewPriceOracle(oldOracle, newOracle);\n\n        return uint(Error.NO_ERROR);\n    }\n\n    /**\n      * @notice Sets the closeFactor used when liquidating borrows\n      * @dev Admin function to set closeFactor\n      * @param newCloseFactorMantissa New close factor, scaled by 1e18\n      * @return uint 0=success, otherwise a failure. (See ErrorReporter for details)\n      */\n    function _setCloseFactor(uint newCloseFactorMantissa) external returns (uint) {\n        // Check caller is admin\n        if (msg.sender != admin) {\n            return fail(Error.UNAUTHORIZED, FailureInfo.SET_CLOSE_FACTOR_OWNER_CHECK);\n        }\n\n        Exp memory newCloseFactorExp = Exp({mantissa: newCloseFactorMantissa});\n        Exp memory lowLimit = Exp({mantissa: closeFactorMinMantissa});\n        if (lessThanOrEqualExp(newCloseFactorExp, lowLimit)) {\n            return fail(Error.INVALID_CLOSE_FACTOR, FailureInfo.SET_CLOSE_FACTOR_VALIDATION);\n        }\n\n        Exp memory highLimit = Exp({mantissa: closeFactorMaxMantissa});\n        if (lessThanExp(highLimit, newCloseFactorExp)) {\n            return fail(Error.INVALID_CLOSE_FACTOR, FailureInfo.SET_CLOSE_FACTOR_VALIDATION);\n        }\n\n        uint oldCloseFactorMantissa = closeFactorMantissa;\n        closeFactorMantissa = newCloseFactorMantissa;\n        emit NewCloseFactor(oldCloseFactorMantissa, closeFactorMantissa);\n\n        return uint(Error.NO_ERROR);\n    }\n\n    /**\n      * @notice Sets the collateralFactor for a market\n      * @dev Admin function to set per-market collateralFactor\n      * @param cToken The market to set the factor on\n      * @param newCollateralFactorMantissa The new collateral factor, scaled by 1e18\n      * @return uint 0=success, otherwise a failure. (See ErrorReporter for details)\n      */\n    function _setCollateralFactor(CToken cToken, uint newCollateralFactorMantissa) external returns (uint) {\n        // Check caller is admin\n        if (msg.sender != admin) {\n            return fail(Error.UNAUTHORIZED, FailureInfo.SET_COLLATERAL_FACTOR_OWNER_CHECK);\n        }\n\n        // Verify market is listed\n        Market storage market = markets[address(cToken)];\n        if (!market.isListed) {\n            return fail(Error.MARKET_NOT_LISTED, FailureInfo.SET_COLLATERAL_FACTOR_NO_EXISTS);\n        }\n\n        Exp memory newCollateralFactorExp = Exp({mantissa: newCollateralFactorMantissa});\n\n        // Check collateral factor <= 0.9\n        Exp memory highLimit = Exp({mantissa: collateralFactorMaxMantissa});\n        if (lessThanExp(highLimit, newCollateralFactorExp)) {\n            return fail(Error.INVALID_COLLATERAL_FACTOR, FailureInfo.SET_COLLATERAL_FACTOR_VALIDATION);\n        }\n\n        // If collateral factor != 0, fail if price == 0\n        if (newCollateralFactorMantissa != 0 && oracle.getUnderlyingPrice(cToken) == 0) {\n            return fail(Error.PRICE_ERROR, FailureInfo.SET_COLLATERAL_FACTOR_WITHOUT_PRICE);\n        }\n\n        // Set market's collateral factor to new collateral factor, remember old value\n        uint oldCollateralFactorMantissa = market.collateralFactorMantissa;\n        market.collateralFactorMantissa = newCollateralFactorMantissa;\n\n        // Emit event with asset, old collateral factor, and new collateral factor\n        emit NewCollateralFactor(cToken, oldCollateralFactorMantissa, newCollateralFactorMantissa);\n\n        return uint(Error.NO_ERROR);\n    }\n\n    /**\n      * @notice Sets maxAssets which controls how many markets can be entered\n      * @dev Admin function to set maxAssets\n      * @param newMaxAssets New max assets\n      * @return uint 0=success, otherwise a failure. (See ErrorReporter for details)\n      */\n    function _setMaxAssets(uint newMaxAssets) external returns (uint) {\n        // Check caller is admin\n        if (msg.sender != admin) {\n            return fail(Error.UNAUTHORIZED, FailureInfo.SET_MAX_ASSETS_OWNER_CHECK);\n        }\n\n        uint oldMaxAssets = maxAssets;\n        maxAssets = newMaxAssets;\n        emit NewMaxAssets(oldMaxAssets, newMaxAssets);\n\n        return uint(Error.NO_ERROR);\n    }\n\n    /**\n      * @notice Sets liquidationIncentive\n      * @dev Admin function to set liquidationIncentive\n      * @param newLiquidationIncentiveMantissa New liquidationIncentive scaled by 1e18\n      * @return uint 0=success, otherwise a failure. (See ErrorReporter for details)\n      */\n    function _setLiquidationIncentive(uint newLiquidationIncentiveMantissa) external returns (uint) {\n        // Check caller is admin\n        if (msg.sender != admin) {\n            return fail(Error.UNAUTHORIZED, FailureInfo.SET_LIQUIDATION_INCENTIVE_OWNER_CHECK);\n        }\n\n        // Check de-scaled min <= newLiquidationIncentive <= max\n        Exp memory newLiquidationIncentive = Exp({mantissa: newLiquidationIncentiveMantissa});\n        Exp memory minLiquidationIncentive = Exp({mantissa: liquidationIncentiveMinMantissa});\n        if (lessThanExp(newLiquidationIncentive, minLiquidationIncentive)) {\n            return fail(Error.INVALID_LIQUIDATION_INCENTIVE, FailureInfo.SET_LIQUIDATION_INCENTIVE_VALIDATION);\n        }\n\n        Exp memory maxLiquidationIncentive = Exp({mantissa: liquidationIncentiveMaxMantissa});\n        if (lessThanExp(maxLiquidationIncentive, newLiquidationIncentive)) {\n            return fail(Error.INVALID_LIQUIDATION_INCENTIVE, FailureInfo.SET_LIQUIDATION_INCENTIVE_VALIDATION);\n        }\n\n        // Save current value for use in log\n        uint oldLiquidationIncentiveMantissa = liquidationIncentiveMantissa;\n\n        // Set liquidation incentive to new incentive\n        liquidationIncentiveMantissa = newLiquidationIncentiveMantissa;\n\n        // Emit event with old incentive, new incentive\n        emit NewLiquidationIncentive(oldLiquidationIncentiveMantissa, newLiquidationIncentiveMantissa);\n\n        return uint(Error.NO_ERROR);\n    }\n\n    /**\n      * @notice Add the market to the markets mapping and set it as listed\n      * @dev Admin function to set isListed and add support for the market\n      * @param cToken The address of the market (token) to list\n      * @return uint 0=success, otherwise a failure. (See enum Error for details)\n      */\n    function _supportMarket(CToken cToken) external returns (uint) {\n        if (msg.sender != admin) {\n            return fail(Error.UNAUTHORIZED, FailureInfo.SUPPORT_MARKET_OWNER_CHECK);\n        }\n\n        if (markets[address(cToken)].isListed) {\n            return fail(Error.MARKET_ALREADY_LISTED, FailureInfo.SUPPORT_MARKET_EXISTS);\n        }\n\n        cToken.isCToken(); // Sanity check to make sure its really a CToken\n\n        markets[address(cToken)] = Market({isListed: true, isComped: false, collateralFactorMantissa: 0});\n\n        _addMarketInternal(address(cToken));\n\n        emit MarketListed(cToken);\n\n        return uint(Error.NO_ERROR);\n    }\n\n    function _addMarketInternal(address cToken) internal {\n        for (uint i = 0; i < allMarkets.length; i ++) {\n            require(allMarkets[i] != CToken(cToken), \"market already added\");\n        }\n        allMarkets.push(CToken(cToken));\n    }\n\n    /**\n     * @notice Admin function to change the Pause Guardian\n     * @param newPauseGuardian The address of the new Pause Guardian\n     * @return uint 0=success, otherwise a failure. (See enum Error for details)\n     */\n    function _setPauseGuardian(address newPauseGuardian) public returns (uint) {\n        if (msg.sender != admin) {\n            return fail(Error.UNAUTHORIZED, FailureInfo.SET_PAUSE_GUARDIAN_OWNER_CHECK);\n        }\n\n        // Save current value for inclusion in log\n        address oldPauseGuardian = pauseGuardian;\n\n        // Store pauseGuardian with value newPauseGuardian\n        pauseGuardian = newPauseGuardian;\n\n        // Emit NewPauseGuardian(OldPauseGuardian, NewPauseGuardian)\n        emit NewPauseGuardian(oldPauseGuardian, pauseGuardian);\n\n        return uint(Error.NO_ERROR);\n    }\n\n    function _setMintPaused(CToken cToken, bool state) public returns (bool) {\n        require(markets[address(cToken)].isListed, \"cannot pause a market that is not listed\");\n        require(msg.sender == pauseGuardian || msg.sender == admin, \"only pause guardian and admin can pause\");\n        require(msg.sender == admin || state == true, \"only admin can unpause\");\n\n        mintGuardianPaused[address(cToken)] = state;\n        emit ActionPaused(cToken, \"Mint\", state);\n        return state;\n    }\n\n    function _setBorrowPaused(CToken cToken, bool state) public returns (bool) {\n        require(markets[address(cToken)].isListed, \"cannot pause a market that is not listed\");\n        require(msg.sender == pauseGuardian || msg.sender == admin, \"only pause guardian and admin can pause\");\n        require(msg.sender == admin || state == true, \"only admin can unpause\");\n\n        borrowGuardianPaused[address(cToken)] = state;\n        emit ActionPaused(cToken, \"Borrow\", state);\n        return state;\n    }\n\n    function _setTransferPaused(bool state) public returns (bool) {\n        require(msg.sender == pauseGuardian || msg.sender == admin, \"only pause guardian and admin can pause\");\n        require(msg.sender == admin || state == true, \"only admin can unpause\");\n\n        transferGuardianPaused = state;\n        emit ActionPaused(\"Transfer\", state);\n        return state;\n    }\n\n    function _setSeizePaused(bool state) public returns (bool) {\n        require(msg.sender == pauseGuardian || msg.sender == admin, \"only pause guardian and admin can pause\");\n        require(msg.sender == admin || state == true, \"only admin can unpause\");\n\n        seizeGuardianPaused = state;\n        emit ActionPaused(\"Seize\", state);\n        return state;\n    }\n\n    function _become(Unitroller unitroller, address[] memory otherMarketsToAdd) public {\n        require(msg.sender == unitroller.admin(), \"only unitroller admin can change brains\");\n        require(unitroller._acceptImplementation() == 0, \"change not authorized\");\n\n        Comptroller(address(unitroller))._becomeG3(otherMarketsToAdd);\n    }\n\n    function _becomeG3(address[] memory otherMarketsToAdd) public {\n        require(msg.sender == comptrollerImplementation, \"only brains can become itself\");\n\n        for (uint i = 0; i < otherMarketsToAdd.length; i++) {\n            _addMarketInternal(address(otherMarketsToAdd[i]));\n        }\n    }\n\n    /**\n     * @notice Checks caller is admin, or this contract is becoming the new implementation\n     */\n    function adminOrInitializing() internal view returns (bool) {\n        return msg.sender == admin || msg.sender == comptrollerImplementation;\n    }\n\n    /**\n     * @notice Return all of the markets\n     * @dev The automatic getter may be used to access an individual market.\n     * @return The list of market addresses\n     */\n    function getAllMarkets() public view returns (CToken[] memory) {\n        return allMarkets;\n    }\n\n    function getBlockNumber() public view returns (uint) {\n        return block.number;\n    }\n\n    /**\n     * @notice Return the address of the COMP token\n     * @return The address of COMP\n     */\n//    function getCompAddress() public view returns (address) {\n//        return 0x310bd687f46b32393a9a3b3a492e7ac121a3cef1;\n//    }\n    function getCompAddress() public view returns (address) {\n        return compAddress;\n    }\n}\n",
  "sourcePath": "/Users/simtzujye/Desktop/hackathons/near-metabuild-hackathon-3/uruz-finance-near-protocol/contracts/Comptroller.sol",
  "compiler": {
    "name": "solc",
    "version": "0.5.12+commit.7709ece9.Emscripten.clang"
  },
  "schemaVersion": "3.4.10",
  "updatedAt": "2022-11-17T06:53:52.649Z",
  "networkType": "ethereum",
  "devdoc": {
    "author": "Compound",
    "methods": {
      "_setCloseFactor(uint256)": {
        "details": "Admin function to set closeFactor",
        "params": {
          "newCloseFactorMantissa": "New close factor, scaled by 1e18"
        },
        "return": "uint 0=success, otherwise a failure. (See ErrorReporter for details)"
      },
      "_setCollateralFactor(address,uint256)": {
        "details": "Admin function to set per-market collateralFactor",
        "params": {
          "cToken": "The market to set the factor on",
          "newCollateralFactorMantissa": "The new collateral factor, scaled by 1e18"
        },
        "return": "uint 0=success, otherwise a failure. (See ErrorReporter for details)"
      },
      "_setLiquidationIncentive(uint256)": {
        "details": "Admin function to set liquidationIncentive",
        "params": {
          "newLiquidationIncentiveMantissa": "New liquidationIncentive scaled by 1e18"
        },
        "return": "uint 0=success, otherwise a failure. (See ErrorReporter for details)"
      },
      "_setMaxAssets(uint256)": {
        "details": "Admin function to set maxAssets",
        "params": {
          "newMaxAssets": "New max assets"
        },
        "return": "uint 0=success, otherwise a failure. (See ErrorReporter for details)"
      },
      "_setPauseGuardian(address)": {
        "params": {
          "newPauseGuardian": "The address of the new Pause Guardian"
        },
        "return": "uint 0=success, otherwise a failure. (See enum Error for details)"
      },
      "_setPriceOracle(address)": {
        "details": "Admin function to set a new price oracle",
        "return": "uint 0=success, otherwise a failure (see ErrorReporter.sol for details)"
      },
      "_supportMarket(address)": {
        "details": "Admin function to set isListed and add support for the market",
        "params": {
          "cToken": "The address of the market (token) to list"
        },
        "return": "uint 0=success, otherwise a failure. (See enum Error for details)"
      },
      "borrowAllowed(address,address,uint256)": {
        "params": {
          "borrowAmount": "The amount of underlying the account would borrow",
          "borrower": "The account which would borrow the asset",
          "cToken": "The market to verify the borrow against"
        },
        "return": "0 if the borrow is allowed, otherwise a semi-opaque error code (See ErrorReporter.sol)"
      },
      "borrowVerify(address,address,uint256)": {
        "params": {
          "borrowAmount": "The amount of the underlying asset requested to borrow",
          "borrower": "The address borrowing the underlying",
          "cToken": "Asset whose underlying is being borrowed"
        }
      },
      "checkMembership(address,address)": {
        "params": {
          "account": "The address of the account to check",
          "cToken": "The cToken to check"
        },
        "return": "True if the account is in the asset, otherwise false."
      },
      "enterMarket(address)": {
        "params": {
          "_cToken": "The list of addresses of the cToken markets to be enabled"
        },
        "return": "Success indicator for whether each corresponding market was entered"
      },
      "enterMarkets(address[])": {
        "params": {
          "cTokens": "The list of addresses of the cToken markets to be enabled"
        },
        "return": "Success indicator for whether each corresponding market was entered"
      },
      "exitMarket(address)": {
        "details": "Sender must not have an outstanding borrow balance in the asset, or be providing neccessary collateral for an outstanding borrow.",
        "params": {
          "cTokenAddress": "The address of the asset to be removed"
        },
        "return": "Whether or not the account successfully exited the market"
      },
      "getAccountLiquidity(address)": {
        "return": "(possible error code (semi-opaque), account liquidity in excess of collateral requirements,         account shortfall below collateral requirements)"
      },
      "getAllMarkets()": {
        "details": "The automatic getter may be used to access an individual market.",
        "return": "The list of market addresses"
      },
      "getAssetsIn(address)": {
        "params": {
          "account": "The address of the account to pull assets for"
        },
        "return": "A dynamic list with the assets the account has entered"
      },
      "getCompAddress()": {
        "return": "The address of COMP"
      },
      "getHypotheticalAccountLiquidity(address,address,uint256,uint256)": {
        "params": {
          "account": "The account to determine liquidity for",
          "borrowAmount": "The amount of underlying to hypothetically borrow",
          "cTokenModify": "The market to hypothetically redeem/borrow in",
          "redeemTokens": "The number of tokens to hypothetically redeem"
        },
        "return": "(possible error code (semi-opaque), hypothetical account liquidity in excess of collateral requirements,         hypothetical account shortfall below collateral requirements)"
      },
      "liquidateBorrowAllowed(address,address,address,address,uint256)": {
        "params": {
          "borrower": "The address of the borrower",
          "cTokenBorrowed": "Asset which was borrowed by the borrower",
          "cTokenCollateral": "Asset which was used as collateral and will be seized",
          "liquidator": "The address repaying the borrow and seizing the collateral",
          "repayAmount": "The amount of underlying being repaid"
        }
      },
      "liquidateBorrowVerify(address,address,address,address,uint256,uint256)": {
        "params": {
          "actualRepayAmount": "The amount of underlying being repaid",
          "borrower": "The address of the borrower",
          "cTokenBorrowed": "Asset which was borrowed by the borrower",
          "cTokenCollateral": "Asset which was used as collateral and will be seized",
          "liquidator": "The address repaying the borrow and seizing the collateral"
        }
      },
      "liquidateCalculateSeizeTokens(address,address,uint256)": {
        "details": "Used in liquidation (called in cToken.liquidateBorrowFresh)",
        "params": {
          "actualRepayAmount": "The amount of cTokenBorrowed underlying to convert into cTokenCollateral tokens",
          "cTokenBorrowed": "The address of the borrowed cToken",
          "cTokenCollateral": "The address of the collateral cToken"
        },
        "return": "(errorCode, number of cTokenCollateral tokens to be seized in a liquidation)"
      },
      "mintAllowed(address,address,uint256)": {
        "params": {
          "cToken": "The market to verify the mint against",
          "mintAmount": "The amount of underlying being supplied to the market in exchange for tokens",
          "minter": "The account which would get the minted tokens"
        },
        "return": "0 if the mint is allowed, otherwise a semi-opaque error code (See ErrorReporter.sol)"
      },
      "mintVerify(address,address,uint256,uint256)": {
        "params": {
          "actualMintAmount": "The amount of the underlying asset being minted",
          "cToken": "Asset being minted",
          "mintTokens": "The number of tokens being minted",
          "minter": "The address minting the tokens"
        }
      },
      "redeemAllowed(address,address,uint256)": {
        "params": {
          "cToken": "The market to verify the redeem against",
          "redeemTokens": "The number of cTokens to exchange for the underlying asset in the market",
          "redeemer": "The account which would redeem the tokens"
        },
        "return": "0 if the redeem is allowed, otherwise a semi-opaque error code (See ErrorReporter.sol)"
      },
      "redeemVerify(address,address,uint256,uint256)": {
        "params": {
          "cToken": "Asset being redeemed",
          "redeemAmount": "The amount of the underlying asset being redeemed",
          "redeemTokens": "The number of tokens being redeemed",
          "redeemer": "The address redeeming the tokens"
        }
      },
      "repayBorrowAllowed(address,address,address,uint256)": {
        "params": {
          "borrower": "The account which would borrowed the asset",
          "cToken": "The market to verify the repay against",
          "payer": "The account which would repay the asset",
          "repayAmount": "The amount of the underlying asset the account would repay"
        },
        "return": "0 if the repay is allowed, otherwise a semi-opaque error code (See ErrorReporter.sol)"
      },
      "repayBorrowVerify(address,address,address,uint256,uint256)": {
        "params": {
          "actualRepayAmount": "The amount of underlying being repaid",
          "borrower": "The address of the borrower",
          "cToken": "Asset being repaid",
          "payer": "The address repaying the borrow"
        }
      },
      "seizeAllowed(address,address,address,address,uint256)": {
        "params": {
          "borrower": "The address of the borrower",
          "cTokenBorrowed": "Asset which was borrowed by the borrower",
          "cTokenCollateral": "Asset which was used as collateral and will be seized",
          "liquidator": "The address repaying the borrow and seizing the collateral",
          "seizeTokens": "The number of collateral tokens to seize"
        }
      },
      "seizeVerify(address,address,address,address,uint256)": {
        "params": {
          "borrower": "The address of the borrower",
          "cTokenBorrowed": "Asset which was borrowed by the borrower",
          "cTokenCollateral": "Asset which was used as collateral and will be seized",
          "liquidator": "The address repaying the borrow and seizing the collateral",
          "seizeTokens": "The number of collateral tokens to seize"
        }
      },
      "transferAllowed(address,address,address,uint256)": {
        "params": {
          "cToken": "The market to verify the transfer against",
          "dst": "The account which receives the tokens",
          "src": "The account which sources the tokens",
          "transferTokens": "The number of cTokens to transfer"
        },
        "return": "0 if the transfer is allowed, otherwise a semi-opaque error code (See ErrorReporter.sol)"
      },
      "transferVerify(address,address,address,uint256)": {
        "params": {
          "cToken": "Asset being transferred",
          "dst": "The account which receives the tokens",
          "src": "The account which sources the tokens",
          "transferTokens": "The number of cTokens to transfer"
        }
      }
    },
    "title": "Compound's Comptroller Contract"
  },
  "userdoc": {
    "methods": {
      "_setCloseFactor(uint256)": {
        "notice": "Sets the closeFactor used when liquidating borrows"
      },
      "_setCollateralFactor(address,uint256)": {
        "notice": "Sets the collateralFactor for a market"
      },
      "_setLiquidationIncentive(uint256)": {
        "notice": "Sets liquidationIncentive"
      },
      "_setMaxAssets(uint256)": {
        "notice": "Sets maxAssets which controls how many markets can be entered"
      },
      "_setPauseGuardian(address)": {
        "notice": "Admin function to change the Pause Guardian"
      },
      "_setPriceOracle(address)": {
        "notice": "Sets a new price oracle for the comptroller"
      },
      "_supportMarket(address)": {
        "notice": "Add the market to the markets mapping and set it as listed"
      },
      "borrowAllowed(address,address,uint256)": {
        "notice": "Checks if the account should be allowed to borrow the underlying asset of the given market"
      },
      "borrowVerify(address,address,uint256)": {
        "notice": "Validates borrow and reverts on rejection. May emit logs."
      },
      "checkMembership(address,address)": {
        "notice": "Returns whether the given account is entered in the given asset"
      },
      "enterMarket(address)": {
        "notice": "Add an asset to be included in account liquidity calculation"
      },
      "enterMarkets(address[])": {
        "notice": "Add assets to be included in account liquidity calculation"
      },
      "exitMarket(address)": {
        "notice": "Removes asset from sender's account liquidity calculation"
      },
      "getAccountLiquidity(address)": {
        "notice": "Determine the current account liquidity wrt collateral requirements"
      },
      "getAllMarkets()": {
        "notice": "Return all of the markets"
      },
      "getAssetsIn(address)": {
        "notice": "Returns the assets an account has entered"
      },
      "getCompAddress()": {
        "notice": "Return the address of the COMP token"
      },
      "getHypotheticalAccountLiquidity(address,address,uint256,uint256)": {
        "notice": "Determine what the account liquidity would be if the given amounts were redeemed/borrowed"
      },
      "liquidateBorrowAllowed(address,address,address,address,uint256)": {
        "notice": "Checks if the liquidation should be allowed to occur"
      },
      "liquidateBorrowVerify(address,address,address,address,uint256,uint256)": {
        "notice": "Validates liquidateBorrow and reverts on rejection. May emit logs."
      },
      "liquidateCalculateSeizeTokens(address,address,uint256)": {
        "notice": "Calculate number of tokens of collateral asset to seize given an underlying amount"
      },
      "mintAllowed(address,address,uint256)": {
        "notice": "Checks if the account should be allowed to mint tokens in the given market"
      },
      "mintVerify(address,address,uint256,uint256)": {
        "notice": "Validates mint and reverts on rejection. May emit logs."
      },
      "redeemAllowed(address,address,uint256)": {
        "notice": "Checks if the account should be allowed to redeem tokens in the given market"
      },
      "redeemVerify(address,address,uint256,uint256)": {
        "notice": "Validates redeem and reverts on rejection. May emit logs."
      },
      "repayBorrowAllowed(address,address,address,uint256)": {
        "notice": "Checks if the account should be allowed to repay a borrow in the given market"
      },
      "repayBorrowVerify(address,address,address,uint256,uint256)": {
        "notice": "Validates repayBorrow and reverts on rejection. May emit logs."
      },
      "seizeAllowed(address,address,address,address,uint256)": {
        "notice": "Checks if the seizing of assets should be allowed to occur"
      },
      "seizeVerify(address,address,address,address,uint256)": {
        "notice": "Validates seize and reverts on rejection. May emit logs."
      },
      "transferAllowed(address,address,address,uint256)": {
        "notice": "Checks if the account should be allowed to transfer tokens in the given market"
      },
      "transferVerify(address,address,address,uint256)": {
        "notice": "Validates transfer and reverts on rejection. May emit logs."
      }
    }
  }
}