{
  "contractName": "GovernorAlpha",
  "abi": [
    {
      "inputs": [
        {
          "internalType": "address",
          "name": "wurz_",
          "type": "address"
        },
        {
          "internalType": "address",
          "name": "guardian_",
          "type": "address"
        }
      ],
      "payable": false,
      "stateMutability": "nonpayable",
      "type": "constructor"
    },
    {
      "anonymous": false,
      "inputs": [
        {
          "indexed": false,
          "internalType": "uint256",
          "name": "id",
          "type": "uint256"
        }
      ],
      "name": "ProposalCanceled",
      "type": "event"
    },
    {
      "anonymous": false,
      "inputs": [
        {
          "indexed": false,
          "internalType": "uint256",
          "name": "id",
          "type": "uint256"
        },
        {
          "indexed": false,
          "internalType": "address",
          "name": "proposer",
          "type": "address"
        },
        {
          "indexed": false,
          "internalType": "address[]",
          "name": "targets",
          "type": "address[]"
        },
        {
          "indexed": false,
          "internalType": "uint256[]",
          "name": "values",
          "type": "uint256[]"
        },
        {
          "indexed": false,
          "internalType": "string[]",
          "name": "signatures",
          "type": "string[]"
        },
        {
          "indexed": false,
          "internalType": "bytes[]",
          "name": "calldatas",
          "type": "bytes[]"
        },
        {
          "indexed": false,
          "internalType": "uint256",
          "name": "startBlock",
          "type": "uint256"
        },
        {
          "indexed": false,
          "internalType": "uint256",
          "name": "endBlock",
          "type": "uint256"
        },
        {
          "indexed": false,
          "internalType": "string",
          "name": "description",
          "type": "string"
        }
      ],
      "name": "ProposalCreated",
      "type": "event"
    },
    {
      "anonymous": false,
      "inputs": [
        {
          "indexed": false,
          "internalType": "uint256",
          "name": "id",
          "type": "uint256"
        }
      ],
      "name": "ProposalExecuted",
      "type": "event"
    },
    {
      "anonymous": false,
      "inputs": [
        {
          "indexed": false,
          "internalType": "uint256",
          "name": "id",
          "type": "uint256"
        },
        {
          "indexed": false,
          "internalType": "uint256",
          "name": "eta",
          "type": "uint256"
        }
      ],
      "name": "ProposalQueued",
      "type": "event"
    },
    {
      "anonymous": false,
      "inputs": [
        {
          "indexed": false,
          "internalType": "uint256",
          "name": "proposalId",
          "type": "uint256"
        },
        {
          "indexed": false,
          "internalType": "uint256",
          "name": "forVotes",
          "type": "uint256"
        },
        {
          "indexed": false,
          "internalType": "uint256",
          "name": "againstVotes",
          "type": "uint256"
        }
      ],
      "name": "ProposalSnapshot",
      "type": "event"
    },
    {
      "anonymous": false,
      "inputs": [
        {
          "indexed": false,
          "internalType": "address",
          "name": "voter",
          "type": "address"
        },
        {
          "indexed": false,
          "internalType": "uint256",
          "name": "proposalId",
          "type": "uint256"
        },
        {
          "indexed": false,
          "internalType": "bool",
          "name": "support",
          "type": "bool"
        },
        {
          "indexed": false,
          "internalType": "uint256",
          "name": "votes",
          "type": "uint256"
        }
      ],
      "name": "VoteCast",
      "type": "event"
    },
    {
      "constant": true,
      "inputs": [],
      "name": "BALLOT_TYPEHASH",
      "outputs": [
        {
          "internalType": "bytes32",
          "name": "",
          "type": "bytes32"
        }
      ],
      "payable": false,
      "stateMutability": "view",
      "type": "function"
    },
    {
      "constant": true,
      "inputs": [],
      "name": "DOMAIN_TYPEHASH",
      "outputs": [
        {
          "internalType": "bytes32",
          "name": "",
          "type": "bytes32"
        }
      ],
      "payable": false,
      "stateMutability": "view",
      "type": "function"
    },
    {
      "constant": true,
      "inputs": [],
      "name": "guardian",
      "outputs": [
        {
          "internalType": "address",
          "name": "",
          "type": "address"
        }
      ],
      "payable": false,
      "stateMutability": "view",
      "type": "function"
    },
    {
      "constant": true,
      "inputs": [
        {
          "internalType": "address",
          "name": "",
          "type": "address"
        }
      ],
      "name": "latestProposalIds",
      "outputs": [
        {
          "internalType": "uint256",
          "name": "",
          "type": "uint256"
        }
      ],
      "payable": false,
      "stateMutability": "view",
      "type": "function"
    },
    {
      "constant": true,
      "inputs": [],
      "name": "name",
      "outputs": [
        {
          "internalType": "string",
          "name": "",
          "type": "string"
        }
      ],
      "payable": false,
      "stateMutability": "view",
      "type": "function"
    },
    {
      "constant": true,
      "inputs": [],
      "name": "proposalCount",
      "outputs": [
        {
          "internalType": "uint256",
          "name": "",
          "type": "uint256"
        }
      ],
      "payable": false,
      "stateMutability": "view",
      "type": "function"
    },
    {
      "constant": true,
      "inputs": [
        {
          "internalType": "uint256",
          "name": "",
          "type": "uint256"
        }
      ],
      "name": "proposals",
      "outputs": [
        {
          "internalType": "uint256",
          "name": "id",
          "type": "uint256"
        },
        {
          "internalType": "address",
          "name": "proposer",
          "type": "address"
        },
        {
          "internalType": "uint256",
          "name": "eta",
          "type": "uint256"
        },
        {
          "internalType": "uint256",
          "name": "startBlock",
          "type": "uint256"
        },
        {
          "internalType": "uint256",
          "name": "endBlock",
          "type": "uint256"
        },
        {
          "internalType": "uint256",
          "name": "forVotes",
          "type": "uint256"
        },
        {
          "internalType": "uint256",
          "name": "againstVotes",
          "type": "uint256"
        },
        {
          "internalType": "bool",
          "name": "canceled",
          "type": "bool"
        },
        {
          "internalType": "bool",
          "name": "executed",
          "type": "bool"
        }
      ],
      "payable": false,
      "stateMutability": "view",
      "type": "function"
    },
    {
      "constant": true,
      "inputs": [],
      "name": "timelock",
      "outputs": [
        {
          "internalType": "contract TimelockInterface",
          "name": "",
          "type": "address"
        }
      ],
      "payable": false,
      "stateMutability": "view",
      "type": "function"
    },
    {
      "constant": true,
      "inputs": [],
      "name": "wurz",
      "outputs": [
        {
          "internalType": "contract WURZInterface",
          "name": "",
          "type": "address"
        }
      ],
      "payable": false,
      "stateMutability": "view",
      "type": "function"
    },
    {
      "constant": true,
      "inputs": [],
      "name": "quorumVotes",
      "outputs": [
        {
          "internalType": "uint256",
          "name": "",
          "type": "uint256"
        }
      ],
      "payable": false,
      "stateMutability": "pure",
      "type": "function"
    },
    {
      "constant": true,
      "inputs": [],
      "name": "proposalThreshold",
      "outputs": [
        {
          "internalType": "uint256",
          "name": "",
          "type": "uint256"
        }
      ],
      "payable": false,
      "stateMutability": "pure",
      "type": "function"
    },
    {
      "constant": true,
      "inputs": [],
      "name": "proposalMaxOperations",
      "outputs": [
        {
          "internalType": "uint256",
          "name": "",
          "type": "uint256"
        }
      ],
      "payable": false,
      "stateMutability": "pure",
      "type": "function"
    },
    {
      "constant": true,
      "inputs": [],
      "name": "votingDelay",
      "outputs": [
        {
          "internalType": "uint256",
          "name": "",
          "type": "uint256"
        }
      ],
      "payable": false,
      "stateMutability": "pure",
      "type": "function"
    },
    {
      "constant": true,
      "inputs": [],
      "name": "votingPeriod",
      "outputs": [
        {
          "internalType": "uint256",
          "name": "",
          "type": "uint256"
        }
      ],
      "payable": false,
      "stateMutability": "pure",
      "type": "function"
    },
    {
      "constant": false,
      "inputs": [
        {
          "internalType": "address",
          "name": "timelock_",
          "type": "address"
        }
      ],
      "name": "setTimeLock",
      "outputs": [],
      "payable": false,
      "stateMutability": "nonpayable",
      "type": "function"
    },
    {
      "constant": false,
      "inputs": [
        {
          "internalType": "address[]",
          "name": "targets",
          "type": "address[]"
        },
        {
          "internalType": "uint256[]",
          "name": "values",
          "type": "uint256[]"
        },
        {
          "internalType": "string[]",
          "name": "signatures",
          "type": "string[]"
        },
        {
          "internalType": "bytes[]",
          "name": "calldatas",
          "type": "bytes[]"
        },
        {
          "internalType": "string",
          "name": "description",
          "type": "string"
        }
      ],
      "name": "propose",
      "outputs": [
        {
          "internalType": "uint256",
          "name": "",
          "type": "uint256"
        }
      ],
      "payable": false,
      "stateMutability": "nonpayable",
      "type": "function"
    },
    {
      "constant": false,
      "inputs": [
        {
          "internalType": "uint256",
          "name": "proposalId",
          "type": "uint256"
        }
      ],
      "name": "queue",
      "outputs": [],
      "payable": false,
      "stateMutability": "nonpayable",
      "type": "function"
    },
    {
      "constant": false,
      "inputs": [
        {
          "internalType": "uint256",
          "name": "proposalId",
          "type": "uint256"
        }
      ],
      "name": "execute",
      "outputs": [],
      "payable": true,
      "stateMutability": "payable",
      "type": "function"
    },
    {
      "constant": false,
      "inputs": [
        {
          "internalType": "uint256",
          "name": "proposalId",
          "type": "uint256"
        }
      ],
      "name": "cancel",
      "outputs": [],
      "payable": false,
      "stateMutability": "nonpayable",
      "type": "function"
    },
    {
      "constant": true,
      "inputs": [
        {
          "internalType": "uint256",
          "name": "proposalId",
          "type": "uint256"
        }
      ],
      "name": "getActions",
      "outputs": [
        {
          "internalType": "address[]",
          "name": "targets",
          "type": "address[]"
        },
        {
          "internalType": "uint256[]",
          "name": "values",
          "type": "uint256[]"
        },
        {
          "internalType": "string[]",
          "name": "signatures",
          "type": "string[]"
        },
        {
          "internalType": "bytes[]",
          "name": "calldatas",
          "type": "bytes[]"
        }
      ],
      "payable": false,
      "stateMutability": "view",
      "type": "function"
    },
    {
      "constant": true,
      "inputs": [
        {
          "internalType": "uint256",
          "name": "proposalId",
          "type": "uint256"
        },
        {
          "internalType": "address",
          "name": "voter",
          "type": "address"
        }
      ],
      "name": "getReceipt",
      "outputs": [
        {
          "components": [
            {
              "internalType": "bool",
              "name": "hasVoted",
              "type": "bool"
            },
            {
              "internalType": "bool",
              "name": "support",
              "type": "bool"
            },
            {
              "internalType": "uint96",
              "name": "votes",
              "type": "uint96"
            }
          ],
          "internalType": "struct GovernorAlpha.Receipt",
          "name": "",
          "type": "tuple"
        }
      ],
      "payable": false,
      "stateMutability": "view",
      "type": "function"
    },
    {
      "constant": true,
      "inputs": [
        {
          "internalType": "uint256",
          "name": "proposalId",
          "type": "uint256"
        }
      ],
      "name": "state",
      "outputs": [
        {
          "internalType": "enum GovernorAlpha.ProposalState",
          "name": "",
          "type": "uint8"
        }
      ],
      "payable": false,
      "stateMutability": "view",
      "type": "function"
    },
    {
      "constant": false,
      "inputs": [
        {
          "internalType": "uint256",
          "name": "proposalId",
          "type": "uint256"
        },
        {
          "internalType": "uint256",
          "name": "votes",
          "type": "uint256"
        },
        {
          "internalType": "bool",
          "name": "support",
          "type": "bool"
        }
      ],
      "name": "castVote",
      "outputs": [],
      "payable": false,
      "stateMutability": "nonpayable",
      "type": "function"
    },
    {
      "constant": false,
      "inputs": [
        {
          "internalType": "uint256",
          "name": "proposalId",
          "type": "uint256"
        },
        {
          "internalType": "uint256",
          "name": "votes",
          "type": "uint256"
        },
        {
          "internalType": "bool",
          "name": "support",
          "type": "bool"
        },
        {
          "internalType": "uint8",
          "name": "v",
          "type": "uint8"
        },
        {
          "internalType": "bytes32",
          "name": "r",
          "type": "bytes32"
        },
        {
          "internalType": "bytes32",
          "name": "s",
          "type": "bytes32"
        }
      ],
      "name": "castVoteBySig",
      "outputs": [],
      "payable": false,
      "stateMutability": "nonpayable",
      "type": "function"
    },
    {
      "constant": false,
      "inputs": [],
      "name": "__acceptAdmin",
      "outputs": [],
      "payable": false,
      "stateMutability": "nonpayable",
      "type": "function"
    },
    {
      "constant": false,
      "inputs": [],
      "name": "__abdicate",
      "outputs": [],
      "payable": false,
      "stateMutability": "nonpayable",
      "type": "function"
    },
    {
      "constant": false,
      "inputs": [
        {
          "internalType": "address",
          "name": "newPendingAdmin",
          "type": "address"
        },
        {
          "internalType": "uint256",
          "name": "eta",
          "type": "uint256"
        }
      ],
      "name": "__queueSetTimelockPendingAdmin",
      "outputs": [],
      "payable": false,
      "stateMutability": "nonpayable",
      "type": "function"
    },
    {
      "constant": false,
      "inputs": [
        {
          "internalType": "address",
          "name": "newPendingAdmin",
          "type": "address"
        },
        {
          "internalType": "uint256",
          "name": "eta",
          "type": "uint256"
        }
      ],
      "name": "__executeSetTimelockPendingAdmin",
      "outputs": [],
      "payable": false,
      "stateMutability": "nonpayable",
      "type": "function"
    }
  ],
  "bytecode": "0x60806040523480156200001157600080fd5b506040516200423f3803806200423f833981016040819052620000349162000079565b600180546001600160a01b039384166001600160a01b03199182161790915560028054929093169116179055620000e4565b80516200007381620000ca565b92915050565b600080604083850312156200008d57600080fd5b60006200009b858562000066565b9250506020620000ae8582860162000066565b9150509250929050565b60006001600160a01b03821662000073565b620000d581620000b8565b8114620000e157600080fd5b50565b61414b80620000f46000396000f3fe6080604052600436106101b75760003560e01c8063891682d2116100ec578063da95691a1161008a578063deaaa7cc11610064578063deaaa7cc1461049e578063e23a9a52146104b3578063f9000ba8146104e0578063fe0d94c114610500576101b7565b8063da95691a14610449578063ddf0b00914610469578063dea5344d14610489576101b7565b8063b58131b0116100c6578063b58131b0146103e8578063b9a61961146103fd578063d33219b414610412578063da35c66414610434576101b7565b8063891682d2146103885780638ccd78b1146103a857806391500671146103c8576101b7565b8063328dd9821161015957806340e58ee51161013357806340e58ee51461031c578063452a93201461033c578063760fbc131461035e5780637bdbe4d014610373576101b7565b8063328dd982146102aa5780633932abb1146102da5780633e4f49e6146102ef576101b7565b806317977c611161019557806317977c611461023e57806320606b701461025e57806321f43e421461027357806324bc1a6414610295576101b7565b8063013cf08b146101bc57806302a251a3146101fa57806306fdde031461021c575b600080fd5b3480156101c857600080fd5b506101dc6101d7366004612a67565b610513565b6040516101f199989796959493929190613e8b565b60405180910390f35b34801561020657600080fd5b5061020f610579565b6040516101f19190613b88565b34801561022857600080fd5b50610231610581565b6040516101f19190613c44565b34801561024a57600080fd5b5061020f6102593660046128aa565b6105ba565b34801561026a57600080fd5b5061020f6105cc565b34801561027f57600080fd5b5061029361028e3660046128d0565b6105e3565b005b3480156102a157600080fd5b5061020f610702565b3480156102b657600080fd5b506102ca6102c5366004612a67565b610712565b6040516101f19493929190613b3b565b3480156102e657600080fd5b5061020f6109ea565b3480156102fb57600080fd5b5061030f61030a366004612a67565b6109ef565b6040516101f19190613c36565b34801561032857600080fd5b50610293610337366004612a67565b610b97565b34801561034857600080fd5b50610351610e57565b6040516101f191906139e5565b34801561036a57600080fd5b50610293610e73565b34801561037f57600080fd5b5061020f610ed4565b34801561039457600080fd5b506102936103a33660046128aa565b610ed9565b3480156103b457600080fd5b506102936103c3366004612b02565b610f56565b3480156103d457600080fd5b506102936103e33660046128d0565b611123565b3480156103f457600080fd5b5061020f611212565b34801561040957600080fd5b50610293611221565b34801561041e57600080fd5b506104276112d9565b6040516101f19190613c28565b34801561044057600080fd5b5061020f6112f5565b34801561045557600080fd5b5061020f61046436600461290a565b6112fb565b34801561047557600080fd5b50610293610484366004612a67565b611770565b34801561049557600080fd5b50610427611a49565b3480156104aa57600080fd5b5061020f611a65565b3480156104bf57600080fd5b506104d36104ce366004612a85565b611a71565b6040516101f19190613dd5565b3480156104ec57600080fd5b506102936104fb366004612ab5565b611af2565b61029361050e366004612a67565b611afe565b6004602052600090815260409020805460018201546002830154600784015460088501546009860154600a870154600b90970154959673ffffffffffffffffffffffffffffffffffffffff90951695939492939192909160ff8082169161010090041689565b620151805b90565b6040518060400160405280601381526020017f5572757a20476f7665726e6f7220416c7068610000000000000000000000000081525081565b60056020526000908152604090205481565b6040516105d8906139da565b604051809103902081565b60025473ffffffffffffffffffffffffffffffffffffffff1633146106235760405162461bcd60e51b815260040161061a90613c95565b60405180910390fd5b6000805460405173ffffffffffffffffffffffffffffffffffffffff90911691630825f38f9183919061065a9087906020016139e5565b604051602081830303815290604052856040518563ffffffff1660e01b81526004016106899493929190613a0e565b600060405180830381600087803b1580156106a357600080fd5b505af11580156106b7573d6000803e3d6000fd5b505050506040513d6000823e601f3d9081017fffffffffffffffffffffffffffffffffffffffffffffffffffffffffffffffe01682016040526106fd9190810190612a32565b505050565b6b014adf4b7320334b9000000090565b606080606080600060046000878152602001908152602001600020905080600301816004018260050183600601838054806020026020016040519081016040528092919081815260200182805480156107a157602002820191906000526020600020905b815473ffffffffffffffffffffffffffffffffffffffff168152600190910190602001808311610776575b50505050509350828054806020026020016040519081016040528092919081815260200182805480156107f357602002820191906000526020600020905b8154815260200190600101908083116107df575b5050505050925081805480602002602001604051908101604052809291908181526020016000905b828210156108e45760008481526020908190208301805460408051601f60027fffffffffffffffffffffffffffffffffffffffffffffffffffffffffffffffff6101006001871615020190941693909304928301859004850281018501909152818152928301828280156108d05780601f106108a5576101008083540402835291602001916108d0565b820191906000526020600020905b8154815290600101906020018083116108b357829003601f168201915b50505050508152602001906001019061081b565b50505050915080805480602002602001604051908101604052809291908181526020016000905b828210156109d45760008481526020908190208301805460408051601f60027fffffffffffffffffffffffffffffffffffffffffffffffffffffffffffffffff6101006001871615020190941693909304928301859004850281018501909152818152928301828280156109c05780601f10610995576101008083540402835291602001916109c0565b820191906000526020600020905b8154815290600101906020018083116109a357829003601f168201915b50505050508152602001906001019061090b565b5050505090509450945094509450509193509193565b600190565b60008160035410158015610a035750600082115b610a1f5760405162461bcd60e51b815260040161061a90613ca5565b6000828152600460205260409020600b81015460ff1615610a44576002915050610b92565b80600701544311610a59576000915050610b92565b80600801544311610a6e576001915050610b92565b80600a01548160090154111580610a8f5750610a88610702565b8160090154105b15610a9e576003915050610b92565b6002810154610ab1576004915050610b92565b600b810154610100900460ff1615610acd576007915050610b92565b6002810154600054604080517fc1a287e20000000000000000000000000000000000000000000000000000000081529051610b7c939273ffffffffffffffffffffffffffffffffffffffff169163c1a287e2916004808301926020929190829003018186803b158015610b3f57600080fd5b505afa158015610b53573d6000803e3d6000fd5b505050506040513d601f19601f82011682018060405250610b779190810190612a14565b611d18565b4210610b8c576006915050610b92565b60059150505b919050565b6000610ba2826109ef565b90506007816007811115610bb257fe5b1415610bd05760405162461bcd60e51b815260040161061a90613d85565b600082815260046020526040902060025473ffffffffffffffffffffffffffffffffffffffff16331480610cba5750610c07611212565b600180548382015473ffffffffffffffffffffffffffffffffffffffff9182169263782d6fe19290911690610c3d904390611d44565b6040518363ffffffff1660e01b8152600401610c5a929190613a5d565b60206040518083038186803b158015610c7257600080fd5b505afa158015610c86573d6000803e3d6000fd5b505050506040513d601f19601f82011682018060405250610caa9190810190612b89565b6bffffffffffffffffffffffff16105b610cd65760405162461bcd60e51b815260040161061a90613d05565b600b810180547fffffffffffffffffffffffffffffffffffffffffffffffffffffffffffffff0016600117905560005b6003820154811015610e1a5760005460038301805473ffffffffffffffffffffffffffffffffffffffff9092169163591fcdfe919084908110610d4557fe5b60009182526020909120015460048501805473ffffffffffffffffffffffffffffffffffffffff9092169185908110610d7a57fe5b9060005260206000200154856005018581548110610d9457fe5b90600052602060002001866006018681548110610dad57fe5b9060005260206000200187600201546040518663ffffffff1660e01b8152600401610ddc959493929190613afa565b600060405180830381600087803b158015610df657600080fd5b505af1158015610e0a573d6000803e3d6000fd5b505060019092019150610d069050565b507f789cf55be980739dad1d0699b93b58e806b51c9d96619bfa8fe0a28abaa7b30c83604051610e4a9190613b88565b60405180910390a1505050565b60025473ffffffffffffffffffffffffffffffffffffffff1681565b60025473ffffffffffffffffffffffffffffffffffffffff163314610eaa5760405162461bcd60e51b815260040161061a90613db5565b600280547fffffffffffffffffffffffff0000000000000000000000000000000000000000169055565b600a90565b60005473ffffffffffffffffffffffffffffffffffffffff1615610f0f5760405162461bcd60e51b815260040161061a90613d65565b600080547fffffffffffffffffffffffff00000000000000000000000000000000000000001673ffffffffffffffffffffffffffffffffffffffff92909216919091179055565b6000604051610f64906139da565b60408051918290038220828201909152601382527f5572757a20476f7665726e6f7220416c706861000000000000000000000000006020909201919091527f0e6d426a1ce55b16a80ed736d9167b59b4532232344765bfbe853faee987adf1610fcb6109ea565b30604051602001610fdf9493929190613b96565b60405160208183030381529060405280519060200120905060006040516110059061399e565b604051908190038120611020918a908a908a90602001613bcb565b6040516020818303038152906040528051906020012090506000828260405160200161104d9291906139a9565b60405160208183030381529060405280519060200120905060006001828888886040516000815260200160405260405161108a9493929190613c00565b6020604051602081039080840390855afa1580156110ac573d6000803e3d6000fd5b50506040517fffffffffffffffffffffffffffffffffffffffffffffffffffffffffffffffe0015191505073ffffffffffffffffffffffffffffffffffffffff811661110a5760405162461bcd60e51b815260040161061a90613d45565b611116818b8b8b611d6c565b505050505b505050505050565b60025473ffffffffffffffffffffffffffffffffffffffff16331461115a5760405162461bcd60e51b815260040161061a90613cc5565b6000805460405173ffffffffffffffffffffffffffffffffffffffff90911691633a66f901918391906111919087906020016139e5565b604051602081830303815290604052856040518563ffffffff1660e01b81526004016111c09493929190613a0e565b602060405180830381600087803b1580156111da57600080fd5b505af11580156111ee573d6000803e3d6000fd5b505050506040513d601f19601f820116820180604052506106fd9190810190612a14565b6a52b7d2dcc80cd2e400000090565b60025473ffffffffffffffffffffffffffffffffffffffff1633146112585760405162461bcd60e51b815260040161061a90613c55565b60008054604080517f0e18b681000000000000000000000000000000000000000000000000000000008152905173ffffffffffffffffffffffffffffffffffffffff90921692630e18b6819260048084019382900301818387803b1580156112bf57600080fd5b505af11580156112d3573d6000803e3d6000fd5b50505050565b60005473ffffffffffffffffffffffffffffffffffffffff1681565b60035481565b6000611305611212565b6001805473ffffffffffffffffffffffffffffffffffffffff169063782d6fe1903390611333904390611d44565b6040518363ffffffff1660e01b81526004016113509291906139f3565b60206040518083038186803b15801561136857600080fd5b505afa15801561137c573d6000803e3d6000fd5b505050506040513d601f19601f820116820180604052506113a09190810190612b89565b6bffffffffffffffffffffffff16116113cb5760405162461bcd60e51b815260040161061a90613d35565b845186511480156113dd575083518651145b80156113ea575082518651145b6114065760405162461bcd60e51b815260040161061a90613cf5565b85516114245760405162461bcd60e51b815260040161061a90613d25565b61142c610ed4565b8651111561144c5760405162461bcd60e51b815260040161061a90613cd5565b3360009081526005602052604090205480156114c957600061146d826109ef565b9050600181600781111561147d57fe5b141561149b5760405162461bcd60e51b815260040161061a90613d75565b60008160078111156114a957fe5b14156114c75760405162461bcd60e51b815260040161061a90613cb5565b505b60006114d743610b776109ea565b905060006114e782610b77610579565b60038054600101905590506114fa6122aa565b604051806101a0016040528060035481526020013373ffffffffffffffffffffffffffffffffffffffff168152602001600081526020018b81526020018a815260200189815260200188815260200184815260200183815260200160008152602001600081526020016000151581526020016000151581525090508060046000836000015181526020019081526020016000206000820151816000015560208201518160010160006101000a81548173ffffffffffffffffffffffffffffffffffffffff021916908373ffffffffffffffffffffffffffffffffffffffff16021790555060408201518160020155606082015181600301908051906020019061160492919061232c565b50608082015180516116209160048401916020909101906123b6565b5060a0820151805161163c9160058401916020909101906123fd565b5060c08201518051611658916006840191602090910190612456565b5060e082015181600701556101008201518160080155610120820151816009015561014082015181600a015561016082015181600b0160006101000a81548160ff02191690831515021790555061018082015181600b0160016101000a81548160ff021916908315150217905550905050806000015160056000836020015173ffffffffffffffffffffffffffffffffffffffff1673ffffffffffffffffffffffffffffffffffffffff168152602001908152602001600020819055507f7d84a6263ae0d98d3329bd7b46bb4e8d6f98cd35a7adb45c274c8b7fd5ebd5e08160000151338c8c8c8c89898e60405161175899989796959493929190613de3565b60405180910390a15193505050505b95945050505050565b600461177b826109ef565b600781111561178657fe5b146117a35760405162461bcd60e51b815260040161061a90613c75565b6000818152600460208181526040808420845482517f6a42b8f8000000000000000000000000000000000000000000000000000000008152925191959461181e94429473ffffffffffffffffffffffffffffffffffffffff90931693636a42b8f8938084019390829003018186803b158015610b3f57600080fd5b905060005b6003830154811015611a0f57611a0783600301828154811061184157fe5b60009182526020909120015460048501805473ffffffffffffffffffffffffffffffffffffffff909216918490811061187657fe5b906000526020600020015485600501848154811061189057fe5b600091825260209182902001805460408051601f60027fffffffffffffffffffffffffffffffffffffffffffffffffffffffffffffffff61010060018716150201909416939093049283018590048502810185019091528181529283018282801561193c5780601f106119115761010080835404028352916020019161193c565b820191906000526020600020905b81548152906001019060200180831161191f57829003601f168201915b505050505086600601858154811061195057fe5b600091825260209182902001805460408051601f60027fffffffffffffffffffffffffffffffffffffffffffffffffffffffffffffffff6101006001871615020190941693909304928301859004850281018501909152818152928301828280156119fc5780601f106119d1576101008083540402835291602001916119fc565b820191906000526020600020905b8154815290600101906020018083116119df57829003601f168201915b505050505086612120565b600101611823565b50600282018190556040517f9a2e42fd6722813d69113e7d0079d3d940171428df7373df9c7f7617cfda289290610e4a9085908490613f11565b60015473ffffffffffffffffffffffffffffffffffffffff1681565b6040516105d89061399e565b611a796124af565b50600082815260046020908152604080832073ffffffffffffffffffffffffffffffffffffffff85168452600c018252918290208251606081018452905460ff80821615158352610100820416151592820192909252620100009091046bffffffffffffffffffffffff16918101919091525b92915050565b6106fd33848484611d6c565b6005611b09826109ef565b6007811115611b1457fe5b14611b315760405162461bcd60e51b815260040161061a90613c85565b6000818152600460205260408120600b810180547fffffffffffffffffffffffffffffffffffffffffffffffffffffffffffff00ff16610100179055905b6003820154811015611cdc5760005460048301805473ffffffffffffffffffffffffffffffffffffffff90921691630825f38f919084908110611bae57fe5b9060005260206000200154846003018481548110611bc857fe5b60009182526020909120015460048601805473ffffffffffffffffffffffffffffffffffffffff9092169186908110611bfd57fe5b9060005260206000200154866005018681548110611c1757fe5b90600052602060002001876006018781548110611c3057fe5b9060005260206000200188600201546040518763ffffffff1660e01b8152600401611c5f959493929190613afa565b6000604051808303818588803b158015611c7857600080fd5b505af1158015611c8c573d6000803e3d6000fd5b50505050506040513d6000823e601f3d9081017fffffffffffffffffffffffffffffffffffffffffffffffffffffffffffffffe0168201604052611cd39190810190612a32565b50600101611b6f565b507f712ae1383f79ac853f8d882153778e0260ef8f03b504e2866e0593e04d2b291f82604051611d0c9190613b88565b60405180910390a15050565b600082820183811015611d3d5760405162461bcd60e51b815260040161061a90613ce5565b9392505050565b600082821115611d665760405162461bcd60e51b815260040161061a90613da5565b50900390565b6001611d77846109ef565b6007811115611d8257fe5b14611d9f5760405162461bcd60e51b815260040161061a90613d95565b600083815260046020908152604080832073ffffffffffffffffffffffffffffffffffffffff88168452600c8101909252909120805460ff161580611df15750805460ff610100909104161515831515145b611e0d5760405162461bcd60e51b815260040161061a90613d55565b60015460078301546040517f782d6fe100000000000000000000000000000000000000000000000000000000815273ffffffffffffffffffffffffffffffffffffffff9092169163782d6fe191611e69918a9190600401613a5d565b60206040518083038186803b158015611e8157600080fd5b505afa158015611e95573d6000803e3d6000fd5b505050506040513d601f19601f82011682018060405250611eb99190810190612b89565b6bffffffffffffffffffffffff16841115611ee65760405162461bcd60e51b815260040161061a90613dc5565b8215611f0457611efa826009015485611d18565b6009830155611f18565b611f1282600a015485611d18565b600a8301555b6001546040517f35c8792000000000000000000000000000000000000000000000000000000000815273ffffffffffffffffffffffffffffffffffffffff909116906335c8792090611f74908990899088908a90600401613a6b565b602060405180830381600087803b158015611f8e57600080fd5b505af1158015611fa2573d6000803e3d6000fd5b505050506040513d601f19601f82011682018060405250611fc691908101906129f6565b611fe25760405162461bcd60e51b815260040161061a90613c65565b805460017fffffffffffffffffffffffffffffffffffffffffffffffffffffffffffffff00909116177fffffffffffffffffffffffffffffffffffffffffffffffffffffffffffff00ff166101008415150217808255600090612059906201000090046bffffffffffffffffffffffff1686611d18565b82547fffffffffffffffffffffffffffffffffffff000000000000000000000000ffff16620100006bffffffffffffffffffffffff8316021783556040519091507f877856338e13f63d0c36822ff0ef736b80934cd90574a3a5bc9262c39d217c46906120cd908990899088908690613a6b565b60405180910390a16009830154600a8401546040517fe32c51e897b5cc1f76b70ca3a38b30484ed6b43e030d9bc62abbf3556032d8fc9261210f928a92613f1f565b60405180910390a150505050505050565b60005460405173ffffffffffffffffffffffffffffffffffffffff9091169063f2b065379061215b9088908890889088908890602001613aa0565b604051602081830303815290604052805190602001206040518263ffffffff1660e01b815260040161218d9190613b88565b60206040518083038186803b1580156121a557600080fd5b505afa1580156121b9573d6000803e3d6000fd5b505050506040513d601f19601f820116820180604052506121dd91908101906129f6565b156121fa5760405162461bcd60e51b815260040161061a90613d15565b6000546040517f3a66f90100000000000000000000000000000000000000000000000000000000815273ffffffffffffffffffffffffffffffffffffffff90911690633a66f901906122589088908890889088908890600401613aa0565b602060405180830381600087803b15801561227257600080fd5b505af1158015612286573d6000803e3d6000fd5b505050506040513d601f19601f8201168201806040525061111b9190810190612a14565b604051806101a0016040528060008152602001600073ffffffffffffffffffffffffffffffffffffffff1681526020016000815260200160608152602001606081526020016060815260200160608152602001600081526020016000815260200160008152602001600081526020016000151581526020016000151581525090565b8280548282559060005260206000209081019282156123a6579160200282015b828111156123a657825182547fffffffffffffffffffffffff00000000000000000000000000000000000000001673ffffffffffffffffffffffffffffffffffffffff90911617825560209092019160019091019061234c565b506123b29291506124cf565b5090565b8280548282559060005260206000209081019282156123f1579160200282015b828111156123f15782518255916020019190600101906123d6565b506123b292915061250b565b82805482825590600052602060002090810192821561244a579160200282015b8281111561244a578251805161243a918491602090910190612525565b509160200191906001019061241d565b506123b2929150612592565b8280548282559060005260206000209081019282156124a3579160200282015b828111156124a35782518051612493918491602090910190612525565b5091602001919060010190612476565b506123b29291506125b5565b604080516060810182526000808252602082018190529181019190915290565b61057e91905b808211156123b25780547fffffffffffffffffffffffff00000000000000000000000000000000000000001681556001016124d5565b61057e91905b808211156123b25760008155600101612511565b828054600181600116156101000203166002900490600052602060002090601f016020900481019282601f1061256657805160ff19168380011785556123f1565b828001600101855582156123f157918201828111156123f15782518255916020019190600101906123d6565b61057e91905b808211156123b25760006125ac82826125d8565b50600101612598565b61057e91905b808211156123b25760006125cf82826125d8565b506001016125bb565b50805460018160011615610100020316600290046000825580601f106125fe575061261c565b601f01602090049060005260206000209081019061261c919061250b565b50565b8035611aec816140d0565b600082601f83011261263b57600080fd5b813561264e61264982613f6e565b613f47565b9150818183526020840193506020810190508385602084028201111561267357600080fd5b60005b8381101561269f5781612689888261261f565b8452506020928301929190910190600101612676565b5050505092915050565b600082601f8301126126ba57600080fd5b81356126c861264982613f6e565b81815260209384019390925082018360005b8381101561269f57813586016126f088826127ff565b84525060209283019291909101906001016126da565b600082601f83011261271757600080fd5b813561272561264982613f6e565b81815260209384019390925082018360005b8381101561269f578135860161274d88826127ff565b8452506020928301929190910190600101612737565b600082601f83011261277457600080fd5b813561278261264982613f6e565b915081818352602084019350602081019050838560208402820111156127a757600080fd5b60005b8381101561269f57816127bd88826127e9565b84525060209283019291909101906001016127aa565b8035611aec816140e4565b8051611aec816140e4565b8035611aec816140ed565b8051611aec816140ed565b600082601f83011261281057600080fd5b813561281e61264982613f8f565b9150808252602083016020830185838301111561283a57600080fd5b612845838284614066565b50505092915050565b600082601f83011261285f57600080fd5b815161286d61264982613f8f565b9150808252602083016020830185838301111561288957600080fd5b612845838284614072565b8035611aec816140f6565b8051611aec816140ff565b6000602082840312156128bc57600080fd5b60006128c8848461261f565b949350505050565b600080604083850312156128e357600080fd5b60006128ef858561261f565b9250506020612900858286016127e9565b9150509250929050565b600080600080600060a0868803121561292257600080fd5b853567ffffffffffffffff81111561293957600080fd5b6129458882890161262a565b955050602086013567ffffffffffffffff81111561296257600080fd5b61296e88828901612763565b945050604086013567ffffffffffffffff81111561298b57600080fd5b61299788828901612706565b935050606086013567ffffffffffffffff8111156129b457600080fd5b6129c0888289016126a9565b925050608086013567ffffffffffffffff8111156129dd57600080fd5b6129e9888289016127ff565b9150509295509295909350565b600060208284031215612a0857600080fd5b60006128c884846127de565b600060208284031215612a2657600080fd5b60006128c884846127f4565b600060208284031215612a4457600080fd5b815167ffffffffffffffff811115612a5b57600080fd5b6128c88482850161284e565b600060208284031215612a7957600080fd5b60006128c884846127e9565b60008060408385031215612a9857600080fd5b6000612aa485856127e9565b92505060206129008582860161261f565b600080600060608486031215612aca57600080fd5b6000612ad686866127e9565b9350506020612ae7868287016127e9565b9250506040612af8868287016127d3565b9150509250925092565b60008060008060008060c08789031215612b1b57600080fd5b6000612b2789896127e9565b9650506020612b3889828a016127e9565b9550506040612b4989828a016127d3565b9450506060612b5a89828a01612894565b9350506080612b6b89828a016127e9565b92505060a0612b7c89828a016127e9565b9150509295509295509295565b600060208284031215612b9b57600080fd5b60006128c8848461289f565b6000612bb38383612be2565b505060200190565b6000611d3d8383612d84565b6000612bb38383612d6a565b612bdc8161403e565b82525050565b612bdc81613ff4565b6000612bf682613fe7565b612c008185613feb565b9350612c0b83613fd5565b8060005b83811015612c39578151612c238882612ba7565b9750612c2e83613fd5565b925050600101612c0f565b509495945050505050565b6000612c4f82613fe7565b612c598185613feb565b935083602082028501612c6b85613fd5565b8060005b85811015612ca55784840389528151612c888582612bbb565b9450612c9383613fd5565b60209a909a0199925050600101612c6f565b5091979650505050505050565b6000612cbd82613fe7565b612cc78185613feb565b935083602082028501612cd985613fd5565b8060005b85811015612ca55784840389528151612cf68582612bbb565b9450612d0183613fd5565b60209a909a0199925050600101612cdd565b6000612d1e82613fe7565b612d288185613feb565b9350612d3383613fd5565b8060005b83811015612c39578151612d4b8882612bc7565b9750612d5683613fd5565b925050600101612d37565b612bdc81613fff565b612bdc8161057e565b612bdc612d7f8261057e565b61057e565b6000612d8f82613fe7565b612d998185613feb565b9350612da9818560208601614072565b612db28161409e565b9093019392505050565b600081546001811660008114612dd95760018114612e1d57612e5c565b607f6002830416612dea8187613feb565b7fffffffffffffffffffffffffffffffffffffffffffffffffffffffffffffff0084168152955050602085019250612e5c565b60028204612e2b8187613feb565b9550612e3685613fdb565b60005b82811015612e5557815488820152600190910190602001612e39565b8701945050505b505092915050565b612bdc81614045565b612bdc81614050565b612bdc8161405b565b6000612e8c603983613feb565b7f476f7665726e6f72416c7068613a3a5f5f61636365707441646d696e3a20736581527f6e646572206d75737420626520676f7620677561726469616e00000000000000602082015260400192915050565b6000612eeb601383613feb565b7f7775727a20766f746520657863657074696f6e00000000000000000000000000815260200192915050565b6000612f24604483613feb565b7f476f7665726e6f72416c7068613a3a71756575653a2070726f706f73616c206381527f616e206f6e6c792062652071756575656420696620697420697320737563636560208201527f6564656400000000000000000000000000000000000000000000000000000000604082015260600192915050565b6000612fa9604583613feb565b7f476f7665726e6f72416c7068613a3a657865637574653a2070726f706f73616c81527f2063616e206f6e6c79206265206578656375746564206966206974206973207160208201527f7565756564000000000000000000000000000000000000000000000000000000604082015260600192915050565b600061302e603583610b92565b7f42616c6c6f742875696e743235362070726f706f73616c49642c75696e74323581527f3620766f7465732c626f6f6c20737570706f7274290000000000000000000000602082015260350192915050565b600061308d600283610b92565b7f1901000000000000000000000000000000000000000000000000000000000000815260020192915050565b60006130c6604c83613feb565b7f476f7665726e6f72416c7068613a3a5f5f6578656375746553657454696d656c81527f6f636b50656e64696e6741646d696e3a2073656e646572206d7573742062652060208201527f676f7620677561726469616e0000000000000000000000000000000000000000604082015260600192915050565b600061314b601883613feb565b7f73657450656e64696e6741646d696e2861646472657373290000000000000000815260200192915050565b6000613184602983613feb565b7f476f7665726e6f72416c7068613a3a73746174653a20696e76616c696420707281527f6f706f73616c2069640000000000000000000000000000000000000000000000602082015260400192915050565b60006131e3605983613feb565b7f476f7665726e6f72416c7068613a3a70726f706f73653a206f6e65206c69766581527f2070726f706f73616c207065722070726f706f7365722c20666f756e6420616e60208201527f20616c72656164792070656e64696e672070726f706f73616c00000000000000604082015260600192915050565b6000613268604a83613feb565b7f476f7665726e6f72416c7068613a3a5f5f717565756553657454696d656c6f6381527f6b50656e64696e6741646d696e3a2073656e646572206d75737420626520676f60208201527f7620677561726469616e00000000000000000000000000000000000000000000604082015260600192915050565b60006132ed602883613feb565b7f476f7665726e6f72416c7068613a3a70726f706f73653a20746f6f206d616e7981527f20616374696f6e73000000000000000000000000000000000000000000000000602082015260400192915050565b600061334c601183613feb565b7f6164646974696f6e206f766572666c6f77000000000000000000000000000000815260200192915050565b6000613385604383610b92565b7f454950373132446f6d61696e28737472696e67206e616d652c75696e7432353681527f20636861696e49642c6164647265737320766572696679696e67436f6e74726160208201527f6374290000000000000000000000000000000000000000000000000000000000604082015260430192915050565b600061340a604483613feb565b7f476f7665726e6f72416c7068613a3a70726f706f73653a2070726f706f73616c81527f2066756e6374696f6e20696e666f726d6174696f6e206172697479206d69736d60208201527f6174636800000000000000000000000000000000000000000000000000000000604082015260600192915050565b600061348f602f83613feb565b7f476f7665726e6f72416c7068613a3a63616e63656c3a2070726f706f7365722081527f61626f7665207468726573686f6c640000000000000000000000000000000000602082015260400192915050565b60006134ee604483613feb565b7f476f7665726e6f72416c7068613a3a5f71756575654f725265766572743a207081527f726f706f73616c20616374696f6e20616c72656164792071756575656420617460208201527f2065746100000000000000000000000000000000000000000000000000000000604082015260600192915050565b6000613573602c83613feb565b7f476f7665726e6f72416c7068613a3a70726f706f73653a206d7573742070726f81527f7669646520616374696f6e730000000000000000000000000000000000000000602082015260400192915050565b60006135d2603f83613feb565b7f476f7665726e6f72416c7068613a3a70726f706f73653a2070726f706f73657281527f20766f7465732062656c6f772070726f706f73616c207468726573686f6c6400602082015260400192915050565b6000613631602f83613feb565b7f476f7665726e6f72416c7068613a3a63617374566f746542795369673a20696e81527f76616c6964207369676e61747572650000000000000000000000000000000000602082015260400192915050565b6000613690602c83613feb565b7f476f7665726e6f72416c7068613a3a5f63617374566f74653a2077726f6e672081527f766f746572207374617475730000000000000000000000000000000000000000602082015260400192915050565b60006136ef601883613feb565b7f616c72656164792074696d656c6f636b20686173207365740000000000000000815260200192915050565b6000613728605883613feb565b7f476f7665726e6f72416c7068613a3a70726f706f73653a206f6e65206c69766581527f2070726f706f73616c207065722070726f706f7365722c20666f756e6420616e60208201527f20616c7265616479206163746976652070726f706f73616c0000000000000000604082015260600192915050565b60006137ad603683613feb565b7f476f7665726e6f72416c7068613a3a63616e63656c3a2063616e6e6f7420636181527f6e63656c2065786563757465642070726f706f73616c00000000000000000000602082015260400192915050565b600061380c602a83613feb565b7f476f7665726e6f72416c7068613a3a5f63617374566f74653a20766f74696e6781527f20697320636c6f73656400000000000000000000000000000000000000000000602082015260400192915050565b600061386b601583613feb565b7f7375627472616374696f6e20756e646572666c6f770000000000000000000000815260200192915050565b60006138a4603683613feb565b7f476f7665726e6f72416c7068613a3a5f5f61626469636174653a2073656e646581527f72206d75737420626520676f7620677561726469616e00000000000000000000602082015260400192915050565b6000613903602d83613feb565b7f476f7665726e6f72416c7068613a3a5f63617374566f74653a2073686f72742081527f6f6620766f746520706f77657200000000000000000000000000000000000000602082015260400192915050565b805160608301906139668482612d61565b5060208201516139796020850182612d61565b5060408201516112d36040850182613995565b612bdc81614027565b612bdc8161402d565b6000611aec82613021565b60006139b482613080565b91506139c08285612d73565b6020820191506139d08284612d73565b5060200192915050565b6000611aec82613378565b60208101611aec8284612be2565b60408101613a018285612bd3565b611d3d6020830184612d6a565b60a08101613a1c8287612be2565b613a296020830186612e76565b8181036040830152613a3a8161313e565b90508181036060830152613a4e8185612d84565b90506117676080830184612d6a565b60408101613a018285612be2565b60808101613a798287612be2565b613a866020830186612d6a565b613a936040830185612d61565b6117676060830184612d6a565b60a08101613aae8288612be2565b613abb6020830187612d6a565b8181036040830152613acd8186612d84565b90508181036060830152613ae18185612d84565b9050613af06080830184612d6a565b9695505050505050565b60a08101613b088288612be2565b613b156020830187612d6a565b8181036040830152613b278186612dbc565b90508181036060830152613ae18185612dbc565b60808082528101613b4c8187612beb565b90508181036020830152613b608186612d13565b90508181036040830152613b748185612cb2565b90508181036060830152613af08184612c44565b60208101611aec8284612d6a565b60808101613ba48287612d6a565b613bb16020830186612d6a565b613bbe6040830185612d6a565b6117676060830184612be2565b60808101613bd98287612d6a565b613be66020830186612d6a565b613bf36040830185612d6a565b6117676060830184612d61565b60808101613c0e8287612d6a565b613c1b602083018661398c565b613a936040830185612d6a565b60208101611aec8284612e64565b60208101611aec8284612e6d565b60208082528101611d3d8184612d84565b60208082528101611aec81612e7f565b60208082528101611aec81612ede565b60208082528101611aec81612f17565b60208082528101611aec81612f9c565b60208082528101611aec816130b9565b60208082528101611aec81613177565b60208082528101611aec816131d6565b60208082528101611aec8161325b565b60208082528101611aec816132e0565b60208082528101611aec8161333f565b60208082528101611aec816133fd565b60208082528101611aec81613482565b60208082528101611aec816134e1565b60208082528101611aec81613566565b60208082528101611aec816135c5565b60208082528101611aec81613624565b60208082528101611aec81613683565b60208082528101611aec816136e2565b60208082528101611aec8161371b565b60208082528101611aec816137a0565b60208082528101611aec816137ff565b60208082528101611aec8161385e565b60208082528101611aec81613897565b60208082528101611aec816138f6565b60608101611aec8284613955565b6101208101613df2828c612d6a565b613dff602083018b612bd3565b8181036040830152613e11818a612beb565b90508181036060830152613e258189612d13565b90508181036080830152613e398188612cb2565b905081810360a0830152613e4d8187612c44565b9050613e5c60c0830186612d6a565b613e6960e0830185612d6a565b818103610100830152613e7c8184612d84565b9b9a5050505050505050505050565b6101208101613e9a828c612d6a565b613ea7602083018b612be2565b613eb4604083018a612d6a565b613ec16060830189612d6a565b613ece6080830188612d6a565b613edb60a0830187612d6a565b613ee860c0830186612d6a565b613ef560e0830185612d61565b613f03610100830184612d61565b9a9950505050505050505050565b60408101613a018285612d6a565b60608101613f2d8286612d6a565b613f3a6020830185612d6a565b6128c86040830184612d6a565b60405181810167ffffffffffffffff81118282101715613f6657600080fd5b604052919050565b600067ffffffffffffffff821115613f8557600080fd5b5060209081020190565b600067ffffffffffffffff821115613fa657600080fd5b506020601f919091017fffffffffffffffffffffffffffffffffffffffffffffffffffffffffffffffe0160190565b60200190565b60009081526020902090565b5190565b90815260200190565b6000611aec8261400e565b151590565b80610b92816140c6565b73ffffffffffffffffffffffffffffffffffffffff1690565b60ff1690565b6bffffffffffffffffffffffff1690565b6000611aec825b6000611aec82613ff4565b6000611aec82614004565b6000611aec8261057e565b82818337506000910152565b60005b8381101561408d578181015183820152602001614075565b838111156112d35750506000910152565b601f017fffffffffffffffffffffffffffffffffffffffffffffffffffffffffffffffe01690565b6008811061261c57fe5b6140d981613ff4565b811461261c57600080fd5b6140d981613fff565b6140d98161057e565b6140d981614027565b6140d98161402d56fea365627a7a7231582000f5ff0da2d2c38a09b84587d278c3ae0df5db0c843e7170004ed202f6a553096c6578706572696d656e74616cf564736f6c634300050c0040",
  "source": "pragma solidity ^0.5.12;\npragma experimental ABIEncoderV2;\n\ncontract GovernorAlpha {\n    /// @notice The name of this contract\n    string public constant name = \"Uruz Governor Alpha\";\n\n    /// @notice The number of votes in support of a proposal required in order for a quorum to be reached and for a vote to succeed\n    function quorumVotes() public pure returns (uint) {return 400000000e18;} // 400,000,000 = 4% of URZ(10,000,000,000)\n\n    /// @notice The number of votes required in order for a voter to become a proposer\n    function proposalThreshold() public pure returns (uint) {return 100000000e18;} // 100,000,000 = 1% of URZ(10,000,000,000)\n\n    /// @notice The maximum number of actions that can be included in a proposal\n    function proposalMaxOperations() public pure returns (uint) { return 10; } // 10 actions\n\n    /// @notice The delay before voting on a proposal may take place, once proposed\n    function votingDelay() public pure returns (uint) { return 1; } // 1 block\n\n    /// @notice The duration of voting on a proposal, in blocks\n    function votingPeriod() public pure returns (uint) {return 86400;} // ~3 days in blocks (assuming 3s blocks)\n\n    /// @notice The address of the Compound Protocol Timelock\n    TimelockInterface public timelock;\n\n    /// @notice The address of the Compound governance token\n    WURZInterface public wurz;\n\n    /// @notice The address of the Governor Guardian\n    address public guardian;\n\n    /// @notice The total number of proposals\n    uint public proposalCount;\n\n    struct Proposal {\n        /// @notice Unique id for looking up a proposal\n        uint id;\n\n        /// @notice Creator of the proposal\n        address proposer;\n\n        /// @notice The timestamp that the proposal will be available for execution, set once the vote succeeds\n        uint eta;\n\n        /// @notice the ordered list of target addresses for calls to be made\n        address[] targets;\n\n        /// @notice The ordered list of values (i.e. msg.value) to be passed to the calls to be made\n        uint[] values;\n\n        /// @notice The ordered list of function signatures to be called\n        string[] signatures;\n\n        /// @notice The ordered list of calldata to be passed to each call\n        bytes[] calldatas;\n\n        /// @notice The block at which voting begins: holders must delegate their votes prior to this block\n        uint startBlock;\n\n        /// @notice The block at which voting ends: votes must be cast prior to this block\n        uint endBlock;\n\n        /// @notice Current number of votes in favor of this proposal\n        uint forVotes;\n\n        /// @notice Current number of votes in opposition to this proposal\n        uint againstVotes;\n\n        /// @notice Flag marking whether the proposal has been canceled\n        bool canceled;\n\n        /// @notice Flag marking whether the proposal has been executed\n        bool executed;\n\n        /// @notice Receipts of ballots for the entire set of voters\n        mapping (address => Receipt) receipts;\n    }\n\n    /// @notice Ballot receipt record for a voter\n    struct Receipt {\n        /// @notice Whether or not a vote has been cast\n        bool hasVoted;\n\n        /// @notice Whether or not the voter supports the proposal\n        bool support;\n\n        /// @notice The number of votes the voter had, which were cast\n        uint96 votes;\n    }\n\n    /// @notice Possible states that a proposal may be in\n    enum ProposalState {\n        Pending,\n        Active,\n        Canceled,\n        Defeated,\n        Succeeded,\n        Queued,\n        Expired,\n        Executed\n    }\n\n    /// @notice The official record of all proposals ever proposed\n    mapping (uint => Proposal) public proposals;\n\n    /// @notice The latest proposal for each proposer\n    mapping (address => uint) public latestProposalIds;\n\n    /// @notice The EIP-712 typehash for the contract's domain\n    bytes32 public constant DOMAIN_TYPEHASH = keccak256(\"EIP712Domain(string name,uint256 chainId,address verifyingContract)\");\n\n    /// @notice The EIP-712 typehash for the ballot struct used by the contract\n    bytes32 public constant BALLOT_TYPEHASH = keccak256(\"Ballot(uint256 proposalId,uint256 votes,bool support)\");\n\n    /// @notice An event emitted when a new proposal is created\n    event ProposalCreated(uint id, address proposer, address[] targets, uint[] values, string[] signatures, bytes[] calldatas, uint startBlock, uint endBlock, string description);\n\n    /// @notice An event emitted when a vote has been cast on a proposal\n    event VoteCast(address voter, uint proposalId, bool support, uint votes);\n\n    event ProposalSnapshot(uint proposalId, uint forVotes, uint againstVotes);\n\n    /// @notice An event emitted when a proposal has been canceled\n    event ProposalCanceled(uint id);\n\n    /// @notice An event emitted when a proposal has been queued in the Timelock\n    event ProposalQueued(uint id, uint eta);\n\n    /// @notice An event emitted when a proposal has been executed in the Timelock\n    event ProposalExecuted(uint id);\n\n    constructor(address wurz_, address guardian_) public {\n        wurz = WURZInterface(wurz_);\n        guardian = guardian_;\n    }\n\n//    constructor(address timelock_, address comp_, address guardian_) public {\n//        timelock = TimelockInterface(timelock_);\n//        comp = CompInterface(comp_);\n//        guardian = guardian_;\n//    }\n    function setTimeLock(address timelock_) public {\n        require(timelock==TimelockInterface(address(0)),\"already timelock has set\" );\n        timelock =TimelockInterface(timelock_);\n    }\n\n    function propose(address[] memory targets, uint[] memory values, string[] memory signatures, bytes[] memory calldatas, string memory description) public returns (uint) {\n        require(wurz.getPriorVotes(msg.sender, sub256(block.number, 1)) > proposalThreshold(), \"GovernorAlpha::propose: proposer votes below proposal threshold\");\n        require(targets.length == values.length && targets.length == signatures.length && targets.length == calldatas.length, \"GovernorAlpha::propose: proposal function information arity mismatch\");\n        require(targets.length != 0, \"GovernorAlpha::propose: must provide actions\");\n        require(targets.length <= proposalMaxOperations(), \"GovernorAlpha::propose: too many actions\");\n\n        uint latestProposalId = latestProposalIds[msg.sender];\n        if (latestProposalId != 0) {\n          ProposalState proposersLatestProposalState = state(latestProposalId);\n          require(proposersLatestProposalState != ProposalState.Active, \"GovernorAlpha::propose: one live proposal per proposer, found an already active proposal\");\n          require(proposersLatestProposalState != ProposalState.Pending, \"GovernorAlpha::propose: one live proposal per proposer, found an already pending proposal\");\n        }\n\n        uint startBlock = add256(block.number, votingDelay());\n        uint endBlock = add256(startBlock, votingPeriod());\n\n        proposalCount++;\n        Proposal memory newProposal = Proposal({\n            id: proposalCount,\n            proposer: msg.sender,\n            eta: 0,\n            targets: targets,\n            values: values,\n            signatures: signatures,\n            calldatas: calldatas,\n            startBlock: startBlock,\n            endBlock: endBlock,\n            forVotes: 0,\n            againstVotes: 0,\n            canceled: false,\n            executed: false\n        });\n\n        proposals[newProposal.id] = newProposal;\n        latestProposalIds[newProposal.proposer] = newProposal.id;\n\n        emit ProposalCreated(newProposal.id, msg.sender, targets, values, signatures, calldatas, startBlock, endBlock, description);\n        return newProposal.id;\n    }\n\n    function queue(uint proposalId) public {\n        require(state(proposalId) == ProposalState.Succeeded, \"GovernorAlpha::queue: proposal can only be queued if it is succeeded\");\n        Proposal storage proposal = proposals[proposalId];\n        uint eta = add256(block.timestamp, timelock.delay());\n        for (uint i = 0; i < proposal.targets.length; i++) {\n            _queueOrRevert(proposal.targets[i], proposal.values[i], proposal.signatures[i], proposal.calldatas[i], eta);\n        }\n        proposal.eta = eta;\n        emit ProposalQueued(proposalId, eta);\n    }\n\n    function _queueOrRevert(address target, uint value, string memory signature, bytes memory data, uint eta) internal {\n        require(!timelock.queuedTransactions(keccak256(abi.encode(target, value, signature, data, eta))), \"GovernorAlpha::_queueOrRevert: proposal action already queued at eta\");\n        timelock.queueTransaction(target, value, signature, data, eta);\n    }\n\n    function execute(uint proposalId) public payable {\n        require(state(proposalId) == ProposalState.Queued, \"GovernorAlpha::execute: proposal can only be executed if it is queued\");\n        Proposal storage proposal = proposals[proposalId];\n        proposal.executed = true;\n        for (uint i = 0; i < proposal.targets.length; i++) {\n            timelock.executeTransaction.value(proposal.values[i])(proposal.targets[i], proposal.values[i], proposal.signatures[i], proposal.calldatas[i], proposal.eta);\n        }\n        emit ProposalExecuted(proposalId);\n    }\n\n    function cancel(uint proposalId) public {\n        ProposalState state = state(proposalId);\n        require(state != ProposalState.Executed, \"GovernorAlpha::cancel: cannot cancel executed proposal\");\n\n        Proposal storage proposal = proposals[proposalId];\n        require(msg.sender == guardian || wurz.getPriorVotes(proposal.proposer, sub256(block.number, 1)) < proposalThreshold(), \"GovernorAlpha::cancel: proposer above threshold\");\n\n        proposal.canceled = true;\n        for (uint i = 0; i < proposal.targets.length; i++) {\n            timelock.cancelTransaction(proposal.targets[i], proposal.values[i], proposal.signatures[i], proposal.calldatas[i], proposal.eta);\n        }\n\n        emit ProposalCanceled(proposalId);\n    }\n\n    function getActions(uint proposalId) public view returns (address[] memory targets, uint[] memory values, string[] memory signatures, bytes[] memory calldatas) {\n        Proposal storage p = proposals[proposalId];\n        return (p.targets, p.values, p.signatures, p.calldatas);\n    }\n\n    function getReceipt(uint proposalId, address voter) public view returns (Receipt memory) {\n        return proposals[proposalId].receipts[voter];\n    }\n\n    function state(uint proposalId) public view returns (ProposalState) {\n        require(proposalCount >= proposalId && proposalId > 0, \"GovernorAlpha::state: invalid proposal id\");\n        Proposal storage proposal = proposals[proposalId];\n        if (proposal.canceled) {\n            return ProposalState.Canceled;\n        } else if (block.number <= proposal.startBlock) {\n            return ProposalState.Pending;\n        } else if (block.number <= proposal.endBlock) {\n            return ProposalState.Active;\n        } else if (proposal.forVotes <= proposal.againstVotes || proposal.forVotes < quorumVotes()) {\n            return ProposalState.Defeated;\n        } else if (proposal.eta == 0) {\n            return ProposalState.Succeeded;\n        } else if (proposal.executed) {\n            return ProposalState.Executed;\n        } else if (block.timestamp >= add256(proposal.eta, timelock.GRACE_PERIOD())) {\n            return ProposalState.Expired;\n        } else {\n            return ProposalState.Queued;\n        }\n    }\n\n    function castVote(uint proposalId, uint votes, bool support) public {\n        return _castVote(msg.sender, proposalId, votes, support);\n    }\n\n    function castVoteBySig(uint proposalId, uint votes, bool support, uint8 v, bytes32 r, bytes32 s) public {\n        bytes32 domainSeparator = keccak256(abi.encode(DOMAIN_TYPEHASH, keccak256(bytes(name)), getChainId(), address(this)));\n        bytes32 structHash = keccak256(abi.encode(BALLOT_TYPEHASH, proposalId, votes, support));\n        bytes32 digest = keccak256(abi.encodePacked(\"\\x19\\x01\", domainSeparator, structHash));\n        address signatory = ecrecover(digest, v, r, s);\n        require(signatory != address(0), \"GovernorAlpha::castVoteBySig: invalid signature\");\n        return _castVote(signatory, proposalId, votes, support);\n    }\n\n    function _castVote(address voter, uint proposalId, uint votes, bool support) internal {\n        require(state(proposalId) == ProposalState.Active, \"GovernorAlpha::_castVote: voting is closed\");\n        Proposal storage proposal = proposals[proposalId];\n        Receipt storage receipt = proposal.receipts[voter];\n        require(receipt.hasVoted == false || receipt.support == support, \"GovernorAlpha::_castVote: wrong voter status\");\n        //uint96 votes = wurz.getPriorVotes(voter, proposal.startBlock);\n        require(votes <= wurz.getPriorVotes(voter, proposal.startBlock), \"GovernorAlpha::_castVote: short of vote power\");\n        if (support) {\n            proposal.forVotes = add256(proposal.forVotes, votes);\n        } else {\n            proposal.againstVotes = add256(proposal.againstVotes, votes);\n        }\n        // burn \n        require(wurz.voteFresh(voter, proposalId, support, votes), \"wurz vote exception\");\n        receipt.hasVoted = true;\n        receipt.support = support;\n        uint _votes = add256(receipt.votes, votes);\n        receipt.votes = uint96(_votes);\n\n        emit VoteCast(voter, proposalId, support, _votes);\n        emit ProposalSnapshot(proposalId, proposal.forVotes, proposal.againstVotes);\n    }\n\n    function __acceptAdmin() public {\n        require(msg.sender == guardian, \"GovernorAlpha::__acceptAdmin: sender must be gov guardian\");\n        timelock.acceptAdmin();\n    }\n\n    function __abdicate() public {\n        require(msg.sender == guardian, \"GovernorAlpha::__abdicate: sender must be gov guardian\");\n        guardian = address(0);\n    }\n\n    function __queueSetTimelockPendingAdmin(address newPendingAdmin, uint eta) public {\n        require(msg.sender == guardian, \"GovernorAlpha::__queueSetTimelockPendingAdmin: sender must be gov guardian\");\n        timelock.queueTransaction(address(timelock), 0, \"setPendingAdmin(address)\", abi.encode(newPendingAdmin), eta);\n    }\n\n    function __executeSetTimelockPendingAdmin(address newPendingAdmin, uint eta) public {\n        require(msg.sender == guardian, \"GovernorAlpha::__executeSetTimelockPendingAdmin: sender must be gov guardian\");\n        timelock.executeTransaction(address(timelock), 0, \"setPendingAdmin(address)\", abi.encode(newPendingAdmin), eta);\n    }\n\n    function add256(uint256 a, uint256 b) internal pure returns (uint) {\n        uint c = a + b;\n        require(c >= a, \"addition overflow\");\n        return c;\n    }\n\n    function sub256(uint256 a, uint256 b) internal pure returns (uint) {\n        require(b <= a, \"subtraction underflow\");\n        return a - b;\n    }\n\n    function getChainId() internal pure returns (uint) {\n//        uint chainId;\n//        assembly { chainId := chainid() }\n//        return chainId;\n        return uint(1);\n    }\n}\n\ninterface TimelockInterface {\n    function delay() external view returns (uint);\n    function GRACE_PERIOD() external view returns (uint);\n    function acceptAdmin() external;\n    function queuedTransactions(bytes32 hash) external view returns (bool);\n    function queueTransaction(address target, uint value, string calldata signature, bytes calldata data, uint eta) external returns (bytes32);\n    function cancelTransaction(address target, uint value, string calldata signature, bytes calldata data, uint eta) external;\n    function executeTransaction(address target, uint value, string calldata signature, bytes calldata data, uint eta) external payable returns (bytes memory);\n}\n\ninterface WURZInterface {\n    function getPriorVotes(address account, uint blockNumber) external view returns (uint96);\n\n    function voteFresh(address account, uint256 proposalId, bool support, uint256 value) external returns (bool);\n}\n",
  "sourcePath": "/Users/simtzujye/Desktop/hackathons/near-metabuild-hackathon-3/uruz-finance-near-protocol/contracts/Governance/GovernorAlpha.sol",
  "compiler": {
    "name": "solc",
    "version": "0.5.12+commit.7709ece9.Emscripten.clang"
  },
  "schemaVersion": "3.4.10",
  "updatedAt": "2022-11-17T11:59:06.355Z",
  "networkType": "ethereum",
  "devdoc": {
    "methods": {}
  },
  "userdoc": {
    "methods": {
      "proposalMaxOperations()": {
        "notice": "The maximum number of actions that can be included in a proposal"
      },
      "proposalThreshold()": {
        "notice": "The number of votes required in order for a voter to become a proposer"
      },
      "quorumVotes()": {
        "notice": "The number of votes in support of a proposal required in order for a quorum to be reached and for a vote to succeed"
      },
      "votingDelay()": {
        "notice": "The delay before voting on a proposal may take place, once proposed"
      },
      "votingPeriod()": {
        "notice": "The duration of voting on a proposal, in blocks"
      }
    }
  }
}