{
  "contractName": "JumpRateModelV2",
  "abi": [
    {
      "inputs": [
        {
          "internalType": "uint256",
          "name": "baseRatePerYear",
          "type": "uint256"
        },
        {
          "internalType": "uint256",
          "name": "multiplierPerYear",
          "type": "uint256"
        },
        {
          "internalType": "uint256",
          "name": "jumpMultiplierPerYear",
          "type": "uint256"
        },
        {
          "internalType": "uint256",
          "name": "kink_",
          "type": "uint256"
        },
        {
          "internalType": "address",
          "name": "owner_",
          "type": "address"
        }
      ],
      "payable": false,
      "stateMutability": "nonpayable",
      "type": "constructor"
    },
    {
      "anonymous": false,
      "inputs": [
        {
          "indexed": false,
          "internalType": "uint256",
          "name": "baseRatePerBlock",
          "type": "uint256"
        },
        {
          "indexed": false,
          "internalType": "uint256",
          "name": "multiplierPerBlock",
          "type": "uint256"
        },
        {
          "indexed": false,
          "internalType": "uint256",
          "name": "jumpMultiplierPerBlock",
          "type": "uint256"
        },
        {
          "indexed": false,
          "internalType": "uint256",
          "name": "kink",
          "type": "uint256"
        }
      ],
      "name": "NewInterestParams",
      "type": "event"
    },
    {
      "constant": true,
      "inputs": [],
      "name": "baseRatePerBlock",
      "outputs": [
        {
          "internalType": "uint256",
          "name": "",
          "type": "uint256"
        }
      ],
      "payable": false,
      "stateMutability": "view",
      "type": "function"
    },
    {
      "constant": true,
      "inputs": [],
      "name": "blocksPerYear",
      "outputs": [
        {
          "internalType": "uint256",
          "name": "",
          "type": "uint256"
        }
      ],
      "payable": false,
      "stateMutability": "view",
      "type": "function"
    },
    {
      "constant": true,
      "inputs": [
        {
          "internalType": "uint256",
          "name": "cash",
          "type": "uint256"
        },
        {
          "internalType": "uint256",
          "name": "borrows",
          "type": "uint256"
        },
        {
          "internalType": "uint256",
          "name": "reserves",
          "type": "uint256"
        },
        {
          "internalType": "uint256",
          "name": "reserveFactorMantissa",
          "type": "uint256"
        }
      ],
      "name": "getSupplyRate",
      "outputs": [
        {
          "internalType": "uint256",
          "name": "",
          "type": "uint256"
        }
      ],
      "payable": false,
      "stateMutability": "view",
      "type": "function"
    },
    {
      "constant": true,
      "inputs": [],
      "name": "isInterestRateModel",
      "outputs": [
        {
          "internalType": "bool",
          "name": "",
          "type": "bool"
        }
      ],
      "payable": false,
      "stateMutability": "view",
      "type": "function"
    },
    {
      "constant": true,
      "inputs": [],
      "name": "jumpMultiplierPerBlock",
      "outputs": [
        {
          "internalType": "uint256",
          "name": "",
          "type": "uint256"
        }
      ],
      "payable": false,
      "stateMutability": "view",
      "type": "function"
    },
    {
      "constant": true,
      "inputs": [],
      "name": "kink",
      "outputs": [
        {
          "internalType": "uint256",
          "name": "",
          "type": "uint256"
        }
      ],
      "payable": false,
      "stateMutability": "view",
      "type": "function"
    },
    {
      "constant": true,
      "inputs": [],
      "name": "multiplierPerBlock",
      "outputs": [
        {
          "internalType": "uint256",
          "name": "",
          "type": "uint256"
        }
      ],
      "payable": false,
      "stateMutability": "view",
      "type": "function"
    },
    {
      "constant": true,
      "inputs": [],
      "name": "owner",
      "outputs": [
        {
          "internalType": "address",
          "name": "",
          "type": "address"
        }
      ],
      "payable": false,
      "stateMutability": "view",
      "type": "function"
    },
    {
      "constant": false,
      "inputs": [
        {
          "internalType": "uint256",
          "name": "baseRatePerYear",
          "type": "uint256"
        },
        {
          "internalType": "uint256",
          "name": "multiplierPerYear",
          "type": "uint256"
        },
        {
          "internalType": "uint256",
          "name": "jumpMultiplierPerYear",
          "type": "uint256"
        },
        {
          "internalType": "uint256",
          "name": "kink_",
          "type": "uint256"
        }
      ],
      "name": "updateJumpRateModel",
      "outputs": [],
      "payable": false,
      "stateMutability": "nonpayable",
      "type": "function"
    },
    {
      "constant": true,
      "inputs": [
        {
          "internalType": "uint256",
          "name": "cash",
          "type": "uint256"
        },
        {
          "internalType": "uint256",
          "name": "borrows",
          "type": "uint256"
        },
        {
          "internalType": "uint256",
          "name": "reserves",
          "type": "uint256"
        }
      ],
      "name": "utilizationRate",
      "outputs": [
        {
          "internalType": "uint256",
          "name": "",
          "type": "uint256"
        }
      ],
      "payable": false,
      "stateMutability": "pure",
      "type": "function"
    },
    {
      "constant": true,
      "inputs": [
        {
          "internalType": "uint256",
          "name": "cash",
          "type": "uint256"
        },
        {
          "internalType": "uint256",
          "name": "borrows",
          "type": "uint256"
        },
        {
          "internalType": "uint256",
          "name": "reserves",
          "type": "uint256"
        }
      ],
      "name": "getBorrowRate",
      "outputs": [
        {
          "internalType": "uint256",
          "name": "",
          "type": "uint256"
        }
      ],
      "payable": false,
      "stateMutability": "view",
      "type": "function"
    }
  ],
  "bytecode": "0x60806040523480156200001157600080fd5b5060405162000b8238038062000b82833981810160405260a08110156200003757600080fd5b508051602082015160408301516060840151608090940151600080546001600160a01b0319166001600160a01b038316179055929391929091908484848484620000848585858562000094565b5050505050505050505062000312565b620000b162a06680856200018660201b620006511790919060201c565b60025562000109620000d362a0668083620001d9602090811b620005de17901c565b620000f5670de0b6b3a764000086620001d960201b620005de1790919060201c565b6200018660201b620006511790919060201c565b600155620001278262a0668062000186602090811b6200065117901c565b60038190556004829055600254600154604080519283526020830191909152818101929092526060810183905290517f6960ab234c7ef4b0c9197100f5393cfcde7c453ac910a27bd2000aa1dd4c068d9181900360800190a150505050565b6000620001d083836040518060400160405280601a81526020017f536166654d6174683a206469766973696f6e206279207a65726f0000000000008152506200025160201b60201c565b90505b92915050565b600082620001ea57506000620001d3565b82820282848281620001f857fe5b0414620001d0576040517f08c379a000000000000000000000000000000000000000000000000000000000815260040180806020018281038252602181526020018062000b616021913960400191505060405180910390fd5b60008183620002fb576040517f08c379a00000000000000000000000000000000000000000000000000000000081526004018080602001828103825283818151815260200191508051906020019080838360005b83811015620002bf578181015183820152602001620002a5565b50505050905090810190601f168015620002ed5780820380516001836020036101000a031916815260200191505b509250505060405180910390fd5b5060008385816200030857fe5b0495945050505050565b61083f80620003226000396000f3fe608060405234801561001057600080fd5b50600436106100c95760003560e01c80638da5cb5b11610081578063b9f9850a1161005b578063b9f9850a146101ef578063f14039de146101f7578063fd2da339146101ff576100c9565b80638da5cb5b14610187578063a385fb96146101b8578063b8168816146101c0576100c9565b80632191f92a116100b25780632191f92a1461013a5780636e71e2d8146101565780638726bb891461017f576100c9565b806315f24053146100ce5780632037f3e714610109575b600080fd5b6100f7600480360360608110156100e457600080fd5b5080359060208101359060400135610207565b60408051918252519081900360200190f35b6101386004803603608081101561011f57600080fd5b508035906020810135906040810135906060013561021e565b005b6101426102a0565b604080519115158252519081900360200190f35b6100f76004803603606081101561016c57600080fd5b50803590602081013590604001356102a5565b6100f76102fb565b61018f610301565b6040805173ffffffffffffffffffffffffffffffffffffffff9092168252519081900360200190f35b6100f761031d565b6100f7600480360360808110156101d657600080fd5b5080359060208101359060408101359060600135610324565b6100f76103a3565b6100f76103a9565b6100f76103af565b60006102148484846103b5565b90505b9392505050565b60005473ffffffffffffffffffffffffffffffffffffffff16331461028e576040517f08c379a00000000000000000000000000000000000000000000000000000000081526004018080602001828103825260268152602001806107e56026913960400191505060405180910390fd5b61029a8484848461047e565b50505050565b600181565b6000826102b457506000610217565b6102146102d7836102cb878763ffffffff61051f16565b9063ffffffff61059c16565b6102ef85670de0b6b3a764000063ffffffff6105de16565b9063ffffffff61065116565b60015481565b60005473ffffffffffffffffffffffffffffffffffffffff1681565b62a0668081565b60008061033f670de0b6b3a76400008463ffffffff61059c16565b9050600061034e8787876103b5565b9050600061036e670de0b6b3a76400006102ef848663ffffffff6105de16565b9050610397670de0b6b3a76400006102ef8361038b8c8c8c6102a5565b9063ffffffff6105de16565b98975050505050505050565b60035481565b60025481565b60045481565b6000806103c38585856102a5565b90506004548111610409576104016002546103f5670de0b6b3a76400006102ef600154866105de90919063ffffffff16565b9063ffffffff61051f16565b915050610217565b60006104346002546103f5670de0b6b3a76400006102ef6001546004546105de90919063ffffffff16565b9050600061044d6004548461059c90919063ffffffff16565b9050610474826103f5670de0b6b3a76400006102ef600354866105de90919063ffffffff16565b9350505050610217565b6104918462a0668063ffffffff61065116565b6002556104aa6102d762a066808363ffffffff6105de16565b6001556104c08262a0668063ffffffff61065116565b60038190556004829055600254600154604080519283526020830191909152818101929092526060810183905290517f6960ab234c7ef4b0c9197100f5393cfcde7c453ac910a27bd2000aa1dd4c068d9181900360800190a150505050565b60008282018381101561059357604080517f08c379a000000000000000000000000000000000000000000000000000000000815260206004820152601b60248201527f536166654d6174683a206164646974696f6e206f766572666c6f770000000000604482015290519081900360640190fd5b90505b92915050565b600061059383836040518060400160405280601f81526020017f536166654d6174683a207375627472616374696f6e20756e646572666c6f7700815250610693565b6000826105ed57506000610596565b828202828482816105fa57fe5b0414610593576040517f08c379a00000000000000000000000000000000000000000000000000000000081526004018080602001828103825260218152602001806107c46021913960400191505060405180910390fd5b600061059383836040518060400160405280601a81526020017f536166654d6174683a206469766973696f6e206279207a65726f000000000000815250610744565b6000818484111561073c576040517f08c379a00000000000000000000000000000000000000000000000000000000081526004018080602001828103825283818151815260200191508051906020019080838360005b838110156107015781810151838201526020016106e9565b50505050905090810190601f16801561072e5780820380516001836020036101000a031916815260200191505b509250505060405180910390fd5b505050900390565b600081836107ad576040517f08c379a00000000000000000000000000000000000000000000000000000000081526020600482018181528351602484015283519092839260449091019190850190808383600083156107015781810151838201526020016106e9565b5060008385816107b957fe5b049594505050505056fe536166654d6174683a206d756c7469706c69636174696f6e206f766572666c6f776f6e6c7920746865206f776e6572206d61792063616c6c20746869732066756e6374696f6e2ea265627a7a723158208d5d2e45189d5c66ec13c5a58a38063305d8b48b172cd4e6c3c60d0d709273b364736f6c634300050c0032536166654d6174683a206d756c7469706c69636174696f6e206f766572666c6f77",
  "source": "pragma solidity ^0.5.12;\n\nimport \"./BaseJumpRateModelV2.sol\";\nimport \"./InterestRateModel.sol\";\n\n\n/**\n  * @title Compound's JumpRateModel Contract V2 for V2 cTokens\n  * @author Arr00\n  * @notice Supports only for V2 cTokens\n  */\ncontract JumpRateModelV2 is InterestRateModel, BaseJumpRateModelV2 {\n\n    /**\n     * @notice Calculates the current borrow rate per block\n     * @param cash The amount of cash in the market\n     * @param borrows The amount of borrows in the market\n     * @param reserves The amount of reserves in the market\n     * @return The borrow rate percentage per block as a mantissa (scaled by 1e18)\n     */\n    function getBorrowRate(uint cash, uint borrows, uint reserves) external view returns (uint) {\n        return getBorrowRateInternal(cash, borrows, reserves);\n    }\n\n    constructor(uint baseRatePerYear, uint multiplierPerYear, uint jumpMultiplierPerYear, uint kink_, address owner_)\n    BaseJumpRateModelV2(baseRatePerYear, multiplierPerYear, jumpMultiplierPerYear, kink_, owner_) public {}\n}",
  "sourcePath": "/Users/simtzujye/Desktop/hackathons/near-metabuild-hackathon-3/uruz-finance-near-protocol/contracts/JumpRateModelV2.sol",
  "compiler": {
    "name": "solc",
    "version": "0.5.12+commit.7709ece9.Emscripten.clang"
  },
  "schemaVersion": "3.4.10",
  "updatedAt": "2022-11-17T06:44:37.765Z",
  "devdoc": {
    "author": "Arr00",
    "methods": {
      "getBorrowRate(uint256,uint256,uint256)": {
        "params": {
          "borrows": "The amount of borrows in the market",
          "cash": "The amount of cash in the market",
          "reserves": "The amount of reserves in the market"
        },
        "return": "The borrow rate percentage per block as a mantissa (scaled by 1e18)"
      },
      "getSupplyRate(uint256,uint256,uint256,uint256)": {
        "params": {
          "borrows": "The amount of borrows in the market",
          "cash": "The amount of cash in the market",
          "reserveFactorMantissa": "The current reserve factor for the market",
          "reserves": "The amount of reserves in the market"
        },
        "return": "The supply rate percentage per block as a mantissa (scaled by 1e18)"
      },
      "updateJumpRateModel(uint256,uint256,uint256,uint256)": {
        "params": {
          "baseRatePerYear": "The approximate target base APR, as a mantissa (scaled by 1e18)",
          "jumpMultiplierPerYear": "The multiplierPerBlock after hitting a specified utilization point",
          "kink_": "The utilization point at which the jump multiplier is applied",
          "multiplierPerYear": "The rate of increase in interest rate wrt utilization (scaled by 1e18)"
        }
      },
      "utilizationRate(uint256,uint256,uint256)": {
        "params": {
          "borrows": "The amount of borrows in the market",
          "cash": "The amount of cash in the market",
          "reserves": "The amount of reserves in the market (currently unused)"
        },
        "return": "The utilization rate as a mantissa between [0, 1e18]"
      }
    },
    "title": "Compound's JumpRateModel Contract V2 for V2 cTokens"
  },
  "userdoc": {
    "methods": {
      "getBorrowRate(uint256,uint256,uint256)": {
        "notice": "Calculates the current borrow rate per block"
      },
      "getSupplyRate(uint256,uint256,uint256,uint256)": {
        "notice": "Calculates the current supply rate per block"
      },
      "updateJumpRateModel(uint256,uint256,uint256,uint256)": {
        "notice": "Update the parameters of the interest rate model (only callable by owner, i.e. Timelock)"
      },
      "utilizationRate(uint256,uint256,uint256)": {
        "notice": "Calculates the utilization rate of the market: `borrows / (cash + borrows - reserves)`"
      }
    },
    "notice": "Supports only for V2 cTokens"
  }
}