{
  "contractName": "PriceOracleProxy",
  "abi": [
    {
      "inputs": [
        {
          "internalType": "address",
          "name": "guardian_",
          "type": "address"
        },
        {
          "internalType": "address",
          "name": "v1PriceOracle_",
          "type": "address"
        },
        {
          "internalType": "address",
          "name": "cEthAddress_",
          "type": "address"
        },
        {
          "internalType": "address",
          "name": "cUsdcAddress_",
          "type": "address"
        },
        {
          "internalType": "address",
          "name": "cSaiAddress_",
          "type": "address"
        },
        {
          "internalType": "address",
          "name": "cDaiAddress_",
          "type": "address"
        },
        {
          "internalType": "address",
          "name": "cUsdtAddress_",
          "type": "address"
        }
      ],
      "payable": false,
      "stateMutability": "nonpayable",
      "type": "constructor"
    },
    {
      "constant": true,
      "inputs": [],
      "name": "cDaiAddress",
      "outputs": [
        {
          "internalType": "address",
          "name": "",
          "type": "address"
        }
      ],
      "payable": false,
      "stateMutability": "view",
      "type": "function"
    },
    {
      "constant": true,
      "inputs": [],
      "name": "cEthAddress",
      "outputs": [
        {
          "internalType": "address",
          "name": "",
          "type": "address"
        }
      ],
      "payable": false,
      "stateMutability": "view",
      "type": "function"
    },
    {
      "constant": true,
      "inputs": [],
      "name": "cSaiAddress",
      "outputs": [
        {
          "internalType": "address",
          "name": "",
          "type": "address"
        }
      ],
      "payable": false,
      "stateMutability": "view",
      "type": "function"
    },
    {
      "constant": true,
      "inputs": [],
      "name": "cUsdcAddress",
      "outputs": [
        {
          "internalType": "address",
          "name": "",
          "type": "address"
        }
      ],
      "payable": false,
      "stateMutability": "view",
      "type": "function"
    },
    {
      "constant": true,
      "inputs": [],
      "name": "cUsdtAddress",
      "outputs": [
        {
          "internalType": "address",
          "name": "",
          "type": "address"
        }
      ],
      "payable": false,
      "stateMutability": "view",
      "type": "function"
    },
    {
      "constant": true,
      "inputs": [],
      "name": "daiOracleKey",
      "outputs": [
        {
          "internalType": "address",
          "name": "",
          "type": "address"
        }
      ],
      "payable": false,
      "stateMutability": "view",
      "type": "function"
    },
    {
      "constant": true,
      "inputs": [],
      "name": "guardian",
      "outputs": [
        {
          "internalType": "address",
          "name": "",
          "type": "address"
        }
      ],
      "payable": false,
      "stateMutability": "view",
      "type": "function"
    },
    {
      "constant": true,
      "inputs": [],
      "name": "isPriceOracle",
      "outputs": [
        {
          "internalType": "bool",
          "name": "",
          "type": "bool"
        }
      ],
      "payable": false,
      "stateMutability": "view",
      "type": "function"
    },
    {
      "constant": true,
      "inputs": [],
      "name": "saiPrice",
      "outputs": [
        {
          "internalType": "uint256",
          "name": "",
          "type": "uint256"
        }
      ],
      "payable": false,
      "stateMutability": "view",
      "type": "function"
    },
    {
      "constant": true,
      "inputs": [],
      "name": "usdcOracleKey",
      "outputs": [
        {
          "internalType": "address",
          "name": "",
          "type": "address"
        }
      ],
      "payable": false,
      "stateMutability": "view",
      "type": "function"
    },
    {
      "constant": true,
      "inputs": [],
      "name": "v1PriceOracle",
      "outputs": [
        {
          "internalType": "contract V1PriceOracleInterface",
          "name": "",
          "type": "address"
        }
      ],
      "payable": false,
      "stateMutability": "view",
      "type": "function"
    },
    {
      "constant": true,
      "inputs": [
        {
          "internalType": "contract CToken",
          "name": "cToken",
          "type": "address"
        }
      ],
      "name": "getUnderlyingPrice",
      "outputs": [
        {
          "internalType": "uint256",
          "name": "",
          "type": "uint256"
        }
      ],
      "payable": false,
      "stateMutability": "view",
      "type": "function"
    },
    {
      "constant": false,
      "inputs": [
        {
          "internalType": "uint256",
          "name": "price",
          "type": "uint256"
        }
      ],
      "name": "setSaiPrice",
      "outputs": [],
      "payable": false,
      "stateMutability": "nonpayable",
      "type": "function"
    }
  ],
  "bytecode": "0x608060405234801561001057600080fd5b506040516108ff3803806108ff833981810160405260e081101561003357600080fd5b508051602082015160408301516060840151608085015160a086015160c090960151600180546001600160a01b039788166001600160a01b0319918216179091556000805496881696821696909617909555600280549487169486169490941790935560038054928616928516929092179091556005805491851691841691909117905560068054948416948316949094179093556004805492909316911617905561081b806100e46000396000f3fe608060405234801561001057600080fd5b50600436106100df5760003560e01c8063a86b19441161008c578063f9c99e9c11610066578063f9c99e9c1461017b578063fc57d4df1461019a578063fe10c98d146101cd578063ff11439b146101d5576100df565b8063a86b194414610151578063e5ee0f6e1461016b578063f2c65bf914610173576100df565b80633e76f255116100bd5780633e76f25514610125578063452a93201461012d57806366331bba14610135576100df565b80631a3cb2e8146100e457806321b49128146101155780632ed58e151461011d575b600080fd5b6100ec6101dd565b6040805173ffffffffffffffffffffffffffffffffffffffff9092168252519081900360200190f35b6100ec6101f9565b6100ec610215565b6100ec610231565b6100ec610236565b61013d610231565b604080519115158252519081900360200190f35b610159610252565b60408051918252519081900360200190f35b6100ec610258565b6100ec61025d565b6101986004803603602081101561019157600080fd5b5035610279565b005b610159600480360360208110156101b057600080fd5b503573ffffffffffffffffffffffffffffffffffffffff166103d3565b6100ec61078b565b6100ec6107a7565b60045473ffffffffffffffffffffffffffffffffffffffff1681565b60055473ffffffffffffffffffffffffffffffffffffffff1681565b60025473ffffffffffffffffffffffffffffffffffffffff1681565b600181565b60015473ffffffffffffffffffffffffffffffffffffffff1681565b60075481565b600281565b60065473ffffffffffffffffffffffffffffffffffffffff1681565b60015473ffffffffffffffffffffffffffffffffffffffff1633146102e9576040517f08c379a00000000000000000000000000000000000000000000000000000000081526004018080602001828103825260238152602001806107c46023913960400191505060405180910390fd5b6007541561035857604080517f08c379a000000000000000000000000000000000000000000000000000000000815260206004820152601e60248201527f534149207072696365206d6179206f6e6c7920626520736574206f6e63650000604482015290519081900360640190fd5b67016345785d8a000081106103ce57604080517f08c379a000000000000000000000000000000000000000000000000000000000815260206004820152601b60248201527f534149207072696365206d757374206265203c20302e31204554480000000000604482015290519081900360640190fd5b600755565b600254600090829073ffffffffffffffffffffffffffffffffffffffff8083169116141561040c57670de0b6b3a7640000915050610786565b60035473ffffffffffffffffffffffffffffffffffffffff8281169116148061044f575060045473ffffffffffffffffffffffffffffffffffffffff8281169116145b156104fb57600054604080517f5e9a523c00000000000000000000000000000000000000000000000000000000815260016004820152905173ffffffffffffffffffffffffffffffffffffffff90921691635e9a523c91602480820192602092909190829003018186803b1580156104c657600080fd5b505afa1580156104da573d6000803e3d6000fd5b505050506040513d60208110156104f057600080fd5b505191506107869050565b60065473ffffffffffffffffffffffffffffffffffffffff8281169116141561059057600054604080517f5e9a523c00000000000000000000000000000000000000000000000000000000815260026004820152905173ffffffffffffffffffffffffffffffffffffffff90921691635e9a523c91602480820192602092909190829003018186803b1580156104c657600080fd5b60055473ffffffffffffffffffffffffffffffffffffffff8281169116141561066c5760006007541161066057600054604080517f5e9a523c00000000000000000000000000000000000000000000000000000000815260026004820152905173ffffffffffffffffffffffffffffffffffffffff90921691635e9a523c91602480820192602092909190829003018186803b15801561062f57600080fd5b505afa158015610643573d6000803e3d6000fd5b505050506040513d602081101561065957600080fd5b5051610664565b6007545b915050610786565b60008173ffffffffffffffffffffffffffffffffffffffff16636f307dc36040518163ffffffff1660e01b815260040160206040518083038186803b1580156106b457600080fd5b505afa1580156106c8573d6000803e3d6000fd5b505050506040513d60208110156106de57600080fd5b5051600054604080517f5e9a523c00000000000000000000000000000000000000000000000000000000815273ffffffffffffffffffffffffffffffffffffffff80851660048301529151939450911691635e9a523c91602480820192602092909190829003018186803b15801561075557600080fd5b505afa158015610769573d6000803e3d6000fd5b505050506040513d602081101561077f57600080fd5b5051925050505b919050565b60005473ffffffffffffffffffffffffffffffffffffffff1681565b60035473ffffffffffffffffffffffffffffffffffffffff168156fe6f6e6c7920677561726469616e206d6179207365742074686520534149207072696365a265627a7a72315820007f79e6a1e8b8a689a77581afe8003f2a1d46247785fb4ef7d336ff786667f264736f6c634300050c0032",
  "source": "pragma solidity ^0.5.12;\n\nimport \"./CErc20.sol\";\nimport \"./CToken.sol\";\nimport \"./PriceOracle.sol\";\n\ninterface V1PriceOracleInterface {\n    function assetPrices(address asset) external view returns (uint);\n}\n\ncontract PriceOracleProxy is PriceOracle {\n    /// @notice Indicator that this is a PriceOracle contract (for inspection)\n    bool public constant isPriceOracle = true;\n\n    /// @notice The v1 price oracle, which will continue to serve prices for v1 assets\n    V1PriceOracleInterface public v1PriceOracle;\n\n    /// @notice Address of the guardian, which may set the SAI price once\n    address public guardian;\n\n    /// @notice Address of the cEther contract, which has a constant price\n    address public cEthAddress;\n\n    /// @notice Address of the cUSDC contract, which we hand pick a key for\n    address public cUsdcAddress;\n\n    /// @notice Address of the cUSDT contract, which uses the cUSDC price\n    address public cUsdtAddress;\n\n    /// @notice Address of the cSAI contract, which may have its price set\n    address public cSaiAddress;\n\n    /// @notice Address of the cDAI contract, which we hand pick a key for\n    address public cDaiAddress;\n\n    /// @notice Handpicked key for USDC\n    address public constant usdcOracleKey = address(1);\n\n    /// @notice Handpicked key for DAI\n    address public constant daiOracleKey = address(2);\n\n    /// @notice Frozen SAI price (or 0 if not set yet)\n    uint public saiPrice;\n\n    /**\n     * @param guardian_ The address of the guardian, which may set the SAI price once\n     * @param v1PriceOracle_ The address of the v1 price oracle, which will continue to operate and hold prices for collateral assets\n     * @param cEthAddress_ The address of cETH, which will return a constant 1e18, since all prices relative to ether\n     * @param cUsdcAddress_ The address of cUSDC, which will be read from a special oracle key\n     * @param cSaiAddress_ The address of cSAI, which may be read directly from storage\n     * @param cDaiAddress_ The address of cDAI, which will be read from a special oracle key\n     * @param cUsdtAddress_ The address of cUSDT, which uses the cUSDC price\n     */\n    constructor(address guardian_,\n                address v1PriceOracle_,\n                address cEthAddress_,\n                address cUsdcAddress_,\n                address cSaiAddress_,\n                address cDaiAddress_,\n                address cUsdtAddress_) public {\n        guardian = guardian_;\n        v1PriceOracle = V1PriceOracleInterface(v1PriceOracle_);\n\n        cEthAddress = cEthAddress_;\n        cUsdcAddress = cUsdcAddress_;\n        cSaiAddress = cSaiAddress_;\n        cDaiAddress = cDaiAddress_;\n        cUsdtAddress = cUsdtAddress_;\n    }\n\n    /**\n     * @notice Get the underlying price of a listed cToken asset\n     * @param cToken The cToken to get the underlying price of\n     * @return The underlying asset price mantissa (scaled by 1e18)\n     */\n    function getUnderlyingPrice(CToken cToken) public view returns (uint) {\n        address cTokenAddress = address(cToken);\n\n        if (cTokenAddress == cEthAddress) {\n            // ether always worth 1\n            return 1e18;\n        }\n\n        if (cTokenAddress == cUsdcAddress || cTokenAddress == cUsdtAddress) {\n            return v1PriceOracle.assetPrices(usdcOracleKey);\n        }\n\n        if (cTokenAddress == cDaiAddress) {\n            return v1PriceOracle.assetPrices(daiOracleKey);\n        }\n\n        if (cTokenAddress == cSaiAddress) {\n            // use the frozen SAI price if set, otherwise use the DAI price\n            return saiPrice > 0 ? saiPrice : v1PriceOracle.assetPrices(daiOracleKey);\n        }\n\n        // otherwise just read from v1 oracle\n        address underlying = CErc20(cTokenAddress).underlying();\n        return v1PriceOracle.assetPrices(underlying);\n    }\n\n    /**\n     * @notice Set the price of SAI, permanently\n     * @param price The price for SAI\n     */\n    function setSaiPrice(uint price) public {\n        require(msg.sender == guardian, \"only guardian may set the SAI price\");\n        require(saiPrice == 0, \"SAI price may only be set once\");\n        require(price < 0.1e18, \"SAI price must be < 0.1 ETH\");\n        saiPrice = price;\n    }\n}\n",
  "sourcePath": "/Users/simtzujye/Desktop/hackathons/near-metabuild-hackathon-3/uruz-finance-near-protocol/contracts/PriceOracleProxy.sol",
  "compiler": {
    "name": "solc",
    "version": "0.5.12+commit.7709ece9.Emscripten.clang"
  },
  "schemaVersion": "3.4.10",
  "updatedAt": "2022-11-17T11:52:41.144Z",
  "networkType": "ethereum",
  "devdoc": {
    "methods": {
      "constructor": {
        "params": {
          "cDaiAddress_": "The address of cDAI, which will be read from a special oracle key",
          "cEthAddress_": "The address of cETH, which will return a constant 1e18, since all prices relative to ether",
          "cSaiAddress_": "The address of cSAI, which may be read directly from storage",
          "cUsdcAddress_": "The address of cUSDC, which will be read from a special oracle key",
          "cUsdtAddress_": "The address of cUSDT, which uses the cUSDC price",
          "guardian_": "The address of the guardian, which may set the SAI price once",
          "v1PriceOracle_": "The address of the v1 price oracle, which will continue to operate and hold prices for collateral assets"
        }
      },
      "getUnderlyingPrice(address)": {
        "params": {
          "cToken": "The cToken to get the underlying price of"
        },
        "return": "The underlying asset price mantissa (scaled by 1e18)"
      },
      "setSaiPrice(uint256)": {
        "params": {
          "price": "The price for SAI"
        }
      }
    }
  },
  "userdoc": {
    "methods": {
      "getUnderlyingPrice(address)": {
        "notice": "Get the underlying price of a listed cToken asset"
      },
      "setSaiPrice(uint256)": {
        "notice": "Set the price of SAI, permanently"
      }
    }
  }
}