{
  "contractName": "UnitrollerAdminStorage",
  "abi": [
    {
      "constant": true,
      "inputs": [],
      "name": "admin",
      "outputs": [
        {
          "internalType": "address",
          "name": "",
          "type": "address"
        }
      ],
      "payable": false,
      "stateMutability": "view",
      "type": "function"
    },
    {
      "constant": true,
      "inputs": [],
      "name": "comptrollerImplementation",
      "outputs": [
        {
          "internalType": "address",
          "name": "",
          "type": "address"
        }
      ],
      "payable": false,
      "stateMutability": "view",
      "type": "function"
    },
    {
      "constant": true,
      "inputs": [],
      "name": "pendingAdmin",
      "outputs": [
        {
          "internalType": "address",
          "name": "",
          "type": "address"
        }
      ],
      "payable": false,
      "stateMutability": "view",
      "type": "function"
    },
    {
      "constant": true,
      "inputs": [],
      "name": "pendingComptrollerImplementation",
      "outputs": [
        {
          "internalType": "address",
          "name": "",
          "type": "address"
        }
      ],
      "payable": false,
      "stateMutability": "view",
      "type": "function"
    }
  ],
  "bytecode": "0x608060405234801561001057600080fd5b50610131806100206000396000f3fe6080604052348015600f57600080fd5b506004361060465760003560e01c80632678224714604b578063bb82aa5e14607a578063dcfbc0c7146080578063f851a440146086575b600080fd5b6051608c565b6040805173ffffffffffffffffffffffffffffffffffffffff9092168252519081900360200190f35b605160a8565b605160c4565b605160e0565b60015473ffffffffffffffffffffffffffffffffffffffff1681565b60025473ffffffffffffffffffffffffffffffffffffffff1681565b60035473ffffffffffffffffffffffffffffffffffffffff1681565b60005473ffffffffffffffffffffffffffffffffffffffff168156fea265627a7a72315820e3843425503d7604749d14a19d8d3bdfc28472743683c94213aecc47de326f2e64736f6c634300050c0032",
  "source": "pragma solidity ^0.5.12;\n\nimport \"./CToken.sol\";\nimport \"./PriceOracle.sol\";\n\ncontract UnitrollerAdminStorage {\n    /**\n    * @notice Administrator for this contract\n    */\n    address public admin;\n\n    /**\n    * @notice Pending administrator for this contract\n    */\n    address public pendingAdmin;\n\n    /**\n    * @notice Active brains of Unitroller\n    */\n    address public comptrollerImplementation;\n\n    /**\n    * @notice Pending brains of Unitroller\n    */\n    address public pendingComptrollerImplementation;\n}\n\ncontract ComptrollerV1Storage is UnitrollerAdminStorage {\n\n    /**\n     * @notice Oracle which gives the price of any given asset\n     */\n    PriceOracle public oracle;\n\n    /**\n     * @notice Multiplier used to calculate the maximum repayAmount when liquidating a borrow\n     */\n    uint public closeFactorMantissa;\n\n    /**\n     * @notice Multiplier representing the discount on collateral that a liquidator receives\n     */\n    uint public liquidationIncentiveMantissa;\n\n    /**\n     * @notice Max number of assets a single account can participate in (borrow or use as collateral)\n     */\n    uint public maxAssets;\n\n    /**\n     * @notice Per-account mapping of \"assets you are in\", capped by maxAssets\n     */\n    mapping(address => CToken[]) public accountAssets;\n\n}\n\ncontract ComptrollerV2Storage is ComptrollerV1Storage {\n    struct Market {\n        /// @notice Whether or not this market is listed\n        bool isListed;\n\n        /**\n         * @notice Multiplier representing the most one can borrow against their collateral in this market.\n         *  For instance, 0.9 to allow borrowing 90% of collateral value.\n         *  Must be between 0 and 1, and stored as a mantissa.\n         */\n        uint collateralFactorMantissa;\n\n        /// @notice Per-market mapping of \"accounts in this asset\"\n        mapping(address => bool) accountMembership;\n\n        /// @notice Whether or not this market receives COMP\n        bool isComped;\n    }\n\n    /**\n     * @notice Official mapping of cTokens -> Market metadata\n     * @dev Used e.g. to determine if a market is supported\n     */\n    mapping(address => Market) public markets;\n\n\n    /**\n     * @notice The Pause Guardian can pause certain actions as a safety mechanism.\n     *  Actions which allow users to remove their own assets cannot be paused.\n     *  Liquidation / seizing / transfer can only be paused globally, not by market.\n     */\n    address public pauseGuardian;\n    bool public _mintGuardianPaused;\n    bool public _borrowGuardianPaused;\n    bool public transferGuardianPaused;\n    bool public seizeGuardianPaused;\n    mapping(address => bool) public mintGuardianPaused;\n    mapping(address => bool) public borrowGuardianPaused;\n}\n\ncontract ComptrollerV3Storage is ComptrollerV2Storage {\n    struct CompMarketState {\n        /// @notice The market's last updated compBorrowIndex or compSupplyIndex\n        uint224 index;\n\n        /// @notice The block number the index was last updated at\n        uint32 block;\n    }\n\n    /// @notice A list of all markets\n    CToken[] public allMarkets;\n\n    /// @notice The rate at which the flywheel distributes COMP, per block\n    uint public compRate;\n    /// @notice\n    address internal compAddress;\n    /// @notice The portion of compRate that each market currently receives\n    mapping(address => uint) public compSpeeds;\n\n    /// @notice The COMP market supply state for each market\n    mapping(address => CompMarketState) public compSupplyState;\n\n    /// @notice The COMP market borrow state for each market\n    mapping(address => CompMarketState) public compBorrowState;\n\n    /// @notice The COMP borrow index for each market for each supplier as of the last time they accrued COMP\n    mapping(address => mapping(address => uint)) public compSupplierIndex;\n\n    /// @notice The COMP borrow index for each market for each borrower as of the last time they accrued COMP\n    mapping(address => mapping(address => uint)) public compBorrowerIndex;\n\n    /// @notice The COMP accrued but not yet transferred to each user\n    mapping(address => uint) public compAccrued;\n}\n",
  "sourcePath": "/Users/simtzujye/Desktop/hackathons/near-metabuild-hackathon-3/uruz-finance-near-protocol/contracts/ComptrollerStorage.sol",
  "compiler": {
    "name": "solc",
    "version": "0.5.12+commit.7709ece9.Emscripten.clang"
  },
  "schemaVersion": "3.4.10",
  "updatedAt": "2022-11-17T06:44:43.526Z",
  "devdoc": {
    "methods": {}
  },
  "userdoc": {
    "methods": {}
  }
}