{
  "contractName": "Unitroller",
  "abi": [
    {
      "inputs": [],
      "payable": false,
      "stateMutability": "nonpayable",
      "type": "constructor"
    },
    {
      "anonymous": false,
      "inputs": [
        {
          "indexed": false,
          "internalType": "uint256",
          "name": "error",
          "type": "uint256"
        },
        {
          "indexed": false,
          "internalType": "uint256",
          "name": "info",
          "type": "uint256"
        },
        {
          "indexed": false,
          "internalType": "uint256",
          "name": "detail",
          "type": "uint256"
        }
      ],
      "name": "Failure",
      "type": "event"
    },
    {
      "anonymous": false,
      "inputs": [
        {
          "indexed": false,
          "internalType": "address",
          "name": "oldAdmin",
          "type": "address"
        },
        {
          "indexed": false,
          "internalType": "address",
          "name": "newAdmin",
          "type": "address"
        }
      ],
      "name": "NewAdmin",
      "type": "event"
    },
    {
      "anonymous": false,
      "inputs": [
        {
          "indexed": false,
          "internalType": "address",
          "name": "oldImplementation",
          "type": "address"
        },
        {
          "indexed": false,
          "internalType": "address",
          "name": "newImplementation",
          "type": "address"
        }
      ],
      "name": "NewImplementation",
      "type": "event"
    },
    {
      "anonymous": false,
      "inputs": [
        {
          "indexed": false,
          "internalType": "address",
          "name": "oldPendingAdmin",
          "type": "address"
        },
        {
          "indexed": false,
          "internalType": "address",
          "name": "newPendingAdmin",
          "type": "address"
        }
      ],
      "name": "NewPendingAdmin",
      "type": "event"
    },
    {
      "anonymous": false,
      "inputs": [
        {
          "indexed": false,
          "internalType": "address",
          "name": "oldPendingImplementation",
          "type": "address"
        },
        {
          "indexed": false,
          "internalType": "address",
          "name": "newPendingImplementation",
          "type": "address"
        }
      ],
      "name": "NewPendingImplementation",
      "type": "event"
    },
    {
      "payable": true,
      "stateMutability": "payable",
      "type": "fallback"
    },
    {
      "constant": true,
      "inputs": [],
      "name": "admin",
      "outputs": [
        {
          "internalType": "address",
          "name": "",
          "type": "address"
        }
      ],
      "payable": false,
      "stateMutability": "view",
      "type": "function"
    },
    {
      "constant": true,
      "inputs": [],
      "name": "comptrollerImplementation",
      "outputs": [
        {
          "internalType": "address",
          "name": "",
          "type": "address"
        }
      ],
      "payable": false,
      "stateMutability": "view",
      "type": "function"
    },
    {
      "constant": true,
      "inputs": [],
      "name": "pendingAdmin",
      "outputs": [
        {
          "internalType": "address",
          "name": "",
          "type": "address"
        }
      ],
      "payable": false,
      "stateMutability": "view",
      "type": "function"
    },
    {
      "constant": true,
      "inputs": [],
      "name": "pendingComptrollerImplementation",
      "outputs": [
        {
          "internalType": "address",
          "name": "",
          "type": "address"
        }
      ],
      "payable": false,
      "stateMutability": "view",
      "type": "function"
    },
    {
      "constant": false,
      "inputs": [
        {
          "internalType": "address",
          "name": "newPendingImplementation",
          "type": "address"
        }
      ],
      "name": "_setPendingImplementation",
      "outputs": [
        {
          "internalType": "uint256",
          "name": "",
          "type": "uint256"
        }
      ],
      "payable": false,
      "stateMutability": "nonpayable",
      "type": "function"
    },
    {
      "constant": false,
      "inputs": [],
      "name": "_acceptImplementation",
      "outputs": [
        {
          "internalType": "uint256",
          "name": "",
          "type": "uint256"
        }
      ],
      "payable": false,
      "stateMutability": "nonpayable",
      "type": "function"
    },
    {
      "constant": false,
      "inputs": [
        {
          "internalType": "address",
          "name": "newPendingAdmin",
          "type": "address"
        }
      ],
      "name": "_setPendingAdmin",
      "outputs": [
        {
          "internalType": "uint256",
          "name": "",
          "type": "uint256"
        }
      ],
      "payable": false,
      "stateMutability": "nonpayable",
      "type": "function"
    },
    {
      "constant": false,
      "inputs": [],
      "name": "_acceptAdmin",
      "outputs": [
        {
          "internalType": "uint256",
          "name": "",
          "type": "uint256"
        }
      ],
      "payable": false,
      "stateMutability": "nonpayable",
      "type": "function"
    }
  ],
  "bytecode": "0x608060405234801561001057600080fd5b50600080546001600160a01b0319163317905561073b806100326000396000f3fe60806040526004361061007b5760003560e01c8063dcfbc0c71161004e578063dcfbc0c7146101c5578063e992a041146101da578063e9c714f21461021a578063f851a4401461022f5761007b565b8063267822471461010b578063b71d1a0c14610149578063bb82aa5e1461019b578063c1e80334146101b0575b60025460405160009173ffffffffffffffffffffffffffffffffffffffff1690829036908083838082843760405192019450600093509091505080830381855af49150503d80600081146100eb576040519150601f19603f3d011682016040523d82523d6000602084013e6100f0565b606091505b505090506040513d6000823e818015610107573d82f35b3d82fd5b34801561011757600080fd5b50610120610244565b6040805173ffffffffffffffffffffffffffffffffffffffff9092168252519081900360200190f35b34801561015557600080fd5b506101896004803603602081101561016c57600080fd5b503573ffffffffffffffffffffffffffffffffffffffff16610260565b60408051918252519081900360200190f35b3480156101a757600080fd5b50610120610323565b3480156101bc57600080fd5b5061018961033f565b3480156101d157600080fd5b50610120610486565b3480156101e657600080fd5b50610189600480360360208110156101fd57600080fd5b503573ffffffffffffffffffffffffffffffffffffffff166104a2565b34801561022657600080fd5b50610189610558565b34801561023b57600080fd5b5061012061067d565b60015473ffffffffffffffffffffffffffffffffffffffff1681565b6000805473ffffffffffffffffffffffffffffffffffffffff1633146102935761028c6001600e610699565b905061031e565b6001805473ffffffffffffffffffffffffffffffffffffffff8481167fffffffffffffffffffffffff0000000000000000000000000000000000000000831681179093556040805191909216808252602082019390935281517fca4f2f25d0898edd99413412fb94012f9e54ec8142f9b093e7720646a95b16a9929181900390910190a160005b9150505b919050565b60025473ffffffffffffffffffffffffffffffffffffffff1681565b60035460009073ffffffffffffffffffffffffffffffffffffffff163314158061037f575060035473ffffffffffffffffffffffffffffffffffffffff16155b156103965761038f600180610699565b9050610483565b600280546003805473ffffffffffffffffffffffffffffffffffffffff8082167fffffffffffffffffffffffff000000000000000000000000000000000000000080861682179687905590921690925560408051938316808552949092166020840152815190927fd604de94d45953f9138079ec1b82d533cb2160c906d1076d1f7ed54befbca97a92908290030190a16003546040805173ffffffffffffffffffffffffffffffffffffffff8085168252909216602083015280517fe945ccee5d701fc83f9b8aa8ca94ea4219ec1fcbd4f4cab4f0ea57c5c3e1d8159281900390910190a160005b925050505b90565b60035473ffffffffffffffffffffffffffffffffffffffff1681565b6000805473ffffffffffffffffffffffffffffffffffffffff1633146104ce5761028c6001600f610699565b6003805473ffffffffffffffffffffffffffffffffffffffff8481167fffffffffffffffffffffffff0000000000000000000000000000000000000000831617928390556040805192821680845293909116602083015280517fe945ccee5d701fc83f9b8aa8ca94ea4219ec1fcbd4f4cab4f0ea57c5c3e1d8159281900390910190a1600061031a565b60015460009073ffffffffffffffffffffffffffffffffffffffff1633141580610580575033155b156105915761038f60016000610699565b600080546001805473ffffffffffffffffffffffffffffffffffffffff8082167fffffffffffffffffffffffff000000000000000000000000000000000000000080861682179687905590921690925560408051938316808552949092166020840152815190927ff9ffabca9c8276e99321725bcb43fb076a6c66a54b7f21c4e8146d8519b417dc92908290030190a16001546040805173ffffffffffffffffffffffffffffffffffffffff8085168252909216602083015280517fca4f2f25d0898edd99413412fb94012f9e54ec8142f9b093e7720646a95b16a99281900390910190a1600061047e565b60005473ffffffffffffffffffffffffffffffffffffffff1681565b60007f45b96fe442630264581b197e84bbada861235052c5a1aadfff9ea4e40a969aa08360118111156106c857fe5b8360138111156106d457fe5b604080519283526020830191909152600082820152519081900360600190a18260118111156106ff57fe5b939250505056fea265627a7a72315820ec1c79c4a128817639d4825719b5417e36fff844b5d35f3c412f8183baa6ca3564736f6c634300050c0032",
  "source": "pragma solidity ^0.5.12;\n\nimport \"./ErrorReporter.sol\";\nimport \"./ComptrollerStorage.sol\";\n/**\n * @title ComptrollerCore\n * @dev Storage for the comptroller is at this address, while execution is delegated to the `comptrollerImplementation`.\n * CTokens should reference this contract as their comptroller.\n */\ncontract Unitroller is UnitrollerAdminStorage, ComptrollerErrorReporter {\n\n    /**\n      * @notice Emitted when pendingComptrollerImplementation is changed\n      */\n    event NewPendingImplementation(address oldPendingImplementation, address newPendingImplementation);\n\n    /**\n      * @notice Emitted when pendingComptrollerImplementation is accepted, which means comptroller implementation is updated\n      */\n    event NewImplementation(address oldImplementation, address newImplementation);\n\n    /**\n      * @notice Emitted when pendingAdmin is changed\n      */\n    event NewPendingAdmin(address oldPendingAdmin, address newPendingAdmin);\n\n    /**\n      * @notice Emitted when pendingAdmin is accepted, which means admin is updated\n      */\n    event NewAdmin(address oldAdmin, address newAdmin);\n\n    constructor() public {\n        // Set admin to caller\n        admin = msg.sender;\n    }\n\n    /*** Admin Functions ***/\n    function _setPendingImplementation(address newPendingImplementation) public returns (uint) {\n\n        if (msg.sender != admin) {\n            return fail(Error.UNAUTHORIZED, FailureInfo.SET_PENDING_IMPLEMENTATION_OWNER_CHECK);\n        }\n\n        address oldPendingImplementation = pendingComptrollerImplementation;\n\n        pendingComptrollerImplementation = newPendingImplementation;\n\n        emit NewPendingImplementation(oldPendingImplementation, pendingComptrollerImplementation);\n\n        return uint(Error.NO_ERROR);\n    }\n\n    /**\n    * @notice Accepts new implementation of comptroller. msg.sender must be pendingImplementation\n    * @dev Admin function for new implementation to accept it's role as implementation\n    * @return uint 0=success, otherwise a failure (see ErrorReporter.sol for details)\n    */\n    function _acceptImplementation() public returns (uint) {\n        // Check caller is pendingImplementation and pendingImplementation ≠ address(0)\n        if (msg.sender != pendingComptrollerImplementation || pendingComptrollerImplementation == address(0)) {\n            return fail(Error.UNAUTHORIZED, FailureInfo.ACCEPT_PENDING_IMPLEMENTATION_ADDRESS_CHECK);\n        }\n\n        // Save current values for inclusion in log\n        address oldImplementation = comptrollerImplementation;\n        address oldPendingImplementation = pendingComptrollerImplementation;\n\n        comptrollerImplementation = pendingComptrollerImplementation;\n\n        pendingComptrollerImplementation = address(0);\n\n        emit NewImplementation(oldImplementation, comptrollerImplementation);\n        emit NewPendingImplementation(oldPendingImplementation, pendingComptrollerImplementation);\n\n        return uint(Error.NO_ERROR);\n    }\n\n\n    /**\n      * @notice Begins transfer of admin rights. The newPendingAdmin must call `_acceptAdmin` to finalize the transfer.\n      * @dev Admin function to begin change of admin. The newPendingAdmin must call `_acceptAdmin` to finalize the transfer.\n      * @param newPendingAdmin New pending admin.\n      * @return uint 0=success, otherwise a failure (see ErrorReporter.sol for details)\n      */\n    function _setPendingAdmin(address newPendingAdmin) public returns (uint) {\n        // Check caller = admin\n        if (msg.sender != admin) {\n            return fail(Error.UNAUTHORIZED, FailureInfo.SET_PENDING_ADMIN_OWNER_CHECK);\n        }\n\n        // Save current value, if any, for inclusion in log\n        address oldPendingAdmin = pendingAdmin;\n\n        // Store pendingAdmin with value newPendingAdmin\n        pendingAdmin = newPendingAdmin;\n\n        // Emit NewPendingAdmin(oldPendingAdmin, newPendingAdmin)\n        emit NewPendingAdmin(oldPendingAdmin, newPendingAdmin);\n\n        return uint(Error.NO_ERROR);\n    }\n\n    /**\n      * @notice Accepts transfer of admin rights. msg.sender must be pendingAdmin\n      * @dev Admin function for pending admin to accept role and update admin\n      * @return uint 0=success, otherwise a failure (see ErrorReporter.sol for details)\n      */\n    function _acceptAdmin() public returns (uint) {\n        // Check caller is pendingAdmin and pendingAdmin ≠ address(0)\n        if (msg.sender != pendingAdmin || msg.sender == address(0)) {\n            return fail(Error.UNAUTHORIZED, FailureInfo.ACCEPT_ADMIN_PENDING_ADMIN_CHECK);\n        }\n\n        // Save current values for inclusion in log\n        address oldAdmin = admin;\n        address oldPendingAdmin = pendingAdmin;\n\n        // Store admin with value pendingAdmin\n        admin = pendingAdmin;\n\n        // Clear the pending value\n        pendingAdmin = address(0);\n\n        emit NewAdmin(oldAdmin, admin);\n        emit NewPendingAdmin(oldPendingAdmin, pendingAdmin);\n\n        return uint(Error.NO_ERROR);\n    }\n\n    /**\n     * @dev Delegates execution to an implementation contract.\n     * It returns to the external caller whatever the implementation returns\n     * or forwards reverts.\n     */\n    function () payable external {\n        // delegate all other functions to current implementation\n        (bool success, ) = comptrollerImplementation.delegatecall(msg.data);\n\n        assembly {\n              let free_mem_ptr := mload(0x40)\n              returndatacopy(free_mem_ptr, 0, returndatasize)\n\n              switch success\n              case 0 { revert(free_mem_ptr, returndatasize) }\n              default { return(free_mem_ptr, returndatasize) }\n        }\n    }\n}\n",
  "sourcePath": "/Users/simtzujye/Desktop/hackathons/near-metabuild-hackathon-3/uruz-finance-near-protocol/contracts/Unitroller.sol",
  "compiler": {
    "name": "solc",
    "version": "0.5.12+commit.7709ece9.Emscripten.clang"
  },
  "schemaVersion": "3.4.10",
  "updatedAt": "2022-11-17T06:53:52.671Z",
  "networkType": "ethereum",
  "devdoc": {
    "details": "Storage for the comptroller is at this address, while execution is delegated to the `comptrollerImplementation`. CTokens should reference this contract as their comptroller.",
    "methods": {
      "_acceptAdmin()": {
        "details": "Admin function for pending admin to accept role and update admin",
        "return": "uint 0=success, otherwise a failure (see ErrorReporter.sol for details)"
      },
      "_acceptImplementation()": {
        "details": "Admin function for new implementation to accept it's role as implementation",
        "return": "uint 0=success, otherwise a failure (see ErrorReporter.sol for details)"
      },
      "_setPendingAdmin(address)": {
        "details": "Admin function to begin change of admin. The newPendingAdmin must call `_acceptAdmin` to finalize the transfer.",
        "params": {
          "newPendingAdmin": "New pending admin."
        },
        "return": "uint 0=success, otherwise a failure (see ErrorReporter.sol for details)"
      }
    },
    "title": "ComptrollerCore"
  },
  "userdoc": {
    "methods": {
      "_acceptAdmin()": {
        "notice": "Accepts transfer of admin rights. msg.sender must be pendingAdmin"
      },
      "_acceptImplementation()": {
        "notice": "Accepts new implementation of comptroller. msg.sender must be pendingImplementation"
      },
      "_setPendingAdmin(address)": {
        "notice": "Begins transfer of admin rights. The newPendingAdmin must call `_acceptAdmin` to finalize the transfer."
      },
      "_setPendingImplementation(address)": {
        "notice": "* Admin Functions **"
      }
    }
  }
}